:020000040800F2
:10000000F02100203902000891050008EB010008EA
:100010008D0500081D030008E11000080000000025
:100020000000000000000000000000003D0B000880
:10003000A30300080000000073010008510C000831
:10004000530200085302000853020008530200083C
:10005000530200085302000853020008530200082C
:10006000530200085302000853020008530200081C
:10007000530200085302000853020008530200080C
:1000800053020008530200085302000853020008FC
:1000900053020008530200085302000853020008EC
:1000A00053020008530200085302000853020008DC
:1000B000FD0C000853020008530200085302000818
:1000C00053020008530200085302000853020008BC
:1000D00053020008A90D000853020008530200084B
:1000E000530200085302000853020008530200089C
:1000F000530200085302000853020008530200088C
:10010000530200085302000853020008530200087B
:10011000530200085302000853020008530200086B
:10012000530200085302000853020008530200085B
:10013000DFF80CD000F0AEF8004800470F030008CD
:10014000F0210020EFF3108072B6704780F3108822
:100150007047334A1368012B04D04FF0010313603A
:10016000304A1060304A116030484FF080510160D1
:100170007047EFF3108272B62948016891B14FF0D1
:10018000000101602748016829B1EFF3098121E9E5
:10019000F00F00680160244909680968B1E8F00FB0
:1001A00081F3098882F310884EF0040E70471E49CF
:1001B00008601C494FF00000086019494FF0010029
:1001C00008601B484FF47F01D0F8002041EA02018B
:1001D000016016484FF080510160164800680068C1
:1001E00080F3088861B662B670471EF0040F0CBF3A
:1001F000EFF30880EFF3098020E9F00F40F804EDF9
:100200001EF0040F0CBF80F3088880F3098800B546
:1002100001F044FD5DF804EB4EF0040E7047000061
:10022000BC000020B4000020B800002004ED00E075
:1002300020ED00E008ED00E0064880470648004752
:10024000FEE7FEE7FEE7FEE7FEE7FEE7FEE7FEE786
:10025000FEE7FEE79D0C000831010008D2B201E084
:1002600000F8012B491EFBD270470022F6E710B5BB
:1002700013460A4604461946FFF7F0FF204610BD14
:10028000034611F8012B00F8012B002AF9D118467A
:1002900070470000064C074D06E0E06840F001039F
:1002A00094E8070098471034AC42F6D3FFF744FFB8
:1002B00094420008B442000870B58C1810F8015B35
:1002C00015F0070301D110F8013B2A1106D110F8EF
:1002D000012B03E010F8016B01F8016B5B1EF9D1F3
:1002E0002B0705D40023521E0DD401F8013BFAE779
:1002F00010F8013BCB1A921C03E013F8015B01F8E4
:10030000015B521EF9D5A142D8D3002070BD10B5B3
:10031000FFF718FF03F0E2F8002010BD00BFFEE772
:1003200000F0805111B10349086001E002494860C2
:1003300070470000040402400000024021B102683E
:1003400042F00102026004E002684FF6FE731A40B8
:10035000026070471AB103680B43036002E0036850
:100360008B430360704710B50022026847F6F073B4
:100370009A430C6A8B6823430C6923434C692343DB
:100380008C692343CC6923434C6A23438C6A2343FF
:100390001A430260CB6843600B6883604B68C3609C
:1003A00010BD70472DE9F0410246002500260020CF
:1003B00000230024002791F803C00CF00F0591F8EA
:1003C00003C00CF0100CBCF1000F03D091F802C078
:1003D0004CEA050591F800C0BCF1000F31D014685B
:1003E00000202BE04FF0010C0CFA00F3B1F800C034
:1003F0000CEA03069E4220D183004FF00F0C0CFA4A
:1004000003F7BC4305FA03FC4CEA040491F803C06B
:10041000BCF1280F06D14FF0010C0CFA00FCC2F819
:1004200014C00AE091F803C0BCF1480F05D14FF0A9
:10043000010C0CFA00FCC2F810C0401C0828D1D3F3
:100440001460B1F800C0BCF1FF0F34DD5468002027
:100450002EE000F1080C4FF0010808FA0CF3B1F897
:1004600000C00CEA03069E4221D183004FF00F0C1E
:100470000CFA03F7BC4305FA03FC4CEA040491F8B8
:1004800003C0BCF1280F05D100F1080C08FA0CF8E4
:10049000C2F8148091F803C0BCF1480F07D100F1F5
:1004A000080C4FF0010808FA0CF8C2F81080401C44
:1004B0000828CED35460BDE8F081416170470161E6
:1004C0007047000008B50121042000F0BDFA0F209C
:1004D000ADF8000048208DF8030003208DF80200DD
:1004E00069460248FFF75EFF08BD000000080140B2
:1004F00010B5044623480078012827D12248006817
:1005000058B12148001D006838B11F480830006804
:1005100018B11D480C300068C0B9082002F0D0FBAB
:100520000020184908701848006808B9012010BD5B
:100530001548001D006808B90220F8E71248083085
:10054000006808B90320F2E70420F0E70E480068CD
:10055000012810D10C48001D006801280BD10A4861
:1005600008300068012806D107480C3000680128CF
:1005700001D104490870012C02D101200149087001
:100580000020D4E7D00000200001214200BFFEE798
:10059000704708B54FF4A06000F046F825208DF8AC
:1005A000000001208DF801008DF802008DF8030095
:1005B000684600F001F808BD70B5002100230F2245
:1005C000C47804B3154C246804F4E064C4F5E06412
:1005D000210AC1F10403CA40447804FA03F1847883
:1005E0001440214309010E4C0678A155047804F00B
:1005F0001F050124AC4005786D11AD0005F1E02523
:10060000C5F8004109E0047804F01F050124AC405E
:10061000044D0678761145F8264070BD0CED00E0DB
:1006200000E400E080E100E002490143024A116079
:10063000704700000000FA050CED00E070B50024E2
:1006400019E004F1B001C8B2002100F0B5F90021B1
:10065000022000F0B1F90021102000F0ADF90025D2
:1006600005E00121002000F0A7F9681CC5B2802D2B
:10067000F7DB601CC4B2082CE3DB70BD08B50121B8
:100680004FF4947000F0E0F94FF4FC70ADF8000006
:1006900010208DF8030003208DF8020069465A48A7
:1006A000FFF780FE4FF4FC715748FFF708FF032067
:1006B000ADF8000069465548FFF774FE0321534822
:1006C000FFF7FDFE4FF40040ADF8000069465048CA
:1006D000FFF768FE4FF400414D48FFF7F0FE102190
:1006E0004948FFF7ECFE642000F0CEFD102146489B
:1006F000FFF7E3FE642000F0C7FD10214248FFF73A
:10070000DEFE0021AE2000F057F90021022000F0AB
:1007100053F90021102000F04FF90021402000F093
:100720004BF90021812000F047F90021CF2000F093
:1007300043F90021A12000F03FF90021C82000F07A
:100740003BF90021A62000F037F90021A82000F095
:1007500033F900213F2000F02FF90021812000F023
:100760002BF90021FF2000F027F90021D32000F011
:1007700023F90021084600F01FF90021D52000F0E0
:100780001BF90021802000F017F90021D92000F08A
:1007900013F90021F12000F00FF90021DA2000F018
:1007A0000BF90021122000F007F90021DB2000F0F6
:1007B00003F90021402000F0FFF80021202000F084
:1007C000FBF80021022000F0F7F800218D2000F056
:1007D000F3F80021142000F0EFF80021A42000F02D
:1007E000EBF80021A62000F0E7F80021AF2000F090
:1007F000E3F80021AF2000F0DFF8FFF71FFF002132
:10080000084600F007F808BD001401400010014040
:100810000020014070B504460D4605F1B001C8B294
:10082000002100F0C9F8102141EA1410002100F065
:10083000C3F804F00F0141F00100002100F0BCF802
:1008400070BD00002DE9F04107460E469046002598
:100850000024A8F12000C5B27F2F02DD0027B01CC4
:10086000C6B21F480078102824D131463846FFF719
:10087000D1FF002408E004EB05111A4A505C012165
:1008800000F09AF8601CC4B2082CF4DB701CC1B2F2
:100890003846FFF7BFFF002409E004EB05110831DB
:1008A000104A505C012100F087F8601CC4B2082C8B
:1008B000F3DB12E031463846FFF7ACFF00240AE0D4
:1008C00005EB4501084A02EB4101085D012100F0FA
:1008D00073F8601CC4B2062CF2DBBDE8F0810000A6
:1008E00091020020923C00086A3A00082DE9FF5F5F
:1008F000074691461D460E9E4FF0000A002433E045
:10090000281B401EC1B20A2000F05EFFB9FBF0F0C8
:100910000A21B0FBF1F201FB1208BAF1000F13D16A
:10092000681EA04210DDB8F1000F0BD1B34606EBF4
:10093000DB71491001FB0471C8B220220199FFF755
:1009400081FF0FE04FF0010AB34606EBDB7149105F
:1009500001FB0471C8B208F13001CAB20199FFF776
:1009600071FF00BF601CC4B2AC42C9DBBDE8FF9F91
:100970002DE9F04104460F461546002615E0AA5D14
:1009800039462046FFF75EFF0A480078102803D159
:1009900004F10800C4B201E0A01DC4B2782C02DD4D
:1009A0000024B81CC7B2701CC6B2A85D0028E6D1EE
:1009B000BDE8F0819102002070B504460E4626B1D4
:1009C00020211848FFF77BFD03E020211548FFF7A1
:1009D00074FD08211348FFF770FD002517E0402142
:1009E0001048FFF76AFD04F0800020B180210D4817
:1009F000FFF765FD03E080210A48FFF75EFD402117
:100A00000848FFF75CFD6006040E681CC5B2082D9F
:100A1000E5DB08210348FFF752FD20210148FFF7DD
:100A20004EFD70BD0014014029B1064A52690243CF
:100A3000044B5A6104E0034A52698243014B5A61F4
:100A4000704700000010024029B1064A9269024333
:100A5000044B9A6104E0034A92698243014B9A6114
:100A6000704700000010024030B500210022002431
:100A700000232D4D6D6805F00C0121B1042905D02E
:100A8000082923D105E0294D056022E0274D0560A6
:100A90001FE0254D6D6805F47012234D6D6805F457
:100AA0008034022505EB92421CB9214D5543056067
:100AB0000BE01D4D6D6805F400351DB11C4D55430F
:100AC000056002E0194D5543056002E0174D0560D1
:100AD00000BF00BF144D6D6805F0F0010909154D08
:100AE0006B5C0568DD4045600F4D6D6805F4E061A5
:100AF000090A104D6B5C4568DD4085600A4D6D68E4
:100B000005F46051C90A0B4D6B5C4568DD40C5605A
:100B1000054D6D6805F44041890B074D6B5CC56858
:100B2000B5FBF3F5056130BD0010024000127A00FC
:100B300000093D0098020020A8020020704710B56F
:100B400000F002F810BD00000CB5002001900090EC
:100B50003348006840F480303149086000BF3048B5
:100B6000006800F4003000900198401C019000984B
:100B700018B90198B0F5A06FF1D12948006800F4C8
:100B8000003010B10120009001E00020009000989A
:100B9000012843D12348006840F010002149086033
:100BA0000846006820F0030008600846006840F02E
:100BB000020008601A4840681949486008464068C1
:100BC00048600846406840F48060486008464068D5
:100BD00020F47C1048600846406840F4E810486003
:100BE0000846006840F08070086000BF0C4800684C
:100BF00000F000700028F9D00948406820F0030098
:100C0000074948600846406840F00200486000BF5D
:100C10000348406800F00C000828F9D10CBD000022
:100C20000010024000200240042808D14FF0E021CB
:100C3000096941F004014FF0E022116107E04FF033
:100C4000E021096921F004014FF0E02211617047B1
:100C500010B501F049F902F035F901F055F910BD70
:100C600010B504466FF00400FFF7DEFFE11704EB58
:100C70005171C1F3C701074A11701046007800EBAB
:100C80004001C1EBC0104FF6FF7101EAC0000249FC
:100C9000088010BD940200209602002010B5134871
:100CA000006840F00100114908600846406810499A
:100CB00008400E494860084600680E4908400B4944
:100CC00008600846006820F48020086008464068F4
:100CD00020F4FE0048604FF41F008860FFF72FFFEC
:100CE0004FF000600449086010BD00000010024091
:100CF0000000FFF8FFFFF6FE08ED00E010B501214F
:100D0000880700F040F870B319480078401C184973
:100D1000087008460078642801DD00200870144837
:100D20000078282190FBF1F201FB1200012809D183
:100D30001048007830B1FFF781FC0C2201210E48E9
:100D400002F0E2FB0A480078142190FBF1F201FB6B
:100D50001200022807D10948006820B90020FFF7D7
:100D6000C7FB064908600121880700F009F810BD9B
:100D70009302002092020020101D0020C4000020D9
:100D8000CA430282704730B5024600200023002487
:100D9000158A05EA0103958905EA010413B10CB12E
:100DA000012000E0002030BD10B501F09DF840F2B8
:100DB0002441064800F07CF820B100F075F90348A2
:100DC00000F032F901F0A0F810BD00000038014039
:100DD00021B1828942F40052828104E082894DF679
:100DE000FF731A408281704700B585B0012104204D
:100DF000FFF72AFE01218803FFF726FE4FF400705B
:100E0000ADF8100018208DF8130003208DF81200A3
:100E100004A91A48FFF7C6FA4FF48060ADF8100035
:100E200004208DF8130004A91448FFF7BBFA4FF40F
:100E3000E13000900020ADF80400ADF80600ADF8F8
:100E40000800ADF80C000C20ADF80A0069460C480B
:100E500000F07EF8FFF79DFB012240F22441084894
:100E600000F050F801224021054800F00BF8012164
:100E70000348FFF7ADFF05B000BD000000080140CA
:100E8000003801401AB1838A0B43838202E0838ACF
:100E90008B438382704702460020B1F5007F00D16A
:100EA00000BF13880B400BB1012000E00020704709
:100EB00070B50246002400230025002040F66A1683
:100EC000B14200D100BFC1F3421501F01F0301265A
:100ED00006FA03F3012D02D19689334006E0022D74
:100EE00002D1168A334001E0968A33400C12012663
:100EF00006FA04F41688344013B10CB1012000E066
:100F0000002070BDF0B50346002400260025002017
:100F100040F66A17B94200D100BF1846C1F3421427
:100F200001F01F06012707FA06F5012C01D10C304C
:100F300004E0022C01D1103000E014301AB107682F
:100F40002F43076002E00768AF430760F0BD000071
:100F50002DE9F04786B005460E460024A24600BFA4
:100F6000A1460027B08900B100BF2F462C8A4CF65D
:100F7000FF700440F08804432C82AC894EF6F310D5
:100F80000440B08831890843718908430443AC8127
:100F9000AC8A4FF6FF400440B0890443AC8201A8FC
:100FA000FFF762FD1F48874202D1DDF810A001E083
:100FB000DDF80CA0A88900F4004040B10AEBCA009B
:100FC00000EB0A1031684900B0FBF1F807E00AEBCA
:100FD000CA0000EB0A1031688900B0FBF1F8642008
:100FE000B8FBF0F004012009642101FB1089A889F5
:100FF00000F4004040B1322000EBC900B0FBF1F03A
:1010000000F00700044308E0322000EB09106421DF
:10101000B0FBF1F000F00F0004432C8106B0BDE8F6
:10102000F08700000038014001468888C0F30800BE
:101030007047C1F3080282807047000000B58BB092
:1010400001210846FFF7F0FC144800901448019075
:10105000002002904FF47A700390002004908020CA
:101060000590002006900790202008904FF44050F3
:10107000099000200A9069460A48FFF774F94FF476
:101080008030FFF74DF9012208210648FFF762F989
:1010900001210448FFF752F90BB000BD04380140AC
:1010A000281900205800024010B500210A48FFF717
:1010B00045F94FF48030FFF733F94FF47A70064961
:1010C0005839C86501210448FFF738F9034800681A
:1010D00001F01CFB10BD0000580002400800002079
:1010E00000BFFEE7014609B900207047C8B220B131
:1010F000C8B20E4A105C401CF7E701F47F4028B1EB
:101100000A48C1F30722805C0930EEE701F47F0052
:1011100028B10648C1F30742805C1130E5E7034877
:1011200000EB116000781930DFE700004839000853
:1011300002E008C8121F08C1002AFAD170477047A0
:10114000002001E001C1121F002AFBD170470000FE
:1011500003490868884201D0012070470020FCE75D
:10116000980000202DE9FC5F04468B4615461E467C
:10117000DDE90C9ADDE90E7804F1140040600060AE
:1011800000BF1C346560A660C4F80C90C4F810A0C1
:101190002321D4E9030201F04CF9D4E9033C634470
:1011A0001A1F0F4BD4E9010100F078FE2060A776EA
:1011B00067760020E061C4F82880C4F82C80606164
:1011C0002076E06520661C3C00902346054A2146B7
:1011D000019004F14C0001F012FF0020BDE8FC9FDB
:1011E000712B0008D12D00082DE9F04704460E466A
:1011F00017469846DDF8209084F80990607A20F030
:1012000001006072E66127620020A062C4F82480B9
:10121000002506E004F1140101EBC50000F0EAFE30
:101220006D1C012DF6DBBDE8F08710B502460020ED
:1012300001460EE002F1140303EBC100D0E90043C4
:101240006360D0E9003423604060006000BF481C48
:1012500001460129EEDB10BD024600210EE0C1EB84
:10126000C10002EB400007A31B8803800020C1EBF4
:10127000C10302EB43039881481CC1B21029EEDB85
:1012800001207047200000000146114A12884A439D
:101290004FF0E0235A6100229A611A46126942F027
:1012A00001021A6100BF4FF0E022106900F0010254
:1012B0001AB100F48032002AF5D04FF0E022126912
:1012C00022F001024FF0E0231A6100229A61704778
:1012D0009602002008B500243EE04FF0FF32694638
:1012E0001E48006800F0A7FF0446002C34D1009887
:1012F00007282BD2DFE800F026040D161A1E220064
:1013000002F09CFA00201649086016A000F054FE76
:1013100021E000F0CBF800201149086017A000F090
:101320004BFE18E000200E49086014E000200C4934
:10133000086010E000200A4908600CE0002008491D
:10134000086008E000200649086004E011A0009948
:1013500000F032FE00BF00BFBFE700000000002029
:10136000C40000207461736B31BDE7C3E6B8FCD0E4
:10137000C2B3C9B9A6A3A10A00000000BBD8B5BD7D
:101380006D61696EBDE7C3E6B8FCD0C2B3C9B9A64A
:10139000A3A10A00CFD4CABEB8FCD0C2B4EDCEF32C
:1013A000A3ACB4EDCEF3616374696F6E3A25640A41
:1013B0000000000008B5002416E04FF0FF32694637
:1013C0000A48006800F037FF044654B908A00099A5
:1013D00000F0F2FD0098C1B20B48007802F038F935
:1013E00002E00AA000F0E8FDE7E70000CC000020E2
:1013F000CAD5B5BDB0B4BCFC3A25640A2CBFAACA94
:10140000BCB4A6C0ED00000014000020B0B4BCFCC9
:10141000BDD3CAD5CAA7B0DCA3A10A0070B50546E2
:101420000B48006898B90020FFF762F80849086087
:101430000846006858B1084601680648006800F090
:1014400074FF044614B904A000F0B6FD00BF70BDDF
:10145000C4000020CC000020B0B4BCFCD3CACFE450
:10146000B7A2CBCDB3C9B9A6A3A10A0010B506A0F7
:1014700000F0A2FD00F06EF800F074F900F0D2F870
:1014800000F052F9002010BDB4AEBFDAB7A2CBCD48
:10149000CAFDBEDDB4A5B7A2D6D0B6CF2CC8CECE7D
:1014A000F1B4A6C0EDCAFDBEDD210A0008B51C4896
:1014B000FFF7D2FE012000231AA219460090184817
:1014C00002F028FA0120002318A2014600901448D7
:1014D00002F020FA0120034616A2022100901048D3
:1014E00002F018FA0120022313A2032100900C48F5
:1014F00002F010FA0120032310A2042100900848F2
:1015000002F008FA012004230DA2052100900448EE
:1015100002F000FA10220121014801F0F5FF08BD98
:10152000101D00206D61696E000000006D65617521
:1015300000000000746B3100746B3200746B330078
:10154000746B340010B5044600F076FAFFF78EFF96
:1015500010BD000010B50022114613A001F0AEF836
:10156000144908600846006810B113A000F024FD7B
:101570000022052116A000F035FE17490860084634
:10158000006810B115A000F017FD002205211AA077
:1015900000F028FE1B4908600846006810B11AA038
:1015A00000F00AFD002010BD73656D5F75617274F7
:1015B000000000000800002075617274D0C5BAC533
:1015C000C1BFB4B4BDA8B3C9B9A6A3A10A0A00009B
:1015D0006D625F6B65790000CC000020B0B4BCFC8C
:1015E000B4A6C0EDD3CACFE4B4B4BDA8B3C9B9A6FC
:1015F000A3A10A0A000000006D625F646973706C49
:1016000061790000000000206F6C6564CFD4CABE11
:10161000D3CACFE4B4B4BDA8B3C9B9A6A3A10A0A7A
:10162000000000001CB5142006214FF400730022B6
:10163000CDE9001019491AA001F06CFA1B490860A5
:101640000846006810B11AA000F0B6FC142003216F
:101650004FF400730022CDE900101C491CA001F0DA
:1016600059FA1E4908600846006810B11CA000F035
:10167000A3FC142008218B010022CDE900101F4992
:101680001FA001F047FA204908601448006810B113
:101690001EA000F091FC00201CBD0000D538000801
:1016A0007561727468616E646C6500000C000020E6
:1016B00075617274B4A6C0EDCFDFB3CCB4B4BDA86D
:1016C000B3C9B9A6A3A10A0A00000000B513000817
:1016D0006B657968616E646C650000001000002025
:1016E000B0B4BCFCB4A6C0EDCFDFB3CCB4B4BDA8DD
:1016F000B3C9B9A6A3A10A0A00000000D5120008C8
:10170000646973706C61790004000020CFD4CABE94
:10171000CBA2D0C2CFDFB3CCB4B4BDA8B3C9B9A6F5
:10172000A3A10A0A0000000010B50748006840B1F4
:101730000548006801F014FB04A000F03DFC002007
:1017400010BD4FF0FF30FBE70C000020D3C3BBA758
:10175000CFDFB3CCBFAACABCB5F7B6C8A3A10A0AEB
:101760000000000008B5062032230022094900903D
:1017700009A001F019FC0C4908600846006830B166
:101780000846006801F060FC08A000F015FC00208D
:1017900008BD00001D14000874696D65725F6B65FB
:1017A000797363616E000000C8000020B0B4BCFC17
:1017B000C9A8C3E8B6A8CAB1C6F7C6F4B6AFB3C9DC
:1017C000B9A6A3A10A0A000010B50246012000E054
:1017D00050430B1EA1F10104E1B2F9D110BD00008C
:1017E00030B51A4C436824681919884215D04B88C3
:1017F0009BB9174B1B6899420FD0164B1B688B4245
:1018000001D1144B18604B684360104B1B68C31A1E
:101810000E4D4C682D682C44A3600C4C83682468E2
:101820001A19824211D053887BB90A4B1B68834234
:1018300001D1084B1A6043685360044B1B68D31AEC
:10184000024D44682D682C44A36030BD2000002068
:1018500024000020280000202DE9F04F86B00D461E
:101860009C46DDE9106401960F9B04F04008B8F136
:10187000000F02D0DFF8708101E0DFF87081CDF851
:10188000008004F01008B8F1000F01D024F001042A
:1018900004F00108B8F1000F02D04FF0300801E069
:1018A0004FF02008C246002704F00208B8F1000FEC
:1018B00011D0002A02DA2D2752420CE004F004086D
:1018C000B8F1000F01D02B2705E004F00808B8F1AB
:1018D000000F00D02027002142B94FF0300B88467E
:1018E000491C0DF1080909F808B01DE01AE0E146AD
:1018F000B9F10A0F08D14FF00A0BB2FBFBFE0BFB4C
:101900001E28B2FBFBF202E002F00F08120900BF32
:10191000DDF8009019F808B08846491C0DF1080957
:1019200009F808B0002AE2D1B14200DD0E469B1B47
:1019300004F01108B8F1000F10D117B1002B00DD31
:101940005B1E06E0A84203D84FF0200880F8008014
:10195000401CB3F10008A3F10103F3DC27B1A84256
:1019600001D807705B1E401C04F01008B8F1000F8E
:101970000AD104E0A84201D880F800A0401CB3F1CD
:101980000008A3F10103F5DC06E0A84203D84FF0FC
:10199000300880F80080401CB046761E8845F4DC94
:1019A00008E0A84205D80DF1080818F8018080F871
:1019B0000080401CB1F10008A1F1010104DDDDF857
:1019C0000480B8F1000FECD106E0A84203D84FF034
:1019D000200880F80080401CB3F10008A3F1010347
:1019E000F3DC06B0BDE8F08F593A0008483A000829
:1019F0001CB5142001214B020022CDE9001004493E
:101A000004A001F087F80446204601F0A9F91CBDA6
:101A1000451500086D61696E0000000010B5044CAA
:101A200002E020688047241D02488442F9D310BD9B
:101A3000884200088C42000810B5044C02E020687F
:101A40008047241D02488442F9D310BD8C4200080F
:101A50009042000810B5FEF775FB04460448008864
:101A6000401C00B2024908802046FEF76FFB10BD03
:101A70008800002010B5FEF765FB04460B4800887F
:101A8000401E00B2094908800846B0F9000000284D
:101A900007DC002008802046FEF758FB00F074FDAC
:101AA00002E02046FEF752FB10BD00008800002037
:101AB00070B5054605B970BD1D480068854203D361
:101AC0001C480068854200D3F5E7A5F10C044FF0EF
:101AD000FF31194800F037FE608818B12088B0F552
:101AE000F55F08D015A000F067FA238862882146C8
:101AF00019A000F061FA002060804FF4F5502080BA
:101B000021480068844201D21F4804600849606887
:101B10000968611A401A1D490968081A1B490860BA
:101B20002046FFF75DFE044800F0F0FD00BFC2E76D
:101B3000200000202400002088150020746F2066FB
:101B40007265652061206261642064617461206255
:101B50006C6F636B3A0A00006D656D3A2030782532
:101B60003038782C207573656420666C61673A2084
:101B700025642C206D6167696320636F64653A207A
:101B80003078253034780A0028000020300000200A
:101B900000487047C002002000487047C012002073
:101BA00070B54820FFF75CF8FEF78CFCFEF766FD89
:101BB000FEF744FD1FA200210846FEF7D9FEFFF7FD
:101BC0003DFAFFF711F901F0E1FD1D4800684FF4FF
:101BD0007A72B0FBF2F1B1F1807F00D31DE021F009
:101BE0007F40401E4FF0E022506150170F22002826
:101BF00007DA13071D0E134B00F00F04241F1D55A9
:101C000003E013071C0E104B1C5400BF00204FF0C4
:101C1000E02290610720106100BFFFF7FFFEFFF791
:101C2000BBFF0446FFF7B4FF0546214600F080FEE7
:101C300070BD000068656C6C6F206D6375000000FE
:101C4000AC02002018ED00E000E400E010B504460E
:101C5000FFF700FF19E020780A280AD10D210E486D
:101C6000FFF7E7F900BF80210B48FFF714F90028C0
:101C7000F9D014F8011B0848FFF7DBF900BF8021F9
:101C80000548FFF708F90028F9D020780028E2D1AC
:101C9000FFF7F0FE10BD00000038014070B50546AA
:101CA0002C1D2E48006838B128462C490968884701
:101CB000064606B970BD00BF29A0E16B00F07CF9B3
:101CC0002BA0216A00F078F92DA0616A00F074F968
:101CD0002FA0A16A00F070F931A0E16A00F06CF960
:101CE00033A0216800F068F935A0616800F064F95C
:101CF00037A0A16800F060F939A0E16800F05CF954
:101D00003BA0216900F058F93DA0616900F054F949
:101D10003FA0A16900F050F941A0E16900F04CF941
:101D200043A0216B00F048F945A0616B00F044F935
:101D300047A0A16B00F040F9287800F0040038B10A
:101D400000F0E6FF0646314645A000F035F902E016
:101D50004BA000F031F900BFFEE70000C0000020FA
:101D60007073723A203078253038780A000000000D
:101D70007230303A203078253038780A0000000080
:101D80007230313A203078253038780A000000006F
:101D90007230323A203078253038780A000000005E
:101DA0007230333A203078253038780A000000004D
:101DB0007230343A203078253038780A000000003C
:101DC0007230353A203078253038780A000000002B
:101DD0007230363A203078253038780A000000001A
:101DE0007230373A203078253038780A0000000009
:101DF0007230383A203078253038780A00000000F8
:101E00007230393A203078253038780A00000000E6
:101E10007231303A203078253038780A00000000DE
:101E20007231313A203078253038780A00000000CD
:101E30007231323A203078253038780A00000000BC
:101E4000206C723A203078253038780A0000000083
:101E50002070633A203078253038780A000000007E
:101E600068617264206661756C74206F6E2074689E
:101E7000726561643A2025730D0A0D0A00000000A6
:101E800068617264206661756C74206F6E20686191
:101E90006E646C65720D0A0D0A000000F0B5044610
:101EA0000D461646301D20F007004038014600223E
:101EB00003E00C4F41F82270521C102AF9D30D6236
:101EC0004FF0000CC1F824C0C1F828C0C1F82CC0E4
:101ED000C1F830C04B638C634FF0807CC1F83CC0CC
:101EE000F0BD0000EFBEADDE10B5FEF72BF90446E5
:101EF00004480078401C034908702046FEF726F984
:101F000010BD00001C00002010B5FEF71BF90446B0
:101F100004480078401E034908702046FEF716F971
:101F200010BD00001C00002070B504462068A0F120
:101F30001405284600F0CEFE002070BD2DE9F041CA
:101F400005460C469046204600F020FFB8F1000FF1
:101F500003D0B8F1010F23D105E004F114012846A4
:101F600000F060F81CE02E680FE0A6F1140794F86A
:101F7000350097F83510884206DA04F1140107F1AC
:101F8000140000F04FF802E03668AE42EDD100BF19
:101F9000AE4204D104F11401284600F043F800BF1A
:101FA00000BF0020BDE8F08110B5044604F1140024
:101FB00000F01AF8002010BD0FB438B505A8009045
:101FC0007F210848009B049A01F0ECF804467F2C1E
:101FD00000D97F240348FFF739FE0020009038BC69
:101FE0005DF814FB081500204060006070474060F9
:101FF000006070474060006070470268516002688E
:102000000A600160486070470268516002680A60B7
:102010000160486070470268516002680A600160B0
:10202000486070474268116042684A6041600860D9
:10203000704701460868884201D10120704700209E
:10204000FCE701460868884201D101207047002062
:10205000FCE7D0E900215160D0E900121160406036
:1020600000607047D0E900215160D0E90012116092
:1020700040600060704700002DE9F041054615B949
:102080000020BDE8F081E81C20F003054E48006800
:10209000854201D90020F4E70C2D00D20C254FF029
:1020A000FF314A4800F04FFB494800684949096838
:1020B000461A7EE04748006884196088002874D179
:1020C00006F10C006168081AA8426ED306F10C00F4
:1020D0006168091A05F11800814230D306F10C003D
:1020E00000EB05083B48006800EB08074FF4F5508B
:1020F00038800020788060687860BE60C4F8048012
:10210000012060803048796800680C30814205D039
:102110003049786809680844C0F808802E4801688A
:1021200005F10C0008442C4908602C480068096837
:10213000884219D2284800682849086014E0012024
:102140006080244960680968611A401A2249096858
:10215000084421490860214800680968884203D280
:102160001D4800681D4908604FF4F550208018484C
:102170000068844212D107E015480068406815499C
:10218000096808441249086011480068408828B16D
:102190000F480068124909688842EDD10B4800F0E9
:1021A000B5FA04F10C006CE7FFE70A480068304418
:1021B000466805480068401BB0423FF67BAF0348C5
:1021C00000F0A4FA00205CE72C0000208815002015
:1021D00028000020200000203000002034000020D3
:1021E000240000202DE9F04105460E4617462946F9
:1021F000042000F042F9044614B92046BDE8F081FD
:1022000067722046FFF7D0FE2684218C8800FFF7F6
:1022100033FFE061E06920B9204600F058F9002062
:10222000ECE700206084A084E08404F12800FFF73C
:10223000DBFE2046E2E72DE9F74304460E46002781
:1022400000F066FD0546FDF77DFF8046608C38B9DD
:10225000029828B94046FDF779FFB81EBDE8FE8315
:102260003AE000202863029830B94046FDF76EFF3F
:102270006FF001002863F1E7627A294604F1140047
:10228000FFF75CFE029800280CDD00F015FE074603
:1022900002AA002105F14C0000F06AFE05F14C0095
:1022A00000F0D2FE4046FDF751FF00F06DF9286BBB
:1022B00008B1286BD2E7FDF745FF80460298002859
:1022C0000ADD00F0F9FDC71B0298C01B02900298BE
:1022D000002801DA00200290608C0028C1D0E18C37
:1022E000E06950F821003060E08C401CE084E08C14
:1022F000218C884201DB0020E084608C401E6084D9
:1023000004F12800FFF795FE50B904F12800FFF70B
:102310000BFE4046FDF71AFF00F036F900209DE75E
:102320004046FDF713FF002098E770B504460D46C0
:1023300000222946204600F001F870BD2DE9F74340
:1023400004460E46002700F0E3FC0546FDF7FAFEC2
:102350008046608C218C884207D1029828B940467B
:10236000FDF7F4FEF81EBDE8FE8339E00020286387
:10237000029828B94046FDF7E9FE6FF00200F2E747
:10238000627A294604F12800FFF7D8FD0298002858
:102390000CDD00F091FD074602AA002105F14C007A
:1023A00000F0E6FD05F14C0000F04EFE4046FDF762
:1023B000CDFE00F0E9F8286B08B1286BD3E7FDF7F4
:1023C000C1FE8046029800280ADD00F075FDC71B9B
:1023D0000298C01B02900298002801DA00200290A7
:1023E000608C218C8842C1D0A18CE06940F82160CA
:1023F000A08C401CA084A08C218C884201DB002092
:10240000A084608C401C608404F11400FFF711FE6E
:1024100050B904F11400FFF787FD4046FDF796FE22
:1024200000F0B2F800209EE74046FDF78FFE002046
:1024300099E7F0B50C460546E6B2042A15D300F03C
:10244000030797B9014646EA062343EA034304E03B
:1024500008C108C108C108C1103A102AF8D201E029
:1024600008C1121F042AFBD20D4601E005F8016BDA
:10247000171EA2F10102F9D1F0BD2DE9F041064687
:102480000F46304600F044F80546E868FFF7F4FDD3
:10249000044614B90020BDE8F08100212046EA6816
:1024A000FFF7C7FF267200206072082239462046D7
:1024B00000F023FAFDF746FE804604F10C01281DCA
:1024C000FFF79BFD4046FDF741FE2046E3E770B570
:1024D000044600202072FDF735FE054604F10C008D
:1024E000FFF7B7FD2846FDF731FE2046FFF7E0FA7B
:1024F00070BD70B5044600202072FDF723FE05462E
:1025000004F10C00FFF7A5FD2846FDF71FFE70BD86
:10251000024600210AE0074800EB011000789042D3
:1025200003D1044800EB01107047491C0529F2DB78
:102530000020F9E7380000202DE9F04104460D465F
:1025400016462846FFF7E4FF074645F08000207254
:1025500008223146204600F0D0F9FDF7F3FD804611
:1025600004F10C01381DFFF748FD4046FDF7EEFD74
:10257000BDE8F0810146087A00F0800008B1012032
:1025800070470020FCE700002DE9F041FDF7DAFD7F
:1025900007461B48008868BB1A480068FEF7A2FD82
:1025A000461E194850F83600A0F114041748006878
:1025B00084421BD016490E70144805680460154803
:1025C000007848B904F11C0105F11C00FDF7C1FDBC
:1025D0003846FDF7BBFD0CE004F11C0105F11C00C1
:1025E000FDF7B7FD3846FDF7B1FD02E03846FDF7CF
:1025F000ADFD02E03846FDF7A9FDBDE8F081000021
:102600008800002094000020A81500208C000020E5
:10261000900000201C00002070B50446FDF792FDDC
:10262000054614F8340F20F00F0040F00100207030
:102630006278343C0A4B03EBC20004F11401426897
:10264000116042684A604160086000BF0549A06BA4
:1026500009680843034908602846FDF777FD70BD07
:10266000A81500209400002070B50446FDF76AFD0F
:10267000054604F11400D0E900215160D0E90012B0
:1026800011604060006000BF94F83510094A02EB09
:10269000C1000168814201D1012100E0002129B17E
:1026A0000548A16B00688843034908602846FDF788
:1026B0004DFD70BDA8150020940000202DE9F041CB
:1026C00005460E46174629460120FFF7D6FE04466A
:1026D00014B92046BDE8F0812046FFF765FCA683CB
:1026E00067722046F6E72DE9F04104460D4616468E
:1026F0001F462A4601212046FFF71EFF2046FFF70E
:1027000053FCA68367720020BDE8F08170B50446D3
:102710000025FDF717FD064604F11400FFF789FCBC
:1027200028B904F11400FFF7FFFB012502E0A08B9C
:10273000401CA0833046FDF709FD012D01D1FFF7B4
:1027400023FF002070BD73B50546FDF7FBFC064670
:10275000A88B002806DDA88B401EA8833046FDF715
:10276000F5FC28E0019828B93046FDF7EFFC6FF042
:1027700001007CBD00F0CCFA0446002020636A7A98
:10278000214605F11400FFF7D9FB0198002809DD67
:1027900001AA002104F14C0000F0EAFB04F14C0016
:1027A00000F052FC3046FDF7D1FCFFF7EDFE206B48
:1027B00008B1206BDDE70020DBE7000008B509A0C9
:1027C000FFF7FAFB0AA0FFF7F7FB12A00223012292
:1027D0000321009012A0FFF7EFFB19A0FFF7ECFB1D
:1027E00008BD00000A205C207C202F0A00000000A9
:1027F0002D205254202D2020202020546872656105
:1028000064204F7065726174696E672053797374C8
:10281000656D0A004A756C2032382032303139003B
:10282000202F207C205C202020202025642E256461
:102830002E2564206275696C642025730A000000EF
:102840002032303036202D203230313920436F7025
:102850007972696768742062792072742D74687265
:10286000656164207465616D0A00000070B500F058
:1028700023FB0646FFF7EEF81A4805682BE0A5F1A2
:102880001404A06A301A6FF00041884222D22D68E9
:102890002046FEF7CAFCFFF7EDF8D4E90710884799
:1028A00000F00AFB0646FFF7D5F8607A00F0020058
:1028B00058B1607A00F0010038B1607A20F0010070
:1028C0006072204600F0C0FB05E0607A20F0010055
:1028D000607200E002E003488542D0D100BFFFF7FC
:1028E000C9F870BDA800002001460A4600E0521C4D
:1028F00010780028FBD1501A704770B50346A2B17A
:1029000018460C4600BF14F8016B00F8016B3EB985
:1029100002E0002500F8015B551E2A1EF9D102E0F5
:10292000551E2A1EEFD100BF00BF184670BD000023
:102930002DE9F04105460E46E81C20F0030726F07D
:102940000308B8F1180F09D9A8F11800B84205D347
:10295000A8EB070018381E49086006E032462946F1
:102960001CA0FFF729FBBDE8F08129480760046837
:102970004FF4F5502080164800680C30606000204D
:10298000A0606080224960680968084421490860A5
:102990004FF4F5500968088001201E4909684880F5
:1029A0000B4800680C301B490968486008480068FB
:1029B0000C301849096888600023012216A11848C4
:1029C000FFF791FE124800681649086000BFCAE789
:1029D0002C0000206D656D20696E69742C20657275
:1029E000726F7220626567696E20616464726573DC
:1029F0007320307825782C20616E6420656E642009
:102A00006164647265737320307825780A00000071
:102A10002000002024000020686561700000000094
:102A2000881500202800002010B500200B490880E0
:102A3000002405E00A4901EBC400FFF7D8FA641C42
:102A4000202CF7DB1F20074908700020064908608A
:102A5000064908600648FFF7CAFA10BD8800002042
:102A6000A8150020900000208C0000209400002079
:102A70009800002070B508480068FEF733FB451E3B
:102A8000064850F83500A0F114040548046004F12C
:102A90001C00FDF78CFB70BD94000020A8150020E1
:102AA0008C00002010B5002405E0044901EBC400AF
:102AB000FFF7A0FA641C002CF7D010BDA000002086
:102AC0001FB5002405E00D4901EBC400FFF792FAA1
:102AD000641C002CF7D00A200421CA01084BCDE960
:102AE0000032CDE902100023064A07A1084800F091
:102AF000CDF8074800F034F91FBD0000A800002001
:102B000028170020F12D000874696D65720000001F
:102B1000A81600202DE9FF5F06460F4690461D4689
:102B2000DDE90EAB31460020FFF7A7FC8146B9F185
:102B3000000F03D1002004B0BDE8F09F2846FFF746
:102B40009BFA044624B94846FFF7C1FC0020F2E78F
:102B500043463A46314648468DE8300CFEF702FBC4
:102B60004846E8E710B50446204600F0D7F810BD07
:102B700070B512480468FDF7E5FA05462046FFF7F0
:102B800073FD042084F8340004F14C0000F027FAAF
:102B90002046FFF7EFFC012805D1A06F18B92046A9
:102BA000FFF7A7FC04E004F114010548FFF72CFA35
:102BB0002846FDF7CBFAFFF7E7FC70BD8C0000203C
:102BC0009800002001E000F001F8FCE770B537E064
:102BD000FDF7B8FA0546FEF7BBFA18B31B480068C4
:102BE000A0F1140404F11400D0E900215160D0E9EF
:102BF000001211604060006000BFFEF72BFFA06F65
:102C000010B12046A16F88472046FFF7B3FC01288A
:102C100005D1FEF72FFF2846FDF798FA70BDFEF7A5
:102C200029FF03E02846FDF791FAF7E72846FDF76C
:102C30008DFAA06AFEF73CFF2046FFF748FC00BF74
:102C4000FEF786FA0028C3D100BFE7E7980000200E
:102C50001FB520201F21C200074BCDE90032CDE96E
:102C600002100023054A06A1074800F00FF80648A5
:102C700000F076F81FBD000008140020C52B0008E6
:102C80007469646C65000000881300202DE9FF5F03
:102C900005460C4616461F46DDE910ABDDE90E89F8
:102CA000224600212846FFF747FC3B463246214694
:102CB00028468DE8000FFEF755FA04B0BDE8F09FF6
:102CC00070B50446204600F0E7F80546284600F0B7
:102CD00025F870BD70B5044694F8340000F00F007C
:102CE000022802D04FF0FF3070BDFDF72BFA0546E9
:102CF00004F11400FFF7B6F904F14C0000F03AFAC1
:102D00002846FDF723FA2046FFF786FC0020EBE774
:102D100001480068704700008C00002031B5FDF7C5
:102D200011FA05460D480468204600F02FF86A465F
:102D3000002104F14C0000F01BF904F14C0000F0FC
:102D400083F92846FDF702FAFFF71EFC206B801C72
:102D500008B900202063002038BD00008C0000204E
:102D600010B504463434A078607061780120884042
:102D70006060022004F834092046FFF7ABFFFFF73C
:102D8000C7FF08B1FFF700FC002010BD70B5044676
:102D900094F8340000F00F00012802D04FF0FF300B
:102DA00070BDFDF7CFF9054694F8340020F00F0010
:102DB00040F0020084F834002046FFF755FC04F18F
:102DC0004C0000F0D7F92846FDF7C0F90020E7E7EE
:102DD00070B5044625466FF00100286305F1140024
:102DE000FFF740F92846FFF717FCFFF7CDFB70BD52
:102DF0001CE00F4800F01AF90446601C38B9FFF7D0
:102E000087FF0546FFF7C2FFFFF7BEFB0CE000F0AF
:102E100053F80546601B6FF00041884203D2641BE3
:102E20002046FFF79FFE00BFFFF720FDE1E700000F
:102E3000A800002070B5FDF785F905461448046820
:102E400094F8340000F00F0001281CD1D4E90510DB
:102E5000814218D004F11400FFF704F994F83520EA
:102E60000C4B03EBC20004F114014268116042688C
:102E70004A604160086000BF2846FDF767F9FFF728
:102E800083FB002070BD2846FDF760F90020F9E7BC
:102E90008C000020A81500200146002902DA4FF01E
:102EA000FF3008E04FF47A724A4302F2E7324FF4FF
:102EB0007A7392FBF3F07047014800687047000096
:102EC0001800002010B50A480068401C0849086036
:102ED000FFF71EFF0446A06C401EA064A06C18B94A
:102EE000606CA064FFF7A6FF00F004F810BD0000BE
:102EF0001800002070B5FFF7DFFF0546FDF722F947
:102F0000064628E019480068A0F11404A06A281AAF
:102F10006FF0004188421DD22046FEF786F9D4E9C1
:102F200007108847FFF7C8FF0546607A00F00200E7
:102F300058B1607A00F0010038B1607A20F00100E9
:102F40006072204600F080F805E0607A20F0010011
:102F5000607200E004E00548FFF773F80028D1D064
:102F600000BF3046FDF7F2F870BD0000A000002061
:102F7000034649B1012904D0022908D0032910D100
:102F80000AE0586A10600CE01068586209E0587A4C
:102F900020F00200587204E0587A40F002005872A3
:102FA00000BF00BF002070472DE9F84304460E46DD
:102FB00017469846DDF8209021460920FFF75DFA74
:102FC000054615B90020BDE8F88343463A46314628
:102FD0002846CDF80090FEF707F92846F3E770B5CC
:102FE0000446FDF7AFF805462046FEF71EF92846D1
:102FF000FDF7ACF82046FFF77CFA002070BD2DE904
:10300000F84307460C4615461E46DDE90889224668
:1030100009213846FFF790FA43463246294638469A
:10302000CDF80090FEF7E0F8BDE8F88370B50446EF
:103030002046FFF706F810B14FF0FF3070BD206852
:10304000A0F11405A86AF9E72DE9F8430546FDF754
:1030500079F880462846FEF7E8F8687A20F0010003
:1030600068724046FDF772F8FFF726FF696A084468
:10307000A862FDF767F88046687A00F0040008B19E
:10308000384E00E0384E009600242AE019E05DF842
:1030900024201168142202EBC402881A826AAB6AE7
:1030A000D21A00D108E0826AAB6AD21A6FF00043EC
:1030B0009A4200D20CE000BF5DF8240000684DF891
:1030C00024005DF8240006EBC40149688842DED183
:1030D00000BF2CB15DF824000830611C4DF82100C0
:1030E000641C002CD2D021480068401C1F49086095
:1030F0000846076805F114010098FEF78CFF0224CA
:1031000012E007F0030060B9C4F1010305F11402F5
:1031100002EBC301C4F101025DF82200FEF77BFF60
:1031200000E003E0BF08641C012CEAD900BF687A04
:1031300040F0010068724046FDF708F8687A00F038
:10314000040058B10A4890F8340000F00F0001283C
:1031500004D00748FFF7BEFDFFF716FA0020BDE8D0
:10316000F8830000A8000020A0000020B00000208C
:10317000A816002070B50446607A00F0010010B96E
:103180004FF0FF3070BDFCF7DDFF05462046FEF72F
:103190004CF82846FCF7DAFF607A20F001006072F4
:1031A0000020EFE72DE9FF4F89B0804644460A989A
:1031B0004044461E464504D24FF0FF36A6EB0800B9
:1031C0000A906FE10B980078252806D0B44202D807
:1031D0000B9800782070641C61E1002526E00B98B4
:1031E000401C0B900B9800782D2802D145F010055B
:1031F0001CE00B9800782B2802D145F0040515E05F
:103200000B980078202802D145F008050EE00B98B5
:103210000078232802D145F0200507E00B980078BC
:10322000302802D145F0010500E000E0D7E700BFFB
:103230004FF0FF370B98007830380A2804D20BA8DB
:1032400000F0F2F907460EE00B9800782A280AD120
:103250000B98401C0B900C9880C80C90002F02DA41
:103260007F4245F010054FF0FF390B9800782E286B
:103270001CD10B98401C0B900B98007830380A2812
:1032800004D20BA800F0D0F981460AE00B98007830
:103290002A2806D10B98401C0B900C9850F8049BE0
:1032A0000C90B9F1000F01DA4FF0000900200490F2
:1032B0000B980078682803D00B9800786C2805D10B
:1032C0000B98007804900B98401C0B900A200590F6
:1032D0000B9800786F2875D00CDC632813D004DCC1
:1032E000252870D058286FD18DE064286DD06928CA
:1032F000F9D18FE070286AD0732825D0752878D04E
:103300007828F0D182E005F0100040B904E0B44222
:1033100001D820202070641C781E071EF7DC0C9852
:1033200010F8041B0C90C8B20790B44201D807985B
:103330002070641C04E0B44201D820202070641C7A
:10334000781E071EF7DCAAE00C98006806900C981F
:10335000001D0C90069808B95AA006900698FFF731
:10336000C3FA8346B9F1000F02DDCB4500DDCB4641
:1033700005F0100048B904E0B44201D820202070C4
:10338000641C38467F1E5845F6DC002008900BE090
:10339000B44202D8069800782070641C0698401C3D
:1033A00006900898401C089008985845F0DB04E007
:1033B000B44201D820202070641C38467F1E584536
:1033C000F6DC6CE01CE015E028E022E0FFE7781C6A
:1033D00010B9082745F00105CDE9007902950C9850
:1033E00004C8102331460C902046FEF735FA0446F7
:1033F00055E012E0B44201D825202070641C4EE054
:10340000082005901DE045F0400500BF1020059004
:1034100017E000BF45F0020500BF12E0B44201D83A
:1034200025202070641C0B98007830B1B44202D87B
:103430000B9800782070641C02E00B98401E0B90E3
:103440002DE000BF04986C2807D10C9850F804AB0D
:103450000C9005F00200B8B116E0049868280BD172
:103460000C9830F8041B1FFA81FA0C9005F002004A
:1034700050B10FFA8AFA07E00C9850F804AB0C90A0
:1034800005F0020000B100BFCDE900790295524677
:1034900031462046059BFEF7DFF9044600BF0B9836
:1034A000401C0B900B98007800287FF48BAEB44240
:1034B00001D8207001E000203070A4EB08000DB0AE
:1034C000BDE8F08F284E554C4C2900000020704775
:1034D00000207047002070470020704710B5FCF7AF
:1034E00031FEFEF75DFBFFF769F9FFF7DBFAFFF747
:1034F0009BFAFEF77DFAFFF7E3FAFFF7A9FBFFF768
:10350000B9FA002010BD00002DE9F84306468846B0
:1035100017460025102F04D11020424908700425B9
:1035200003E00C203F4908700825B8F1000F03D0D4
:10353000B8F1010F72D125E0002420E0082090FBB3
:10354000F5F0604300F0FF09C4EBC40006EB400255
:1035500049460020FDF70CFA082090FBF5F0604387
:1035600000F0FF09C4EBC40006EB4000009782891D
:10357000062349464020FDF7B9F9601CC4B2AC42AD
:10358000DCDB4CE0002445E0082090FBF5F06043D4
:1035900000F0FF096000C0EBC00006EB40024946A6
:1035A0000020FDF7E5F9082090FBF5F0604300F0FE
:1035B000FF096000C0EBC00006EB40000097828965
:1035C000042349462020FDF791F9082090FBF5F0EF
:1035D000604300F0FF096000401CC0EBC00006EB38
:1035E000400249464020FDF7C3F9082090FBF5F062
:1035F000604300F0FF096000401CC0EBC00006EB18
:10360000400000978289042349466020FDF76EF947
:10361000601CC4B2AC42B7DB01E0FFE700BF00BFF3
:10362000BDE8F883910200200146002009E00B6804
:103630005A1C0A601A7800EB800302EB4302A2F1E5
:1036400030000A681278303A0A2AF0D37047000036
:1036500070B504460D4604EB8400414901EB80003F
:1036600010F81500A04200D170BD04EB84003C4965
:1036700001EB800000EB45004078072854D2DFE8DA
:1036800000F00405121F2C39460059E004EB8400B9
:10369000334A02EB800000EB450041783148006876
:1036A000FEF743FE4CE004EB84002D4A02EB800061
:1036B00000EB450041782B480068FEF736FE3FE0FE
:1036C00004EB8400264A02EB800000EB45004178C1
:1036D00024480068FEF729FE32E004EB8400204A0B
:1036E00002EB800000EB450041781E480068FEF7C1
:1036F0001CFE25E004EB8400194A02EB800000EB7D
:103700004500417817480068FEF70FFE18E004EB0B
:103710008400134A02EB800000EB45004178114819
:103720000068FEF702FE0BE004EB84000C4A02EB9B
:10373000800000EB450041780BA0FEF73DFC00BF88
:1037400000BFFEF787F904EB8400054901EB800018
:1037500010F815000C490870FEF78CF900BF83E7DC
:10376000C012002000000020D7B4CCACD7AAD2C62B
:10377000B4EDCEF3A3ACB4EDCEF3616374696F6EB8
:103780003A25640A000000001400002001202A49A4
:10379000887001212848C17002202749087103213F
:1037A0002548417103202449887105212248C171AF
:1037B00000202149087200211F48417201218175B2
:1037C0000021C17501210176002141760121817618
:1037D0000021C17601770221417780F82A1000216B
:1037E00080F82B10022180F82C10002180F82D1079
:1037F000022180F82E10002180F82F1080F8301060
:10380000042180F83110032180F83E10002180F857
:103810003F10032180F84010002180F8411003215F
:1038200080F84210002180F8431080F844100621EF
:1038300080F8451070470000C012002008B51C48F1
:10384000FDF70AFD012000231AA21946009018482E
:1038500000F060F80120002318A2014600901448EF
:1038600000F058F80120002315A202210090104812
:1038700000F050F80120022313A2032100900C480D
:1038800000F048F80120032310A20421009008480A
:1038900000F040F8012004230DA205210090044807
:1038A00000F038F8102201210148FFF72DFE08BD75
:1038B000101D00207461736B000000006F6E6500C6
:1038C0006B65795F6E000000733200007333000097
:1038D00073340000002410E04FF0FF310748006807
:1038E000FEF731FF044644B9054906A0FEF764FB24
:1038F0004FF47A710248FCF7B8FCEDE708000020AD
:1039000028190020CAD5B5BDCAFDBEDD3A25730A07
:10391000000000002DE9F04104460D4616461F4602
:10392000DDF81880B8F1000F06D0C5EBC50104EB37
:1039300041003146FCF7A4FCC5EBC50004EB400098
:1039400087810120BDE8F081000001000200010034
:103950000300010002000100040001000200010058
:103960000300010002000100050001000200010047
:103970000300010002000100040001000200010038
:103980000300010002000100060001000200010026
:103990000300010002000100040001000200010018
:1039A0000300010002000100050001000200010007
:1039B00003000100020001000400010002000100F8
:1039C00003000100020001000700010002000100E5
:1039D00003000100020001000400010002000100D8
:1039E00003000100020001000500010002000100C7
:1039F00003000100020001000400010002000100B8
:103A000003000100020001000600010002000100A5
:103A10000300010002000100040001000200010097
:103A20000300010002000100050001000200010086
:103A30000300010002000100040001000200010077
:103A400003000100020001003031323334353637D3
:103A5000383961626364656600303132333435363B
:103A60003738394142434445460000000000000019
:103A70000000002F000000000700070000147F1462
:103A80007F1400242A7F2A12006264081323003660
:103A90004955225000000503000000001C2241008F
:103AA000000041221C000014083E08140008083ED3
:103AB0000808000000A060000008080808080000CE
:103AC00060600000002010080402003E5149453E9D
:103AD0000000427F400000426151494600214145BB
:103AE0004B31001814127F10002745454539003C22
:103AF0004A494930000171090503003649494936F0
:103B000000064949291E00003636000000005636DE
:103B100000000008142241000014141414140000C2
:103B20004122140800020151090600324959513E50
:103B3000007C1211127C007F49494936003E414108
:103B40004122007F4141221C007F49494941007FB9
:103B500009090901003E4149497A007F0808087FA8
:103B60000000417F4100002040413F01007F0814D8
:103B70002241007F40404040007F020C027F007FD6
:103B80000408107F003E4141413E007F09090906BB
:103B9000003E4151215E007F0919294600464949EE
:103BA00049310001017F0101003F4040403F001FBB
:103BB0002040201F003F4038403F0063140814633A
:103BC00000070870080700615149454300007F4124
:103BD000410000552A552A55000041417F0000044C
:103BE0000201020400404040404000000102040085
:103BF000002054545478007F4844443800384444EA
:103C0000442000384444487F003854545418000875
:103C10007E0901020018A4A4A47C007F0804047893
:103C20000000447D4000004080847D00007F10281B
:103C300044000000417F4000007C04180478007CB0
:103C40000804047800384444443800FC2424241830
:103C50000018242418FC007C08040408004854546C
:103C6000542000043F444020003C4040207C001C85
:103C70002040201C003C4030403C00442810284498
:103C8000001CA0A0A07C004464544C4414141414E0
:103C900014140000000000000000000000000000FC
:103CA0000000000000F800000000000000333000B9
:103CB000000000100C06100C0600000000000000C0
:103CC000000040C07840C0784000043F04043F0436
:103CD0000400007088FC08300000001820FF211E3E
:103CE0000000F008F000E018000000211C031E2175
:103CF0001E0000F00888700000001E2123241927F0
:103D0000211010160E00000000000000000000004E
:103D10000000000000E01804020000000007182066
:103D2000400000020418E0000000004020180700D6
:103D30000000404080F0804040000202010F01027C
:103D40000200000000F0000000000101011F01015D
:103D50000100000000000000000080B070000000C2
:103D6000000000000000000000000001010101014E
:103D700001010000000000000000003030000000E1
:103D800000000000000080601804006018060100B8
:103D9000000000E010080810E000000F10202010C4
:103DA0000F00001010F8000000000020203F20202D
:103DB00000000070080808887000003028242221C4
:103DC000300000300888884830000018202020117A
:103DD0000E000000C02010F8000000070424243F5B
:103DE000240000F808888808080000192120201104
:103DF0000E0000E0108888180000000F112020112C
:103E00000E0000380808C83808000000003F000015
:103E100000000070880808887000001C2221212200
:103E20001C0000E010080810E00000003122221100
:103E30000F00000000C0C000000000000030300093
:103E40000000000000800000000000008060000012
:103E5000000000008040201008000001020408104B
:103E6000200040404040404040000404040404045A
:103E70000400000810204080000000201008040208
:103E80000100007048080808F0000000003036010A
:103E90000000C030C828E810E000071827242314C9
:103EA0000B000000C038E0000000203C2302022785
:103EB000382008F8888888700000203F20202011D2
:103EC0000E00C0300808080838000718202020100D
:103ED000080008F808080810E000203F2020201003
:103EE0000F0008F88888E8081000203F20202320D1
:103EF000180008F88888E8081000203F2000030018
:103F00000000C03008080838000007182020221ED2
:103F1000020008F808000008F808203F21010121EC
:103F20003F20000808F8080800000020203F20205B
:103F3000000000000808F8080800C08080807F00AA
:103F4000000008F888C028180800203F2001263803
:103F5000200008F8080000000000203F202020205A
:103F6000300008F8F800F8F80800203F003F003F54
:103F7000200008F830C00008F808203F200007188B
:103F80003F00E01008080810E0000F10202020106B
:103F90000F0008F808080808F000203F210101017F
:103FA0000000E01008080810E0000F182424385022
:103FB0004F0008F8888888887000203F2000030C94
:103FC000302000708808080838000038202121229D
:103FD0001C00180808F8080818000000203F2000FE
:103FE000000008F808000008F808001F2020202022
:103FF0001F000878880000C83808000007380E0144
:104000000000F80800F80008F800033C0700073C2F
:104010000300081868808068180820302C03032CDF
:1040200030200838C800C83808000000203F2000B1
:10403000000010080808C838080020382621202071
:104040001800000000FE020202000000007F404055
:104050004000000C30C000000000000000010638E5
:10406000C00000020202FE000000004040407F004D
:104070000000000004020202040000000000000032
:104080000000000000000000000080808080808030
:104090008080000202040000000000000000000018
:1040A000000000008080808000000019242222226D
:1040B0003F2008F8008080000000003F1120201100
:1040C0000E000000008080800000000E11202020E3
:1040D0001100000000808088F800000E11202010E0
:1040E0003F200000808080800000001F22222222CA
:1040F0001300008080F0888888180020203F20204E
:1041000000000000808080808000006B9494949375
:10411000600008F8008080800000203F210000201F
:104120003F2000809898000000000020203F2020C1
:104130000000000000809898000000C08080807F10
:10414000000008F8000080808000203F24022D300D
:104150002000000808F8000000000020203F202078
:1041600000008080808080808000203F20003F20F1
:10417000003F8080008080800000203F21000020E0
:104180003F200000808080800000001F2020202031
:104190001F00808000808000000080FFA12020118F
:1041A0000E000000008080808000000E112020A002
:1041B000FF80808080008080800020203F212000C0
:1041C00001000000808080808000003324242424AB
:1041D0001900008080E0808000000000001F202087
:1041E00000008080000000808000001F2020201040
:1041F0003F20808080000080808000010E30080613
:10420000010080800080008080800F300C030C3023
:104210000F0000808000808080000020312E0E3151
:104220002000808080000080808080818E70180651
:10423000010000808080808080000021302C2221BD
:10424000300000000000807C020200000000003FFF
:10425000404000000000FF00000000000000FF00E0
:1042600000000002027C800000000040403F00008F
:10427000000000060101020204040000000000002A
:1042800000000000D9340008D1340008CD34000803
:10429000D5340008B442000800000020C00200002D
:1042A000B8020008B4430008C0020020301F00001C
:1042B00040110008013C223C2A2004328032011ABD
:1042C0004C0C2904322032031A5C0C2904291032C8
:1042D000041A6C0C2904323032091A7C0C290402AD
:1042E0004B2C19881BF010012AFF050215F01B0F3B
:1042F00004012AFF0502130F18094040405F55557D
:104300005575041A5F0C091121080C11200F094979
:1043100089790909090F201F112FFE02424ACA4A52
:104320000304134202FE000E14FF40504C43404071
:104330004F50505C40FF1BF888012AFF050215F81A
:104340001B1F08012A7F200B109F80E23B80820107
:10435000000916E2A2928A86828080041840807F3B
:10436000172424A4FEA3221B22CCAA01141508069C
:1043700001FF2B0104010511FF0202025808101071
:1043800010FF109008C3021108080F100444827F28
:1043900001808040432C10284681A0A2102D0102EC
:1043A00003040410090607080902040608ACA24A1F
:0443B000041C2918A8
:0400000508000131BD
:00000001FF
