:020000040800F2
:100000002022002039020008CD0A0008EB01000878
:10001000C90A0008B5050008BD1600080000000068
:10002000000000000000000000000000E3100008D5
:100030003B0600080000000073010008F5110008ED
:10004000530200085302000853020008530200083C
:10005000530200085302000853020008530200082C
:10006000530200085302000853020008530200081C
:10007000530200085302000853020008530200080C
:1000800053020008530200085302000853020008FC
:1000900053020008530200085302000853020008EC
:1000A00053020008530200085302000853020008DC
:1000B000A11200085302000853020008530200086E
:1000C00053020008530200085302000853020008BC
:1000D0005302000885130008530200085302000869
:1000E000530200085302000853020008530200089C
:1000F000530200085302000853020008530200088C
:10010000530200085302000853020008530200087B
:10011000530200085302000853020008530200086B
:10012000530200085302000853020008530200085B
:10013000DFF80CD000F0AEF8004800470F030008CD
:1001400020220020EFF3108072B6704780F31088F1
:100150007047334A1368012B04D04FF0010313603A
:10016000304A1060304A116030484FF080510160D1
:100170007047EFF3108272B62948016891B14FF0D1
:10018000000101602748016829B1EFF3098121E9E5
:10019000F00F00680160244909680968B1E8F00FB0
:1001A00081F3098882F310884EF0040E70471E49CF
:1001B00008601C494FF00000086019494FF0010029
:1001C00008601B484FF47F01D0F8002041EA02018B
:1001D000016016484FF080510160164800680068C1
:1001E00080F3088861B662B670471EF0040F0CBF3A
:1001F000EFF30880EFF3098020E9F00F40F804EDF9
:100200001EF0040F0CBF80F3088880F3098800B546
:1002100002F00AF95DF804EB4EF0040E704700009E
:10022000C8000020C0000020C400002004ED00E051
:1002300020ED00E008ED00E0064880470648004752
:10024000FEE7FEE7FEE7FEE7FEE7FEE7FEE7FEE786
:10025000FEE7FEE74112000831010008D2B201E0DA
:1002600000F8012B491EFBD270470022F6E710B5BB
:1002700013460A4604461946FFF7F0FF204610BD14
:10028000034611F8012B00F8012B002AF9D118467A
:1002900070470000064C074D06E0E06840F001039F
:1002A00094E8070098471034AC42F6D3FFF744FFB8
:1002B000944B0008B44B000870B58C1810F8015B23
:1002C00015F0070301D110F8013B2A1106D110F8EF
:1002D000012B03E010F8016B01F8016B5B1EF9D1F3
:1002E0002B0705D40023521E0DD401F8013BFAE779
:1002F00010F8013BCB1A921C03E013F8015B01F8E4
:10030000015B521EF9D5A142D8D3002070BD10B5B3
:10031000FFF718FF03F0BCFC002010BD10B5FF2054
:1003200000F038F80446362C01D1002010BD3621EB
:10033000FF2000F0C5F8FF2000F02CF80446362C12
:1003400001D10020F2E70120F0E700001FB50E48C0
:100350000E4908604860C014488140000881402070
:100360000861C8600A484861001D886108487C38F7
:10037000C8610B4610330FCB8DE80F0003480FC840
:1003800000F00AFA1FBD000000180140FC1D00200B
:10039000AC01234270B586B004460026474B1033AB
:1003A0000FCB8DE80F0045480FC800F0AAFA25468C
:1003B000E01704EB10600012A02101EB4000C0B276
:1003C0003E4A0490D2E90430D2E90612CDE9003069
:1003D000CDE9021239480FC800F060FA374BD3E973
:1003E0000420D3E90613CDE90213CDE900203348F8
:1003F0000FC800F0C2FAE01704EB10600012A4EB83
:100400000020C0B22D4B0490D3E90420D3E9061399
:10041000CDE90213CDE9002028480FC800F03EFACC
:10042000264B10330FCB8DE80F0024480FC800F087
:10043000A4FA224BD3E905021969DB69CDE902234D
:10044000CDE900101D480FC800F05BFAA1201B4B3E
:10045000049010330FCB8DE80F0018480FC800F040
:100460001DFA164BD3E90420D3E90613CDE9021394
:10047000CDE9002011480FC800F07FFA00200F4B93
:100480000490D3E905021969DB69CDE90223CDE9BE
:1004900000100A480FC800F0C5F90646074BD3E91B
:1004A0000420D3E90613CDE90213CDE90020034867
:1004B0000FC800F044FA304606B070BDFC1D0020A5
:1004C00070B586B004460E463949D1E905030A697C
:1004D000C969CDE90231CDE9002035480FC800F0E7
:1004E00010FA2546E01704EB10600012A02101EB82
:1004F0004000C0B22E490490D1E905030A69C969D8
:10050000CDE90231CDE9002029480FC800F0C6F935
:10051000274B10330FCB8DE80F0025480FC800F094
:100520002CFAE01704EB10600012A4EB0020C0B21C
:100530001F4B0490D3E905021969DB69CDE9022359
:10054000CDE900101A480FC800F0A8F9184BD3E9FC
:100550000420D3E90613CDE90213CDE900201448A5
:100560000FC800F00AFA124B049610330FCB8DE837
:100570000F000F480FC800F091F90D4B10330FCB4F
:100580008DE80F000A480FC800F0F7F9084BD3E9CF
:1005900005211869DB69CDE90213CDE900020448A1
:1005A0000FC800F0CCF90A2002F064FF06B070BD5D
:1005B000FC1D002000BFFEE700F0805111B103498F
:1005C000086001E0024948607047000004040240EE
:1005D0000000024021B1026842F00102026004E022
:1005E00002684FF6FE731A40026070471AB1036842
:1005F0000B43036002E003688B430360704710B550
:100600000022026847F6F0739A430C6A8B68234312
:100610000C6923434C6923438C692343CC692343EE
:100620004C6A23438C6A23431A430260CB684360BD
:100630000B6883604B68C36010BD70472DE9F041C3
:10064000024600250026002000230024002791F800
:1006500003C00CF00F0591F803C00CF0100CBCF1B6
:10066000000F03D091F802C04CEA050591F800C0D4
:10067000BCF1000F31D0146800202BE04FF0010CCA
:100680000CFA00F3B1F800C00CEA03069E4220D138
:1006900083004FF00F0C0CFA03F7BC4305FA03FC80
:1006A0004CEA040491F803C0BCF1280F06D14FF0C6
:1006B000010C0CFA00FCC2F814C00AE091F803C067
:1006C000BCF1480F05D14FF0010C0CFA00FCC2F848
:1006D00010C0401C0828D1D31460B1F800C0BCF190
:1006E000FF0F34DD546800202EE000F1080C4FF0BD
:1006F000010808FA0CF3B1F800C00CEA03069E42A8
:1007000021D183004FF00F0C0CFA03F7BC4305FA1C
:1007100003FC4CEA040491F803C0BCF1280F05D196
:1007200000F1080C08FA0CF8C2F8148091F803C024
:10073000BCF1480F07D100F1080C4FF0010808FA8E
:100740000CF8C2F81080401C0828CED35460BDE8D5
:10075000F08141617047016170470FB41FB50020FF
:100760000B9908600AA80FC88DE80F0006A80FC8EB
:1007700000F0A4FC00200C990860022001F07AFF30
:1007800001200B990860052001F074FF00200B99EF
:1007900008601FBC5DF814FB0FB408B5DDE9052146
:1007A00041EA0200012100F0FFFBBDF81200ADF8A4
:1007B000000003208DF8020010208DF80300694628
:1007C0000398FFF73BFFBDF81000ADF80000694645
:1007D0000298FFF733FF0120079908600899086025
:1007E00001B05DF814FB0FB41FB500200B99086031
:1007F0000AA80FC88DE80F0006A80FC800F05EFC1D
:1008000001200C990860022001F034FF01200B99AF
:100810000860052001F02EFF00200B9908601FBC26
:100820005DF814FB0FB47FB5109E00240CA80FC810
:100830008DE80F0008A80FC800F030FC002514E078
:1008400000200D990860022001F014FF01200D998D
:1008500008606006040E0F98006808B1601CC4B2FE
:10086000012001F007FF681CC5B2082DE8DB46B97E
:100870000CA80FC88DE80F0008A80FC8FFF7B3FF3A
:1008800007E00CA80FC88DE80F0008A80FC8FFF7F5
:1008900064FF204604B070BC5DF814FB0FB47FB554
:1008A000109C0CA80FC88DE80F0008A80FC800F016
:1008B00005FC00200D99086000251DE004F0800073
:1008C000002803DD01200E99086002E000200E9947
:1008D00008606006040E022001F0CCFE01200D9994
:1008E0000860022001F0C6FE00200D990860022079
:1008F00001F0C0FE681CC5B2082DDFDB7FBC5DF8CF
:1009000014FB0FB41FB50AA80FC88DE80F0006A886
:100910000FC800F0D3FB01200C9908600B99086008
:10092000052001F0A7FE00200C990860062001F0C8
:10093000A1FE00200B9908601FBC5DF814FB0FB4EA
:100940001FB50AA80FC88DE80F0006A80FC800F051
:10095000B5FB00200B9908600C99086001200B99E9
:100960000860062001F086FE01200C990860062030
:1009700001F080FE1FBC5DF814FB0FB41FB500240E
:100980000AA80FC88DE80F0006A80FC800F086FB64
:1009900001200C99086001F06DFE01200B990860A0
:1009A00001F068FE10E0601CC4B2FA2C0CDD0AA84D
:1009B0000FC88DE80F0006A80FC8FFF7C0FF012081
:1009C00004B010BC5DF814FB0D9800680028EAD153
:1009D0000B99086000BFF3E708B50121042000F07F
:1009E000E3FA48208DF8030003208DF80200102060
:1009F000ADF8000069460C48FFF720FE2020ADF856
:100A0000000069460848FFF719FE4020ADF80000D5
:100A100069460548FFF712FE8020ADF800006946E0
:100A20000148FFF70BFE08BD0008014010B5044661
:100A300023480078012827D12248006858B121486E
:100A4000001D006838B11F480830006818B11D4803
:100A50000C300068C0B9082002F00CFD00201849D5
:100A600008701848006808B9012010BD1548001D1D
:100A7000006808B90220F8E712480830006808B991
:100A80000320F2E70420F0E70E480068012810D1A7
:100A90000C48001D006801280BD10A480830006886
:100AA000012806D107480C300068012801D104490B
:100AB0000870012C02D10120014908700020D4E700
:100AC000DC0000201001214200BFFEE7704708B59E
:100AD0004FF4A06000F046F825208DF800000120BA
:100AE0008DF801008DF802008DF80300684600F0D3
:100AF00001F808BD70B5002100230F22C47804B3AB
:100B0000154C246804F4E064C4F5E064210AC1F1E2
:100B10000403CA40447804FA03F184781440214362
:100B200009010E4C0678A155047804F01F05012434
:100B3000AC4005786D11AD0005F1E025C5F8004128
:100B400009E0047804F01F050124AC40044D067848
:100B5000761145F8264070BD0CED00E000E400E0A1
:100B600080E100E002490143024A11607047000041
:100B70000000FA050CED00E070B5002419E004F166
:100B8000B001C8B2002100F0C5F90021022000F038
:100B9000C1F90021102000F0BDF9002505E0012178
:100BA000002000F0B7F9681CC5B2802DF7DB601C8F
:100BB000C4B2082CE3DB70BD08B50121202000F091
:100BC000F3F910208DF8030003208DF802000820AF
:100BD000ADF8000069466548FFF730FD1020ADF81C
:100BE000000069466148FFF729FD2020ADF80000AC
:100BF00069465E48FFF722FD8020ADF80000694697
:100C00005A48FFF71BFD4FF48070ADF800006946AD
:100C10005648FFF713FD08215448FFF79CFD1021AB
:100C20005248FFF798FD20215048FFF794FD80219E
:100C30004E48FFF790FD4FF480714C48FFF78BFD55
:100C400010214A48FFF787FD642000F00BFE1021B9
:100C50004648FFF77EFD642000F004FE1021434863
:100C6000FFF779FD0021AE2000F054F900210220A9
:100C700000F050F90021102000F04CF90021402034
:100C800000F048F90021812000F044F90021CF2034
:100C900000F040F90021A12000F03CF90021C8201B
:100CA00000F038F90021A62000F034F90021A82036
:100CB00000F030F900213F2000F02CF900218120C4
:100CC00000F028F90021FF2000F024F90021D320B2
:100CD00000F020F90021084600F01CF90021D52081
:100CE00000F018F90021802000F014F90021D9202B
:100CF00000F010F90021F12000F00CF90021DA20B9
:100D000000F008F90021122000F004F90021DB2096
:100D100000F000F90021402000F0FCF80021202024
:100D200000F0F8F80021022000F0F4F800218D20F6
:100D300000F0F0F80021142000F0ECF80021A420CD
:100D400000F0E8F80021A62000F0E4F80021AF2030
:100D500000F0E0F80021AF2000F0DCF8FFF70CFF16
:100D60000021084600F004F808BD0000001401400E
:100D700070B504460D4605F1B001C8B2002100F07F
:100D8000C9F8102141EA1410002100F0C3F804F062
:100D90000F0141F00100002100F0BCF870BD00001F
:100DA0002DE9F04107460E46904600250024A8F1A3
:100DB0002000C5B27F2F02DD0027B01CC6B21F483D
:100DC0000078102824D131463846FFF7D1FF00249F
:100DD00008E004EB05111A4A505C012100F09AF872
:100DE000601CC4B2082CF4DB701CC1B23846FFF79B
:100DF000BFFF002409E004EB05110831104A505CE4
:100E0000012100F087F8601CC4B2082CF3DB12E06B
:100E100031463846FFF7ACFF00240AE005EB4501F8
:100E2000084A02EB4101085D012100F073F8601CE3
:100E3000C4B2062CF2DBBDE8F08100009D02002068
:100E4000924500086A4300082DE9FF5F0746914676
:100E50001D460E9E4FF0000A002433E0281B401E62
:100E6000C1B20A2001F074F8B9FBF0F00A21B0FB1E
:100E7000F1F201FB1208BAF1000F13D1681EA04273
:100E800010DDB8F1000F0BD1B34606EBDB71491052
:100E900001FB0471C8B220220199FFF781FF0FE026
:100EA0004FF0010AB34606EBDB71491001FB0471F8
:100EB000C8B208F13001CAB20199FFF771FF00BF53
:100EC000601CC4B2AC42C9DBBDE8FF9F2DE9F04114
:100ED00004460F461546002615E0AA5D3946204611
:100EE000FFF75EFF0A480078102803D104F10800DC
:100EF000C4B201E0A01DC4B2782C02DD0024B81CED
:100F0000C7B2701CC6B2A85D0028E6D1BDE8F0816A
:100F10009D02002070B504460E4626B120211948D6
:100F2000FFF719FC03E020211648FFF712FC082107
:100F30001448FFF70EFC002519E080211148FFF747
:100F400008FC04F0800028B14FF480710D48FFF7D1
:100F500002FC04E04FF480710A48FFF7FAFB80219D
:100F60000848FFF7F8FB6006040E681CC5B2082DA0
:100F7000E3DB08210348FFF7EEFB20210148FFF7E0
:100F8000EAFB70BD0014014029B1064A52690243D0
:100F9000044B5A6104E0034A52698243014B5A618F
:100FA000704700000010024029B1064A92690243CE
:100FB000044B9A6104E0034A92698243014B9A61AF
:100FC000704700000010024030B5002100220024CC
:100FD00000232D4D6D6805F00C0121B1042905D0C9
:100FE000082923D105E0294D056022E0274D056041
:100FF0001FE0254D6D6805F47012234D6D6805F4F2
:101000008034022505EB92421CB9214D5543056001
:101010000BE01D4D6D6805F400351DB11C4D5543A9
:10102000056002E0194D5543056002E0174D05606B
:1010300000BF00BF144D6D6805F0F0010909154DA2
:101040006B5C0568DD4045600F4D6D6805F4E0613F
:10105000090A104D6B5C4568DD4085600A4D6D687E
:1010600005F46051C90A0B4D6B5C4568DD40C560F5
:10107000054D6D6805F44041890B074D6B5CC568F3
:10108000B5FBF3F5056130BD0010024000127A0097
:1010900000093D00A4020020B40200200FB408B5EE
:1010A000BDF81000ADF8000048208DF80300694637
:1010B0000298FFF7C3FA01B05DF814FB0FB408B54E
:1010C000BDF81000ADF8000003208DF802001020DC
:1010D0008DF8030069460298FFF7B0FA01B05DF899
:1010E00014FB704710B500F001F810BD0CB50020DE
:1010F000019000903348006840F480303149086026
:1011000000BF3048006800F4003000900198401C97
:101110000190009818B90198B0F5A06FF1D1294855
:10112000006800F4003010B10120009001E00020C0
:1011300000900098012843D12348006840F0100037
:10114000214908600846006820F00300086008464E
:10115000006840F0020008601A4840681949486079
:101160000846406848600846406840F4806048602F
:101170000846406820F47C1048600846406840F407
:10118000E81048600846006840F08070086000BFC2
:101190000C48006800F000700028F9D00948406849
:1011A00020F00300074948600846406840F002000C
:1011B000486000BF0348406800F00C000828F9D1DF
:1011C0000CBD00000010024000200240042808D19D
:1011D0004FF0E021096941F004014FF0E022116174
:1011E00007E04FF0E021096921F004014FF0E0220F
:1011F0001161704710B501F051FA02F03DFA01F0AB
:101200005DFA10BD10B504466FF00400FFF7DEFF75
:10121000E11704EB5171C1F3C701074A1170104681
:10122000007800EB4001C1EBC0104FF6FF7101EAFE
:10123000C0000249088010BDA0020020A2020020C8
:1012400010B51348006840F00100114908600846D5
:101250004068104908400E494860084600680E4939
:1012600008400B4908600846006820F480200860A8
:101270000846406820F4FE0048604FF41F00886074
:10128000FFF730FF4FF000600449086010BD000018
:10129000001002400000FFF8FFFFF6FE08ED00E03E
:1012A00010B50121880700F040F870B319480078A4
:1012B000401C1849087008460078642801DD0020A9
:1012C000087014480078282190FBF1F201FB12000D
:1012D000012809D11048007830B1FFF74DFC0C22ED
:1012E00001210E4802F0EAFC0A480078142190FB24
:1012F000F1F201FB1200022807D10948006820B969
:101300000020FFF793FB064908600121880700F0E1
:1013100009F810BD9F0200209E0200201C1D002025
:10132000D0000020CA430282704730B50246002038
:1013300000230024158A05EA0103958905EA0104C2
:1013400013B10CB1012000E0002030BD08B50A48FF
:1013500000F070FAFFF710FC0120009007480378B6
:1013600007A20021044802F055FF0C220121024887
:1013700002F0A4FC08BD00001C1D0020200000207D
:101380007069640010B501F089F940F22441064803
:1013900000F07CF820B100F075F9034800F032F954
:1013A00001F08CF910BD00000038014021B18289A4
:1013B00042F40052828104E082894DF6FF731A40A4
:1013C0008281704700B585B001210420FFF7ECFD54
:1013D00001218803FFF7E8FD4FF40070ADF810001D
:1013E00018208DF8130003208DF8120004A91A4864
:1013F000FFF724F94FF48060ADF8100004208DF859
:10140000130004A91448FFF719F94FF4E1300090D4
:101410000020ADF80400ADF80600ADF80800ADF806
:101420000C000C20ADF80A0069460C4800F07EF86C
:10143000FFF74DFB012240F22441084800F050F82C
:1014400001224021054800F00BF801210348FFF775
:10145000ADFF05B000BD00000008014000380140AC
:101460001AB1838A0B43838202E0838A8B4383828F
:10147000704702460020B1F5007F00D100BF1388FD
:101480000B400BB1012000E00020704770B5024610
:10149000002400230025002040F66A16B14200D146
:1014A00000BFC1F3421501F01F03012606FA03F342
:1014B000012D02D19689334006E0022D02D1168A11
:1014C000334001E0968A33400C12012606FA04F4F8
:1014D0001688344013B10CB1012000E0002070BD2B
:1014E000F0B50346002400260025002040F66A17C8
:1014F000B94200D100BF1846C1F3421401F01F06E3
:10150000012707FA06F5012C01D10C3004E0022C6A
:1015100001D1103000E014301AB107682F43076082
:1015200002E00768AF430760F0BD00002DE9F04717
:1015300086B005460E460024A24600BFA1460027FD
:10154000B08900B100BF2F462C8A4CF6FF700440D2
:10155000F08804432C82AC894EF6F3100440B08826
:1015600031890843718908430443AC81AC8A4FF642
:10157000FF400440B0890443AC8201A8FFF724FD7A
:101580001F48874202D1DDF810A001E0DDF80CA071
:10159000A88900F4004040B10AEBCA0000EB0A1031
:1015A00031684900B0FBF1F807E00AEBCA0000EB34
:1015B0000A1031688900B0FBF1F86420B8FBF0F044
:1015C00004012009642101FB1089A88900F400406E
:1015D00040B1322000EBC900B0FBF1F000F0070091
:1015E000044308E0322000EB09106421B0FBF1F065
:1015F00000F00F0004432C8106B0BDE8F087000026
:101600000038014001468888C0F308007047C1F3E4
:10161000080282807047000000B58BB001210846A7
:10162000FFF7B2FC1448009014480190002002908B
:101630004FF47A70039000200490802005900020E1
:1016400006900790202008904FF440500990002009
:101650000A9069460A48FEF7D2FF4FF48030FEF741
:10166000ABFF012208210648FEF7C0FF0121044814
:10167000FEF7B0FF0BB000BD043801403419002064
:101680005800024010B500210A48FEF7A3FF4FF4AE
:101690008030FEF791FF4FF47A7006495839C865DB
:1016A00001210448FEF796FF0348006801F008FC9A
:1016B00010BD0000580002400800002000BFFEE7F7
:1016C000014609B900207047C8B220B1C8B20E4A1D
:1016D000105C401CF7E701F47F4028B10A48C1F3D1
:1016E0000722805C0930EEE701F47F0028B106484C
:1016F000C1F30742805C1130E5E7034800EB11605D
:1017000000781930DFE700004842000802E008C80E
:10171000121F08C1002AFAD170477047002001E06B
:1017200001C1121F002AFBD170470000034908685D
:10173000884201D0012070470020FCE7A40000206F
:101740002DE9FC5F04468B4615461E46DDE90C9AE2
:10175000DDE90E7804F114004060006000BF1C3425
:101760006560A660C4F80C90C4F810A02321D4E9E9
:10177000030201F038FAD4E9033C63441A1F0F4B0B
:10178000D4E9010100F050FF2060A77667760020C1
:10179000E061C4F82880C4F82C8060612076E065A0
:1017A00020661C3C00902346054A2146019004F126
:1017B0004C0001F0FEFF0020BDE8FC9F253300082F
:1017C000853500082DE9F04704460E461746984631
:1017D000DDF8209084F80990607A20F001006072B2
:1017E000E66127620020A062C4F82480002506E09C
:1017F00004F1140101EBC50000F0D6FF6D1C012DB2
:10180000F6DBBDE8F08710B50246002001460EE089
:1018100002F1140303EBC100D0E900436360D0E997
:10182000003423604060006000BF481C014601296D
:10183000EEDB10BD024600210EE0C1EBC10002EB61
:10184000400007A31B8803800020C1EBC10302EB0B
:1018500043039881481CC1B21029EEDB0120704778
:10186000200000000146114A12884A434FF0E0234D
:101870005A6100229A611A46126942F001021A6105
:1018800000BF4FF0E022106900F001021AB100F42D
:101890008032002AF5D04FF0E022126922F00102D6
:1018A0004FF0E0231A6100229A617047A2020020E3
:1018B0001CB500244BE04FF0FF3201A9244800681A
:1018C00001F093F80446002C41D101980A2838D23F
:1018D000DFE800F037050F0B150E3618192802F057
:1018E000A9FB1CA000F042FF30E0FFF72FFD2DE028
:1018F0002CE000F0F7F821A000F038FF26E000F01F
:10190000F1F823E000BF002000902648037826A2CB
:101910000021264802F07EFC0C220121234802F01F
:10192000CDF913E00120002321A2014600901F48B9
:1019300002F070FC0C2201211C4802F0BFF905E006
:1019400004E01CA0019900F011FF00BF00BFB2E746
:10195000000000207468726561645F646973706C74
:101960006179A3BA7461736B31BDE7C3E6B8FCD08B
:10197000C2B3C9B9A6A3A10A0000000074687265C9
:1019800061645F646973706C6179A3BABBD8B5BDDB
:101990006D61696EBDE7C3E6B8FCD0C2B3C9B9A634
:1019A000A3A10A0020000020706964001C1D002013
:1019B0006F6B00007468726561645F646973706C5A
:1019C0006179A3BACFD4CABEB8FCD0C2B4EDCEF30D
:1019D000A3ACB4EDCEF3616374696F6E3A25640A0B
:1019E0000000000008B5002416E04FF0FF32694601
:1019F0000A48006800F0F9FF044654B908A00099AD
:101A000000F0B4FE0098C1B20F48007802F0FAF975
:101A100002E00EA000F0AAFEE7E70000D8000020D8
:101A20007468726561645F6B657968616E646C652A
:101A3000A3BACAD5B5BDB0B4BCFC3A25642CBFAAC4
:101A4000CABCB4A6C0ED0A00140000207468726518
:101A500061645F6B657968616E646C65A3BAB0B4EC
:101A6000BCFCBDD3CAD5CAA7B0DCA3A10A00000044
:101A700070B505460B48006898B90020FEF7D6FF00
:101A8000084908600846006858B1084601680648D9
:101A9000006801F024F8044614B904A000F066FEC2
:101AA00000BF70BDD0000020D800002074696D65B3
:101AB000725F6B65797363616EA3BAB0B4BCFCB737
:101AC000A2CBCDB3C9B9A6A3A10A000010B500F0FE
:101AD0005FF800F00BFA00F0E7F800F091F9002051
:101AE00010BD000008B51D48FFF7A4FEFFF744F83D
:101AF000012000231AA219460090184802F08AFB20
:101B00000120002318A201460090144802F082FB35
:101B10000120034616A202210090104802F07AFB31
:101B20000120022313A2032100900C4802F072FB53
:101B30000120032310A204210090084802F06AFB50
:101B4000012004230DA205210090044802F062FB4D
:101B500010220121014802F0B1F808BD1C1D00202F
:101B60006D61696E000000006D6561750000000028
:101B7000746B3100746B3200746B3300746B34001F
:101B800010B5044600F01CFBFFF7A0FF10BD0000DD
:101B900010B5002211461AA001F06AF91B4908602D
:101BA0000846006810B11AA000F0E0FD00220521EF
:101BB0001DA000F0F1FE1E4908600846006810B143
:101BC0001CA000F0D3FD0022052121A000F0E4FEBE
:101BD000224908600846006810B121A000F0C6FD47
:101BE0000022052125A000F0D7FE274908600846FD
:101BF000006810B125A000F0B9FD002010BD000064
:101C000073656D5F7561727400000000080000204C
:101C100075617274D0C5BAC5C1BFB4B4BDA8B3C92B
:101C2000B9A6A3A10A0A00006D625F6B6579000086
:101C3000D8000020B0B4BCFCB4A6C0EDD3CACFE439
:101C4000B4B4BDA8B3C9B9A6A3A10A0A0000000094
:101C50006D625F646973706C617900000000002040
:101C60006F6C6564CFD4CABED3CACFE4B4B4BDA888
:101C7000B3C9B9A6A3A10A0A000000006D625F63A0
:101C800074726C41743234001C0000206374726CF6
:101C900041743234D3CACFE4B4B4BDA8B3C9B9A631
:101CA000A3A10A0A000000001CB5142006214FF46D
:101CB00000730022CDE90010224923A001F004FBAB
:101CC000244908600846006810B123A000F04EFDCA
:101CD000142002210B020022CDE90010254926A084
:101CE00001F0F2FA274908600846006810B126A002
:101CF00000F03CFD142008218B010022CDE90010EA
:101D0000284929A001F0E0FA2B490860084600683C
:101D100010B12AA000F02AFD14200A214FF400730C
:101D20000022CDE900102B492BA001F0CDFA2C495F
:101D300008600846006810B12AA000F017FD0020D6
:101D40001CBD0000D54100087561727468616E6445
:101D50006C6500000C00002075617274B4A6C0EDC3
:101D6000CFDFB3CCB4B4BDA8B3C9B9A6A3A10A0A46
:101D700000000000E51900086B657968616E646C0D
:101D80006500000010000020B0B4BCFCB4A6C0ED9B
:101D9000CFDFB3CCB4B4BDA8B3C9B9A6A3A10A0A16
:101DA00000000000D14000087461736B72656164CB
:101DB00041543234000000001800002041543234F5
:101DC000CFDFB3CCB4B4BDA8B3C9B9A6A3A10A0AE6
:101DD00000000000B1180008646973706C6179003C
:101DE00004000020CFD4CABECBA2D0C2CFDFB3CC78
:101DF000B4B4BDA8B3C9B9A6A3A10A0A00000000E3
:101E000010B51D48006838B11B48006801F082FB1E
:101E10001AA000F0ABFC02E04FF0FF3010BD1D48EF
:101E2000006838B11B48006801F074FB1AA000F08C
:101E30009DFC02E04FF0FF30F0E71E48006838B12B
:101E40001C48006801F066FB1BA000F08FFC02E05C
:101E50004FF0FF30E2E71E48006838B11C480068C8
:101E600001F058FB1BA000F081FC02E04FF0FF30B6
:101E7000D4E70020D2E700000C00002075617274E6
:101E8000CFDFB3CCBFAACABCB5F7B6C8A3A10A0AB4
:101E90000000000010000020B0B4BCFCB4A6C0EDEF
:101EA000CFDFB3CCBFAACABCB5F7B6C8A3A10A0A94
:101EB0000000000004000020CFD4CABECFDFB3CCA6
:101EC000BFAACABCB5F7B6C8A3A10A0A00000000A1
:101ED0001800002041543234CFDFB3CCBFAACABCB3
:101EE000B5F7B6C8A3A10A0A0000000008B506208D
:101EF000322300220949009009A001F02FFC0C496F
:101F000008600846006830B10846006801F076FCB9
:101F100008A000F02BFC002008BD0000711A00088A
:101F200074696D65725F6B65797363616E00000043
:101F3000D4000020B0B4BCFCC9A8C3E8B6A8CAB19C
:101F4000C6F7C6F4B6AFB3C9B9A6A3A10A0A000082
:101F500010B50246012000E050430B1EA1F1010420
:101F6000E1B2F9D110BD000030B51A4C43682468C5
:101F70001919884215D04B889BB9174B1B68994299
:101F80000FD0164B1B688B4201D1144B18604B6865
:101F90004360104B1B68C31A0E4D4C682D682C44CF
:101FA000A3600C4C836824681A19824211D05388AC
:101FB0007BB90A4B1B68834201D1084B1A60436806
:101FC0005360044B1B68D31A024D44682D682C449F
:101FD000A36030BD2C000020300000203400002021
:101FE0002DE9F04F86B00D469C46DDE91064019660
:101FF0000F9B04F04008B8F1000F02D0DFF87081A9
:1020000001E0DFF87081CDF8008004F01008B8F12D
:10201000000F01D024F0010404F00108B8F1000F12
:1020200002D04FF0300801E04FF02008C2460027F0
:1020300004F00208B8F1000F11D0002A02DA2D27AF
:1020400052420CE004F00408B8F1000F01D02B2735
:1020500005E004F00808B8F1000F00D020270021A7
:1020600042B94FF0300B8846491C0DF1080909F8B8
:1020700008B01DE01AE0E146B9F10A0F08D14FF0AF
:102080000A0BB2FBFBFE0BFB1E28B2FBFBF202E0CD
:1020900002F00F08120900BFDDF8009019F808B02F
:1020A0008846491C0DF1080909F808B0002AE2D158
:1020B000B14200DD0E469B1B04F01108B8F1000F81
:1020C00010D117B1002B00DD5B1E06E0A84203D83B
:1020D0004FF0200880F80080401CB3F10008A3F105
:1020E0000103F3DC27B1A84201D807705B1E401C36
:1020F00004F01008B8F1000F0AD104E0A84201D89A
:1021000080F800A0401CB3F10008A3F10103F5DC46
:1021100006E0A84203D84FF0300880F80080401C49
:10212000B046761E8845F4DC08E0A84205D80DF1DB
:10213000080818F8018080F80080401CB1F1000800
:10214000A1F1010104DDDDF80480B8F1000FECD14C
:1021500006E0A84203D84FF0200880F80080401C19
:10216000B3F10008A3F10103F3DC06B0BDE8F08F82
:1021700059430008484300081CB5142001214B02B4
:102180000022CDE90010044904A001F09DF80446A6
:10219000204601F0BFF91CBD811B00086D61696E0E
:1021A0000000000010B5044C02E020688047241DA8
:1021B00002488442F9D310BD884B00088C4B0008BC
:1021C00010B5044C02E020688047241D0248844278
:1021D000F9D310BD8C4B0008904B000810B5FDF7EB
:1021E000B1FF044604480088401C00B20249088040
:1021F0002046FDF7ABFF10BD9400002010B5FDF7A1
:10220000A1FF04460B480088401E00B2094908801F
:102210000846B0F90000002807DC002008802046AE
:10222000FDF794FF00F08AFD02E02046FDF78EFFE7
:1022300010BD00009400002070B5054605B970BDC2
:102240001D480068854203D31C480068854200D3BE
:10225000F5E7A5F10C044FF0FF31194800F04DFEF1
:10226000608818B12088B0F5F55F08D015A000F09F
:102270007DFA23886288214619A000F077FA0020B1
:1022800060804FF4F550208021480068844201D2DC
:102290001F480460084960680968611A401A1D49AE
:1022A0000968081A1B4908602046FFF75DFE0448CC
:1022B00000F006FE00BFC2E72C0000203000002026
:1022C00094150020746F206672656520612062613C
:1022D00064206461746120626C6F636B3A0A000071
:1022E0006D656D3A203078253038782C207573650F
:1022F0006420666C61673A2025642C206D616769F3
:102300006320636F64653A203078253034780A00A2
:10231000340000203C00002000487047CC02002020
:1023200000487047CC12002070B54820FEF76AFFC5
:10233000FEF752FBFEF740FCFEF71EFC20A2002138
:102340000846FEF7C3FDFFF767F9FFF73BF8FDF717
:10235000FDFF01F017FE1D4800684FF47A72B0FBD4
:10236000F2F1B1F1807F00D31DE021F07F40401EEB
:102370004FF0E022506150170F22002807DA1307B0
:102380001D0E134B00F00F04241F1D5503E013070F
:102390001C0E104B1C5400BF00204FF0E022906137
:1023A0000720106100BFFFF7FDFEFFF7B9FF0446ED
:1023B000FFF7B2FF0546214600F094FE70BD000015
:1023C00068656C6C6F206D6375000000B8020020BA
:1023D00018ED00E000E400E010B50446FFF7FEFE53
:1023E00019E020780A280AD10D210E48FFF70FF9CD
:1023F00000BF80210B48FFF73CF80028F9D014F803
:10240000011B0848FFF703F900BF80210548FFF7CB
:1024100030F80028F9D020780028E2D1FFF7EEFE4E
:1024200010BD00000038014070B505462C1D2E4837
:10243000006838B128462C4909688847064606B91D
:1024400070BD00BF29A0E16B00F090F92BA0216ABC
:1024500000F08CF92DA0616A00F088F92FA0A16A24
:1024600000F084F931A0E16A00F080F933A021681E
:1024700000F07CF935A0616800F078F937A0A16818
:1024800000F074F939A0E16800F070F93BA021690F
:1024900000F06CF93DA0616900F068F93FA0A16906
:1024A00000F064F941A0E16900F060F943A0216BFC
:1024B00000F05CF945A0616B00F058F947A0A16BF2
:1024C00000F054F9287800F0040038B100F0FAFF69
:1024D0000646314645A000F049F902E04BA000F065
:1024E00045F900BFFEE70000CC0000207073723A8F
:1024F000203078253038780A000000007230303AF9
:10250000203078253038780A000000007230313AE7
:10251000203078253038780A000000007230323AD6
:10252000203078253038780A000000007230333AC5
:10253000203078253038780A000000007230343AB4
:10254000203078253038780A000000007230353AA3
:10255000203078253038780A000000007230363A92
:10256000203078253038780A000000007230373A81
:10257000203078253038780A000000007230383A70
:10258000203078253038780A000000007230393A5F
:10259000203078253038780A000000007231303A57
:1025A000203078253038780A000000007231313A46
:1025B000203078253038780A000000007231323A35
:1025C000203078253038780A00000000206C723AFC
:1025D000203078253038780A000000002070633AF7
:1025E000203078253038780A000000006861726475
:1025F000206661756C74206F6E207468726561640A
:102600003A2025730D0A0D0A00000000686172640B
:10261000206661756C74206F6E2068616E646C65F5
:10262000720D0A0D0A000000F0B504460D4616466C
:10263000301D20F0070040380146002203E00C4F17
:1026400041F82270521C102AF9D30D624FF0000C91
:10265000C1F824C0C1F828C0C1F82CC0C1F830C0EE
:102660004B638C634FF0807CC1F83CC0F0BD000030
:10267000EFBEADDE4FF0E02252694FF47A73B2FB49
:10268000F3F250434FF0E022916900BF4FF0E02297
:1026900092698A1A8242F9D37047000010B5FDF79B
:1026A00051FD044604480078401C03490870204648
:1026B000FDF74CFD10BD00002800002010B5FDF70F
:1026C00041FD044604480078401E03490870204636
:1026D000FDF73CFD10BD00002800002070B5044649
:1026E0002068A0F11405284600F0CEFE002070BD41
:1026F0002DE9F04105460C469046204600F020FFAB
:10270000B8F1000F03D0B8F1010F23D105E004F1B7
:102710001401284600F060F81CE02E680FE0A6F1D6
:10272000140794F8350097F83510884206DA04F15A
:10273000140107F1140000F04FF802E03668AE42D1
:10274000EDD100BFAE4204D104F11401284600F0DF
:1027500043F800BF00BF0020BDE8F08110B504467B
:1027600004F1140000F01AF8002010BD0FB438B5C1
:1027700005A800907F210848009B049A01F0ECF81E
:1027800004467F2C00D97F240348FFF725FE002054
:10279000009038BC5DF814FB141500204060006008
:1027A000704740600060704740600060704702689A
:1027B000516002680A6001604860704702685160B9
:1027C00002680A60016048607047026851600268F0
:1027D0000A600160486070474268116042684A6060
:1027E00041600860704701460868884201D10120B5
:1027F00070470020FCE701460868884201D10120AB
:1028000070470020FCE7D0E900215160D0E90012B8
:102810001160406000607047D0E900215160D0E94C
:102820000012116040600060704700002DE9F04127
:10283000054615B90020BDE8F081E81C20F003052D
:102840004E480068854201D90020F4E70C2D00D2E3
:102850000C254FF0FF314A4800F04FFB4948006813
:1028600049490968461A7EE047480068841960882B
:10287000002874D106F10C006168081AA8426ED3D2
:1028800006F10C006168091A05F11800814230D385
:1028900006F10C0000EB05083B48006800EB080758
:1028A0004FF4F55038800020788060687860BE6012
:1028B000C4F80480012060803048796800680C30DA
:1028C000814205D03049786809680844C0F808801A
:1028D0002E48016805F10C0008442C4908602C487A
:1028E00000680968884219D22848006828490860A9
:1028F00014E001206080244960680968611A401A68
:10290000224909680844214908602148006809688B
:10291000884203D21D4800681D4908604FF4F550F5
:10292000208018480068844212D107E015480068EA
:102930004068154909680844124908601148006850
:10294000408828B10F480068124909688842EDD1D3
:102950000B4800F0B5FA04F10C006CE7FFE70A48F9
:1029600000683044466805480068401BB0423FF6A6
:102970007BAF034800F0A4FA00205CE73800002099
:1029800094150020340000202C0000203C00002082
:1029900040000020300000202DE9F04105460E46A1
:1029A00017462946042000F042F9044614B920468F
:1029B000BDE8F08167722046FFF7D0FE2684218CA7
:1029C0008800FFF733FFE061E06920B9204600F09E
:1029D00058F90020ECE700206084A084E08404F132
:1029E0002800FFF7DBFE2046E2E72DE9F743044627
:1029F0000E46002700F066FD0546FDF7A3FB804666
:102A0000608C38B9029828B94046FDF79FFBB81E84
:102A1000BDE8FE833AE000202863029830B94046C2
:102A2000FDF794FB6FF001002863F1E7627A294615
:102A300004F11400FFF75CFE029800280CDD00F0A2
:102A400015FE074602AA002105F14C0000F06AFEBF
:102A500005F14C0000F0D2FE4046FDF777FB00F098
:102A60006DF9286B08B1286BD2E7FDF76BFB804648
:102A7000029800280ADD00F0F9FDC71B0298C01B70
:102A800002900298002801DA00200290608C002851
:102A9000C1D0E18CE06950F821003060E08C401C2E
:102AA000E084E08C218C884201DB0020E084608C93
:102AB000401E608404F12800FFF795FE50B904F130
:102AC0002800FFF70BFE4046FDF740FB00F036F90B
:102AD00000209DE74046FDF739FB002098E770B5E0
:102AE00004460D4600222946204600F001F870BD3C
:102AF0002DE9F74304460E46002700F0E3FC0546A7
:102B0000FDF720FB8046608C218C884207D102981B
:102B100028B94046FDF71AFBF81EBDE8FE8339E0F0
:102B200000202863029828B94046FDF70FFB6FF09C
:102B30000200F2E7627A294604F12800FFF7D8FD87
:102B4000029800280CDD00F091FD074602AA002142
:102B500005F14C0000F0E6FD05F14C0000F04EFEE2
:102B60004046FDF7F3FA00F0E9F8286B08B1286B4E
:102B7000D3E7FDF7E7FA8046029800280ADD00F067
:102B800075FDC71B0298C01B02900298002801DA4D
:102B900000200290608C218C8842C1D0A18CE06919
:102BA00040F82160A08C401CA084A08C218C88421D
:102BB00001DB0020A084608C401C608404F11400C0
:102BC000FFF711FE50B904F11400FFF787FD4046EE
:102BD000FDF7BCFA00F0B2F800209EE74046FDF792
:102BE000B5FA002099E7F0B50C460546E6B2042A8E
:102BF00015D300F0030797B9014646EA062343EAD6
:102C0000034304E008C108C108C108C1103A102AF2
:102C1000F8D201E008C1121F042AFBD20D4601E0E0
:102C200005F8016B171EA2F10102F9D1F0BD2DE9E3
:102C3000F04106460F46304600F044F80546E86885
:102C4000FFF7F4FD044614B90020BDE8F08100212F
:102C50002046EA68FFF7C7FF26720020607208224C
:102C60003946204600F023FAFDF76CFA804604F15D
:102C70000C01281DFFF79BFD4046FDF767FA204633
:102C8000E3E770B5044600202072FDF75BFA0546C5
:102C900004F10C00FFF7B7FD2846FDF757FA204670
:102CA000FFF7CAFA70BD70B5044600202072FDF728
:102CB00049FA054604F10C00FFF7A5FD2846FDF78B
:102CC00045FA70BD024600210AE0074800EB0110FA
:102CD0000078904203D1044800EB01107047491C72
:102CE0000529F2DB0020F9E7440000202DE9F0413E
:102CF00004460D4616462846FFF7E4FF074645F012
:102D00008000207208223146204600F0D0F9FDF7FD
:102D100019FA804604F10C01381DFFF748FD4046C2
:102D2000FDF714FABDE8F0810146087A00F0800052
:102D300008B1012070470020FCE700002DE9F041B8
:102D4000FDF700FA07461B48008868BB1A48006870
:102D5000FEF7B6FC461E194850F83600A0F11404E0
:102D60001748006884421BD016490E701448056845
:102D700004601548007848B904F11C0105F11C00F5
:102D8000FDF7E7F93846FDF7E1F90CE004F11C0125
:102D900005F11C00FDF7DDF93846FDF7D7F902E033
:102DA0003846FDF7D3F902E03846FDF7CFF9BDE824
:102DB000F081000094000020A0000020B415002045
:102DC000980000209C0000202800002070B50446D8
:102DD000FDF7B8F9054614F8340F20F00F0040F065
:102DE000010020706278343C0A4B03EBC20004F10E
:102DF00014014268116042684A604160086000BF87
:102E00000549A06B09680843034908602846FDF797
:102E10009DF970BDB4150020A000002070B50446D7
:102E2000FDF790F9054604F11400D0E90021516046
:102E3000D0E9001211604060006000BF94F83510C6
:102E4000094A02EBC1000168814201D1012100E081
:102E5000002129B10548A16B006888430349086037
:102E60002846FDF773F970BDB4150020A0000020BE
:102E70002DE9F04105460E46174629460120FFF789
:102E8000D6FE044614B92046BDE8F0812046FFF77F
:102E900065FCA68367722046F6E72DE9F0410446FB
:102EA0000D4616461F462A4601212046FFF71EFF03
:102EB0002046FFF753FCA68367720020BDE8F0812F
:102EC00070B504460025FDF73DF9064604F11400EF
:102ED000FFF789FC28B904F11400FFF7FFFB012577
:102EE00002E0A08B401CA0833046FDF72FF9012D96
:102EF00001D1FFF723FF002070BD73B50546FDF734
:102F000021F90646A88B002806DDA88B401EA88361
:102F10003046FDF71BF928E0019828B93046FDF747
:102F200015F96FF001007CBD00F0CCFA04460020DA
:102F300020636A7A214605F11400FFF7D9FB019856
:102F4000002809DD01AA002104F14C0000F0EAFB91
:102F500004F14C0000F052FC3046FDF7F7F8FFF7A3
:102F6000EDFE206B08B1206BDDE70020DBE7000001
:102F700008B509A0FFF7FAFB0AA0FFF7F7FB12A0BC
:102F8000022301220321009012A0FFF7EFFB19A0FA
:102F9000FFF7ECFB08BD00000A205C207C202F0A14
:102FA000000000002D205254202D202020202054ED
:102FB0006872656164204F7065726174696E672024
:102FC00053797374656D0A004A756C20323920326A
:102FD00030313900202F207C205C2020202020252B
:102FE000642E25642E2564206275696C6420257327
:102FF0000A0000002032303036202D2032303139A6
:1030000020436F70797269676874206279207274E6
:103010002D746872656164207465616D0A0000003A
:1030200070B500F023FB0646FFF7D8F81A4805688C
:103030002BE0A5F11404A06A301A6FF00041884219
:1030400022D22D682046FEF7DEFBFFF7D7F8D4E941
:103050000710884700F00AFB0646FFF7BFF8607AC2
:1030600000F0020058B1607A00F0010038B1607AD7
:1030700020F001006072204600F0C0FB05E0607A9D
:1030800020F00100607200E002E003488542D0D1E8
:1030900000BFFFF7B3F870BDB400002001460A4638
:1030A00000E0521C10780028FBD1501A704770B510
:1030B0000346A2B118460C4600BF14F8016B00F895
:1030C000016B3EB902E0002500F8015B551E2A1E87
:1030D000F9D102E0551E2A1EEFD100BF00BF1846ED
:1030E00070BD00002DE9F04105460E46E81C20F0B9
:1030F000030726F00308B8F1180F09D9A8F1180042
:10310000B84205D3A8EB070018381E49086006E04E
:10311000324629461CA0FFF729FBBDE8F08129486B
:10312000076004684FF4F5502080164800680C30A2
:1031300060600020A06060802249606809680844DF
:10314000214908604FF4F5500968088001201E49A4
:10315000096848800B4800680C301B4909684860C2
:10316000084800680C30184909688860002301226B
:1031700016A11848FFF791FE12480068164908602A
:1031800000BFCAE7380000206D656D20696E697464
:103190002C206572726F7220626567696E206164AF
:1031A000647265737320307825782C20616E6420FA
:1031B000656E64206164647265737320307825786D
:1031C0000A0000002C0000203000002068656170BB
:1031D00000000000941500203400002010B50020ED
:1031E0000B490880002405E00A4901EBC400FFF701
:1031F000D8FA641C202CF7DB1F2007490870002038
:1032000006490860064908600648FFF7CAFA10BD7B
:1032100094000020B41500209C000020980000209D
:10322000A0000020A400002070B508480068FEF748
:1032300047FA451E064850F83500A0F11404054829
:10324000046004F11C00FCF7B2FF70BDA000002078
:10325000B41500209800002010B5002405E00449B2
:1032600001EBC400FFF7A0FA641C002CF7D010BDDE
:10327000AC0000201FB5002405E00D4901EBC4009F
:10328000FFF792FA641C002CF7D00A200421CA012F
:10329000084BCDE90032CDE902100023064A07A110
:1032A000084800F0CDF8074800F034F91FBD0000D1
:1032B000B400002034170020A535000874696D653E
:1032C00072000000B41600202DE9FF5F06460F468D
:1032D00090461D46DDE90EAB31460020FFF7A7FC06
:1032E0008146B9F1000F03D1002004B0BDE8F09F82
:1032F0002846FFF79BFA044624B94846FFF7C1FC6D
:103300000020F2E743463A46314648468DE8300C05
:10331000FEF716FA4846E8E710B50446204600F0E6
:10332000D7F810BD70B512480468FCF70BFF0546CE
:103330002046FFF773FD042084F8340004F14C00AC
:1033400000F027FA2046FFF7EFFC012805D1A06F17
:1033500018B92046FFF7A7FC04E004F11401054862
:10336000FFF72CFA2846FCF7F1FEFFF7E7FC70BDEB
:1033700098000020A400002001E000F001F8FCE724
:1033800070B537E0FCF7DEFE0546FEF7CFF918B35F
:103390001B480068A0F1140404F11400D0E90021D6
:1033A0005160D0E9001211604060006000BFFEF77C
:1033B00015FFA06F10B12046A16F88472046FFF788
:1033C000B3FC012805D1FEF719FF2846FCF7BEFE25
:1033D00070BDFEF713FF03E02846FCF7B7FEF7E7E2
:1033E0002846FCF7B3FEA06AFEF726FF2046FFF74B
:1033F00048FC00BFFEF79AF90028C3D100BFE7E7F9
:10340000A40000201FB520201F21C200074BCDE9DA
:103410000032CDE902100023054A06A1074800F05A
:103420000FF8064800F076F81FBD000014140020C5
:10343000793300087469646C6500000094130020FF
:103440002DE9FF5F05460C4616461F46DDE910AB29
:10345000DDE90E89224600212846FFF747FC3B465E
:103460003246214628468DE8000FFEF769F904B080
:10347000BDE8F09F70B50446204600F0E7F8054629
:10348000284600F025F870BD70B5044694F8340065
:1034900000F00F00022802D04FF0FF3070BDFCF7A3
:1034A00051FE054604F11400FFF7B6F904F14C0093
:1034B00000F03AFA2846FCF749FE2046FFF786FC62
:1034C0000020EBE7014800687047000098000020EA
:1034D00031B5FCF737FE05460D480468204600F07C
:1034E0002FF86A46002104F14C0000F01BF904F1AA
:1034F0004C0000F083F92846FCF728FEFFF71EFC7D
:10350000206B801C08B900202063002038BD00001B
:103510009800002010B504463434A07860706178BB
:10352000012088406060022004F834092046FFF73B
:10353000ABFFFFF7C7FF08B1FFF700FC002010BD8D
:1035400070B5044694F8340000F00F00012802D052
:103550004FF0FF3070BDFCF7F5FD054694F83400E0
:1035600020F00F0040F0020084F834002046FFF7FE
:1035700055FC04F14C0000F0D7F92846FCF7E6FDB5
:103580000020E7E770B5044625466FF00100286388
:1035900005F11400FFF740F92846FFF717FCFFF785
:1035A000CDFB70BD1CE00F4800F01AF90446601C0A
:1035B00038B9FFF787FF0546FFF7C2FFFFF7BEFBED
:1035C0000CE000F053F80546601B6FF000418842A4
:1035D00003D2641B2046FFF79FFE00BFFFF720FDCC
:1035E000E1E70000B400002070B5FCF7ABFD054634
:1035F0001448046894F8340000F00F0001281CD12E
:10360000D4E90510814218D004F11400FFF704F941
:1036100094F835200C4B03EBC20004F1140142680E
:10362000116042684A604160086000BF2846FCF7AC
:103630008DFDFFF783FB002070BD2846FCF786FD5B
:103640000020F9E798000020B41500200146002969
:1036500002DA4FF0FF3008E04FF47A724A4302F288
:10366000E7324FF47A7392FBF3F070470148006839
:10367000704700002400002010B50A480068401C74
:1036800008490860FFF71EFF0446A06C401EA064B6
:10369000A06C18B9606CA064FFF7A6FF00F004F8F6
:1036A00010BD00002400002070B5FFF7DFFF0546C5
:1036B000FCF748FD064628E019480068A0F114040C
:1036C000A06A281A6FF0004188421DD22046FEF7FA
:1036D0009AF8D4E907108847FFF7C8FF0546607AD3
:1036E00000F0020058B1607A00F0010038B1607A51
:1036F00020F001006072204600F080F805E0607A5A
:1037000020F00100607200E004E00548FFF773F864
:103710000028D1D000BF3046FCF718FD70BD000076
:10372000AC000020034649B1012904D0022908D089
:10373000032910D10AE0586A10600CE01068586242
:1037400009E0587A20F00200587204E0587A40F0FC
:103750000200587200BF00BF002070472DE9F843F7
:1037600004460E4617469846DDF82090214609206B
:10377000FFF75DFA054615B90020BDE8F88343461A
:103780003A4631462846CDF80090FEF71BF8284609
:10379000F3E770B50446FCF7D5FC05462046FEF776
:1037A00032F82846FCF7D2FC2046FFF77CFA0020CE
:1037B00070BD2DE9F84307460C4615461E46DDE967
:1037C0000889224609213846FFF790FA43463246D7
:1037D00029463846CDF80090FDF7F4FFBDE8F883A0
:1037E00070B504462046FFF706F810B14FF0FF30E1
:1037F00070BD2068A0F11405A86AF9E72DE9F84327
:103800000546FCF79FFC80462846FDF7FCFF687ADA
:1038100020F0010068724046FCF798FCFFF726FF95
:10382000696A0844A862FCF78DFC8046687A00F05B
:10383000040008B1384E00E0384E009600242AE01B
:1038400019E05DF824201168142202EBC402881AE2
:10385000826AAB6AD21A00D108E0826AAB6AD21AD5
:103860006FF000439A4200D20CE000BF5DF82400E4
:1038700000684DF824005DF8240006EBC401496897
:103880008842DED100BF2CB15DF824000830611CF5
:103890004DF82100641C002CD2D021480068401C47
:1038A0001F4908600846076805F114010098FEF7F3
:1038B0008CFF022412E007F0030060B9C4F1010399
:1038C00005F1140202EBC301C4F101025DF822000C
:1038D000FEF77BFF00E003E0BF08641C012CEAD97F
:1038E00000BF687A40F0010068724046FCF72EFC89
:1038F000687A00F0040058B10A4890F8340000F0EB
:103900000F00012804D00748FFF7BEFDFFF716FAA5
:103910000020BDE8F8830000B4000020AC000020C7
:10392000BC000020B416002070B50446607A00F098
:10393000010010B94FF0FF3070BDFCF703FC0546E5
:103940002046FDF760FF2846FCF700FC607A20F077
:10395000010060720020EFE72DE9FF4F89B080463B
:1039600044460A984044461E464504D24FF0FF366E
:10397000A6EB08000A906FE10B980078252806D086
:10398000B44202D80B9800782070641C61E10025D5
:1039900026E00B98401C0B900B9800782D2802D144
:1039A00045F010051CE00B9800782B2802D145F05B
:1039B000040515E00B980078202802D145F0080591
:1039C0000EE00B980078232802D145F0200507E08F
:1039D0000B980078302802D145F0010500E000E0A6
:1039E000D7E700BF4FF0FF370B98007830380A2830
:1039F00004D20BA800F0F2F907460EE00B9800780D
:103A00002A280AD10B98401C0B900C9880C80C9067
:103A1000002F02DA7F4245F010054FF0FF390B9876
:103A200000782E281CD10B98401C0B900B98007826
:103A300030380A2804D20BA800F0D0F981460AE0F9
:103A40000B9800782A2806D10B98401C0B900C98F4
:103A500050F8049B0C90B9F1000F01DA4FF0000907
:103A6000002004900B980078682803D00B98007809
:103A70006C2805D10B98007804900B98401C0B9093
:103A80000A2005900B9800786F2875D00CDC63280D
:103A900013D004DC252870D058286FD18DE064281D
:103AA0006DD06928F9D18FE070286AD0732825D0AD
:103AB000752878D07828F0D182E005F0100040B960
:103AC00004E0B44201D820202070641C781E071E38
:103AD000F7DC0C9810F8041B0C90C8B20790B442A5
:103AE00001D807982070641C04E0B44201D820205B
:103AF0002070641C781E071EF7DCAAE00C98006892
:103B000006900C98001D0C90069808B95AA00690D3
:103B10000698FFF7C3FA8346B9F1000F02DDCB45E3
:103B200000DDCB4605F0100048B904E0B44201D8EE
:103B300020202070641C38467F1E5845F6DC00208B
:103B400008900BE0B44202D8069800782070641CFC
:103B50000698401C06900898401C08900898584504
:103B6000F0DB04E0B44201D820202070641C384609
:103B70007F1E5845F6DC6CE01CE015E028E022E0F2
:103B8000FFE7781C10B9082745F00105CDE9007959
:103B900002950C9804C8102331460C902046FEF77D
:103BA0001FFA044655E012E0B44201D825202070E7
:103BB000641C4EE0082005901DE045F0400500BF64
:103BC0001020059017E000BF45F0020500BF12E08D
:103BD000B44201D825202070641C0B98007830B1C5
:103BE000B44202D80B9800782070641C02E00B9855
:103BF000401E0B902DE000BF04986C2807D10C9854
:103C000050F804AB0C9005F00200B8B116E004982F
:103C100068280BD10C9830F8041B1FFA81FA0C901D
:103C200005F0020050B10FFA8AFA07E00C9850F83C
:103C300004AB0C9005F0020000B100BFCDE90079A3
:103C40000295524631462046059BFEF7C9F90446C7
:103C500000BF0B98401C0B900B98007800287FF455
:103C60008BAEB44201D8207001E000203070A4EB8C
:103C700008000DB0BDE8F08F284E554C4C290000CF
:103C800000207047002070470020704700207047D8
:103C900010B5FCF757FAFEF747FBFFF769F9FFF796
:103CA000DBFAFFF79BFAFEF767FAFFF7E3FAFFF795
:103CB000A9FBFFF7B9FA002010BD00002DE9F84379
:103CC0000646884617460025102F04D11020424989
:103CD0000870042503E00C203F4908700825B8F15E
:103CE000000F03D0B8F1010F72D125E0002420E0CD
:103CF000082090FBF5F0604300F0FF09C4EBC4001E
:103D000006EB400249460020FDF7E0F8082090FB52
:103D1000F5F0604300F0FF09C4EBC40006EB40007F
:103D200000978289062349464020FDF78DF8601CE4
:103D3000C4B2AC42DCDB4CE0002445E0082090FB40
:103D4000F5F0604300F0FF096000C0EBC00006EB37
:103D5000400249460020FDF7B9F8082090FBF5F035
:103D6000604300F0FF096000C0EBC00006EB4000BC
:103D700000978289042349462020FDF765F8082032
:103D800090FBF5F0604300F0FF096000401CC0EBC1
:103D9000C00006EB400249464020FDF797F8082096
:103DA00090FBF5F0604300F0FF096000401CC0EBA1
:103DB000C00006EB4000009782890423494660203A
:103DC000FDF742F8601CC4B2AC42B7DB01E0FFE78C
:103DD00000BF00BFBDE8F8839D020020014600201F
:103DE00009E00B685A1C0A601A7800EB800302EBAA
:103DF0004302A2F130000A681278303A0A2AF0D35E
:103E00007047000070B504460D4604EB840052492B
:103E100001EB800000EB450040780A287DD2DFE806
:103E200000F005063913462C6F53545581E004EB1E
:103E30008400494A02EB800000EB45004178474886
:103E40000068FEF74CFE74E004EB8400424A02EB8B
:103E5000800000EB4500417840480068FEF73FFED7
:103E600004EB84003C4A02EB800000EB4500417803
:103E70003B480068FEF733FE5BE004EB8400364A03
:103E800002EB800000EB4500417834480068FEF703
:103E900026FE4EE004EB84002F4A02EB800000EB8C
:103EA000450041782D480068FEF719FE41E004EB1B
:103EB0008400294A02EB800000EB45004178274846
:103EC0000068FEF70CFE34E000BF00BF04EB840086
:103ED000214A02EB800000EB450041782048006851
:103EE000FEF7FDFD04EB84001B4A02EB800000EBB3
:103EF0004500417819480068FEF7F1FD19E00CE033
:103F000004EB8400144A02EB800000EB450041788A
:103F100012480068FEF7E3FD0BE004EB84000E4A54
:103F200002EB800000EB450041780EA0FEF71EFC7E
:103F300000BF00BF002011490860FEF74FF904EBF5
:103F40008400054901EB800010F815000C49087049
:103F5000FEF754F970BD0000CC12002000000020D4
:103F60001C000020D7B4CCACD7AAD2C6B4EDCEF397
:103F70002C616374696F6E3A25640A00D0000020DA
:103F80001400002001202A49887001212848C170AE
:103F90000220274908710321254841710320244943
:103FA000887105212248C171002021490872002131
:103FB0001F484172012181750021C17501210176DF
:103FC00000214176012181760021C176017702210D
:103FD000417780F82A10072180F82B10022180F801
:103FE0002C10082180F82D10022180F82E100921B4
:103FF00080F82F10002180F83010042180F8311053
:10400000032180F83E10002180F83F10032180F842
:104010004010002180F84110032180F84210002157
:1040200080F8431080F84410062180F8451070474E
:10403000CC12002008B51D48FDF7FCFBFCF79CFDE9
:10404000012000231AA219460090184800F0E2F857
:104050000120002318A201460090144800F0DAF86D
:104060000120002315A202210090104800F0D2F890
:104070000120022313A2032100900C4800F0CAF88B
:104080000120032310A204210090084800F0C2F888
:10409000012004230DA205210090044800F0BAF885
:1040A0000C2201210148FFF709FE08BD1C1D00205C
:1040B0007461736B000000006F6E65006B65795F63
:1040C0006E00000073320000733300007334000090
:1040D00008B5002406E021A0FEF748FB4FF4FA7073
:1040E000FFF7C8F9FCF71AF90028F4D120A0FEF771
:1040F0003DFB31E04FF0FF32694622480068FEF791
:1041000074FC04462CBB20A0FEF730FB009803286B
:1041100006D007280AD008280ED0092818D111E0A7
:104120000020FCF737F92049087011E01E4800789C
:10413000401C1D4908700BE01B480078401E1A49BE
:10414000087005E0184801780020FCF7B9F900BFB5
:1041500002E016A0FEF70AFBCCE70000415432341F
:10416000433032BCECB2E2B2BBD5FDB3A3210A00AE
:1041700041543234433032BCECB2E2D5FDB3A3211A
:104180000A0000001C0000207461736B726561649A
:10419000415432345F746872656164A3BACAD5B59C
:1041A000BDD3CACFE4000000200000207461736B0F
:1041B00072656164415432345F746872656164A3EE
:1041C000BAD3CACFE4BDD3CAD5CAA7B0DCA3A10A6B
:1041D00000000000002410E04FF0FF3107480068A5
:1041E000FEF78BFE044644B9054906A0FEF7BEFA69
:1041F0004FF47A710248FCF738F8EDE70800002028
:1042000034190020CAD5B5BDCAFDBEDD3A25730AF2
:10421000000000002DE9F04104460D4616461F46F9
:10422000DDF81880B8F1000F06D0C5EBC50104EB2E
:1042300041003146FCF724F8C5EBC50004EB400013
:1042400087810120BDE8F08100000100020001002B
:10425000030001000200010004000100020001004F
:10426000030001000200010005000100020001003E
:10427000030001000200010004000100020001002F
:10428000030001000200010006000100020001001D
:10429000030001000200010004000100020001000F
:1042A00003000100020001000500010002000100FE
:1042B00003000100020001000400010002000100EF
:1042C00003000100020001000700010002000100DC
:1042D00003000100020001000400010002000100CF
:1042E00003000100020001000500010002000100BE
:1042F00003000100020001000400010002000100AF
:10430000030001000200010006000100020001009C
:10431000030001000200010004000100020001008E
:10432000030001000200010005000100020001007D
:10433000030001000200010004000100020001006E
:1043400003000100020001003031323334353637CA
:104350003839616263646566003031323334353632
:104360003738394142434445460000000000000010
:104370000000002F000000000700070000147F1459
:104380007F1400242A7F2A12006264081323003657
:104390004955225000000503000000001C22410086
:1043A000000041221C000014083E08140008083ECA
:1043B0000808000000A060000008080808080000C5
:1043C00060600000002010080402003E5149453E94
:1043D0000000427F400000426151494600214145B2
:1043E0004B31001814127F10002745454539003C19
:1043F0004A494930000171090503003649494936E7
:1044000000064949291E00003636000000005636D5
:1044100000000008142241000014141414140000B9
:104420004122140800020151090600324959513E47
:10443000007C1211127C007F49494936003E4141FF
:104440004122007F4141221C007F49494941007FB0
:1044500009090901003E4149497A007F0808087F9F
:104460000000417F4100002040413F01007F0814CF
:104470002241007F40404040007F020C027F007FCD
:104480000408107F003E4141413E007F09090906B2
:10449000003E4151215E007F0919294600464949E5
:1044A00049310001017F0101003F4040403F001FB2
:1044B0002040201F003F4038403F00631408146331
:1044C00000070870080700615149454300007F411B
:1044D000410000552A552A55000041417F00000443
:1044E000020102040040404040400000010204007C
:1044F000002054545478007F4844443800384444E1
:10450000442000384444487F00385454541800086C
:104510007E0901020018A4A4A47C007F080404788A
:104520000000447D4000004080847D00007F102812
:1045300044000000417F4000007C04180478007CA7
:104540000804047800384444443800FC2424241827
:104550000018242418FC007C080404080048545463
:10456000542000043F444020003C4040207C001C7C
:104570002040201C003C4030403C0044281028448F
:10458000001CA0A0A07C004464544C4414141414D7
:1045900014140000000000000000000000000000F3
:1045A0000000000000F800000000000000333000B0
:1045B000000000100C06100C0600000000000000B7
:1045C000000040C07840C0784000043F04043F042D
:1045D0000400007088FC08300000001820FF211E35
:1045E0000000F008F000E018000000211C031E216C
:1045F0001E0000F00888700000001E2123241927E7
:10460000211010160E000000000000000000000045
:104610000000000000E0180402000000000718205D
:10462000400000020418E0000000004020180700CD
:104630000000404080F0804040000202010F010273
:104640000200000000F0000000000101011F010154
:104650000100000000000000000080B070000000B9
:104660000000000000000000000000010101010145
:1046700001010000000000000000003030000000D8
:1046800000000000000080601804006018060100AF
:10469000000000E010080810E000000F10202010BB
:1046A0000F00001010F8000000000020203F202024
:1046B00000000070080808887000003028242221BB
:1046C0003000003008888848300000182020201171
:1046D0000E000000C02010F8000000070424243F52
:1046E000240000F8088888080800001921202011FB
:1046F0000E0000E0108888180000000F1120201123
:104700000E0000380808C83808000000003F00000C
:1047100000000070880808887000001C22212122F7
:104720001C0000E010080810E000000031222211F7
:104730000F00000000C0C00000000000003030008A
:104740000000000000800000000000008060000009
:104750000000000080402010080000010204081042
:104760002000404040404040400004040404040451
:1047700004000008102040800000002010080402FF
:104780000100007048080808F00000000030360101
:104790000000C030C828E810E000071827242314C0
:1047A0000B000000C038E0000000203C230202277C
:1047B000382008F8888888700000203F20202011C9
:1047C0000E00C03008080808380007182020201004
:1047D000080008F808080810E000203F20202010FA
:1047E0000F0008F88888E8081000203F20202320C8
:1047F000180008F88888E8081000203F200003000F
:104800000000C03008080838000007182020221EC9
:10481000020008F808000008F808203F21010121E3
:104820003F20000808F8080800000020203F202052
:10483000000000000808F8080800C08080807F00A1
:10484000000008F888C028180800203F20012638FA
:10485000200008F8080000000000203F2020202051
:10486000300008F8F800F8F80800203F003F003F4B
:10487000200008F830C00008F808203F2000071882
:104880003F00E01008080810E0000F102020201062
:104890000F0008F808080808F000203F2101010176
:1048A0000000E01008080810E0000F182424385019
:1048B0004F0008F8888888887000203F2000030C8B
:1048C0003020007088080808380000382021212294
:1048D0001C00180808F8080818000000203F2000F5
:1048E000000008F808000008F808001F2020202019
:1048F0001F000878880000C83808000007380E013B
:104900000000F80800F80008F800033C0700073C26
:104910000300081868808068180820302C03032CD6
:1049200030200838C800C83808000000203F2000A8
:10493000000010080808C838080020382621202068
:104940001800000000FE020202000000007F40404C
:104950004000000C30C000000000000000010638DC
:10496000C00000020202FE000000004040407F0044
:104970000000000004020202040000000000000029
:104980000000000000000000000080808080808027
:10499000808000020204000000000000000000000F
:1049A0000000000080808080000000192422222264
:1049B0003F2008F8008080000000003F11202011F7
:1049C0000E000000008080800000000E11202020DA
:1049D0001100000000808088F800000E11202010D7
:1049E0003F200000808080800000001F22222222C1
:1049F0001300008080F0888888180020203F202045
:104A000000000000808080808000006B949494936C
:104A1000600008F8008080800000203F2100002016
:104A20003F2000809898000000000020203F2020B8
:104A30000000000000809898000000C08080807F07
:104A4000000008F8000080808000203F24022D3004
:104A50002000000808F8000000000020203F20206F
:104A600000008080808080808000203F20003F20E8
:104A7000003F8080008080800000203F21000020D7
:104A80003F200000808080800000001F2020202028
:104A90001F00808000808000000080FFA120201186
:104AA0000E000000008080808000000E112020A0F9
:104AB000FF80808080008080800020203F212000B7
:104AC00001000000808080808000003324242424A2
:104AD0001900008080E0808000000000001F20207E
:104AE00000008080000000808000001F2020201037
:104AF0003F20808080000080808000010E3008060A
:104B0000010080800080008080800F300C030C301A
:104B10000F0000808000808080000020312E0E3148
:104B20002000808080000080808080818E70180648
:104B3000010000808080808080000021302C2221B4
:104B4000300000000000807C020200000000003FF6
:104B5000404000000000FF00000000000000FF00D7
:104B600000000002027C800000000040403F000086
:104B70000000000601010202040400000000000021
:104B8000000000008D3C0008853C0008813C0008C6
:104B9000893C0008B44B000800000020CC02000053
:104BA000B8020008B44C0008CC020020541F0000DA
:104BB0001C170008014822482A2004328032011ABA
:104BC000580C2904322032031A680C2904291032A7
:104BD000041A780C2904323032091A880C2904028C
:104BE0004B2C19881BF010012AFF050215F01B0F32
:104BF00004012AFF0502130F18094040405F555574
:104C00005575041A5F0C091121080C11200F094970
:104C100089790909090F201F112FFE02424ACA4A49
:104C20000304134202FE000E14FF40504C43404068
:104C30004F50505C40FF1BF888012AFF050215F811
:104C40001B1F08012A7F200B109F80E23B808201FE
:104C5000000916E2A2928A86828080041840807F32
:104C6000172424A4FEA3221B22CCAA011415080693
:104C700001FF2B0104010511FF0202025808101068
:104C800010FF109008C3021108080F100444827F1F
:104C900001808040432C10284681A0A2102D0102E3
:104CA00003040410090607080902040608ACA24A16
:044CB000041C29189F
:0400000508000131BD
:00000001FF
