:020000040800F2
:10000000882A0020390200082D0B0008EB010008A7
:10001000290B0008D9050008DF1A000800000000BD
:100020000000000000000000000000004312000873
:100030005F06000800000000730100085513000867
:10004000530200085302000853020008530200083C
:10005000530200085302000853020008530200082C
:10006000530200085302000853020008530200081C
:10007000530200085302000853020008530200080C
:1000800053020008530200085302000853020008FC
:1000900053020008530200085302000853020008EC
:1000A00053020008530200085302000853020008DC
:1000B000011400085302000853020008530200080C
:1000C00053020008530200085302000853020008BC
:1000D0005302000871180008C118000853020008F4
:1000E000530200085302000853020008530200089C
:1000F000530200085302000853020008530200088C
:10010000530200085302000853020008530200087B
:10011000530200085302000853020008530200086B
:10012000530200085302000853020008530200085B
:10013000DFF80CD000F0C0F8004800473303000897
:10014000882A0020EFF3108072B6704780F3108881
:100150007047334A1368012B04D04FF0010313603A
:10016000304A1060304A116030484FF080510160D1
:100170007047EFF3108272B62948016891B14FF0D1
:10018000000101602748016829B1EFF3098121E9E5
:10019000F00F00680160244909680968B1E8F00FB0
:1001A00081F3098882F310884EF0040E70471E49CF
:1001B00008601C494FF00000086019494FF0010029
:1001C00008601B484FF47F01D0F8002041EA02018B
:1001D000016016484FF080510160164800680068C1
:1001E00080F3088861B662B670471EF0040F0CBF3A
:1001F000EFF30880EFF3098020E9F00F40F804EDF9
:100200001EF0040F0CBF80F3088880F3098800B546
:1002100002F05AFC5DF804EB4EF0040E704700004B
:10022000CC000020C4000020C800002004ED00E045
:1002300020ED00E008ED00E0064880470648004752
:10024000FEE7FEE7FEE7FEE7FEE7FEE7FEE7FEE786
:10025000FEE7FEE7A11300083101000840EA0103B0
:100260009B0703D009E008C9121F08C0042AFAD26C
:1002700003E011F8013B00F8013B521EF9D2704730
:10028000D2B201E000F8012B491EFBD270470022D8
:10029000F6E710B513460A4604461946FFF7F0FF85
:1002A000204610BD034611F8012B00F8012B002A4F
:1002B000F9D1184670470000064C074D06E0E0688B
:1002C00040F0010394E8070098471034AC42F6D39D
:1002D000FFF732FF245300084453000870B58C1810
:1002E00010F8015B15F0070301D110F8013B2A114A
:1002F00006D110F8012B03E010F8016B01F8016B37
:100300005B1EF9D12B0705D40023521E0DD401F832
:10031000013BFAE710F8013BCB1A921C03E013F8FB
:10032000015B01F8015B521EF9D5A142D8D3002030
:1003300070BD10B5FFF706FF03F0FAFF002010BDF7
:1003400010B5FF2000F038F80446362C01D100200B
:1003500010BD3621FF2000F0C5F8FF2000F02CF87A
:100360000446362C01D10020F2E70120F0E700001E
:100370001FB50E480E4908604860102048812020B3
:10038000088140200861C8600A484861001D8861F2
:1003900008487C38C8610B4610330FCB8DE80F003E
:1003A00003480FC800F013FA1FBD000000180140F9
:1003B000302600209001234270B586B00446002606
:1003C000474B10330FCB8DE80F0045480FC800F0A6
:1003D000B3FA2546E01704EB10600012A02101EBF0
:1003E0004000C0B23E4A0490D2E90430D2E906127D
:1003F000CDE90030CDE9021239480FC800F069FAA2
:10040000374BD3E90420D3E90613CDE90213CDE934
:10041000002033480FC800F0CBFAE01704EB10605F
:100420000012A4EB0020C0B22D4B0490D3E90420AD
:10043000D3E90613CDE90213CDE9002028480FC8FF
:1004400000F047FA264B10330FCB8DE80F002448FD
:100450000FC800F0ADFA224BD3E905021969DB6938
:10046000CDE90223CDE900101D480FC800F064FA61
:10047000A1201B4B049010330FCB8DE80F001848C0
:100480000FC800F026FA164BD3E90420D3E906136F
:10049000CDE90213CDE9002011480FC800F088FA19
:1004A00000200F4B0490D3E905021969DB69CDE9FF
:1004B0000223CDE900100A480FC800F0CEF9064625
:1004C000074BD3E90420D3E90613CDE90213CDE9A4
:1004D000002003480FC800F04DFA304606B070BD4A
:1004E0003026002070B586B004460E463949D1E961
:1004F00005030A69C969CDE90231CDE90020354813
:100500000FC800F019FA2546E01704EB106000123E
:10051000A02101EB4000C0B22E490490D1E90503AF
:100520000A69C969CDE90231CDE9002029480FC81F
:1005300000F0CFF9274B10330FCB8DE80F00254883
:100540000FC800F035FAE01704EB10600012A4EBBE
:100550000020C0B21F4B0490D3E905021969DB6982
:10056000CDE90223CDE900101A480FC800F0B1F917
:10057000184BD3E90420D3E90613CDE90213CDE9E2
:10058000002014480FC800F013FA124B04961033E1
:100590000FCB8DE80F000F480FC800F09AF90D4BF4
:1005A00010330FCB8DE80F000A480FC800F000FA97
:1005B000084BD3E905211869DB69CDE90213CDE9C0
:1005C000000204480FC800F0D5F90A2003F0A2FA8F
:1005D00006B070BD3026002000BFFEE700F080515D
:1005E00011B10349086001E002494860704700000A
:1005F000040402400000024021B1026842F00102FE
:10060000026004E002684FF6FE731A400260704711
:100610001AB103680B43036002E003688B43036075
:10062000704710B50022026847F6F0739A430C6ACF
:100630008B6823430C6923434C6923438C69234310
:10064000CC6923434C6A23438C6A23431A430260D8
:10065000CB6843600B6883604B68C36010BD704714
:100660002DE9F04102460025002600200023002449
:10067000002791F803C00CF00F0591F803C00CF0AF
:10068000100CBCF1000F03D091F802C04CEA050534
:1006900091F800C0BCF1000F31D0146800202BE0AD
:1006A0004FF0010C0CFA00F3B1F800C00CEA03069D
:1006B0009E4220D183004FF00F0C0CFA03F7BC438D
:1006C00005FA03FC4CEA040491F803C0BCF1280FBE
:1006D00006D14FF0010C0CFA00FCC2F814C00AE07D
:1006E00091F803C0BCF1480F05D14FF0010C0CFA92
:1006F00000FCC2F810C0401C0828D1D31460B1F827
:1007000000C0BCF1FF0F34DD546800202EE000F182
:10071000080C4FF0010808FA0CF3B1F800C00CEA1D
:1007200003069E4221D183004FF00F0C0CFA03F711
:10073000BC4305FA03FC4CEA040491F803C0BCF185
:10074000280F05D100F1080C08FA0CF8C2F8148043
:1007500091F803C0BCF1480F07D100F1080C4FF02D
:10076000010808FA0CF8C2F81080401C0828CED303
:100770005460BDE8F0810246002093680B400BB145
:10078000012000E00020704741617047016170471F
:100790000FB41FB500200B9908600AA80FC88DE898
:1007A0000F0006A80FC800F039FD00200C99086062
:1007B000022002F0AFFA01200B990860052002F038
:1007C000A9FA00200B9908601FBC5DF814FB0FB458
:1007D00008B5DDE9052141EA0200012100F094FCA1
:1007E000BDF81200ADF8000003208DF802001020C3
:1007F0008DF8030069460398FFF732FFBDF810003B
:10080000ADF8000069460298FFF72AFF012007991A
:1008100008600899086001B05DF814FB0FB41FB5BB
:1008200000200B9908600AA80FC88DE80F0006A8E1
:100830000FC800F0F3FC01200C990860022002F0C0
:1008400069FA01200B990860052002F063FA002084
:100850000B9908601FBC5DF814FB0FB47FB5109EA8
:1008600000240CA80FC88DE80F0008A80FC800F0DE
:10087000C5FC002514E000200D990860022002F05C
:1008800049FA01200D9908606006040E0F9800686F
:1008900008B1601CC4B2012002F03CFA681CC5B269
:1008A000082DE8DB46B90CA80FC88DE80F0008A892
:1008B0000FC8FFF7B3FF07E00CA80FC88DE80F00C3
:1008C00008A80FC8FFF764FF204604B070BC5DF8AD
:1008D00014FB0FB47FB5109C0CA80FC88DE80F0057
:1008E00008A80FC800F09AFC00200D9908600025A8
:1008F0001DE004F08000002803DD01200E9908604F
:1009000002E000200E9908606006040E022002F04A
:1009100001FA01200D990860022002F0FBF9002085
:100920000D990860022002F0F5F9681CC5B2082D87
:10093000DFDB7FBC5DF814FB0FB41FB50AA80FC83E
:100940008DE80F0006A80FC800F068FC01200C9984
:1009500008600B990860052002F0DCF900200C9972
:100960000860062002F0D6F900200B9908601FBC31
:100970005DF814FB0FB41FB50AA80FC88DE80F006F
:1009800006A80FC800F04AFC00200B9908600C99DB
:10099000086001200B990860062002F0BBF90120D5
:1009A0000C990860062002F0B5F91FBC5DF814FB35
:1009B0000FB41FB500240AA80FC88DE80F0006A8C1
:1009C0000FC800F01BFC01200C99086002F0A2F98E
:1009D00001200B99086002F09DF910E0601CC4B280
:1009E000FA2C0CDD0AA80FC88DE80F0006A80FC866
:1009F000FFF7C0FF012004B010BC5DF814FB0D9898
:100A000000680028EAD10B99086000BFF3E70000F6
:100A100008B50121082000F077FB0121082000F033
:100A200073FB0121082000F06FFB0121082000F07A
:100A30006BFB48208DF8030003208DF80200102086
:100A4000ADF8000069460C48FFF70AFE2020ADF81B
:100A5000000069460848FFF703FE4020ADF800009B
:100A600069460548FFF7FCFD8020ADF800006946A7
:100A70000148FFF7F5FD08BD000C014070B50446C4
:100A80002648007801282DD12548006858B124480F
:100A9000001D006838B122480830006818B12048AD
:100AA0000C300068F0B9082003F034F800201B492E
:100AB00008701B48006838B9012508211948FFF75C
:100AC0005AFE0546012070BD1548001D006808B992
:100AD0000220F8E712480830006808B90320F2E75E
:100AE0000420F0E70E480068012810D10C48001DD2
:100AF000006801280BD10A4808300068012806D197
:100B000007480C300068012801D104490870012C05
:100B100002D10120014908700020D4E7E000002044
:100B200010812142000C014000BFFEE77047000029
:100B300070B5002100230F22C47804B3154C24683B
:100B400004F4E064C4F5E064210AC1F10403CA407E
:100B5000447804FA03F184781440214309010E4CCF
:100B60000678A155047804F01F050124AC400578EF
:100B70006D11AD0005F1E025C5F8004109E00478EC
:100B800004F01F050124AC40044D0678761145F8A9
:100B9000264070BD0CED00E000E400E080E100E0E4
:100BA00002490143024A1160704700000000FA0543
:100BB0000CED00E070B5002419E004F1B001C8B2FA
:100BC000002100F0C5F90021022000F0C1F9002148
:100BD000102000F0BDF9002505E00121002000F003
:100BE000B7F9681CC5B2802DF7DB601CC4B2082CB5
:100BF000E3DB70BD08B50121202000F085FA10204C
:100C00008DF8030003208DF802000820ADF80000E5
:100C100069466548FFF724FD1020ADF800006946DD
:100C20006148FFF71DFD2020ADF8000069465E48D1
:100C3000FFF716FD8020ADF8000069465A48FFF71F
:100C40000FFD4FF48070ADF8000069465648FFF77D
:100C500007FD08215448FFF799FD10215248FFF77E
:100C600095FD20215048FFF791FD80214E48FFF768
:100C70008DFD4FF480714C48FFF788FD10214A48E4
:100C8000FFF784FD642001F05BF810214648FFF770
:100C90007BFD642001F054F810214348FFF776FDF6
:100CA0000021AE2000F054F90021022000F050F99C
:100CB0000021102000F04CF90021402000F048F9FC
:100CC0000021812000F044F90021CF2000F040F9FC
:100CD0000021A12000F03CF90021C82000F038F9E3
:100CE0000021A62000F034F90021A82000F030F9FE
:100CF00000213F2000F02CF90021812000F028F98C
:100D00000021FF2000F024F90021D32000F020F979
:100D10000021084600F01CF90021D52000F018F948
:100D20000021802000F014F90021D92000F010F9F2
:100D30000021F12000F00CF90021DA2000F008F980
:100D40000021122000F004F90021DB2000F000F95E
:100D50000021402000F0FCF80021202000F0F8F8ED
:100D60000021022000F0F4F800218D2000F0F0F8BE
:100D70000021142000F0ECF80021A42000F0E8F895
:100D80000021A62000F0E4F80021AF2000F0E0F8F8
:100D90000021AF2000F0DCF8FFF70CFF002108462F
:100DA00000F004F808BD00000014014070B50446CE
:100DB0000D4605F1B001C8B2002100F0C9F81021BC
:100DC00041EA1410002100F0C3F804F00F0141F0D3
:100DD0000100002100F0BCF870BD00002DE9F041D9
:100DE00007460E46904600250024A8F12000C5B213
:100DF0007F2F02DD0027B01CC6B21F4800781028E4
:100E000024D131463846FFF7D1FF002408E004EB37
:100E100005111A4A505C012100F09AF8601CC4B216
:100E2000082CF4DB701CC1B23846FFF7BFFF00246A
:100E300009E004EB05110831104A505C012100F073
:100E400087F8601CC4B2082CF3DB12E03146384648
:100E5000FFF7ACFF00240AE005EB4501084A02EB6E
:100E60004101085D012100F073F8601CC4B2062C3A
:100E7000F2DBBDE8F0810000A1020020224D000855
:100E8000FA4A00082DE9FF5F074691461D460E9E6F
:100E90004FF0000A002433E0281B401EC1B20A2094
:100EA00001F08AFBB9FBF0F00A21B0FBF1F201FB83
:100EB0001208BAF1000F13D1681EA04210DDB8F17C
:100EC000000F0BD1B34606EBDB71491001FB047137
:100ED000C8B220220199FFF781FF0FE04FF0010A0D
:100EE000B34606EBDB71491001FB0471C8B208F18F
:100EF0003001CAB20199FFF771FF00BF601CC4B294
:100F0000AC42C9DBBDE8FF9F2DE9F04104460F4626
:100F10001546002615E0AA5D39462046FFF75EFF1C
:100F20000A480078102803D104F10800C4B201E097
:100F3000A01DC4B2782C02DD0024B81CC7B2701CFE
:100F4000C6B2A85D0028E6D1BDE8F081A10200206C
:100F500070B504460E4626B120211948FFF716FC4D
:100F600003E020211648FFF70FFC08211448FFF783
:100F70000BFC002519E080211148FFF705FC04F067
:100F8000800028B14FF480710D48FFF7FFFB04E0AB
:100F90004FF480710A48FFF7F7FB80210848FFF7FC
:100FA000F5FB6006040E681CC5B2082DE3DB0821C2
:100FB0000348FFF7EBFB20210148FFF7E7FB70BD7B
:100FC000001401400FB410B588B0119C01210B989A
:100FD00000F09AF801210E9800F086F8BDF8300074
:100FE000ADF8000003208DF8020018208DF80300F2
:100FF00069460A98FFF734FBBDF84000401E80B2F6
:10100000ADF81800ADF814400020ADF81A00ADF8A6
:10101000160005A90D9800F0BDFB6020ADF8040096
:101020000020ADF80C000120ADF80600BDF83E0030
:10103000ADF80A00BDF83C0030B1042809D00828FA
:101040000CD00C2814D10EE001A90D9800F046FA3E
:101050000EE001A90D9800F097FA09E001A90D989A
:1010600000F0F2FA04E001A90D9800F047FB00BF80
:1010700000BFBDF83C0030B1042809D008280CD0CE
:101080000C2814D10EE008210D9800F073FA0EE040
:1010900008210D9800F0CAFA09E008210D9800F027
:1010A00023FB04E008210D9800F066FB00BF00BFA1
:1010B00001210D9800F0E6F901210D9800F0F1F9F9
:1010C00008B010BC5DF814FB29B1064A526902430E
:1010D000044B5A6104E0034A52698243014B5A614E
:1010E000704700000010024029B1064AD26902434D
:1010F000044BDA6104E0034AD2698243014BDA61AE
:10110000704700000010024029B1064A926902436C
:10111000044B9A6104E0034A92698243014B9A614D
:10112000704700000010024030B50021002200246A
:1011300000232D4D6D6805F00C0121B1042905D067
:10114000082923D105E0294D056022E0274D0560DF
:101150001FE0254D6D6805F47012234D6D6805F490
:101160008034022505EB92421CB9214D55430560A0
:101170000BE01D4D6D6805F400351DB11C4D554348
:10118000056002E0194D5543056002E0174D05600A
:1011900000BF00BF144D6D6805F0F0010909154D41
:1011A0006B5C0568DD4045600F4D6D6805F4E061DE
:1011B000090A104D6B5C4568DD4085600A4D6D681D
:1011C00005F46051C90A0B4D6B5C4568DD40C56094
:1011D000054D6D6805F44041890B074D6B5CC56892
:1011E000B5FBF3F5056130BD0010024000127A0036
:1011F00000093D00A8020020B80200200FB408B585
:10120000BDF81000ADF8000048208DF803006946D5
:101210000298FFF725FA01B05DF814FB0FB408B58A
:10122000BDF81000ADF8000003208DF8020010207A
:101230008DF8030069460298FFF712FA01B05DF8D5
:1012400014FB704710B500F001F810BD0CB500207C
:10125000019000903348006840F4803031490860C4
:1012600000BF3048006800F4003000900198401C36
:101270000190009818B90198B0F5A06FF1D12948F4
:10128000006800F4003010B10120009001E000205F
:1012900000900098012843D12348006840F01000D6
:1012A000214908600846006820F0030008600846ED
:1012B000006840F0020008601A4840681949486018
:1012C0000846406848600846406840F480604860CE
:1012D0000846406820F47C1048600846406840F4A6
:1012E000E81048600846006840F08070086000BF61
:1012F0000C48006800F000700028F9D009484068E8
:1013000020F00300074948600846406840F00200AA
:10131000486000BF0348406800F00C000828F9D17D
:101320000CBD00000010024000200240042808D13B
:101330004FF0E021096941F004014FF0E022116112
:1013400007E04FF0E021096921F004014FF0E022AD
:101350001161704710B501F0F1FC02F0DDFC01F005
:10136000FDFC10BD10B504466FF00400FFF7DEFF72
:10137000E11704EB5171C1F3C701074A1170104620
:10138000007800EB4001C1EBC0104FF6FF7101EA9D
:10139000C0000249088010BDA4020020A60200205F
:1013A00010B51348006840F0010011490860084674
:1013B0004068104908400E494860084600680E49D8
:1013C00008400B4908600846006820F48020086047
:1013D0000846406820F4FE0048604FF41F00886013
:1013E000FFF730FF4FF000600449086010BD0000B7
:1013F000001002400000FFF8FFFFF6FE08ED00E0DD
:1014000010B50121880700F058F870B3194800782A
:10141000401C1849087008460078642801DD002047
:10142000087014480078282190FBF1F201FB1200AB
:10143000012809D11048007830B1FFF7BBFB0C221E
:1014400001210E4802F08AFF0A480078142190FB1F
:10145000F1F201FB1200022807D10948006820B907
:101460000020FFF70BFB064908600121880700F008
:1014700015F810BDA3020020A20200205025002074
:10148000D400002021B1028842F08002028004E0F2
:1014900002884FF67F731A4002807047CA43028267
:1014A000704721B1028842F00102028004E0028804
:1014B0004FF6FE731A400280704730B50246002096
:1014C00000230024158A05EA0103958905EA010431
:1014D00013B10CB1012000E0002030BD70B5002434
:1014E00000220023058C4FF6FE7635400584028CE1
:1014F0008388048B4FF68F752C40B51E2C400D88C9
:101500002C43751E2A400D892A434D882A43144DC9
:10151000A8420BD0134DA84208D0134DA84205D0C5
:10152000124DA84202D0124DA84213D14FF6F775C2
:101530002A404D892A434FF6FB752A408D882A435D
:101540004FF6FF652B404FF6FF552B408D892B43FF
:10155000CD892B4383800483CD888586028470BD2A
:10156000002C014000340140004001400044014093
:10157000004801400A460021018B4FF6F7731940DD
:10158000114301837047000070B50024002200233E
:10159000058C4FF6EF7635400584028C8388048BEA
:1015A00048F6FF752C404FF6FF452C400D884FF64E
:1015B000FF7606EA05252C434FF6DF752A400D8994
:1015C00006EA05152A434D8806EA05152A43154DF6
:1015D000A84202D0144DA8421DD14FF67F752A4073
:1015E0004D894FF6FF7606EA05152A434FF6BF757B
:1015F0002A408D8806EA05152A434FF6FF352B4011
:101600004FF2FF752B408D8906EA85052B43CD8966
:1016100006EA85052B4383800483CD8805870284F1
:1016200070BD0000002C0140003401400A4600213A
:10163000018B4FF2FF7319404FF6FF7303EA022349
:10164000194301837047000070B500240022002375
:10165000058C4FF6FF6635400584028C8388848BA9
:101660004FF68F752C404FF6FC752C400D882C439F
:101670004FF6FF552A400D894FF6FF7606EA0525FD
:101680002A434D8806EA05252A43154DA84202D073
:10169000144DA8421DD14FF2FF752A404D894FF6D7
:1016A000FF7606EA05252A434FF6FF352A408D8846
:1016B00006EA05252A434EF6FF752B404DF6FF75C9
:1016C0002B408D8906EA05152B43CD8906EA0515C1
:1016D0002B4383808483CD888587028470BD00007E
:1016E000002C0140003401400A460021818B4FF656
:1016F000F7731940114381837047000070B50022D1
:1017000000230024058C4EF6FF7635400584038CBB
:101710008488828B48F6FF752A404FF6FF452A40A1
:101720000D884FF6FF7606EA05252A434DF6FF752C
:101730002B400D8906EA05352B434D8806EA053511
:101740002B430B4DA84202D00A4DA84208D14BF6BC
:10175000FF752C408D894FF6FF7606EA85152C43E0
:1017600084808283CD88A0F84050038470BD00003F
:10177000002C0140003401400A460021818B4FF2C9
:10178000FF7319404FF6FF7303EA02231943818365
:1017900070470000002202881D4B98420ED01D4B5E
:1017A00098420BD0B0F1804F08D01B4B984205D027
:1017B0001A4B984202D01A4B984204D14FF68F73BD
:1017C0001A404B881A43174B984207D0164B984241
:1017D00004D04FF6FF431A40CB881A4302808B880F
:1017E00083850B8803850A4B98420BD0094B98429E
:1017F00008D00E4B984205D00D4B984202D00D4BAD
:10180000984201D10B7A038601238382704700003E
:10181000002C01400034014000040040000800405A
:10182000000C004000100040001400400040014047
:10183000004401400048014008B50A4800F048FA59
:10184000FFF7B8F9012000900748037807A20021AC
:10185000044803F0A7F80C220121024802F07EFDA3
:1018600008BD00005025002024000020706964009D
:1018700000B5ADF20C4D01F061FA40F224410D4883
:1018800000F068F888B10C4800684FF481620B4999
:10189000CDF808046846FEF7E1FC084810380FC888
:1018A00000F070FE034800F011F901F057FA0DF254
:1018B0000C4D00BD0038014008000020301D002004
:1018C00000B5ADF20C4D01F039FA40F224410D485B
:1018D00000F040F888B10C4800684FF481620B4971
:1018E000CDF808046846FEF7B9FC084810380FC860
:1018F00000F048FE034800F0E9F801F02FFA0DF27D
:101900000C4D00BD004400400C0000204821002088
:1019100021B1828942F40052828104E082894DF62D
:10192000FF731A40828170471AB1838A0B43838206
:1019300002E0838A8B438382704702460020B1F520
:10194000007F00D100BF13880B400BB1012000E0E5
:101950000020704770B502460024002300250020B7
:1019600040F66A16B14200D100BFC1F3421501F042
:101970001F03012606FA03F3012D02D19689334095
:1019800006E0022D02D1168A334001E0968A3340E8
:101990000C12012606FA04F41688344013B10CB177
:1019A000012000E0002070BDF0B5034600240026B1
:1019B0000025002040F66A17B94200D100BF184642
:1019C000C1F3421401F01F06012707FA06F5012CA6
:1019D00001D10C3004E0022C01D1103000E01430B1
:1019E0001AB107682F43076002E00768AF4307603A
:1019F000F0BD00002DE9F04786B005460E460024F4
:101A0000A24600BFA1460027B08900B100BF2F4603
:101A10002C8A4CF6FF700440F08804432C82AC8979
:101A20004EF6F3100440B0883189084371890843A9
:101A30000443AC81AC8A4FF6FF400440B0890443B4
:101A4000AC8201A8FFF770FB1F48874202D1DDF886
:101A500010A001E0DDF80CA0A88900F4004040B11E
:101A60000AEBCA0000EB0A1031684900B0FBF1F83C
:101A700007E00AEBCA0000EB0A1031688900B0FBEE
:101A8000F1F86420B8FBF0F004012009642101FBA7
:101A90001089A88900F4004040B1322000EBC90051
:101AA000B0FBF1F000F00700044308E0322000EB47
:101AB00009106421B0FBF1F000F00F0004432C8109
:101AC00006B0BDE8F0870000003801400146888874
:101AD000C0F308007047C1F308028280704700BF5E
:101AE000FEE70000014609B900207047C8B220B1E6
:101AF000C8B20E4A105C401CF7E701F47F4028B1E1
:101B00000A48C1F30722805C0930EEE701F47F0048
:101B100028B10648C1F30742805C1130E5E703486D
:101B200000EB116000781930DFE70000D8490008A9
:101B300002E008C8121F08C1002AFAD17047704796
:101B4000002001E001C1121F002AFBD170470000F4
:101B500003490868884201D0012070470020FCE753
:101B6000A80000202DE9FC5F04468B4615461E4662
:101B7000DDE90C9ADDE90E7804F1140040600060A4
:101B800000BF1C346560A660C4F80C90C4F810A0B7
:101B90002321D4E9030201F076FBD4E9033C63443A
:101BA0001A1F0F4BD4E9010101F08EF82060A776CF
:101BB00067760020E061C4F82880C4F82C8060615A
:101BC0002076E06520661C3C00902346054A2146AD
:101BD000019004F14C0002F03CF90020BDE8FC9FAC
:101BE000C5390008253C00082DE9F04704460E469B
:101BF00017469846DDF8209084F80990607A20F026
:101C000001006072E66127620020A062C4F82480AF
:101C1000002506E004F1140101EBC50001F014F900
:101C20006D1C012DF6DBBDE8F08710B502460020E3
:101C300001460EE002F1140303EBC100D0E90043BA
:101C40006360D0E9003423604060006000BF481C3E
:101C500001460129EEDB10BD1FB50446184819499D
:101C6000086004204860402008811748C8600220AE
:101C700008610020888212481449086004204860E6
:101C8000802008811048C8600220086104208882F2
:101C90000C4A0394D2E904109269CDE90102009143
:101CA00008480FC800F09CFD084A0394103207CA88
:101CB0008DE8070005480FC800F092FD1FBD000029
:101CC0000008014050260020000400406C2600203F
:101CD000024600210EE0C1EBC10002EB400007A369
:101CE0001B8803800020C1EBC10302EB43039881F2
:101CF000481CC1B21029EEDB012070472000000013
:101D0000002410E04FF0FF310748006801F045FC67
:101D1000044644B9054906A001F078F84FF47A71F9
:101D20000248FEF7B4FAEDE7080000204C1D002041
:101D3000CAD5B5BDCAFDBEDD3A25730A0000000054
:101D40000146114A12884A434FF0E0235A610022AB
:101D50009A611A46126942F001021A6100BF4FF0FF
:101D6000E022106900F001021AB100F48032002A6A
:101D7000F5D04FF0E022126922F001024FF0E0238B
:101D80001A6100229A617047A60200201CB5002447
:101D90004BE04FF0FF3201A92448006801F075F9CB
:101DA0000446002C41D101980A2838D2DFE800F01F
:101DB00037050F0B150E3618192802F08BFC1CA0E6
:101DC00001F024F830E0FFF737FD2DE02CE000F0C3
:101DD000F7F821A001F01AF826E000F0F1F823E06E
:101DE00000BF002000902648037826A20021264844
:101DF00002F0D8FD0C220121234802F0AFFA13E0D3
:101E00000120002321A2014600901F4802F0CAFDD4
:101E10000C2201211C4802F0A1FA05E004E01CA0FC
:101E2000019900F0F3FF00BF00BFB2E700000020FF
:101E30007468726561645F646973706C6179A3BA78
:101E40007461736B31BDE7C3E6B8FCD0C2B3C9B9E6
:101E5000A6A3A10A000000007468726561645F6453
:101E60006973706C6179A3BABBD8B5BD6D61696ED9
:101E7000BDE7C3E6B8FCD0C2B3C9B9A6A3A10A00A6
:101E80002400002070696400502500206F6B000062
:101E90007468726561645F646973706C6179A3BA18
:101EA000CFD4CABEB8FCD0C2B4EDCEF3A3ACB4ED6F
:101EB000CEF3616374696F6E3A25640A0000000016
:101EC00008B5002416E04FF0FF3269460A48006862
:101ED00001F0DBF8044654B908A0009900F096FF21
:101EE0000098C1B20F48007802F0DCFA02E00EA0C0
:101EF00000F08CFFE7E70000DC00002074687265EA
:101F000061645F6B657968616E646C65A3BACAD5FC
:101F1000B5BDB0B4BCFC3A25642CBFAACABCB4A6FB
:101F2000C0ED0A00180000207468726561645F6B80
:101F3000657968616E646C65A3BAB0B4BCFCBDD34E
:101F4000CAD5CAA7B0DCA3A10A00000070B5054637
:101F50000B48006898B90020FEF790FD084908601A
:101F60000846006858B1084601680648006801F054
:101F700006F9044614B904A000F048FF00BF70BD84
:101F8000D4000020DC00002074696D65725F6B6511
:101F9000797363616EA3BAB0B4BCFCB7A2CBCDB306
:101FA000C9B9A6A3A10A000010B500F05FF800F0BF
:101FB00017FA00F0EDF800F09BF9002010BD0000CA
:101FC00008B51D48FFF784FEFEF7F4FD012000234D
:101FD0001AA219460090184802F0E4FC01200023E0
:101FE00018A201460090144802F0DCFC01200346D0
:101FF00016A202210090104802F0D4FC0120022316
:1020000013A2032100900C4802F0CCFC0120032312
:1020100010A204210090084802F0C4FC012004230F
:102020000DA205210090044802F0BCFC1022012101
:10203000014802F093F908BD502500206D61696EDA
:10204000000000006D65617500000000746B3100D8
:10205000746B3200746B3300746B340010B504463B
:1020600000F0FEFBFFF7A0FF10BD000010B500223E
:1020700011461AA001F04CFA1C4908600846006895
:1020800010B11BA000F0C2FE0022052120A000F02C
:10209000D3FF214908600846006810B11FA000F076
:1020A000B5FE0022052124A000F0C6FF25490860E6
:1020B0000846006810B124A000F0A8FE0022052107
:1020C00028A000F0B9FF2A4908600846006810B14E
:1020D00028A000F09BFE002010BD000073656D5F1E
:1020E00064656275675F75617274000008000020A6
:1020F00064656275675F75617274D0C5BAC5C1BF2A
:10210000B4B4BDA8B3C9B9A6A3A10A0A00000000CF
:102110006D625F6B65790000DC000020B0B4BCFC30
:10212000B4A6C0EDD3CACFE4B4B4BDA8B3C9B9A6B0
:10213000A3A10A0A000000006D625F646973706CFD
:1021400061790000000000206F6C6564CFD4CABEC6
:10215000D3CACFE4B4B4BDA8B3C9B9A6A3A10A0A2F
:10216000000000006D625F6374726C417432340071
:10217000200000206374726C41743234D3CACFE4FF
:10218000B4B4BDA8B3C9B9A6A3A10A0A000000004F
:102190001CB5142006214FF400730022CDE9001075
:1021A000224923A001F0E0FB2649086008460068A8
:1021B00010B125A000F02AFE142002210B020022FB
:1021C000CDE90010274928A001F0CEFB294908607D
:1021D0000846006810B128A000F018FE142008215D
:1021E0008B010022CDE900102A492BA001F0BCFB95
:1021F0002D4908600846006810B12CA000F006FECA
:1022000014200A214FF400730022CDE900102D495B
:102210002DA001F0A9FB2E4908600846006810B106
:102220002CA000F0F3FD00201CBD0000011D0008E3
:1022300064656275675F7561727468616E646C6510
:10224000000000001000002075617274B4A6C0ED9B
:10225000CFDFB3CCB4B4BDA8B3C9B9A6A3A10A0A51
:1022600000000000C11E00086B657968616E646C37
:102270006500000014000020B0B4BCFCB4A6C0EDA2
:10228000CFDFB3CCB4B4BDA8B3C9B9A6A3A10A0A21
:1022900000000000714700087461736B726561642F
:1022A00041543234000000001C00002041543234FC
:1022B000CFDFB3CCB4B4BDA8B3C9B9A6A3A10A0AF1
:1022C000000000008D1D0008646973706C61790066
:1022D00004000020CFD4CABECBA2D0C2CFDFB3CC83
:1022E000B4B4BDA8B3C9B9A6A3A10A0A00000000EE
:1022F00010B51D48006838B11B48006801F05AFC51
:102300001AA000F083FD02E04FF0FF3010BD1E4820
:10231000006838B11C48006801F04CFC1BA000F0BC
:1023200075FD02E04FF0FF30F0E71F48006838B15C
:102330001D48006801F03EFC1CA000F067FD02E0B3
:102340004FF0FF30E2E71F48006838B11D480068D1
:1023500001F030FC1CA000F059FD02E04FF0FF300E
:10236000D4E70020D2E70000100000206465627509
:10237000675F75617274CFDFB3CCBFAACABCB5F713
:10238000B6C8A3A10A0A000014000020B0B4BCFC27
:10239000B4A6C0EDCFDFB3CCBFAACABCB5F7B6C8F0
:1023A000A3A10A0A0000000004000020CFD4CABE86
:1023B000CFDFB3CCBFAACABCB5F7B6C8A3A10A0A7F
:1023C000000000001C00002041543234CFDFB3CCA9
:1023D000BFAACABCB5F7B6C8A3A10A0A000000008C
:1023E00008B50620322300220949009009A001F017
:1023F00005FD0C4908600846006830B108460068D1
:1024000001F04CFD08A000F001FD002008BD000017
:102410004D1F000874696D65725F6B657973636148
:102420006E000000D8000020B0B4BCFCC9A8C3E80E
:10243000B6A8CAB1C6F7C6F4B6AFB3C9B9A6A3A1C8
:102440000A0A00000FB400B5ADF21C4D0121DDF801
:102450003C04FEF759FEDDF82404B0F5804F05D1A9
:102460000121DDF82404FEF74FFE04E00121DDF830
:102470002404FEF739FEBDF83804ADF8180418201E
:102480008DF81B0403208DF81A040DF58361DDF827
:102490003404FEF7E5F8BDF83004ADF81804042064
:1024A0008DF81B040DF58361DDF82C04FEF7D8F8D8
:1024B000DDF84004CDF808040020ADF80C04ADF8B8
:1024C0000E04ADF81004ADF814040C20ADF812049D
:1024D0000DF58161DDF82004FFF78CFA4FF481627D
:1024E0000DF586616846FDF7B9FE0DF584600FC8ED
:1024F00002F0C0F9012240F22441DDF82004FFF788
:1025000053FA01224021DDF82004FFF70DFA0121E2
:10251000DDF82004FFF7FCF90DF21C4D5DF814FB0B
:102520000FB400B58BB001210846FEF7CDFD16981B
:10253000009017A80190002002904FF47A70039049
:102540000020049080200590002006900790202015
:1025500008904FF44050099000200A906946159861
:10256000FEF75FF84FF48030FEF738F801220821BB
:102570001598FEF74DF801211598FEF73DF80BB0C0
:102580005DF814FB0FB410B5DDF8204400210B9862
:10259000FEF732F84FF48030FEF720F84FF47A70EF
:1025A0000B99486001210B98FEF726F8204600F0B1
:1025B000D7FF10BC5DF814FB10B50246012000E007
:1025C00050430B1EA1F10104E1B2F9D110BD00008E
:1025D00030B51A4C436824681919884215D04B88C5
:1025E0009BB9174B1B6899420FD0164B1B688B4247
:1025F00001D1144B18604B684360104B1B68C31A21
:102600000E4D4C682D682C44A3600C4C83682468E4
:102610001A19824211D053887BB90A4B1B68834236
:1026200001D1084B1A6043685360044B1B68D31AEE
:10263000024D44682D682C44A36030BD300000205A
:1026400034000020380000202DE9F04F86B00D4600
:102650009C46DDE9106401960F9B04F04008B8F138
:10266000000F02D0DFF8708101E0DFF87081CDF853
:10267000008004F01008B8F1000F01D024F001042C
:1026800004F00108B8F1000F02D04FF0300801E06B
:102690004FF02008C246002704F00208B8F1000FEE
:1026A00011D0002A02DA2D2752420CE004F004086F
:1026B000B8F1000F01D02B2705E004F00808B8F1AD
:1026C000000F00D02027002142B94FF0300B884680
:1026D000491C0DF1080909F808B01DE01AE0E146AF
:1026E000B9F10A0F08D14FF00A0BB2FBFBFE0BFB4E
:1026F0001E28B2FBFBF202E002F00F08120900BF35
:10270000DDF8009019F808B08846491C0DF1080959
:1027100009F808B0002AE2D1B14200DD0E469B1B49
:1027200004F01108B8F1000F10D117B1002B00DD33
:102730005B1E06E0A84203D84FF0200880F8008016
:10274000401CB3F10008A3F10103F3DC27B1A84258
:1027500001D807705B1E401C04F01008B8F1000F90
:102760000AD104E0A84201D880F800A0401CB3F1CF
:102770000008A3F10103F5DC06E0A84203D84FF0FE
:10278000300880F80080401CB046761E8845F4DC96
:1027900008E0A84205D80DF1080818F8018080F873
:1027A0000080401CB1F10008A1F1010104DDDDF859
:1027B0000480B8F1000FECD106E0A84203D84FF036
:1027C000200880F80080401CB3F10008A3F1010349
:1027D000F3DC06B0BDE8F08FE94A0008D84A0008EB
:1027E0000FB41FB50D9C4FF47A70ADF83000BDF8F2
:1027F000300000EBD0714910ADF82E104720039047
:102800000AA807C88DE8070006A80FC8FEF7DAFB7C
:102810001FBC5DF814FB00001CB5142001214B0205
:102820000022CDE90010044904A001F09DF80446FF
:10283000204601F0BFF91CBD5D2000086D61696E86
:102840000000000010B5044C02E020688047241D01
:1028500002488442F9D310BD185300081C530008E5
:1028600010B5044C02E020688047241D02488442D1
:10287000F9D310BD1C5300082053000810B5FDF714
:1028800061FC044604480088401C00B202490880EC
:102890002046FDF75BFC10BD9800002010B5FDF749
:1028A00051FC04460B480088401E00B209490880CC
:1028B0000846B0F90000002807DC00200880204608
:1028C000FDF744FC00F08AFD02E02046FDF73EFCE7
:1028D00010BD00009800002070B5054605B970BD18
:1028E0001D480068854203D31C480068854200D318
:1028F000F5E7A5F10C044FF0FF31194800F04DFE4B
:10290000608818B12088B0F5F55F08D015A000F0F8
:102910007DFA23886288214619A000F077FA00200A
:1029200060804FF4F550208021480068844201D235
:102930001F480460084960680968611A401A1D4907
:102940000968081A1B4908602046FFF741FE044841
:1029500000F006FE00BFC2E7300000203400002077
:1029600098150020746F2066726565206120626191
:1029700064206461746120626C6F636B3A0A0000CA
:102980006D656D3A203078253038782C2075736568
:102990006420666C61673A2025642C206D6167694C
:1029A0006320636F64653A203078253034780A00FC
:1029B000380000204000002000487047D00200206E
:1029C00000487047D012002070B54820FEF7CAFCBE
:1029D000FEF71EF8FEF70EF9FEF7ECF820A2002134
:1029E0000846FEF791FA01F061FFFDF7C1FC0120F6
:1029F000FFF732F901F016FE1C4800684FF47A72B6
:102A0000B0FBF2F1B1F1807F00D31DE021F07F40F7
:102A1000401E4FF0E022506150170F22002807DAC5
:102A200013071D0E124B00F00F04241F1D5503E069
:102A300013071C0E0F4B1C5400BF00204FF0E02268
:102A400090610720106100BFFFF7FCFEFFF7B8FFA1
:102A50000446FFF7B1FF0546214600F093FE70BD26
:102A600068656C6C6F206D6375000000BC0200200F
:102A700018ED00E000E400E010B50446FFF7FEFEAC
:102A800019E020780A280AD10D210E48FFF723F813
:102A900000BF80210B48FEF750FF0028F9D014F842
:102AA000011B0848FFF717F800BF80210548FEF713
:102AB00044FF0028F9D020780028E2D1FFF7EEFE8D
:102AC00010BD00000038014070B505462C1D2E4891
:102AD000006838B128462C4909688847064606B977
:102AE00070BD00BF29A0E16B00F090F92BA0216A16
:102AF00000F08CF92DA0616A00F088F92FA0A16A7E
:102B000000F084F931A0E16A00F080F933A0216877
:102B100000F07CF935A0616800F078F937A0A16871
:102B200000F074F939A0E16800F070F93BA0216968
:102B300000F06CF93DA0616900F068F93FA0A1695F
:102B400000F064F941A0E16900F060F943A0216B55
:102B500000F05CF945A0616B00F058F947A0A16B4B
:102B600000F054F9287800F0040038B100F0FAFFC2
:102B70000646314645A000F049F902E04BA000F0BE
:102B800045F900BFFEE70000D00000207073723AE4
:102B9000203078253038780A000000007230303A52
:102BA000203078253038780A000000007230313A41
:102BB000203078253038780A000000007230323A30
:102BC000203078253038780A000000007230333A1F
:102BD000203078253038780A000000007230343A0E
:102BE000203078253038780A000000007230353AFD
:102BF000203078253038780A000000007230363AEC
:102C0000203078253038780A000000007230373ADA
:102C1000203078253038780A000000007230383AC9
:102C2000203078253038780A000000007230393AB8
:102C3000203078253038780A000000007231303AB0
:102C4000203078253038780A000000007231313A9F
:102C5000203078253038780A000000007231323A8E
:102C6000203078253038780A00000000206C723A55
:102C7000203078253038780A000000002070633A50
:102C8000203078253038780A0000000068617264CE
:102C9000206661756C74206F6E2074687265616463
:102CA0003A2025730D0A0D0A000000006861726465
:102CB000206661756C74206F6E2068616E646C654F
:102CC000720D0A0D0A000000F0B504460D461646C6
:102CD000301D20F0070040380146002203E00C4F71
:102CE00041F82270521C102AF9D30D624FF0000CEB
:102CF000C1F824C0C1F828C0C1F82CC0C1F830C048
:102D00004B638C634FF0807CC1F83CC0F0BD000089
:102D1000EFBEADDE4FF0E02252694FF47A73B2FBA2
:102D2000F3F250434FF0E022916900BF4FF0E022F0
:102D300092698A1A8242F9D37047000010B5FDF7F4
:102D400001FA044604480078401C034908702046F4
:102D5000FDF7FCF910BD00002C00002010B5FDF7B8
:102D6000F1F9044604480078401E034908702046E3
:102D7000FDF7ECF910BD00002C00002070B50446F2
:102D80002068A0F11405284600F0CEFE002070BD9A
:102D90002DE9F04105460C469046204600F020FF04
:102DA000B8F1000F03D0B8F1010F23D105E004F111
:102DB0001401284600F060F81CE02E680FE0A6F130
:102DC000140794F8350097F83510884206DA04F1B4
:102DD000140107F1140000F04FF802E03668AE422B
:102DE000EDD100BFAE4204D104F11401284600F039
:102DF00043F800BF00BF0020BDE8F08110B50446D5
:102E000004F1140000F01AF8002010BD0FB438B51A
:102E100005A800907F210848009B049A01F0ECF877
:102E200004467F2C00D97F240348FFF725FE0020AD
:102E3000009038BC5DF814FB18150020406000605D
:102E400070474060006070474060006070470268F3
:102E5000516002680A600160486070470268516012
:102E600002680A6001604860704702685160026849
:102E70000A600160486070474268116042684A60B9
:102E800041600860704701460868884201D101200E
:102E900070470020FCE701460868884201D1012004
:102EA00070470020FCE7D0E900215160D0E9001212
:102EB0001160406000607047D0E900215160D0E9A6
:102EC0000012116040600060704700002DE9F04181
:102ED000054615B90020BDE8F081E81C20F0030587
:102EE0004E480068854201D90020F4E70C2D00D23D
:102EF0000C254FF0FF314A4800F04FFB494800686D
:102F000049490968461A7EE0474800688419608884
:102F1000002874D106F10C006168081AA8426ED32B
:102F200006F10C006168091A05F11800814230D3DE
:102F300006F10C0000EB05083B48006800EB0807B1
:102F40004FF4F55038800020788060687860BE606B
:102F5000C4F80480012060803048796800680C3033
:102F6000814205D03049786809680844C0F8088073
:102F70002E48016805F10C0008442C4908602C48D3
:102F800000680968884219D2284800682849086002
:102F900014E001206080244960680968611A401AC1
:102FA00022490968084421490860214800680968E5
:102FB000884203D21D4800681D4908604FF4F5504F
:102FC000208018480068844212D107E01548006844
:102FD00040681549096808441249086011480068AA
:102FE000408828B10F480068124909688842EDD12D
:102FF0000B4800F0B5FA04F10C006CE7FFE70A4853
:1030000000683044466805480068401BB0423FF6FF
:103010007BAF034800F0A4FA00205CE73C000020EE
:1030200098150020380000203000002040000020CB
:1030300044000020340000202DE9F04105460E46F2
:1030400017462946042000F042F9044614B92046E8
:10305000BDE8F08167722046FFF7D0FE2684218C00
:103060008800FFF733FFE061E06920B9204600F0F7
:1030700058F90020ECE700206084A084E08404F18B
:103080002800FFF7DBFE2046E2E72DE9F743044680
:103090000E46002700F066FD0546FDF753F8804612
:1030A000608C38B9029828B94046FDF74FF8B81E31
:1030B000BDE8FE833AE000202863029830B940461C
:1030C000FDF744F86FF001002863F1E7627A2946C2
:1030D00004F11400FFF75CFE029800280CDD00F0FC
:1030E00015FE074602AA002105F14C0000F06AFE19
:1030F00005F14C0000F0D2FE4046FDF727F800F045
:103100006DF9286B08B1286BD2E7FDF71BF88046F4
:10311000029800280ADD00F0F9FDC71B0298C01BC9
:1031200002900298002801DA00200290608C0028AA
:10313000C1D0E18CE06950F821003060E08C401C87
:10314000E084E08C218C884201DB0020E084608CEC
:10315000401E608404F12800FFF795FE50B904F189
:103160002800FFF70BFE4046FCF7F0FF00F036F9B1
:1031700000209DE74046FCF7E9FF002098E770B586
:1031800004460D4600222946204600F001F870BD95
:103190002DE9F74304460E46002700F0E3FC054600
:1031A000FCF7D0FF8046608C218C884207D10298C2
:1031B00028B94046FCF7CAFFF81EBDE8FE8339E097
:1031C00000202863029828B94046FCF7BFFF6FF043
:1031D0000200F2E7627A294604F12800FFF7D8FDE1
:1031E000029800280CDD00F091FD074602AA00219C
:1031F00005F14C0000F0E6FD05F14C0000F04EFE3C
:103200004046FCF7A3FF00F0E9F8286B08B1286BF3
:10321000D3E7FCF797FF8046029800280ADD00F00C
:1032200075FDC71B0298C01B02900298002801DAA6
:1032300000200290608C218C8842C1D0A18CE06972
:1032400040F82160A08C401CA084A08C218C884276
:1032500001DB0020A084608C401C608404F1140019
:10326000FFF711FE50B904F11400FFF787FD404647
:10327000FCF76CFF00F0B2F800209EE74046FCF738
:1032800065FF002099E7F0B50C460546E6B2042A32
:1032900015D300F0030797B9014646EA062343EA2F
:1032A000034304E008C108C108C108C1103A102A4C
:1032B000F8D201E008C1121F042AFBD20D4601E03A
:1032C00005F8016B171EA2F10102F9D1F0BD2DE93D
:1032D000F04106460F46304600F044F80546E868DF
:1032E000FFF7F4FD044614B90020BDE8F081002189
:1032F0002046EA68FFF7C7FF2672002060720822A6
:103300003946204600F023FAFCF71CFF804604F102
:103310000C01281DFFF79BFD4046FCF717FF2046D8
:10332000E3E770B5044600202072FCF70BFF05466A
:1033300004F10C00FFF7B7FD2846FCF707FF204615
:10334000FFF7CAFA70BD70B5044600202072FCF782
:10335000F9FE054604F10C00FFF7A5FD2846FCF731
:10336000F5FE70BD024600210AE0074800EB01109F
:103370000078904203D1044800EB01107047491CCB
:103380000529F2DB0020F9E7480000202DE9F04193
:1033900004460D4616462846FFF7E4FF074645F06B
:1033A0008000207208223146204600F0D0F9FCF758
:1033B000C9FE804604F10C01381DFFF748FD404668
:1033C000FCF7C4FEBDE8F0810146087A00F08000F9
:1033D00008B1012070470020FCE700002DE9F04112
:1033E000FCF7B0FE07461B48008868BB1A48006817
:1033F000FEF778FB461E194850F83600A0F1140479
:103400001748006884421BD016490E70144805689E
:1034100004601548007848B904F11C0105F11C004E
:10342000FCF797FE3846FCF791FE0CE004F11C0116
:1034300005F11C00FCF78DFE3846FCF787FE02E024
:103440003846FCF783FE02E03846FCF77FFEBDE815
:10345000F081000098000020A4000020B815002092
:103460009C000020A00000202C00002070B5044625
:10347000FCF768FE054614F8340F20F00F0040F00A
:10348000010020706278343C0A4B03EBC20004F167
:1034900014014268116042684A604160086000BFE0
:1034A0000549A06B09680843034908602846FCF7F2
:1034B0004DFE70BDB8150020A400002070B5044674
:1034C000FCF740FE054604F11400D0E900215160EC
:1034D000D0E9001211604060006000BF94F8351020
:1034E000094A02EBC1000168814201D1012100E0DB
:1034F000002129B10548A16B006888430349086091
:103500002846FCF723FE70BDB8150020A40000205B
:103510002DE9F04105460E46174629460120FFF7E2
:10352000D6FE044614B92046BDE8F0812046FFF7D8
:1035300065FCA68367722046F6E72DE9F041044654
:103540000D4616461F462A4601212046FFF71EFF5C
:103550002046FFF753FCA68367720020BDE8F08188
:1035600070B504460025FCF7EDFD064604F1140095
:10357000FFF789FC28B904F11400FFF7FFFB0125D0
:1035800002E0A08B401CA0833046FCF7DFFD012D3C
:1035900001D1FFF723FF002070BD73B50546FCF78E
:1035A000D1FD0646A88B002806DDA88B401EA88307
:1035B0003046FCF7CBFD28E0019828B93046FCF7EF
:1035C000C5FD6FF001007CBD00F0CCFA0446002080
:1035D00020636A7A214605F11400FFF7D9FB0198B0
:1035E000002809DD01AA002104F14C0000F0EAFBEB
:1035F00004F14C0000F052FC3046FCF7A7FDFFF749
:10360000EDFE206B08B1206BDDE70020DBE700005A
:1036100008B509A0FFF7FAFB0AA0FFF7F7FB12A015
:10362000022301220321009012A0FFF7EFFB19A053
:10363000FFF7ECFB08BD00000A205C207C202F0A6D
:10364000000000002D205254202D20202020205446
:103650006872656164204F7065726174696E67207D
:1036600053797374656D0A004175672020322032EA
:1036700030313900202F207C205C20202020202584
:10368000642E25642E2564206275696C6420257380
:103690000A0000002032303036202D2032303139FF
:1036A00020436F7079726967687420627920727440
:1036B0002D746872656164207465616D0A00000094
:1036C00070B500F023FB0646FFF7D8F81A480568E6
:1036D0002BE0A5F11404A06A301A6FF00041884273
:1036E00022D22D682046FEF7A0FAFFF7D7F8D4E9DA
:1036F0000710884700F00AFB0646FFF7BFF8607A1C
:1037000000F0020058B1607A00F0010038B1607A30
:1037100020F001006072204600F0C0FB05E0607AF6
:1037200020F00100607200E002E003488542D0D141
:1037300000BFFFF7B3F870BDB800002001460A468D
:1037400000E0521C10780028FBD1501A704770B569
:103750000346A2B118460C4600BF14F8016B00F8EE
:10376000016B3EB902E0002500F8015B551E2A1EE0
:10377000F9D102E0551E2A1EEFD100BF00BF184646
:1037800070BD00002DE9F04105460E46E81C20F012
:10379000030726F00308B8F1180F09D9A8F118009B
:1037A000B84205D3A8EB070018381E49086006E0A8
:1037B000324629461CA0FFF729FBBDE8F0812948C5
:1037C000076004684FF4F5502080164800680C30FC
:1037D00060600020A0606080224960680968084439
:1037E000214908604FF4F5500968088001201E49FE
:1037F000096848800B4800680C301B49096848601C
:10380000084800680C3018490968886000230122C4
:1038100016A11848FFF791FE124800681649086083
:1038200000BFCAE73C0000206D656D20696E6974B9
:103830002C206572726F7220626567696E20616408
:10384000647265737320307825782C20616E642053
:10385000656E6420616464726573732030782578C6
:103860000A0000003000002034000020686561700C
:1038700000000000981500203800002010B500203E
:103880000B490880002405E00A4901EBC400FFF75A
:10389000D8FA641C202CF7DB1F2007490870002091
:1038A00006490860064908600648FFF7CAFA10BDD5
:1038B00098000020B8150020A00000209C000020E7
:1038C000A4000020A800002070B508480068FEF79A
:1038D00009F9451E064850F83500A0F114040548C2
:1038E000046004F11C00FCF762FC70BDA400002021
:1038F000B81500209C00002010B5002405E0044904
:1039000001EBC400FFF7A0FA641C002CF7D010BD37
:10391000B00000201FB5002405E00D4901EBC400F4
:10392000FFF792FA641C002CF7D00A200421CA0188
:10393000084BCDE90032CDE902100023064A07A169
:10394000084800F0CDF8074800F034F91FBD00002A
:10395000B800002038170020453C000874696D65E8
:1039600072000000B81600202DE9FF5F06460F46E2
:1039700090461D46DDE90EAB31460020FFF7A7FC5F
:103980008146B9F1000F03D1002004B0BDE8F09FDB
:103990002846FFF79BFA044624B94846FFF7C1FCC6
:1039A0000020F2E743463A46314648468DE8300C5F
:1039B000FEF7D8F84846E8E710B50446204600F080
:1039C000D7F810BD70B512480468FCF7BBFB05467C
:1039D0002046FFF773FD042084F8340004F14C0006
:1039E00000F027FA2046FFF7EFFC012805D1A06F71
:1039F00018B92046FFF7A7FC04E004F114010548BC
:103A0000FFF72CFA2846FCF7A1FBFFF7E7FC70BD97
:103A10009C000020A800002001E000F001F8FCE775
:103A200070B537E0FCF78EFB0546FEF791F818B34A
:103A30001B480068A0F1140404F11400D0E900212F
:103A40005160D0E9001211604060006000BFFEF7D5
:103A500015FFA06F10B12046A16F88472046FFF7E1
:103A6000B3FC012805D1FEF719FF2846FCF76EFBD1
:103A700070BDFEF713FF03E02846FCF767FBF7E78E
:103A80002846FCF763FBA06AFEF726FF2046FFF7F7
:103A900048FC00BFFEF75CF80028C3D100BFE7E791
:103AA000A80000201FB520201F21C200074BCDE930
:103AB0000032CDE902100023054A06A1074800F0B4
:103AC0000FF8064800F076F81FBD0000181400201B
:103AD000193A00087469646C6500000098130020AE
:103AE0002DE9FF5F05460C4616461F46DDE910AB83
:103AF000DDE90E89224600212846FFF747FC3B46B8
:103B00003246214628468DE8000FFEF72BF804B018
:103B1000BDE8F09F70B50446204600F0E7F8054682
:103B2000284600F025F870BD70B5044694F83400BE
:103B300000F00F00022802D04FF0FF3070BDFCF7FC
:103B400001FB054604F11400FFF7B6F904F14C003F
:103B500000F03AFA2846FCF7F9FA2046FFF786FC0F
:103B60000020EBE701480068704700009C0000203F
:103B700031B5FCF7E7FA05460D480468204600F029
:103B80002FF86A46002104F14C0000F01BF904F103
:103B90004C0000F083F92846FCF7D8FAFFF71EFC2A
:103BA000206B801C08B900202063002038BD000075
:103BB0009C00002010B504463434A0786070617811
:103BC000012088406060022004F834092046FFF795
:103BD000ABFFFFF7C7FF08B1FFF700FC002010BDE7
:103BE00070B5044694F8340000F00F00012802D0AC
:103BF0004FF0FF3070BDFCF7A5FA054694F834008D
:103C000020F00F0040F0020084F834002046FFF757
:103C100055FC04F14C0000F0D7F92846FCF796FA61
:103C20000020E7E770B5044625466FF001002863E1
:103C300005F11400FFF740F92846FFF717FCFFF7DE
:103C4000CDFB70BD1CE00F4800F01AF90446601C63
:103C500038B9FFF787FF0546FFF7C2FFFFF7BEFB46
:103C60000CE000F053F80546601B6FF000418842FD
:103C700003D2641B2046FFF79FFE00BFFFF720FD25
:103C8000E1E70000B800002070B5FCF75BFA0546DC
:103C90001448046894F8340000F00F0001281CD187
:103CA000D4E90510814218D004F11400FFF704F99B
:103CB00094F835200C4B03EBC20004F11401426868
:103CC000116042684A604160086000BF2846FCF706
:103CD0003DFAFFF783FB002070BD2846FCF736FA5B
:103CE0000020F9E79C000020B815002001460029BB
:103CF00002DA4FF0FF3008E04FF47A724A4302F2E2
:103D0000E7324FF47A7392FBF3F070470148006892
:103D1000704700002800002010B50A480068401CC9
:103D200008490860FFF71EFF0446A06C401EA0640F
:103D3000A06C18B9606CA064FFF7A6FF00F004F84F
:103D400010BD00002800002070B5FFF7DFFF05461A
:103D5000FCF7F8F9064628E019480068A0F11404B9
:103D6000A06A281A6FF0004188421DD22046FDF754
:103D70005CFFD4E907108847FFF7C8FF0546607A63
:103D800000F0020058B1607A00F0010038B1607AAA
:103D900020F001006072204600F080F805E0607AB3
:103DA00020F00100607200E004E00548FFF773F8BE
:103DB0000028D1D000BF3046FCF7C8F970BD000024
:103DC000B0000020034649B1012904D0022908D0DF
:103DD000032910D10AE0586A10600CE0106858629C
:103DE00009E0587A20F00200587204E0587A40F056
:103DF0000200587200BF00BF002070472DE9F84351
:103E000004460E4617469846DDF8209021460920C4
:103E1000FFF75DFA054615B90020BDE8F883434673
:103E20003A4631462846CDF80090FDF7DDFE28469B
:103E3000F3E770B50446FCF785F905462046FDF723
:103E4000F4FE2846FCF782F92046FFF77CFA0020B2
:103E500070BD2DE9F84307460C4615461E46DDE9C0
:103E60000889224609213846FFF790FA4346324630
:103E700029463846CDF80090FDF7B6FEBDE8F88338
:103E800070B504462046FFF706F810B14FF0FF303A
:103E900070BD2068A0F11405A86AF9E72DE9F84380
:103EA0000546FCF74FF980462846FDF7BEFE687AC6
:103EB00020F0010068724046FCF748F9FFF726FF42
:103EC000696A0844A862FCF73DF98046687A00F008
:103ED000040008B1384E00E0384E009600242AE075
:103EE00019E05DF824201168142202EBC402881A3C
:103EF000826AAB6AD21A00D108E0826AAB6AD21A2F
:103F00006FF000439A4200D20CE000BF5DF824003D
:103F100000684DF824005DF8240006EBC4014968F0
:103F20008842DED100BF2CB15DF824000830611C4E
:103F30004DF82100641C002CD2D021480068401CA0
:103F40001F4908600846076805F114010098FEF74C
:103F50008CFF022412E007F0030060B9C4F10103F2
:103F600005F1140202EBC301C4F101025DF8220065
:103F7000FEF77BFF00E003E0BF08641C012CEAD9D8
:103F800000BF687A40F0010068724046FCF7DEF836
:103F9000687A00F0040058B10A4890F8340000F044
:103FA0000F00012804D00748FFF7BEFDFFF716FAFF
:103FB0000020BDE8F8830000B8000020B000002019
:103FC000C0000020B816002070B50446607A00F0EA
:103FD000010010B94FF0FF3070BDFCF7B3F8054693
:103FE0002046FDF722FE2846FCF7B0F8607A20F064
:103FF000010060720020EFE72DE9FF4F89B0804695
:1040000044460A984044461E464504D24FF0FF36C7
:10401000A6EB08000A906FE10B980078252806D0DF
:10402000B44202D80B9800782070641C61E100252E
:1040300026E00B98401C0B900B9800782D2802D19D
:1040400045F010051CE00B9800782B2802D145F0B4
:10405000040515E00B980078202802D145F00805EA
:104060000EE00B980078232802D145F0200507E0E8
:104070000B980078302802D145F0010500E000E0FF
:10408000D7E700BF4FF0FF370B98007830380A2889
:1040900004D20BA800F0F2F907460EE00B98007866
:1040A0002A280AD10B98401C0B900C9880C80C90C1
:1040B000002F02DA7F4245F010054FF0FF390B98D0
:1040C00000782E281CD10B98401C0B900B98007880
:1040D00030380A2804D20BA800F0D0F981460AE053
:1040E0000B9800782A2806D10B98401C0B900C984E
:1040F00050F8049B0C90B9F1000F01DA4FF0000961
:10410000002004900B980078682803D00B98007862
:104110006C2805D10B98007804900B98401C0B90EC
:104120000A2005900B9800786F2875D00CDC632866
:1041300013D004DC252870D058286FD18DE0642876
:104140006DD06928F9D18FE070286AD0732825D006
:10415000752878D07828F0D182E005F0100040B9B9
:1041600004E0B44201D820202070641C781E071E91
:10417000F7DC0C9810F8041B0C90C8B20790B442FE
:1041800001D807982070641C04E0B44201D82020B4
:104190002070641C781E071EF7DCAAE00C980068EB
:1041A00006900C98001D0C90069808B95AA006902D
:1041B0000698FFF7C3FA8346B9F1000F02DDCB453D
:1041C00000DDCB4605F0100048B904E0B44201D848
:1041D00020202070641C38467F1E5845F6DC0020E5
:1041E00008900BE0B44202D8069800782070641C56
:1041F0000698401C06900898401C0890089858455E
:10420000F0DB04E0B44201D820202070641C384662
:104210007F1E5845F6DC6CE01CE015E028E022E04B
:10422000FFE7781C10B9082745F00105CDE90079B2
:1042300002950C9804C8102331460C902046FEF7D6
:1042400003FA044655E012E0B44201D8252020705C
:10425000641C4EE0082005901DE045F0400500BFBD
:104260001020059017E000BF45F0020500BF12E0E6
:10427000B44201D825202070641C0B98007830B11E
:10428000B44202D80B9800782070641C02E00B98AE
:10429000401E0B902DE000BF04986C2807D10C98AD
:1042A00050F804AB0C9005F00200B8B116E0049889
:1042B00068280BD10C9830F8041B1FFA81FA0C9077
:1042C00005F0020050B10FFA8AFA07E00C9850F896
:1042D00004AB0C9005F0020000B100BFCDE90079FD
:1042E0000295524631462046059BFEF7ADF904463D
:1042F00000BF0B98401C0B900B98007800287FF4AF
:104300008BAEB44201D8207001E000203070A4EBE5
:1043100008000DB0BDE8F08F284E554C4C29000028
:104320000020704700207047002070470020704731
:1043300010B5FBF707FFFEF747FBFFF769F9FFF73B
:10434000DBFAFFF79BFAFEF767FAFFF7E3FAFFF7EE
:10435000A9FBFFF7B9FA002010BD00002DE9F843D2
:104360000646884617460025102F04D110204249E2
:104370000870042503E00C203F4908700825B8F1B7
:10438000000F03D0B8F1010F72D125E0002420E026
:10439000082090FBF5F0604300F0FF09C4EBC40077
:1043A00006EB400249460020FCF7AEFD082090FBDA
:1043B000F5F0604300F0FF09C4EBC40006EB4000D9
:1043C00000978289062349464020FCF75BFD601C6C
:1043D000C4B2AC42DCDB4CE0002445E0082090FB9A
:1043E000F5F0604300F0FF096000C0EBC00006EB91
:1043F000400249460020FCF787FD082090FBF5F0BD
:10440000604300F0FF096000C0EBC00006EB400015
:1044100000978289042349462020FCF733FD0820B9
:1044200090FBF5F0604300F0FF096000401CC0EB1A
:10443000C00006EB400249464020FCF765FD08201D
:1044400090FBF5F0604300F0FF096000401CC0EBFA
:10445000C00006EB40000097828904234946602093
:10446000FCF710FD601CC4B2AC42B7DB01E0FFE713
:1044700000BF00BFBDE8F883A10200200146002074
:1044800009E00B685A1C0A601A7800EB800302EB03
:104490004302A2F130000A681278303A0A2AF0D3B7
:1044A0007047000070B504460D4604EB8400524985
:1044B00001EB800000EB450040780A287DD2DFE860
:1044C00000F005063913462C6F53545581E004EB78
:1044D0008400494A02EB800000EB450041784748E0
:1044E0000068FEF74CFE74E004EB8400424A02EBE5
:1044F000800000EB4500417840480068FEF73FFE31
:1045000004EB84003C4A02EB800000EB450041785C
:104510003B480068FEF733FE5BE004EB8400364A5C
:1045200002EB800000EB4500417834480068FEF75C
:1045300026FE4EE004EB84002F4A02EB800000EBE5
:10454000450041782D480068FEF719FE41E004EB74
:104550008400294A02EB800000EB4500417827489F
:104560000068FEF70CFE34E000BF00BF04EB8400DF
:10457000214A02EB800000EB4500417820480068AA
:10458000FEF7FDFD04EB84001B4A02EB800000EB0C
:104590004500417819480068FEF7F1FD19E00CE08C
:1045A00004EB8400144A02EB800000EB45004178E4
:1045B00012480068FEF7E3FD0BE004EB84000E4AAE
:1045C00002EB800000EB450041780EA0FEF71EFCD8
:1045D00000BF00BF002011490860FEF74FF904EB4F
:1045E0008400054901EB800010F815000C490870A3
:1045F000FEF754F970BD0000D0120020000000202A
:1046000020000020D7B4CCACD7AAD2C6B4EDCEF3EC
:104610002C616374696F6E3A25640A00D40000202F
:104620001800002001202A49887001212848C17003
:10463000022027490871032125484171032024499C
:10464000887105212248C17100202149087200218A
:104650001F484172012181750021C1750121017638
:1046600000214176012181760021C1760177022166
:10467000417780F82A10072180F82B10022180F85A
:104680002C10082180F82D10022180F82E1009210D
:1046900080F82F10002180F83010042180F83110AC
:1046A000032180F83E10002180F83F10032180F89C
:1046B0004010002180F84110032180F842100021B1
:1046C00080F8431080F84410062180F845107047A8
:1046D000D012002008B51D48FDF7FAFAFCF76AFA77
:1046E000012000231AA219460090184800F05AF938
:1046F0000120002318A201460090144800F052F94E
:104700000120002315A202210090104800F04AF970
:104710000120022313A2032100900C4800F042F96B
:104720000120032310A204210090084800F03AF968
:10473000012004230DA205210090044800F032F965
:104740000C2201210148FFF709FE08BD5025002079
:104750007461736B000000006F6E65006B65795FBC
:104760006E000000733200007333000073340000E9
:1047700008B5002406E021A0FEF748FB4FF4FA70CC
:10478000FFF7C8F9FBF7DCFD0028F4D120A0FEF705
:104790003DFB31E04FF0FF32694622480068FEF7EA
:1047A00074FC04462CBB20A0FEF730FB00980328C5
:1047B00006D007280AD008280ED0092818D111E001
:1047C0000020FBF7F9FD2049087011E01E48007831
:1047D000401C1D4908700BE01B480078401E1A4918
:1047E000087005E0184801780020FBF77BFE00BF49
:1047F00002E016A0FEF70AFBCCE700004154323479
:10480000433032BCECB2E2B2BBD5FDB3A3210A0007
:1048100041543234433032BCECB2E2D5FDB3A32173
:104820000A000000200000207461736B72656164EF
:10483000415432345F746872656164A3BACAD5B5F5
:10484000BDD3CACFE40A0000240000207461736B5A
:1048500072656164415432345F746872656164A347
:10486000BAD3CACFE4BDD3CAD5CAA7B0DCA3A10AC4
:10487000000000000FB408B54FF4A060FCF790F9F9
:10488000BDF81000C0B28DF800009DF81C048DF832
:1048900001009DF81D048DF8020001208DF8030031
:1048A0006846FCF745F901B05DF814FB00B5ADF2C0
:1048B0000C4D3648364908603648C86000150882F5
:1048C00034484861401508830420C86100034860EB
:1048D000252008814FF4E13008622C48001D8862D1
:1048E0002D484862012081F8140481F815042B48F2
:1048F0002B4908602748C86008200882254848617D
:1049000004200883C861C0034860262008814FF452
:10491000E13008622148001D88621F481430486257
:10492000012081F81404002081F815044FF48162FD
:10493000174910316846FBF791FC15480FC8FDF781
:10494000EFFD4FF48162164910316846FBF786FC93
:1049500013480FC8FDF7E4FD4FF481620C49103194
:104960006846FBF77BFC0A480FC8FDF76BFD4FF468
:1049700081620B4910316846FBF770FC08480FC88C
:10498000FDF760FD0DF20C4D00BD00000038014048
:10499000201D002000080140580002400044004053
:1049A000382100202DE9F04104460D4616461F46E9
:1049B000DDF81880B8F1000F06D0C5EBC50104EB97
:1049C00041003146FBF76EFCC5EBC50004EB40002F
:1049D00087810120BDE8F081000001000200010094
:1049E00003000100020001000400010002000100B8
:1049F00003000100020001000500010002000100A7
:104A00000300010002000100040001000200010097
:104A10000300010002000100060001000200010085
:104A20000300010002000100040001000200010077
:104A30000300010002000100050001000200010066
:104A40000300010002000100040001000200010057
:104A50000300010002000100070001000200010044
:104A60000300010002000100040001000200010037
:104A70000300010002000100050001000200010026
:104A80000300010002000100040001000200010017
:104A90000300010002000100060001000200010005
:104AA00003000100020001000400010002000100F7
:104AB00003000100020001000500010002000100E6
:104AC00003000100020001000400010002000100D7
:104AD0000300010002000100303132333435363733
:104AE000383961626364656600303132333435369B
:104AF0003738394142434445460000000000000079
:104B00000000002F000000000700070000147F14C1
:104B10007F1400242A7F2A120062640813230036BF
:104B20004955225000000503000000001C224100EE
:104B3000000041221C000014083E08140008083E32
:104B40000808000000A0600000080808080800002D
:104B500060600000002010080402003E5149453EFC
:104B60000000427F4000004261514946002141451A
:104B70004B31001814127F10002745454539003C81
:104B80004A4949300001710905030036494949364F
:104B900000064949291E000036360000000056363E
:104BA0000000000814224100001414141414000022
:104BB0004122140800020151090600324959513EB0
:104BC000007C1211127C007F49494936003E414168
:104BD0004122007F4141221C007F49494941007F19
:104BE00009090901003E4149497A007F0808087F08
:104BF0000000417F4100002040413F01007F081438
:104C00002241007F40404040007F020C027F007F35
:104C10000408107F003E4141413E007F090909061A
:104C2000003E4151215E007F09192946004649494D
:104C300049310001017F0101003F4040403F001F1A
:104C40002040201F003F4038403F00631408146399
:104C500000070870080700615149454300007F4183
:104C6000410000552A552A55000041417F000004AB
:104C700002010204004040404040000001020400E4
:104C8000002054545478007F484444380038444449
:104C9000442000384444487F0038545454180008D5
:104CA0007E0901020018A4A4A47C007F08040478F3
:104CB0000000447D4000004080847D00007F10287B
:104CC00044000000417F4000007C04180478007C10
:104CD0000804047800384444443800FC2424241890
:104CE0000018242418FC007C0804040800485454CC
:104CF000542000043F444020003C4040207C001CE5
:104D00002040201C003C4030403C004428102844F7
:104D1000001CA0A0A07C004464544C44141414143F
:104D2000141400000000000000000000000000005B
:104D30000000000000F80000000000000033300018
:104D4000000000100C06100C06000000000000001F
:104D5000000040C07840C0784000043F04043F0495
:104D60000400007088FC08300000001820FF211E9D
:104D70000000F008F000E018000000211C031E21D4
:104D80001E0000F00888700000001E21232419274F
:104D9000211010160E0000000000000000000000AE
:104DA0000000000000E018040200000000071820C6
:104DB000400000020418E000000000402018070036
:104DC0000000404080F0804040000202010F0102DC
:104DD0000200000000F0000000000101011F0101BD
:104DE0000100000000000000000080B07000000022
:104DF00000000000000000000000000101010101AE
:104E00000101000000000000000000303000000040
:104E10000000000000008060180400601806010017
:104E2000000000E010080810E000000F1020201023
:104E30000F00001010F8000000000020203F20208C
:104E40000000007008080888700000302824222123
:104E500030000030088888483000001820202011D9
:104E60000E000000C02010F8000000070424243FBA
:104E7000240000F808888808080000192120201163
:104E80000E0000E0108888180000000F112020118B
:104E90000E0000380808C83808000000003F000075
:104EA00000000070880808887000001C2221212260
:104EB0001C0000E010080810E00000003122221160
:104EC0000F00000000C0C0000000000000303000F3
:104ED0000000000000800000000000008060000072
:104EE00000000000804020100800000102040810AB
:104EF00020004040404040404000040404040404BA
:104F00000400000810204080000000201008040267
:104F10000100007048080808F00000000030360169
:104F20000000C030C828E810E00007182724231428
:104F30000B000000C038E0000000203C23020227E4
:104F4000382008F8888888700000203F2020201131
:104F50000E00C0300808080838000718202020106C
:104F6000080008F808080810E000203F2020201062
:104F70000F0008F88888E8081000203F2020232030
:104F8000180008F88888E8081000203F2000030077
:104F90000000C03008080838000007182020221E32
:104FA000020008F808000008F808203F210101214C
:104FB0003F20000808F8080800000020203F2020BB
:104FC000000000000808F8080800C08080807F000A
:104FD000000008F888C028180800203F2001263863
:104FE000200008F8080000000000203F20202020BA
:104FF000300008F8F800F8F80800203F003F003FB4
:10500000200008F830C00008F808203F20000718EA
:105010003F00E01008080810E0000F1020202010CA
:105020000F0008F808080808F000203F21010101DE
:105030000000E01008080810E0000F182424385081
:105040004F0008F8888888887000203F2000030CF3
:1050500030200070880808083800003820212122FC
:105060001C00180808F8080818000000203F20005D
:10507000000008F808000008F808001F2020202081
:105080001F000878880000C83808000007380E01A3
:105090000000F80800F80008F800033C0700073C8F
:1050A0000300081868808068180820302C03032C3F
:1050B00030200838C800C83808000000203F200011
:1050C000000010080808C8380800203826212020D1
:1050D0001800000000FE020202000000007F4040B5
:1050E0004000000C30C00000000000000001063845
:1050F000C00000020202FE000000004040407F00AD
:105100000000000004020202040000000000000091
:10511000000000000000000000008080808080808F
:105120008080000202040000000000000000000077
:1051300000000000808080800000001924222222CC
:105140003F2008F8008080000000003F112020115F
:105150000E000000008080800000000E1120202042
:105160001100000000808088F800000E112020103F
:105170003F200000808080800000001F2222222229
:105180001300008080F0888888180020203F2020AD
:1051900000000000808080808000006B94949493D5
:1051A000600008F8008080800000203F210000207F
:1051B0003F2000809898000000000020203F202021
:1051C0000000000000809898000000C08080807F70
:1051D000000008F8000080808000203F24022D306D
:1051E0002000000808F8000000000020203F2020D8
:1051F00000008080808080808000203F20003F2051
:10520000003F8080008080800000203F210000203F
:105210003F200000808080800000001F2020202090
:105220001F00808000808000000080FFA1202011EE
:105230000E000000008080808000000E112020A061
:10524000FF80808080008080800020203F2120001F
:10525000010000008080808080000033242424240A
:105260001900008080E0808000000000001F2020E6
:1052700000008080000000808000001F202020109F
:105280003F20808080000080808000010E30080672
:10529000010080800080008080800F300C030C3083
:1052A0000F0000808000808080000020312E0E31B1
:1052B0002000808080000080808080818E701806B1
:1052C000010000808080808080000021302C22211D
:1052D000300000000000807C020200000000003F5F
:1052E000404000000000FF00000000000000FF0040
:1052F00000000002027C800000000040403F0000EF
:105300000000000601010202040400000000000089
:10531000000000002D430008254300082143000839
:10532000294300084453000800000020D002000078
:10533000DC02000844540008D0020020B827000016
:10534000401B0008014C224C2A2004328032011AF2
:105350005C0C2904322032031A6C0C290429103207
:10536000041A7C0C2904323032091A8C0C290402EC
:105370004B2C19881BF010012AFF050215F01B0F9A
:1053800004012AFF0502130F18094040405F5555DC
:105390005575041A5F0C091121080C11200F0949D9
:1053A00089790909090F201F112FFE02424ACA4AB2
:1053B0000304134202FE000E14FF40504C434040D1
:1053C0004F50505C40FF1BF888012AFF050215F87A
:1053D0001B1F08012A7F200B109F80E23B80820167
:1053E000000916E2A2928A86828080041840807F9B
:1053F000172424A4FEA3221B22CCAA0114150806FC
:1054000001FF2B0104010511FF02020258081010D0
:1054100010FF109008C3021108080F100444827F87
:1054200001808040432C10284681A0A2102D01024B
:1054300003040410090607080902040608ACA24A7E
:04544000041C291807
:0400000508000131BD
:00000001FF
