:020000040800F2
:10000000102100203902000851050008EB0100080A
:100010004D05000809030008E50D00080000000078
:10002000000000000000000000000000650900085A
:100030008F0300080000000073010008510A000847
:10004000530200085302000853020008530200083C
:10005000530200085302000853020008530200082C
:10006000530200085302000853020008530200081C
:10007000530200085302000853020008530200080C
:1000800053020008530200085302000853020008FC
:1000900053020008530200085302000853020008EC
:1000A00053020008530200085302000853020008DC
:1000B000C10A000853020008530200085302000856
:1000C00053020008530200085302000853020008BC
:1000D00053020008530200085302000853020008AC
:1000E000530200085302000853020008530200089C
:1000F000530200085302000853020008530200088C
:10010000530200085302000853020008530200087B
:10011000530200085302000853020008530200086B
:10012000530200085302000853020008530200085B
:10013000DFF80CD000F0A4F800480047FB020008EC
:1001400010210020EFF3108072B6704780F3108802
:100150007047334A1368012B04D04FF0010313603A
:10016000304A1060304A116030484FF080510160D1
:100170007047EFF3108272B62948016891B14FF0D1
:10018000000101602748016829B1EFF3098121E9E5
:10019000F00F00680160244909680968B1E8F00FB0
:1001A00081F3098882F310884EF0040E70471E49CF
:1001B00008601C494FF00000086019494FF0010029
:1001C00008601B484FF47F01D0F8002041EA02018B
:1001D000016016484FF080510160164800680068C1
:1001E00080F3088861B662B670471EF0040F0CBF3A
:1001F000EFF30880EFF3098020E9F00F40F804EDF9
:100200001EF0040F0CBF80F3088880F3098800B546
:1002100001F0AEF95DF804EB4EF0040E70470000FB
:10022000AC000020A4000020A800002004ED00E0A5
:1002300020ED00E008ED00E0064880470648004752
:10024000FEE7FEE7FEE7FEE7FEE7FEE7FEE7FEE786
:10025000FEE7FEE7610A000831010008D2B201E0C2
:1002600000F8012B491EFBD270470022F6E710B5BB
:1002700013460A4604461946FFF7F0FF204610BD14
:10028000064C074D06E0E06840F0010394E80700E3
:1002900098471034AC42F6D3FFF74EFFFC35000808
:1002A0001C36000870B58C1810F8015B15F00703B8
:1002B00001D110F8013B2A1106D110F8012B03E0FF
:1002C00010F8016B01F8016B5B1EF9D12B0705D407
:1002D0000023521E0DD401F8013BFAE710F8013B50
:1002E000CB1A921C03E013F8015B01F8015B521E6C
:1002F000F9D5A142D8D3002070BD10B5FFF722FF79
:1003000002F0FCFB002010BD00BFFEE700F08051B2
:1003100011B10349086001E00249486070470000DC
:10032000040402400000024021B1026842F00102D0
:10033000026004E002684FF6FE731A4002607047E4
:100340001AB103680B43036002E003688B43036048
:10035000704710B50022026847F6F0739A430C6AA2
:100360008B6823430C6923434C6923438C692343E3
:10037000CC6923434C6A23438C6A23431A430260AB
:10038000CB6843600B6883604B68C36010BD7047E7
:100390002DE9F0410246002500260020002300241C
:1003A000002791F803C00CF00F0591F803C00CF082
:1003B000100CBCF1000F03D091F802C04CEA050507
:1003C00091F800C0BCF1000F31D0146800202BE080
:1003D0004FF0010C0CFA00F3B1F800C00CEA030670
:1003E0009E4220D183004FF00F0C0CFA03F7BC4360
:1003F00005FA03FC4CEA040491F803C0BCF1280F91
:1004000006D14FF0010C0CFA00FCC2F814C00AE04F
:1004100091F803C0BCF1480F05D14FF0010C0CFA64
:1004200000FCC2F810C0401C0828D1D31460B1F8F9
:1004300000C0BCF1FF0F34DD546800202EE000F155
:10044000080C4FF0010808FA0CF3B1F800C00CEAF0
:1004500003069E4221D183004FF00F0C0CFA03F7E4
:10046000BC4305FA03FC4CEA040491F803C0BCF158
:10047000280F05D100F1080C08FA0CF8C2F8148016
:1004800091F803C0BCF1480F07D100F1080C4FF000
:10049000010808FA0CF8C2F81080401C0828CED3D6
:1004A0005460BDE8F0814161704701617047000010
:1004B00010B5044623480078012827D12248006857
:1004C00058B12148001D006838B11F480830006845
:1004D00018B11D480C300068C0B9142000F03EFD72
:1004E0000020184908701848006808B9012010BD9C
:1004F0001548001D006808B90220F8E712480830C6
:10050000006808B90320F2E70420F0E70E4800680D
:10051000012810D10C48001D006801280BD10A48A1
:1005200008300068012806D107480C30006801280F
:1005300001D104490870012C02D101200149087041
:100540000020D4E7780200200001214200BFFEE72E
:10055000704708B54FF4A06000F046F825208DF8EC
:10056000000001208DF801008DF802008DF80300D5
:10057000684600F001F808BD70B5002100230F2285
:10058000C47804B3154C246804F4E064C4F5E06452
:10059000210AC1F10403CA40447804FA03F18478C3
:1005A0001440214309010E4C0678A155047804F04B
:1005B0001F050124AC4005786D11AD0005F1E02563
:1005C000C5F8004109E0047804F01F050124AC409F
:1005D000044D0678761145F8264070BD0CED00E01C
:1005E00000E400E080E100E002490143024A1160BA
:1005F000704700000000FA050CED00E070B5002423
:1006000019E004F1B001C8B2002100F0E9F80021BE
:10061000022000F0E5F80021102000F0E1F80025AC
:1006200005E00121002000F0DBF8681CC5B2802D38
:10063000F7DB601CC4B2082CE3DB70BD70B5044668
:100640000D4605F1B001C8B2002100F0C9F8102133
:1006500041EA1410002100F0C3F804F00F0141F04A
:100660000100002100F0BCF870BD00002DE9F04150
:1006700007460E46904600250024A8F12000C5B28A
:100680007F2F02DD0027B01CC6B21F48007810285B
:1006900024D131463846FFF7D1FF002408E004EBAF
:1006A00005111A4A505C012100F09AF8601CC4B28E
:1006B000082CF4DB701CC1B23846FFF7BFFF0024E2
:1006C00009E004EB05110831104A505C012100F0EB
:1006D00087F8601CC4B2082CF3DB12E031463846C0
:1006E000FFF7ACFF00240AE005EB4501084A02EBE6
:1006F0004101085D012100F073F8601CC4B2062CB2
:10070000F2DBBDE8F081000074020020FA2F00083F
:10071000D22D00082DE9FF5F074691461D460E9E2B
:100720004FF0000A002433E0281B401EC1B20A200B
:1007300000F0C8FCB9FBF0F00A21B0FBF1F201FBBC
:100740001208BAF1000F13D1681EA04210DDB8F1F3
:10075000000F0BD1B34606EBDB71491001FB0471AE
:10076000C8B220220199FFF781FF0FE04FF0010A84
:10077000B34606EBDB71491001FB0471C8B208F106
:100780003001CAB20199FFF771FF00BF601CC4B20B
:10079000AC42C9DBBDE8FF9F2DE9F04104460F469E
:1007A0001546002615E0AA5D39462046FFF75EFF94
:1007B0000A480078102803D104F10800C4B201E00F
:1007C000A01DC4B2782C02DD0024B81CC7B2701C76
:1007D000C6B2A85D0028E6D1BDE8F0817402002011
:1007E00070B504460E4626B120211848FFF75DFE7D
:1007F00003E020211548FFF756FE08211348FFF7B4
:1008000052FE002517E040211048FFF74CFE04F08F
:10081000800020B180210D48FFF747FE03E08021D2
:100820000A48FFF740FE40210848FFF73EFE6006F9
:10083000040E681CC5B2082DE5DB08210348FFF74C
:1008400034FE20210148FFF730FE70BD0014014046
:1008500029B1064A52690243044B5A6104E0034A33
:1008600052698243014B5A617047000000100240F8
:1008700029B1064A92690243044B9A6104E0034A93
:1008800092698243014B9A61704700000010024058
:1008900030B500210022002400232D4D6D6805F0A5
:1008A0000C0121B1042905D0082923D105E0294DE7
:1008B000056022E0274D05601FE0254D6D6805F4B9
:1008C0007012234D6D6805F48034022505EB9242C9
:1008D0001CB9214D554305600BE01D4D6D6805F4B5
:1008E00000351DB11C4D5543056002E0194D5543BF
:1008F000056002E0174D056000BF00BF144D6D6834
:1009000005F0F0010909154D6B5C0568DD40456097
:100910000F4D6D6805F4E061090A104D6B5C456888
:10092000DD4085600A4D6D6805F46051C90A0B4DC4
:100930006B5C4568DD40C560054D6D6805F4404160
:10094000890B074D6B5CC568B5FBF3F5056130BDE0
:100950000010024000127A0000093D007E020020D3
:100960008E020020704710B500F002F810BD0000A4
:100970000CB50020019000903348006840F48030AE
:100980003149086000BF3048006800F40030009032
:100990000198401C0190009818B90198B0F5A06F1B
:1009A000F1D12948006800F4003010B10120009016
:1009B00001E0002000900098012843D123480068FE
:1009C00040F01000214908600846006820F003004C
:1009D00008600846006840F0020008601A48406855
:1009E000194948600846406848600846406840F435
:1009F000806048600846406820F47C1048600846E3
:100A0000406840F4E81048600846006840F0807094
:100A1000086000BF0C48006800F000700028F9D0A2
:100A20000948406820F003000749486008464068CC
:100A300040F00200486000BF0348406800F00C002E
:100A40000828F9D10CBD000000100240002002402F
:100A500010B500F0B3FE01F05FFD00F0BFFE10BD69
:100A600010B51348006840F00100114908600846BD
:100A70004068104908400E494860084600680E4921
:100A800008400B4908600846006820F48020086090
:100A90000846406820F4FE0048604FF41F0088605C
:100AA000FFF761FF4FF000600449086010BD0000CF
:100AB000001002400000FFF8FFFFF6FE08ED00E026
:100AC00010B50121880700F040F870B3194800788C
:100AD000401C1849087008460078642801DD002091
:100AE000087014480078282190FBF1F201FB1200F5
:100AF000012809D11048007830B1FFF77FFD0C22A2
:100B000001210E4802F010F80A480078142190FBE9
:100B1000F1F201FB1200022807D10948007820B940
:100B20000020FFF7C5FC064908700121880700F086
:100B300009F810BD76020020750200204818002038
:100B400077020020CA430282704730B50246002077
:100B500000230024158A05EA0103958905EA0104AA
:100B600013B10CB1012000E0002030BD21B1828919
:100B700042F40052828104E082894DF6FF731A40EC
:100B80008281704700B585B001210420FFF770FE17
:100B900001218803FFF76CFE4FF40070ADF81000E0
:100BA00018208DF8130003208DF8120004A91A48AC
:100BB000FFF7EEFB4FF48060ADF8100004208DF8D5
:100BC000130004A91448FFF7E3FB4FF4E130009051
:100BD0000020ADF80400ADF80600ADF80800ADF84F
:100BE0000C000C20ADF80A0069460C4800F054F8DF
:100BF000FFF7AFFC012240F22441084800F026F83C
:100C000001224021054800F00BF801210348FFF7BD
:100C1000ADFF05B000BD00000008014000380140F4
:100C20001AB1838A0B43838202E0838A8B438382D7
:100C3000704702460020B1F5007F00D100BF138845
:100C40000B400BB1012000E000207047F0B50346D7
:100C5000002400260025002040F66A17B94200D182
:100C600000BF1846C1F3421401F01F06012707FA1E
:100C700006F5012C01D10C3004E0022C01D110301A
:100C800000E014301AB107682F43076002E00768DC
:100C9000AF430760F0BD00002DE9F04786B0054680
:100CA0000E460024A24600BFA1460027B08900B12D
:100CB00000BF2F462C8A4CF6FF700440F088044396
:100CC0002C82AC894EF6F3100440B0883189084379
:100CD000718908430443AC81AC8A4FF6FF4004405D
:100CE000B0890443AC8201A8FFF7D2FD1F488742B8
:100CF00002D1DDF810A001E0DDF80CA0A88900F415
:100D0000004040B10AEBCA0000EB0A10316849000C
:100D1000B0FBF1F807E00AEBCA0000EB0A103168FB
:100D20008900B0FBF1F86420B8FBF0F00401200961
:100D3000642101FB1089A88900F4004040B13220F1
:100D400000EBC900B0FBF1F000F00700044308E03D
:100D5000322000EB09106421B0FBF1F000F00F002D
:100D600004432C8106B0BDE8F08700000038014044
:100D7000C1F308028280704700B58BB0012108469C
:100D8000FFF766FD1448009014480190002002907F
:100D90004FF47A700390002004908020059000208A
:100DA00006900790202008904FF4405009900020B2
:100DB0000A9069460A48FFF7CCFA4FF48030FFF7F3
:100DC000A5FA012208210648FFF7BAFA01210448D2
:100DD000FFF7AAFA0BB000BD043801402819002023
:100DE0005800024000BFFEE7014609B900207047E5
:100DF000C8B220B1C8B20E4A105C401CF7E701F43B
:100E00007F4028B10A48C1F30722805C0930EEE731
:100E100001F47F0028B10648C1F30742805C11301D
:100E2000E5E7034800EB116000781930DFE70000C8
:100E3000B02C000802E008C8121F08C1002AFAD12D
:100E400070477047002001E001C1121F002AFBD14A
:100E50007047000003490868884201D001207047AC
:100E60000020FCE7880000202DE9FC5F04468B464B
:100E700015461E46DDE90C9ADDE90E7804F11400F2
:100E80004060006000BF1C346560A660C4F80C9030
:100E9000C4F810A02321D4E9030200F00DFED4E928
:100EA000033C63441A1F0F4BD4E9010100F060FCBE
:100EB0002060A77667760020E061C4F82880C4F837
:100EC0002C8060612076E06520661C3C0090234603
:100ED000054A2146019004F14C0001F09FFB0020DF
:100EE000BDE8FC9FF9210008452400082DE9F047E2
:100EF00004460E4617469846DDF8209084F809907F
:100F0000607A20F001006072E66127620020A06232
:100F1000C4F82480002506E004F1140101EBC500AB
:100F200000F0D2FC6D1C012DF6DBBDE8F08710B59A
:100F30000246002001460EE002F1140303EBC1005B
:100F4000D0E900436360D0E9003423604060006072
:100F500000BF481C01460129EEDB10BD0146114AC5
:100F600012884A434FF0E0235A6100229A611A46E0
:100F7000126942F001021A6100BF4FF0E0221069CD
:100F800000F001021AB100F48032002AF5D04FF0CF
:100F9000E022126922F001024FF0E0231A610022E0
:100FA0009A6170477C02002010B507A000F06EFC2B
:100FB00012A000F06BFC00F03BF800F05BF800F0D2
:100FC00071F8002010BD0000D5E2CAC7D2BBB8F648
:100FD0005BD2B0BBF05D2D53544D333246313033CC
:100FE0002DD6B8C4CFD5DF2D525454D6D0B6CFB9F4
:100FF000DCC0EDCAB5D1E9A3A10A0000B4AEBFDAE6
:10100000B7A2CBCDCAFDBEDDB4A5B7A2D6D0B6CFB0
:101010002CC8CECEF1B4A6C0EDCAFDBEDD210A00BB
:1010200010B5044600F088F9FFF7BEFF10BD0000C0
:1010300010B50022114606A000F084FE07490860A2
:101040000846006810B106A000F020FC002010BD8A
:10105000756172745F73656D000000000000002010
:10106000D0C5BAC5C1BFB4B4BDA8B3C9B9A6A3A100
:101070000A0A00001CB5142002210B020022CDE94F
:101080000010044904A001F089F805490860002017
:101090001CBD0000712C00087573617274000000A3
:1010A0000400002010B50648006828B10448006814
:1010B00001F090F9002010BD4FF0FF30FBE7000079
:1010C0000400002010B50246012000E050430B1E32
:1010D000A1F10104E1B2F9D110BD000030B51A4C04
:1010E000436824681919884215D04B889BB9174B5F
:1010F0001B6899420FD0164B1B688B4201D1144BD1
:1011000018604B684360104B1B68C31A0E4D4C6847
:101110002D682C44A3600C4C836824681A19824201
:1011200011D053887BB90A4B1B68834201D1084B0D
:101130001A6043685360044B1B68D31A024D44681D
:101140002D682C44A36030BD100000201400002046
:10115000180000202DE9F04F86B00D469C46DDE9D1
:10116000106401960F9B04F04008B8F1000F02D004
:10117000DFF8708101E0DFF87081CDF8008004F0C5
:101180001008B8F1000F01D024F0010404F00108A8
:10119000B8F1000F02D04FF0300801E04FF0200806
:1011A000C246002704F00208B8F1000F11D0002A4F
:1011B00002DA2D2752420CE004F00408B8F1000FC7
:1011C00001D02B2705E004F00808B8F1000F00D08B
:1011D0002027002142B94FF0300B8846491C0DF101
:1011E000080909F808B01DE01AE0E146B9F10A0F54
:1011F00008D14FF00A0BB2FBFBFE0BFB1E28B2FB23
:10120000FBF202E002F00F08120900BFDDF80090C7
:1012100019F808B08846491C0DF1080909F808B00A
:10122000002AE2D1B14200DD0E469B1B04F01108FA
:10123000B8F1000F10D117B1002B00DD5B1E06E0E6
:10124000A84203D84FF0200880F80080401CB3F17A
:101250000008A3F10103F3DC27B1A84201D807700D
:101260005B1E401C04F01008B8F1000F0AD104E026
:10127000A84201D880F800A0401CB3F10008A3F1F7
:101280000103F5DC06E0A84203D84FF0300880F8EF
:101290000080401CB046761E8845F4DC08E0A84279
:1012A00005D80DF1080818F8018080F80080401C6E
:1012B000B1F10008A1F1010104DDDDF80480B8F10D
:1012C000000FECD106E0A84203D84FF0200880F8C8
:1012D0000080401CB3F10008A3F10103F3DC06B069
:1012E000BDE8F08FC12D0008B02D00081CB51420FA
:1012F0000A214FF400730022CDE90010044905A033
:1013000000F04CFF0446204601F064F81CBD0000CC
:10131000211000086D61696E0000000010B5044CDA
:1013200002E020688047241D02488442F9D310BDA2
:10133000F0350008F435000810B5044C02E02068D0
:101340008047241D02488442F9D310BDF4350008BB
:10135000F835000810B5FEF7F5FE0446044800888D
:10136000401C00B2024908802046FEF7EFFE10BD87
:101370007800002010B5FEF7E5FE04460B48008813
:10138000401E00B2094908800846B0F90000002854
:1013900007DC002008802046FEF7D8FE00F038FC6D
:1013A00002E02046FEF7D2FE10BD000078000020CB
:1013B00070B5054605B970BD1D480068854203D368
:1013C0001C480068854200D3F5E7A5F10C044FF0F6
:1013D000FF31194800F0FBFC608818B12088B0F597
:1013E000F55F08D015A000F051FA238862882146E5
:1013F00019A000F04BFA002060804FF4F5502080D7
:1014000021480068844201D21F480460084960688E
:101410000968611A401A1D490968081A1B490860C1
:101420002046FFF75BFE044800F0B4FC00BFC2E7B3
:101430001000002014000020A8140020746F206603
:10144000726565206120626164206461746120625C
:101450006C6F636B3A0A00006D656D3A2030782539
:101460003038782C207573656420666C61673A208B
:1014700025642C206D6167696320636F64653A2081
:101480003078253034780A00180000202000002031
:1014900000487047A802002000487047A8120020AA
:1014A00070B51C4800684FF47A72B0FBF2F1B1F1EC
:1014B000807F00D31DE021F07F40401E4FF0E022EE
:1014C000506150170F22002807DA13071D0E124B28
:1014D00000F00F04241F1D5503E013071C0E0F4BD3
:1014E0001C5400BF00204FF0E022906107201061E3
:1014F00000BFFFF741FCFFF745FBFFF70FFFFFF7CA
:10150000CBFF0446FFF7C4FF0546214600F054FD1B
:1015100070BD00009402002018ED00E000E400E03F
:1015200010B50446FFF716FF19E020780A280AD103
:101530000D210E48FFF71CFC00BF80210B48FFF770
:1015400078FB0028F9D014F8011B0848FFF710FCBD
:1015500000BF80210548FFF76CFB0028F9D02078F8
:101560000028E2D1FFF706FF10BD0000003801405F
:1015700070B505462C1D2E48006838B128462C4908
:1015800009688847064606B970BD00BF29A0E16B0F
:1015900000F07CF92BA0216A00F078F92DA0616A97
:1015A00000F074F92FA0A16A00F070F931A0E16A8F
:1015B00000F06CF933A0216800F068F935A061688B
:1015C00000F064F937A0A16800F060F939A0E16883
:1015D00000F05CF93BA0216900F058F93DA0616979
:1015E00000F054F93FA0A16900F050F941A0E16971
:1015F00000F04CF943A0216B00F048F945A0616B65
:1016000000F044F947A0A16B00F040F9287800F001
:10161000040038B100F0B6FE0646314645A000F0A1
:1016200035F902E04BA000F031F900BFFEE7000001
:10163000B00000207073723A203078253038780A74
:10164000000000007230303A203078253038780AB7
:10165000000000007230313A203078253038780AA6
:10166000000000007230323A203078253038780A95
:10167000000000007230333A203078253038780A84
:10168000000000007230343A203078253038780A73
:10169000000000007230353A203078253038780A62
:1016A000000000007230363A203078253038780A51
:1016B000000000007230373A203078253038780A40
:1016C000000000007230383A203078253038780A2F
:1016D000000000007230393A203078253038780A1E
:1016E000000000007231303A203078253038780A16
:1016F000000000007231313A203078253038780A05
:10170000000000007231323A203078253038780AF3
:1017100000000000206C723A203078253038780ABA
:10172000000000002070633A203078253038780AB5
:101730000000000068617264206661756C74206F3F
:101740006E207468726561643A2025730D0A0D0A73
:101750000000000068617264206661756C74206F1F
:101760006E2068616E646C65720D0A0D0A000000DF
:10177000F0B504460D461646301D20F007004038EF
:101780000146002203E00C4F41F82270521C102A3F
:10179000F9D30D624FF0000CC1F824C0C1F828C085
:1017A000C1F82CC0C1F830C04B638C634FF0807C13
:1017B000C1F83CC0F0BD0000EFBEADDE10B5FEF7D5
:1017C000C1FC044604480078401C034908702046C8
:1017D000FEF7BCFC10BD00000C00002010B5FEF7A9
:1017E000B1FC044604480078401E034908702046B6
:1017F000FEF7ACFC10BD00000C00002070B50446E4
:101800002068A0F11405284600F09EFD002070BD60
:101810002DE9F04105460C469046204600F0F0FDCB
:10182000B8F1000F03D0B8F1010F23D105E004F1A6
:101830001401284600F060F81CE02E680FE0A6F1C5
:10184000140794F8350097F83510884206DA04F149
:10185000140107F1140000F04FF802E03668AE42C0
:10186000EDD100BFAE4204D104F11401284600F0CE
:1018700043F800BF00BF0020BDE8F08110B504466A
:1018800004F1140000F01AF8002010BD0FB438B5B0
:1018900005A800907F210848009B049A00F092FF61
:1018A00004467F2C00D97F240348FFF739FE00202F
:1018B000009038BC5DF814FB2814002040600060E4
:1018C0007047406000607047406000607047026889
:1018D000516002680A6001604860704702685160A8
:1018E00002680A60016048607047026851600268DF
:1018F0000A600160486070474268116042684A604F
:1019000041600860704701460868884201D10120A3
:1019100070470020FCE701460868884201D1012099
:1019200070470020FCE7D0E900215160D0E90012A7
:101930001160406000607047D0E900215160D0E93B
:101940000012116040600060704700002DE9F04116
:10195000054615B90020BDE8F081E81C20F003051C
:101960004E480068854201D90020F4E70C2D00D2D2
:101970000C254FF0FF314A4800F029FA4948006829
:1019800049490968461A7EE047480068841960881A
:10199000002874D106F10C006168081AA8426ED3C1
:1019A00006F10C006168091A05F11800814230D374
:1019B00006F10C0000EB05083B48006800EB080747
:1019C0004FF4F55038800020788060687860BE6001
:1019D000C4F80480012060803048796800680C30C9
:1019E000814205D03049786809680844C0F8088009
:1019F0002E48016805F10C0008442C4908602C4869
:101A000000680968884219D2284800682849086097
:101A100014E001206080244960680968611A401A56
:101A2000224909680844214908602148006809687A
:101A3000884203D21D4800681D4908604FF4F550E4
:101A4000208018480068844212D107E015480068D9
:101A5000406815490968084412490860114800683F
:101A6000408828B10F480068124909688842EDD1C2
:101A70000B4800F08FF904F10C006CE7FFE70A480F
:101A800000683044466805480068401BB0423FF695
:101A90007BAF034800F07EF900205CE71C000020CB
:101AA000A8140020180000201000002020000020B2
:101AB0002400002014000020F0B50C460546E6B2D4
:101AC000042A15D300F0030797B9014646EA062316
:101AD00043EA034304E008C108C108C108C1103A41
:101AE000102AF8D201E008C1121F042AFBD20D46C9
:101AF00001E005F8016B171EA2F10102F9D1F0BD5A
:101B00002DE9F04106460F46304600F045F80546FF
:101B1000E868FFF71BFF044614B90020BDE8F08118
:101B200000212046EA68FFF7C7FF26720020607296
:101B300008223946204600F024FAFEF703FB8046CF
:101B400004F10C01281DFFF7C2FE4046FEF7FEFA25
:101B50002046E3E770B5044600202072FEF7F2FA53
:101B6000054604F10C00FFF7DEFE2846FEF7EEFA0C
:101B70002046FFF71DFC70BD70B5044600202072A2
:101B8000FEF7E0FA054604F10C00FFF7CCFE28460C
:101B9000FEF7DCFA70BD0000024600210AE00748AB
:101BA00000EB01100078904203D1044800EB0110D3
:101BB0007047491C0529F2DB0020F9E728000020C6
:101BC0002DE9F04104460D4616462846FFF7E4FF8E
:101BD000074645F08000207208223146204600F07A
:101BE000D0F9FEF7AFFA804604F10C01381DFFF77B
:101BF0006EFE4046FEF7AAFABDE8F0810146087A7B
:101C000000F0800008B1012070470020FCE70000D0
:101C10002DE9F041FEF796FA07461B48008868BB9D
:101C20001A480068FFF7E0F8461E194850F83600D9
:101C3000A0F114041748006884421BD016490E70A6
:101C40001448056804601548007848B904F11C017F
:101C500005F11C00FEF77DFA3846FEF777FA0CE036
:101C600004F11C0105F11C00FEF773FA3846FEF77B
:101C70006DFA02E03846FEF769FA02E03846FEF7F0
:101C800065FABDE8F08100007800002084000020A3
:101C9000C81400207C000020800000200C000020E0
:101CA00070B50446FEF74EFA054614F8340F20F0DE
:101CB0000F0040F0010020706278343C0A4B03EBC7
:101CC000C20004F114014268116042684A60416038
:101CD000086000BF0549A06B096808430349086014
:101CE0002846FEF733FA70BDC81400208400002097
:101CF00070B50446FEF726FA054604F11400D0E953
:101D000000215160D0E9001211604060006000BF06
:101D100094F83510094A02EBC1000168814201D1F3
:101D2000012100E0002129B10548A16B006888432A
:101D3000034908602846FEF709FA70BDC814002060
:101D4000840000202DE9F04105460E46174629463D
:101D50000120FFF7D5FE044614B92046BDE8F08106
:101D60002046FFF78BFDA68367722046F6E72DE934
:101D7000F04104460D4616461F462A4601212046DC
:101D8000FFF71EFF2046FFF779FDA683677200204C
:101D9000BDE8F08170B504460025FEF7D3F906468C
:101DA00004F11400FFF7AFFD28B904F11400FFF7A8
:101DB00025FD012502E0A08B401CA0833046FEF7E4
:101DC000C5F9012D01D1FFF723FF002070BD73B5C8
:101DD0000546FEF7B7F90646A88B002806DDA88B56
:101DE000401EA8833046FEF7B1F928E0019828B9D3
:101DF0003046FEF7ABF96FF001007CBD00F0C2FA8F
:101E00000446002020636A7A214605F11400FFF79A
:101E1000FFFC0198002809DD01AA002104F14C0013
:101E200000F0D0FB04F14C0000F01EFC3046FEF741
:101E30008DF9FFF7EDFE206B08B1206BDDE7002088
:101E4000DBE7000008B509A0FFF720FD0AA0FFF7B7
:101E50001DFD12A0022301220321009012A0FFF712
:101E600015FD19A0FFF712FD08BD00000A205C2037
:101E70007C202F0A000000002D205254202D20200D
:101E8000202020546872656164204F70657261740F
:101E9000696E672053797374656D0A004A756C200A
:101EA0003235203230313900202F207C205C202038
:101EB00020202025642E25642E2564206275696CFF
:101EC000642025730A0000002032303036202D2097
:101ED0003230313920436F707972696768742062DB
:101EE000792072742D746872656164207465616D07
:101EF0000A00000070B500F009FB0646FFF72AFA59
:101F00001A4805682BE0A5F11404A06A301A6FF096
:101F10000041884222D22D682046FFF708F8FFF7DB
:101F200029FAD4E90710884700F0F0FA0646FFF7CF
:101F300011FA607A00F0020058B1607A00F00100F6
:101F400038B1607A20F001006072204600F08CFB0E
:101F500005E0607A20F00100607200E002E00348D2
:101F60008542D0D100BFFFF705FA70BD9800002070
:101F700001460A4600E0521C10780028FBD1501A96
:101F8000704770B50346A2B118460C4600BF14F85E
:101F9000016B00F8016B3EB902E0002500F8015B1F
:101FA000551E2A1EF9D102E0551E2A1EEFD100BF90
:101FB00000BF184670BD00002DE9F04105460E46F1
:101FC000E81C20F0030726F00308B8F1180F09D920
:101FD000A8F11800B84205D3A8EB070018381E492D
:101FE000086006E0324629461CA0FFF74FFCBDE81A
:101FF000F0812948076004684FF4F55020801648A6
:1020000000680C3060600020A06060802249606839
:1020100009680844214908604FF4F55009680880B0
:1020200001201E49096848800B4800680C301B4994
:1020300009684860084800680C30184909688860D9
:102040000023012216A11848FFF791FE12480068EC
:102050001649086000BFCAE71C0000206D656D20AE
:10206000696E69742C206572726F7220626567698F
:102070006E206164647265737320307825782C203B
:10208000616E6420656E64206164647265737320A0
:10209000307825780A00000010000020140000208D
:1020A0006865617000000000A8140020180000207E
:1020B00010B500200B490880002405E00A4901EB17
:1020C000C400FFF7FEFB641C202CF7DB1F20074930
:1020D0000870002006490860064908600648FFF7B6
:1020E000F0FB10BD78000020C81400208000002004
:1020F0007C000020840000208800002070B5084883
:102100000068FEF771FE451E064850F83500A0F144
:1021100014040548046004F11C00FEF748F870BD83
:1021200084000020C81400207C00002010B500248A
:1021300005E0044901EBC400FFF7C6FB641C002C5A
:10214000F7D010BD900000201FB5002405E00D4918
:1021500001EBC400FFF7B8FB641C002CF7D00A2089
:102160000421CA01084BCDE90032CDE90210002359
:10217000064A07A1084800F0CDF8074800F02AF900
:102180001FBD0000980000204816002065240008AC
:1021900074696D6572000000C81500202DE9FF5FAD
:1021A00006460F4690461D46DDE90EAB314600203F
:1021B000FFF7A6FC8146B9F1000F03D1002004B05F
:1021C000BDE8F09F2846FFF7C1FB044624B9484606
:1021D000FFF7C0FC0020F2E743463A463146484646
:1021E0008DE8300CFEF740FE4846E8E710B504469F
:1021F000204600F0CDF810BD70B512480468FDF718
:10220000A1FF05462046FFF773FD042084F8340043
:1022100004F14C0000F0F2F92046FFF7EFFC012832
:1022200005D1A06F18B92046FFF7A6FC04E004F121
:1022300014010548FFF752FB2846FDF787FFFFF71B
:10224000E7FC70BD7C0000208800002001E000F069
:1022500001F8FCE770B537E0FDF774FF0546FEF7BF
:10226000F9FD18B31B480068A0F1140404F1140030
:10227000D0E900215160D0E9001211604060006097
:1022800000BFFFF767F8A06F10B12046A16F884725
:102290002046FFF7B3FC012805D1FFF76BF828466D
:1022A000FDF754FF70BDFFF765F803E02846FDF722
:1022B0004DFFF7E72846FDF749FFA06AFFF778F8DA
:1022C0002046FFF747FC00BFFEF7C4FD0028C3D13E
:1022D00000BFE7E7880000201FB520201F21C200B3
:1022E000074BCDE90032CDE902100023054A06A1D3
:1022F000074800F00FF8064800F06CF81FBD00001A
:10230000281300204D2200087469646C65000000E9
:10231000A81200202DE9FF5F05460C4616461F4611
:10232000DDE910ABDDE90E89224600212846FFF7E2
:1023300047FC3B463246214628468DE8000FFEF713
:1023400093FD04B0BDE8F09F70B5044694F83400E6
:1023500000F00F00022802D04FF0FF3070BDFDF7F3
:10236000F1FE054604F11400FFF7E6FA04F14C0013
:1023700000F010FA2846FDF7E9FE2046FFF790FC32
:102380000020EBE701480068704700007C00002057
:1023900031B5FDF7D7FE05460D480468204600F02C
:1023A0002FF86A46002104F14C0000F00BF904F10B
:1023B0004C0000F059F92846FDF7C8FEFFF728FC4D
:1023C000206B801C08B900202063002038BD00006D
:1023D0007C00002010B504463434A0786070617829
:1023E000012088406060022004F834092046FFF78D
:1023F000ABFFFFF7C7FF08B1FFF70AFC002010BDD5
:1024000070B5044694F8340000F00F00012802D0A3
:102410004FF0FF3070BDFDF795FE054694F834008F
:1024200020F00F0040F0020084F834002046FFF74F
:102430005FFC04F14C0000F0ADF92846FDF786FE84
:102440000020E7E770B5044625466FF001002863D9
:1024500005F11400FFF770FA2846FFF721FCFFF79B
:10246000D7FB70BD1CE00F4800F0EFF80446601C7D
:1024700038B9FFF787FF0546FFF7C2FFFFF7C8FB34
:102480000CE000F043F80546601B6FF00041884205
:1024900003D2641B2046FFF7A9FE00BFFFF72AFD09
:1024A000E1E700009800002070B5FDF74BFE0546FF
:1024B0001448046894F8340000F00F0001281CD17F
:1024C000D4E90510814218D004F11400FFF734FA62
:1024D00094F835200C4B03EBC20004F11401426860
:1024E000116042684A604160086000BF2846FDF7FD
:1024F0002DFEFFF78DFB002070BD2846FDF726FE60
:102500000020F9E77C000020C81400200148006882
:10251000704700000800002010B50A480068401C01
:1025200008490860FFF72EFF0446A06C401EA06417
:10253000A06C18B9606CA064FFF7B6FF00F004F857
:1025400010BD00000800002070B5FFF7DFFF054652
:10255000FDF7F8FD064628E019480068A0F11404CC
:10256000A06A281A6FF0004188421DD22046FEF76B
:10257000DEFCD4E907108847FFF7C8FF0546607AFC
:1025800000F0020058B1607A00F0010038B1607AC2
:1025900020F001006072204600F066F805E0607AE5
:1025A00020F00100607200E004E00548FFF7B3F995
:1025B0000028D1D000BF3046FDF7C8FD70BD000037
:1025C00090000020034649B1012904D0022908D017
:1025D000032910D10AE0586A10600CE010685862B4
:1025E00009E0587A20F00200587204E0587A40F06E
:1025F0000200587200BF00BF0020704770B504464B
:10260000FDF7A0FD05462046FEF791FC2846FDF7A4
:102610009DFD2046FFF7B0FA002070BD2DE9F8437C
:1026200007460C4615461E46DDE908892246092163
:102630003846FFF7C5FA4346324629463846CDF8B4
:102640000090FEF753FCBDE8F88370B504462046C1
:10265000FFF761F910B14FF0FF3070BD2068A0F1B5
:102660001405A86AF9E700002DE9F8430546FDF7CF
:1026700069FD80462846FEF75AFC687A20F0010082
:1026800068724046FDF762FDFFF740FF696A084443
:10269000A862FDF757FD8046687A00F0040008B193
:1026A000384E00E0384E009600242AE019E05DF82C
:1026B00024201168142202EBC402881A826AAB6AD1
:1026C000D21A00D108E0826AAB6AD21A6FF00043D6
:1026D0009A4200D20CE000BF5DF8240000684DF87B
:1026E00024005DF8240006EBC40149688842DED16D
:1026F00000BF2CB15DF824000830611C4DF82100AA
:10270000641C002CD2D021480068401C1F4908607E
:102710000846076805F114010098FFF7E6F802245F
:1027200012E007F0030060B9C4F1010305F11402DF
:1027300002EBC301C4F101025DF82200FFF7D5F8F6
:1027400000E003E0BF08641C012CEAD900BF687AEE
:1027500040F0010068724046FDF7F8FC687A00F02E
:10276000040058B10A4890F8340000F00F00012826
:1027700004D00748FFF7E8FDFFF74AFA0020BDE85C
:10278000F88300009800002090000020A0000020A6
:10279000C815002070B50446607A00F0010010B939
:1027A0004FF0FF3070BDFDF7CDFC05462046FEF72B
:1027B000BEFB2846FDF7CAFC607A20F0010060727B
:1027C0000020EFE72DE9FF4F89B0804644460A9884
:1027D0004044461E464504D24FF0FF36A6EB0800A3
:1027E0000A906FE10B980078252806D0B44202D8F1
:1027F0000B9800782070641C61E1002526E00B989E
:10280000401C0B900B9800782D2802D145F0100544
:102810001CE00B9800782B2802D145F0040515E048
:102820000B980078202802D145F008050EE00B989F
:102830000078232802D145F0200507E00B980078A6
:10284000302802D145F0010500E000E0D7E700BFE5
:102850004FF0FF370B98007830380A2804D20BA8C5
:1028600000F0F2F907460EE00B9800782A280AD10A
:102870000B98401C0B900C9880C80C90002F02DA2B
:102880007F4245F010054FF0FF390B9800782E2855
:102890001CD10B98401C0B900B98007830380A28FC
:1028A00004D20BA800F0D0F981460AE00B9800781A
:1028B0002A2806D10B98401C0B900C9850F8049BCA
:1028C0000C90B9F1000F01DA4FF0000900200490DC
:1028D0000B980078682803D00B9800786C2805D1F5
:1028E0000B98007804900B98401C0B900A200590E0
:1028F0000B9800786F2875D00CDC632813D004DCAB
:10290000252870D058286FD18DE064286DD06928B3
:10291000F9D18FE070286AD0732825D0752878D037
:102920007828F0D182E005F0100040B904E0B4420C
:1029300001D820202070641C781E071EF7DC0C983C
:1029400010F8041B0C90C8B20790B44201D8079845
:102950002070641C04E0B44201D820202070641C64
:10296000781E071EF7DCAAE00C98006806900C9809
:10297000001D0C90069808B95AA006900698FFF71B
:10298000F7FA8346B9F1000F02DDCB4500DDCB46F7
:1029900005F0100048B904E0B44201D820202070AE
:1029A000641C38467F1E5845F6DC002008900BE07A
:1029B000B44202D8069800782070641C0698401C27
:1029C00006900898401C089008985845F0DB04E0F1
:1029D000B44201D820202070641C38467F1E584520
:1029E000F6DC6CE01CE015E028E022E0FFE7781C54
:1029F00010B9082745F00105CDE9007902950C983A
:102A000004C8102331460C902046FEF7A3FB044671
:102A100055E012E0B44201D825202070641C4EE03D
:102A2000082005901DE045F0400500BF10200590EE
:102A300017E000BF45F0020500BF12E0B44201D824
:102A400025202070641C0B98007830B1B44202D865
:102A50000B9800782070641C02E00B98401E0B90CD
:102A60002DE000BF04986C2807D10C9850F804ABF7
:102A70000C9005F00200B8B116E0049868280BD15C
:102A80000C9830F8041B1FFA81FA0C9005F0020034
:102A900050B10FFA8AFA07E00C9850F804AB0C908A
:102AA00005F0020000B100BFCDE900790295524661
:102AB00031462046059BFEF74DFB044600BF0B98B0
:102AC000401C0B900B98007800287FF48BAEB4422A
:102AD00001D8207001E000203070A4EB08000DB098
:102AE000BDE8F08F284E554C4C290000002070475F
:102AF00000207047002070470020704710B5FDF798
:102B000021FBFEF7CDFCFFF79DF9FFF70FFBFFF769
:102B1000CFFAFEF7EBFBFFF717FBFFF7DDFBFFF745
:102B2000EDFA002010BD00002DE9F8430646884666
:102B300017460025102F04D11020424908700425A3
:102B400003E00C203F4908700825B8F1000F03D0BE
:102B5000B8F1010F72D125E0002420E0082090FB9D
:102B6000F5F0604300F0FF09C4EBC40006EB40023F
:102B700049460020FDF710FE082090FBF5F0604369
:102B800000F0FF09C4EBC40006EB40000097828907
:102B9000062349464020FDF7BDFD601CC4B2AC428F
:102BA000DCDB4CE0002445E0082090FBF5F06043BE
:102BB00000F0FF096000C0EBC00006EB4002494690
:102BC0000020FDF7E9FD082090FBF5F0604300F0E0
:102BD000FF096000C0EBC00006EB4000009782894F
:102BE000042349462020FDF795FD082090FBF5F0D1
:102BF000604300F0FF096000401CC0EBC00006EB22
:102C0000400249464020FDF7C7FD082090FBF5F043
:102C1000604300F0FF096000401CC0EBC00006EB01
:102C2000400000978289042349466020FDF772FD29
:102C3000601CC4B2AC42B7DB01E0FFE700BF00BFDD
:102C4000BDE8F883740200200146002009E00B680B
:102C50005A1C0A601A7800EB800302EB4302A2F1CF
:102C600030000A681278303A0A2AF0D37047000020
:102C700000240FE0002108480068FFF7A8F8044688
:102C800044B9064906A0FEF701FE4FF47A710348E5
:102C9000FDF7EBFAEEE70000000000202819002005
:102CA000CAD5B5BDCAFDBEDD3A25730A00000000D5
:102CB0000000010002000100030001000200010009
:102CC00004000100020001000300010002000100F5
:102CD00005000100020001000300010002000100E4
:102CE00004000100020001000300010002000100D5
:102CF00006000100020001000300010002000100C3
:102D000004000100020001000300010002000100B4
:102D100005000100020001000300010002000100A3
:102D20000400010002000100030001000200010094
:102D30000700010002000100030001000200010081
:102D40000400010002000100030001000200010074
:102D50000500010002000100030001000200010063
:102D60000400010002000100030001000200010054
:102D70000600010002000100030001000200010042
:102D80000400010002000100030001000200010034
:102D90000500010002000100030001000200010023
:102DA0000400010002000100030001000200010014
:102DB00030313233343536373839616263646566B1
:102DC00000303132333435363738394142434445A7
:102DD00046000000000000000000002F000000007E
:102DE0000700070000147F147F1400242A7F2A1292
:102DF0000062640813230036495522500000050381
:102E0000000000001C224100000041221C000014B0
:102E1000083E08140008083E0808000000A06000F2
:102E20000008080808080000606000000020100882
:102E30000402003E5149453E0000427F40000042EE
:102E400061514946002141454B31001814127F1051
:102E5000002745454539003C4A4949300001710980
:102E6000050300364949493600064949291E000034
:102E700036360000000056360000000814224100DB
:102E8000001414141414000041221408000201510B
:102E9000090600324959513E007C1211127C007F14
:102EA00049494936003E41414122007F4141221CAF
:102EB000007F49494941007F09090901003E414914
:102EC000497A007F0808087F0000417F4100002008
:102ED00040413F01007F08142241007F40404040B4
:102EE000007F020C027F007F0408107F003E4141FA
:102EF000413E007F09090906003E4151215E007FE5
:102F0000091929460046494949310001017F01015B
:102F1000003F4040403F001F2040201F003F4038FE
:102F2000403F00631408146300070870080700613D
:102F30005149454300007F41410000552A552A551B
:102F4000000041417F0000040201020400404040B3
:102F50004040000001020400002054545478007FD7
:102F60004844443800384444442000384444487FAE
:102F700000385454541800087E0901020018A4A413
:102F8000A47C007F080404780000447D40000040D9
:102F900080847D00007F102844000000417F4000B5
:102FA000007C04180478007C080404780038444449
:102FB000443800FC242424180018242418FC007C25
:102FC0000804040800485454542000043F4440209E
:102FD000003C4040207C001C2040201C003C403035
:102FE000403C004428102844001CA0A0A07C0044C1
:102FF00064544C4414141414141400000000000011
:1030000000000000000000000000000000F80000C8
:103010000000000000333000000000100C06100C0F
:103020000600000000000000000040C07840C078AA
:103030004000043F04043F040400007088FC083092
:103040000000001820FF211E0000F008F000E0182A
:10305000000000211C031E211E0000F008887000E3
:1030600000001E2123241927211010160E00000035
:1030700000000000000000000000000000E0180454
:103080000200000000071820400000020418E000C1
:1030900000000040201807000000404080F0804001
:1030A00040000202010F01020200000000F00000D7
:1030B00000000101011F01010100000000000000EB
:1030C000000080B070000000000000000000000060
:1030D00000000001010101010101000000000000E9
:1030E00000000030300000000000000000008060A0
:1030F0001804006018060100000000E01008081025
:10310000E000000F102020100F00001010F8000049
:1031100000000020203F20200000007008080888E0
:1031200070000030282422213000003008888848B0
:1031300030000018202020110E000000C02010F8E0
:10314000000000070424243F240000F808888808B1
:1031500008000019212020110E0000E010888818B6
:103160000000000F112020110E0000380808C83898
:1031700008000000003F0000000000708808088878
:103180007000001C222121221C0000E01008081001
:10319000E0000000312222110F00000000C0C0003A
:1031A000000000000030300000000000008000003F
:1031B000000000008060000000000000804020103F
:1031C0000800000102040810200040404040404038
:1031D000400004040404040404000008102040809B
:1031E00000000020100804020100007048080808D0
:1031F000F0000000003036010000C030C828E810A0
:10320000E0000718272423140B000000C038E0005A
:103210000000203C23020227382008F888888870A4
:103220000000203F202020110E00C03008080808B0
:103230003800071820202010080008F80808081097
:10324000E000203F202020100F0008F88888E808C0
:103250001000203F20202320180008F88888E80864
:103260001000203F200003000000C030080808388C
:10327000000007182020221E020008F8080000089D
:10328000F808203F210101213F20000808F8080824
:1032900000000020203F2020000000000808F8085F
:1032A0000800C08080807F00000008F888C02818CF
:1032B0000800203F20012638200008F80800000000
:1032C0000000203F20202020300008F8F800F8F807
:1032D0000800203F003F003F200008F830C00008F1
:1032E000F808203F200007183F00E01008080810E9
:1032F000E0000F10202020100F0008F80808080830
:10330000F000203F210101010000E0100808081032
:10331000E0000F18242438504F0008F88888888867
:103320007000203F2000030C30200070880808083F
:1033300038000038202121221C00180808F808084D
:1033400018000000203F2000000008F808000008D6
:10335000F808001F202020201F000878880000C8DF
:103360003808000007380E010000F80800F80008CF
:10337000F800033C0700073C0300081868808068D9
:10338000180820302C03032C30200838C800C83817
:1033900008000000203F2000000010080808C8387E
:1033A00008002038262120201800000000FE02021C
:1033B00002000000007F40404000000C30C00000D0
:1033C0000000000000010638C00000020202FE00FA
:1033D0000000004040407F000000000004020202A4
:1033E00004000000000000000000000000000000D9
:1033F00000008080808080808080000202040000C5
:1034000000000000000000000000000080808080BC
:1034100000000019242222223F2008F800808000AA
:103420000000003F112020110E000000008080806D
:103430000000000E11202020110000000080808874
:10344000F800000E112020103F20000080808080B6
:103450000000001F222222221300008080F08888B2
:1034600088180020203F20200000000080808080FD
:103470008000006B94949493600008F80080808032
:103480000000203F210000203F200080989800008D
:1034900000000020203F20200000000000809898BD
:1034A000000000C08080807F000008F8000080805D
:1034B0008000203F24022D302000000808F8000082
:1034C00000000020203F202000008080808080803D
:1034D0008000203F20003F20003F808000808080CF
:1034E0000000203F210000203F20000080808080DD
:1034F0000000001F202020201F008080008080000E
:10350000000080FFA12020110E00000000808080BC
:103510008000000E112020A0FF808080800080802D
:10352000800020203F21200001000000808080805A
:1035300080000033242424241900008080E080804F
:1035400000000000001F202000008080000000809C
:103550008000001F202020103F20808080000080FD
:10356000808000010E30080601008080008000800D
:1035700080800F300C030C300F00008080008080B2
:1035800080000020312E0E312000808080000080DD
:10359000808080818E70180601000080808080808D
:1035A00080000021302C2221300000000000807CAF
:1035B000020200000000003F404000000000FF0049
:1035C000000000000000FF0000000002027C8000FC
:1035D00000000040403F0000000000060101020220
:1035E000040400000000000000000000F92A0008A8
:1035F000F12A0008ED2A0008F52A00081C36000808
:1036000000000020A8020000A402000820370008E3
:10361000A8020020681E0000440E0008012C222C85
:103620002A2004328032011A3C0C29043220320351
:103630001A4C0C2904291032041A5C0C290432306B
:1036400032091A6C0C29041944013F1BF010012A9D
:10365000FF050215F01B0F04012AFF0502130F18C6
:10366000094040405F55555575041A5F0C091121FA
:10367000080C11200F094989790909090F201F1128
:103680002FFE02424ACA4A0304134202FE000E14ED
:10369000FF40504C4340404F50505C40FF1BF88867
:1036A000012AFF050215F81B1F08012A7F200B10B5
:1036B0009F80E23B808201000916E2A2928A868204
:1036C0008080041840807F172424A4FEA3221B229C
:1036D000CCAA011415080601FF2B0104010511FFF6
:1036E0000202025808101010FF109008C3021108BF
:1036F000080F100444827F01808040432C1028462C
:1037000081A0321092012D0102030404280806074B
:1037100008090204064FACA24A041E291A00000040
:0400000508000131BD
:00000001FF
