:020000040800F2
:1000000050B800203902000851250008EB01000813
:100010004D250008411000084F390008000000007D
:100020000000000000000000000000000B2E00088F
:100030000F1100080000000073010008912F000854
:10004000530200085302000853020008530200083C
:10005000530200085302000853020008530200082C
:10006000530200085302000853020008530200081C
:10007000530200085302000853020008530200080C
:1000800053020008530200085302000853020008FC
:1000900053020008530200085302000853020008EC
:1000A00053020008530200085302000853020008DC
:1000B0003D300008530200085302000853020008B4
:1000C00053020008530200085302000853020008BC
:1000D00053020008F13600083937000853020008BF
:1000E000530200085302000853020008530200089C
:1000F000530200085302000853020008530200088C
:10010000530200085302000853020008530200087B
:100110005302000853020008C130000853020008CF
:10012000530200085302000853020008530200085B
:10013000DFF80CD000F0A0FC00480047950B000849
:1001400050B80020EFF3108072B6704780F310882B
:100150007047334A1368012B04D04FF0010313603A
:10016000304A1060304A116030484FF080510160D1
:100170007047EFF3108272B62948016891B14FF0D1
:10018000000101602748016829B1EFF3098121E9E5
:10019000F00F00680160244909680968B1E8F00FB0
:1001A00081F3098882F310884EF0040E70471E49CF
:1001B00008601C494FF00000086019494FF0010029
:1001C00008601B484FF47F01D0F8002041EA02018B
:1001D000016016484FF080510160164800680068C1
:1001E00080F3088861B662B670471EF0040F0CBF3A
:1001F000EFF30880EFF3098020E9F00F40F804EDF9
:100200001EF0040F0CBF80F3088880F3098800B546
:1002100005F000FD5DF804EB4EF0040E70470000A1
:1002200048010020400100204401002004ED00E0CE
:1002300020ED00E008ED00E0064880470648004752
:10024000FEE7FEE7FEE7FEE7FEE7FEE7FEE7FEE786
:10025000FEE7FEE7DD2F00083101000840EA010358
:100260009B0703D009E008C9121F08C0042AFAD26C
:1002700003E011F8013B00F8013B521EF9D2704730
:10028000D2B201E000F8012B491EFBD270470022D8
:10029000F6E710B513460A4604461946FFF7F0FF85
:1002A000204610BD034611F8012B00F8012B002A4F
:1002B000F9D118467047F0B480EA0102D40F420029
:1002C000B2EB410F02D20246084611464A0042D024
:1002D000C30DDDB2C1F3C752AD1A202D35DAC1F31B
:1002E000160141F4000204B15242C5F1200602FA9F
:1002F00006F12A411044B3EBD05F23D0C4B1012DE5
:10030000A0EBC35009DCF0BC4FF0004202EAC3523C
:10031000DBB200F5000000F00DBB400000F1807082
:1003200000EBC350A0F1807040EAD170490009E0B1
:10033000490841EAC071A0EBC35000F50000400835
:1003400000EBC350F0BC00F0ECBA6142012202EBBA
:100350004101001BF6E7F0BC704781F00041AAE7BD
:1003600080F00040A7E780EA010210B502F00043E8
:10037000400022D04A001FD0010E01EB1261C0F3F1
:100380005600C2F3560240F4000042F40002A0FB03
:10039000022000047F39140400D0401C50EA1240AF
:1003A00001D44000491EC2B20C0604EBD010401C20
:1003B0004008802A02D003E0002010BD20F0010098
:1003C000002900DA0020184310BD30B480EA010291
:1003D00002F0004530F0004221F0004013D090B10F
:1003E000C30DD40DC2F31601C0F31600E41A41F494
:1003F000000140F400027D34914201D3641C00E00E
:100400004900002C02DA30BC002070474FF4000095
:100410000023914201D3891A034340084FEA410166
:10042000F7D151B1914202D14FF0004105E002D223
:100430004FF0010101E06FF0010103EBC4502844CB
:1004400030BC00F06EBA2DE9FE4F804681EA030011
:10045000C00F0C46009021F0004123F00045B8EB9E
:100460000200A94105D24046214690461C460B4653
:10047000024623F00040104347D0270DC7F30A007F
:10048000C3F30A510290401A019040286BDAC3F37B
:10049000130040F4801B0098924620B10023D2EB59
:1004A000030A63EB0B0B01985946C0F1400250461A
:1004B00000F006FA06460D4650465946019A00F0ED
:1004C0001EFA10EB08006141002487EA115284EA09
:1004D000E7731A4340D0009A62B3019A012A4FEAA7
:1004E000075215DC001B61EB02014FF0004202EAEB
:1004F0000752CDE90042001C41F5801132462B46DF
:1005000000F055FA03B0BDE8F08F40462146F9E708
:10051000001B61EB0201001C41F5801300185B41D8
:100520002018A2F5001747EB030140EAD570B61971
:100530006D4111E06D084FEA360645EAC0754FEA95
:100540000752001B61EB0201001C41F580114908B4
:100550004FEA30000019514132462B4603B0BDE846
:10056000F04F00F015BA0098012240000023D0EBB4
:10057000020263EBE073009821464FEAE074B8EBA7
:10058000000061EB0401E9E783F000435BE781F0E1
:10059000004158E72DE9FE4F81EA030404F00044CE
:1005A00021F0004100944FF0000B23F0004350EA8B
:1005B00001045ED052EA03045BD0C3F30A54C1F3D2
:1005C0000A552C44A4F2F3340194A0FB0254C1F365
:1005D000130141F48011C3F3130343F4801301FBAF
:1005E000024400FB034E840A970A44EA815447EA16
:1005F0008357A4FB076802958D0A05FB07854FEA20
:10060000932C04FB0C542705029D4FEA065847EA39
:100610001637B5EB08056EEB070C870E920E47EA0E
:10062000811742EA8312A7FB0201B6EB0B0164EBD0
:1006300000042B0D43EA0C335E1844EB1C50DA46E1
:100640005146E7FB0201C5F313044FEA0B3343EABB
:1006500014534FEA0432019C43EA0603A4F10C044C
:100660000294009CCDE900B400F0A1F903B0BDE80C
:10067000F08F00200146F9E72DE9F04D81EA0304EF
:1006800004F0004B21F0004514464FF0000A23F01F
:10069000004150EA050220D054EA01021DD0C5F302
:1006A0000A570246C5F31303C1F31300C1F30A56F8
:1006B00040F4801543F48013A7EB0608101BD646C0
:1006C00008F2FD3873EB050002D308F1010801E0E0
:1006D00092185B41B8F1000F03DA00200146BDE833
:1006E000F08D00204FF48011064684460EE0171B63
:1006F00073EB050705D3121B63EB050306434CEAB6
:10070000010C49084FEA300092185B4150EA01079A
:10071000EDD152EA030012D082EA040083EA050117
:10072000084305D0101BAB4106D20122002306E08E
:1007300000224FF0004302E06FF0010253101AEB69
:1007400006004CEB085110EB0A0041EB0B01BDE831
:10075000F04D00F01DB9C10F80EAE0700844CA07EF
:100760009623002100F0E6B896230022114600F0FF
:10077000E1B80EB5C10F80EAE0700844CA07002155
:1007800040F233438DE80E000A460B4600F00FF9A5
:1007900003B000BD0EB540F2334102910021CDE916
:1007A00000110A460B4600F002F903B000BD00F04C
:1007B000004220F00040C10DC0F3160040F40000DC
:1007C0007F2901DA00207047962903DCC1F19601E8
:1007D000C84001E096398840002AF4D04042704772
:1007E00020F00040C10DC0F3160040F400007F2946
:1007F00001DA00207047962903DCC1F19601C84058
:100800007047963988407047C1F30A5210B5C1F35A
:10081000130140F2FF3341F480119A4201DA0020C3
:1008200010BD40F233439A42A2F2334203DC5242FB
:1008300000F055F810BD904010BD00F0004230F0BF
:1008400000400AD0C10D01F56071C0F3160042EA04
:100850000151C2084007114370470020014670470C
:1008600001F0004330B421F0004150EA010206D00B
:100870000A0DA2F56072C1F31301002A02DC30BC3C
:1008800000207047440F44EAC104C100E01830BCA6
:1008900000EBC25000F045B8002801DBC0F1004079
:1008A000002901DBC1F1004181427047002801DBD2
:1008B000C0F10040002901DBC1F1004188427047CE
:1008C000202A04DB203A00FA02F100207047914010
:1008D000C2F1200320FA03F3194390407047202A05
:1008E00004DB203A21FA02F00021704721FA02F3DA
:1008F000D040C2F120029140084319467047202A97
:1009000006DBCB17203A41FA02F043EAE07306E037
:1009100041FA02F3D040C2F1200291400843194647
:1009200070470029A8BF7047401C490008BF20F04D
:100930000100704710B4B0FA80FC00FA0CF050EAE5
:10094000010404BF10BC704749B1CCF1200421FA66
:1009500004F411FA0CF118BF012121430843A3EB61
:100960000C01CB1D4FEA00614FEA102042BF00206E
:1009700010BC704700EBC35010440029A4BF10BC4A
:100980007047401C490008BF20F0010010BC7047B0
:1009900010B5141E73F1000408DA401C41F1000187
:1009A00092185B411A4301D120F0010010BD2DE9DE
:1009B000F04D92469B4611B1B1FA81F202E0B0FAD5
:1009C00080F220329046FFF77BFF04460F4640EA54
:1009D0000A0041EA0B0153465A46084313D0114618
:1009E00053EA010019D0C8F140025046FFF777FFE3
:1009F00005460E46504659464246FFF761FF0843FA
:100A000005D0012004E020463946BDE8F08D0020E5
:100A1000054346EAE0762C4337430A986305E40A27
:100A2000A0EB08000022FD0A44EA47540A3002D530
:100A300000200146E9E7010510196941DDE9084593
:100A400000196941BDE8F04DA2E770B521F00043FF
:100A500003430CD0C1F30A550024D5EB040564EB25
:100A60000403D617AD1AB34102DB0020014670BD66
:100A7000201841EB025170BD064C074D06E0E068BE
:100A800040F0010394E8070098471034AC42F6D3D5
:100A9000FFF752FBD08E0008F08E00082DE9F04DD4
:100AA00000231A461B1A8A4103DB00200146BDE8D9
:100AB000F08DC1F30A52C1F3130141F480154FF0D8
:100AC000000BD10702D100186D41521E00270446C9
:100AD00040F2FF11384601EB620A3E46804602466C
:100AE00000204FF48011FFF7FAFEC2197141BB18C4
:100AF00046EB0100B4EB030C75EB000C04D3E41AD5
:100B000065EB000517460E46241908F101006D41FA
:100B100080463428E3DDF91946EB0600091BA8419D
:100B200003D24FF0FF32134601E0002213461BEBC5
:100B3000070046EB0A51BDE8F04DFFF729BF70B53D
:100B40008C1810F8015B15F0070301D110F8013B78
:100B50002A1106D110F8012B03E010F8016B01F8FF
:100B6000016B5B1EF9D12B0705D40023521E0DD457
:100B700001F8013BFAE710F8013BCB1A921C03E0A5
:100B800013F8015B01F8015B521EF9D5A142D8D3DD
:100B9000002070BD10B5FFF7D5FA06F06FFC0020FD
:100BA00010BD10B5FF2000F037F80446362C01D1F7
:100BB000002010BD3621FF2000F0C4F8FF2000F017
:100BC0002BF80446362C01D10020F2E70120F0E793
:100BD0001FB50E480E49086048601020488120204B
:100BE000088140200861C8600A484861001D88618A
:100BF00008487C38C8610B4610330FCB8DE80F00D6
:100C000003480FC801F091FA1FBD00000018014011
:100C1000F8B300209001234270B586B00446002648
:100C2000474B10330FCB8DE80F0045480FC801F03C
:100C300031FB2546E01704EB10600012A02101EB08
:100C40004000C0B23E4A0490D2E90430D2E9061214
:100C5000CDE90030CDE9021239480FC801F0E7FABA
:100C6000374BD3E90420D3E90613CDE90213CDE9CC
:100C7000002033480FC801F049FBE01704EB106077
:100C80000012A4EB0020C0B22D4B0490D3E9042045
:100C9000D3E90613CDE90213CDE9002028480FC897
:100CA00001F0C5FA264B10330FCB8DE80F00244816
:100CB0000FC801F02BFB224BD3E905021969DB6950
:100CC000CDE90223CDE900101D480FC801F0E2FA7A
:100CD000A1201B4B049010330FCB8DE80F00184858
:100CE0000FC801F0A4FA164BD3E90420D3E9061388
:100CF000CDE90213CDE9002011480FC801F006FB31
:100D000000200F4B0490D3E905021969DB69CDE996
:100D10000223CDE900100A480FC801F04CFA06463C
:100D2000074BD3E90420D3E90613CDE90213CDE93B
:100D3000002003480FC801F0CBFA304606B070BD62
:100D4000F8B3002070B586B004460E463949D1E9A3
:100D500005030A69C969CDE90231CDE900203548AA
:100D60000FC801F097FA2546E01704EB1060001257
:100D7000A02101EB4000C0B22E490490D1E9050347
:100D80000A69C969CDE90231CDE9002029480FC8B7
:100D900001F04DFA274B10330FCB8DE80F0025489B
:100DA0000FC801F0B3FAE01704EB10600012A4EBD7
:100DB0000020C0B21F4B0490D3E905021969DB691A
:100DC000CDE90223CDE900101A480FC801F02FFA2F
:100DD000184BD3E90420D3E90613CDE90213CDE97A
:100DE000002014480FC801F091FA124B04961033FA
:100DF0000FCB8DE80F000F480FC801F018FA0D4B0C
:100E000010330FCB8DE80F000A480FC801F07EFAAF
:100E1000084BD3E905211869DB69CDE90213CDE957
:100E2000000204480FC801F053FA0A2005F018FF29
:100E300006B070BDF8B3002008B5124803F0AEF854
:100E400001F0CAFB012000900F4803780FA2002197
:100E50000C4807F055FB012000230EA2042100904E
:100E6000084807F04DFB012000230CA2052100904B
:100E7000044807F045FB10220121024806F014FB4C
:100E800008BD000018B300204200002073657441C3
:100E9000000000006E6578740000000065786974D9
:100EA0000000000008B5124803F078F801F094FB48
:100EB000012000900F4803780FA200210C4807F092
:100EC0001FFB012000230EA204210090084807F018
:100ED00017FB012000230CA205210090044807F015
:100EE0000FFB10220121024806F0DEFA08BD0000C7
:100EF00018B3002043000020736574420000000016
:100F00006E65787400000000657869740000000068
:100F100038B53A4803F042F801F05EFB38490968F9
:100F2000C8693849FFF71FFA0546FFF759FC84B234
:100F30000120234634A200210090304807F0E0FA57
:100F40002F490968086A2F49FFF70DFA0546FFF790
:100F500047FC84B2012023462CA20146009027487A
:100F600007F0CEFA26490968486A2649FFF7FBF9D7
:100F70000546FFF735FC84B20120234624A2022156
:100F800000901E4807F0BCFA01200090214800782C
:100F900000EB4000204901EB400003791FA204212F
:100FA000164807F0ADFA012000231EA2052100908B
:100FB000124807F0A5FA12490968086DFFF710FCFE
:100FC00084B20120234619A2062100900B4807F0A5
:100FD00097FA18490968086DFFF702FC84B20120EE
:100FE000234615A207210090044807F089FA102231
:100FF0000121024806F058FA38BD000018B300205D
:1010000034000020000020414B7000004B690000BC
:101010004B6400004400002020A500206E6F777410
:1010200000000000657869740000000064756F318D
:10103000000000003800002064756F3200000000DE
:1010400000BFFEE708B50121102001F031FE4FF48A
:101050000070ADF8000010208DF8030003208DF81B
:1010600002006946044800F0F5FE4FF400710248A2
:1010700000F07BFF08BD00000010014010B500210A
:10108000014802F043F810BD0010004000F080510C
:1010900011B10349086001E002494860704700004F
:1010A000040402400000024021B1026842F0010243
:1010B000026004E002684FF6FE731A400260704757
:1010C0001AB103680B43036002E003688B430360BB
:1010D000704710B50022026847F6F0739A430C6A15
:1010E0008B6823430C6923434C6923438C69234356
:1010F000CC6923434C6A23438C6A23431A4302601E
:10110000CB6843600B6883604B68C36010BD704759
:1011100038B52A4802F042FF01F05EFA01200023B0
:1011200027A219460090254807F0EAF9012000237C
:1011300025A201460090214807F0E2F90120009025
:101140002348037823A203211C4807F0D9F9012082
:1011500000902248038822A20421184807F0D0F901
:101160002148007801280DD1204903C9FFF74CFB25
:1011700084B2012023461EA2052100900F4807F0EB
:10118000BFF90CE01C4903C9FFF73EFB84B2012004
:1011900023461AA205210090084807F0B1F9012062
:1011A000042318A207210090044807F0A9F910228F
:1011B0000121024806F078F938BD000018B300207C
:1011C0006175746F000000006669726500000000C0
:1011D0006800002072656378000000006000002055
:1011E00077617665000000009B0000207000002001
:1011F000625F72610000000078000020735F72611E
:1012000000000000657869740000000038B53B48B4
:1012100002F0C4FE01F0E0F90120002338A21946D3
:101220000090364807F06CF90120002336A20146F1
:101230000090324807F064F935480068FFF7D0FAAB
:1012400084B20120234633A2022100902B4807F0EC
:1012500057F931480068FFF7C3FA84B201202346EA
:101260002EA203210090254807F04AF92C492D4869
:101270000068FFF778F80546FFF7B2FA84B201205C
:10128000234629A2042100901C4807F039F9284878
:10129000007801280DD1274903C9FFF7B5FA84B2B8
:1012A0000120234624A205210090144807F028F9C4
:1012B0000CE0234903C9FFF7A7FA84B201202346B3
:1012C00020A2052100900D4807F01AF90120009096
:1012D0001E4803781EA20621084807F011F90120D4
:1012E00004231DA207210090044807F009F91022E9
:1012F0000121024806F0D8F838BD000018B30020DC
:101300006175746F0000000066697265000000007E
:101310008C0000204B700000900000204B69000002
:1013200000007A44880000206465616400000000C9
:101330009B00002070000020625F726100000000CE
:1013400078000020735F7261000000009A000020A6
:1013500074696D6500000000657869740000000024
:1013600088B000200790A6E14FF0FF31D248006816
:1013700005F0B9F9079007980028F4D14FF4FA70F6
:1013800005F06EFCCD480078FFF7EEF98346CC49B6
:10139000FFF71BF88246FFF750FA80460022C94B40
:1013A000FFF7F2F8064600224FF08043FFF7F2F80D
:1013B0000446FFF755FAC449086064E002F078FD7E
:1013C0000446FFF7C8F9C14908600021BF4800681A
:1013D000FFF762FA19D2BD480168BD48FEF7C3FFA6
:1013E0008246BC49FEF7BCFF8146FFF726FA074656
:1013F0000022B44BFFF727F80546FFF705FA84B241
:101400002146B54804F044FA18E0B0480168B048F5
:10141000FEF7A9FF8246AF49FEF7A2FF8146FFF71C
:101420000CFA05460022A74BFFF70DF80746FFF719
:10143000EBF984B22146A84804F02AFAA7480078BC
:1014400005F00EFC0021A0480068FFF725FA1AD02D
:101450009A480078FFF788F983469949FEF7B5FF67
:101460008246FFF7EAF906460022964BFFF78CF812
:10147000044600224FF08043FFF78CF88046FFF7C8
:10148000EFF99149086000218F480068FFF704FADE
:1014900094D193490868002102F072F940F2DC50BF
:1014A00005F0DEFB00F07EFD824600F07BFD83460A
:1014B0005146FEF700FF0446FFF792F91FFA80F944
:1014C0004846FFF767F9074600227E4BFFF762F8B0
:1014D0000546FFF799F983490880084600881E38B9
:1014E000088037218048006804F0EFFE7D480088BE
:1014F000B0F5967F04DB4FF496707A49088006E0D9
:1015000078480088C82802DCC820764908807748D7
:101510000078012842D1734909884800FFF729F96A
:10152000804673480CC84046FFF7A6F8CDE9020193
:1015300002F04AFB064600224FF08043FFF79CF87A
:10154000824600226B4BFFF725F86B4A6B4BCDE9C7
:101550000401FFF791F80446FFF782F96849086033
:10156000084601686748FEF7F8FE83466649FEF7BD
:10157000FAFE82466549FEF79EFE8146FFF75DF959
:10158000074600224F4BFEF75EFF0546FFF73CF98A
:1015900084B221465E4804F07BF973E0534800783A
:1015A00000286FD14F480088FFF7F4F80646594AE3
:1015B000594BFEF7EFFFCDE902014A480088FFF7DB
:1015C000E9F806460F4647480088FFF7E3F88246E9
:1015D000524A534BFEF7DEFF804632463B46FEF74B
:1015E000D9FFCDE90001DDE90223FEF72CFF044617
:1015F0004C480CC82046FEF726FFCDE90401FFF752
:101600002FF90690374909884800FFF7A4F8834668
:101610000699FEF7DAFE8246FFF70FF9CDE90201DF
:1016200002F0D2FA00224FF08043CDE90401FFF727
:1016300023F8064600222F4BFEF7ACFF04462E4A45
:101640002E4BFFF719F88046FFF70AF92C4908607E
:10165000084601682C48FEF786FE82462B49FEF7B5
:101660002AFE8146FFF7E9F807460022154BFEF7F0
:10167000EAFE0546FFF7C8F884B22146244804F084
:1016800007F900BF40F6980005F0EAFA0120264964
:1016900008602649C1F8A4014FF4487005F0E0FA4B
:1016A0000020214908602049083108602A210E489D
:1016B000006804F00AFE57E6580000206800002089
:1016C0000000A0430000E03F8400002064000020F0
:1016D0008988A84000003A4434B400209A000020D1
:1016E000E0B2002060000020000000209B000020ED
:1016F0007000002000806640A7E8482EFF210940C6
:10170000800000200000B4421111A14000403F447D
:1017100018B40020AC1C5A643BDFCF3F6132553017
:101720002AA963BF780000209C01224200002242C7
:1017300088B00020079017E14FF0FF318B48006818
:1017400004F0D1FF079007980028F4D1884800786A
:10175000012842D1874909884800FFF70AF8064660
:1017600085480CC83046FEF787FFCDE9020102F03C
:101770002BFA804600224FF08043FEF77DFF04469F
:1017800000227E4BFEF706FF7D4A7E4BCDE9040129
:10179000FEF772FF8246FFF763F87B490860084650
:1017A00001687A48FEF7D9FD83467949FEF7DBFDEB
:1017B00082467849FEF77FFD8146FFF73EF80746EF
:1017C0000022754BFEF73FFE0546FFF71DF884B279
:1017D0002146724804F05CF874E0654800780028FF
:1017E00070D164480088FEF7D5FF06466C4A6D4B01
:1017F000FEF7D0FE04460D465E480088FEF7CAFF9D
:1018000006460F465B480088FEF7C4FF8046664ADE
:10181000664BFEF7BFFE824632463B46FEF7BAFEF7
:1018200022462B46CDE90001FEF70DFECDE902016F
:101830005F480CC80298FEF706FECDE90401FFF7E9
:101840000FF806904B4909884800FEF784FF83464D
:101850000699FEF7BAFD8246FEF7EFFFCDE90201D9
:1018600002F0B2F9804600224FF08043FEF704FFF9
:1018700006460022414BFEF78DFE414A414BCDE921
:101880000401FEF7F9FE0446FEF7EAFF3E49086050
:10189000084601683E48FEF766FD82463D49FEF770
:1018A0000AFD8146FEF7C9FF074600223A4BFEF7C4
:1018B000CAFD0546FEF7A8FF84B22146374803F06B
:1018C000E7FF00BF00213B480068FEF7E5FF19D2A3
:1018D000384801683848FEF746FD82463749FEF72A
:1018E0003FFD8146FEF7A9FF074600222A4BFEF77F
:1018F000AAFD0546FEF788FF84B22146304803F072
:10190000C7FF18E02B4801682B48FEF72CFD8246E4
:101910002A49FEF725FD8146FEF78FFF0746002284
:101920001D4BFEF790FD0546FEF76EFF84B2214683
:10193000234803F0ADFF40F6980005F091F901202F
:10194000204908602049C1F8A4014FF4487005F00F
:1019500087F900201B4908601A49083108602A21CC
:101960001A48006804F0B1FCE6E6000054000020CC
:101970009B00002060000020700000200080664076
:10198000A7E8482EFF210940800000200000B44253
:101990001111A14000403F440000E03F18B4002076
:1019A000AC1C5A643BDFCF3F613255302AA963BF7C
:1019B00078000020640000208988A84000003A4494
:1019C00034B400209C01224200002242000000208A
:1019D00008B5164802F0E2FA00F0FEFD01200023EF
:1019E00013A219460090114806F08AFD0120002339
:1019F00010A2014600900D4806F082FD01200090E3
:101A00000E4803780EA20321084806F079FD012054
:101A100004230DA205210090044806F071FD102258
:101A20000121024805F040FD08BD000018B3002068
:101A3000746F000066697265000000006800002095
:101A40007265632000000000657869740000000082
:101A500038B5214802F0A2FA00F0BEFD01200023B3
:101A60001EA2194600901C4806F04AFD01200023E2
:101A70001CA201460090184806F042FD012000908B
:101A80001A4803781AA20221134806F039FD0120F2
:101A900000901948037819A204210F4806F030FD80
:101AA000184903C9FEF7B0FE84B20120234616A2EE
:101AB00005210090084806F023FD0120002314A210
:101AC00003210090044806F01BFD1022012102486A
:101AD00005F0EAFC38BD000018B300207265647997
:101AE000000000007368616B000000009900002096
:101AF00061647661000000009A00002074696D65E1
:101B00000000000078000020735F72610000000098
:101B100065786974000000008AB00020099018E11F
:101B20004FF0FF318B48006804F0DDFD0990099803
:101B30000028F4D1DFF820A20890FA208749088015
:101B400008460088FEF726FE0446854A854BFEF7C8
:101B500021FDCDE9040181480088FEF71BFE044603
:101B60000D467E480088FEF715FE7F4A7F4BCDE983
:101B70000001FEF70FFD064622462B46FEF70AFD42
:101B8000CDE90201DDE90423FEF75DFCCDE90601A4
:101B900077480CC80698FEF756FC8046FEF760FEB4
:101BA00008906E4909884800FEF7D5FD0390089912
:101BB000FEF70BFC8346FEF740FE804602F004F879
:101BC00000224FF08043CDE90401FEF755FD0646A3
:101BD0000022684BFEF7DEFC0446674A674BFEF7BF
:101BE0004BFDCDE90601FEF73BFE6549086008465E
:101BF00001686448FEF7B7FB83466349FEF75BFB69
:101C00008146FEF71AFE06460022604BFEF71BFCDB
:101C10000446FEF7F9FD1FFA80F841465C4803F0E0
:101C200037FE01205B49087040E000215046FEF776
:101C300033FE19D251465848FEF795FB8346574963
:101C4000FEF78EFB8146FEF7F8FD064600224F4B5D
:101C5000FEF7F9FB0446FEF7D7FD1FFA80F8414670
:101C60004F4803F015FE18E051464B48FEF77BFB4A
:101C700083464A49FEF774FB8146FEF7DEFD0646C1
:101C80000022424BFEF7DFFB0446FEF7BDFD1FFAC4
:101C900080F84146424803F0FBFD322004F0E0FFAB
:101CA0004FF07E515046FEF706FB82463D495046B6
:101CB000FEF7F2FDB9D902203649087040E0002154
:101CC0005046FEF7E9FD19D251463348FEF74BFB6B
:101CD00083463249FEF744FB8146FEF7AEFD0646D9
:101CE00000222A4BFEF7AFFB0446FEF78DFD1FFADC
:101CF00080F841462A4803F0CBFD18E051462648BB
:101D0000FEF731FB83462549FEF72AFB8146FEF7A5
:101D100094FD064600221D4BFEF795FB0446FEF798
:101D200073FD1FFA80F841461D4803F0B1FD3220D3
:101D300004F096FF4FF07E515046FEF70EFB8246B0
:101D400005495046FEF7B2FDB9D900201149087087
:101D500000BFE5E65C0000200000F0C1600000204C
:101D6000AC1C5A643BDFCF3F613255302AA963BFB8
:101D70007800002000806640A7E8482EFF21094037
:101D8000800000201111A14000403F440000E03FCE
:101D900018B40020980000208988A84000003A4428
:101DA00034B400200000F04108B50121102000F0FB
:101DB0007FFF8020ADF8000010208DF80300032085
:101DC0008DF802006946044800F044F8802102487A
:101DD00000F0CBF808BD00000010014038B51448F1
:101DE00002F0DCF800F0F8FB12480068FEF7F8FC9F
:101DF00084B20120234610A2002100900C4806F076
:101E00007FFB012000230EA202210090084806F06B
:101E100077FB012004230DA203210090044806F063
:101E20006FFB10220021024805F03EFB38BD000088
:101E300018B300208000002064697320616E670081
:101E400066697265206F6B21000000006578697417
:101E5000000000002DE9F041024600250026002088
:101E600000230024002791F803C00CF00F0591F81F
:101E700003C00CF0100CBCF1000F03D091F802C0AD
:101E80004CEA050591F800C0BCF1000F31D0146890
:101E900000202BE04FF0010C0CFA00F3B1F800C069
:101EA0000CEA03069E4220D183004FF00F0C0CFA7F
:101EB00003F7BC4305FA03FC4CEA040491F803C0A1
:101EC000BCF1280F06D14FF0010C0CFA00FCC2F84F
:101ED00014C00AE091F803C0BCF1480F05D14FF0DF
:101EE000010C0CFA00FCC2F810C0401C0828D1D329
:101EF0001460B1F800C0BCF1FF0F34DD546800205D
:101F00002EE000F1080C4FF0010808FA0CF3B1F8CC
:101F100000C00CEA03069E4221D183004FF00F0C53
:101F20000CFA03F7BC4305FA03FC4CEA040491F8ED
:101F300003C0BCF1280F05D100F1080C08FA0CF819
:101F4000C2F8148091F803C0BCF1480F07D100F12A
:101F5000080C4FF0010808FA0CF8C2F81080401C79
:101F60000828CED35460BDE8F0814161704701611B
:101F70007047000010B500BF084800884FF47A7120
:101F800000FB01F4064801F0C1F9044400200449B3
:101F90008884322004F064FE204610BD2003002017
:101FA000001000402DE9F84F4FF0000A0024A3462E
:101FB000A14631E0012021490860142003F050FFC0
:101FC00000201F49C1F8940100BF1C487C380068FC
:101FD0000028FAD000F01AFD641C00BF17487C38B6
:101FE00000680128FAD0FFF749F8FFF7C3FF8246DF
:101FF0005046FEF7B9FB0090FEF71FFC0746002293
:10200000104BFEF739FB0546FEF72AFC834649468E
:102010005846FEF750F98146052CCBD14846FEF7CD
:102020000CFC07460022084BFEF726FB0546FEF790
:1020300017FC83465846BDE8F88F00009481224281
:102040000080224200004D40000014401FB50121D5
:10205000202000F02DFE2020ADF8000003208DF898
:10206000020010208DF8030069461E48FFF7F2FEBB
:1020700020211C48FFF779FF4020ADF80000042024
:102080008DF8030069461748FFF7E4FE4021154824
:10209000FFF76BFF0121102000F0EAFD4FF08040B8
:1020A00001F040F840F2E730ADF808004720ADF805
:1020B00004000020ADF80A00ADF8060001A90A48A6
:1020C00001F0A8FA0121084801F01AF8012211468E
:1020D000054801F02FF902F017FB0021024801F03A
:1020E00015F81FBD00140140001000400FB41FB5CB
:1020F00000200B9908600AA80FC88DE80F0006A8F9
:102100000FC800F06FFE00200C990860022003F059
:10211000A7FE01200B990860052003F0A1FE002016
:102120000B9908601FBC5DF814FB0FB408B5DDE91E
:10213000052141EA0200012100F0BAFDBDF81200BC
:10214000ADF8000003208DF8020010208DF8030088
:1021500069460398FFF77EFEBDF81000ADF8000059
:1021600069460298FFF776FE0120079908600899F2
:10217000086001B05DF814FB0FB41FB500200B9987
:1021800008600AA80FC88DE80F0006A80FC800F065
:1021900029FE01200C990860022003F061FE012055
:1021A0000B990860052003F05BFE00200B99086086
:1021B0001FBC5DF814FB0FB47FB5109E00240CA863
:1021C0000FC88DE80F0008A80FC800F0FBFD002520
:1021D00014E000200D990860022003F041FE012068
:1021E0000D9908606006040E0F98006808B1601C25
:1021F000C4B2012003F034FE681CC5B2082DE8DB30
:1022000046B90CA80FC88DE80F0008A80FC8FFF743
:10221000B3FF07E00CA80FC88DE80F0008A80FC88F
:10222000FFF764FF204604B070BC5DF814FB0FB4E8
:102230007FB5109C0CA80FC88DE80F0008A80FC828
:1022400000F0D0FD00200D99086000251DE004F08D
:102250008000002803DD01200E99086002E00020C4
:102260000E9908606006040E022003F0F9FD0120BB
:102270000D990860022003F0F3FD00200D9908601D
:10228000022003F0EDFD681CC5B2082DDFDB7FBC2A
:102290005DF814FB0FB41FB50AA80FC88DE80F0036
:1022A00006A80FC800F09EFD01200C9908600B994C
:1022B0000860052003F0D4FD00200C99086006207A
:1022C00003F0CEFD00200B9908601FBC5DF814FBE5
:1022D0000FB41FB50AA80FC88DE80F0006A80FC8D5
:1022E00000F080FD00200B9908600C990860012027
:1022F0000B990860062003F0B3FD01200C990860DB
:10230000062003F0ADFD1FBC5DF814FB0FB41FB534
:1023100000240AA80FC88DE80F0006A80FC800F017
:1023200051FD01200C99086003F09AFD01200B99E2
:10233000086003F095FD10E0601CC4B2FA2C0CDDBF
:102340000AA80FC88DE80F0006A80FC8FFF7C0FF46
:10235000012004B010BC5DF814FB0D980068002843
:10236000EAD10B99086000BFF3E7000008B501212E
:10237000082000F09DFC0121082000F099FC0121BB
:10238000082000F095FC0121082000F091FC0121BB
:10239000082000F08DFC0121082000F089FC0121BB
:1023A000402000F085FC0121402000F081FC482005
:1023B0008DF8030003208DF802001020ADF8000016
:1023C00069461B48FFF746FD2020ADF8000069462E
:1023D0001748FFF73FFD4020ADF80000694614485C
:1023E000FFF738FD8020ADF8000069461048FFF780
:1023F00031FD4FF48070ADF8000069460C48FFF7DE
:1024000029FD4FF40070ADF8000069460848FFF759
:1024100021FD0120ADF8000069460648FFF71AFDCE
:102420000220ADF8000069460248FFF713FD08BD21
:10243000000C01400018014010B5044640480078E7
:1024400001284ED13F480068D0B13E48001D0068C9
:10245000B0B13C480830006890B13A480C30006890
:1024600070B138481030006850B1364814300068F8
:1024700030B13548006818B13348001D006878BB9A
:10248000082004F0EDFB00202D4908702D4800685D
:1024900008B9012010BD2B48001D006808B90220B2
:1024A000F8E728480830006808B90320F2E7254813
:1024B0000C30006808B90420ECE7224810300068AE
:1024C00008B90520E6E71F481430006808B906205F
:1024D000E0E71D48006808B90720DBE70820D9E7D6
:1024E000FFE718480068012823D11648001D00683E
:1024F00001281ED1134808300068012819D111485D
:102500000C300068012814D10E48103000680128F2
:102510000FD10C481430006801280AD10A4800681D
:10252000012806D10848001D0068012801D104498E
:102530000870012C02D10120014908700020A9E790
:102540005C010020108121420001234200BFFEE710
:102550007047000070B5002100230F22C47804B337
:10256000154C246804F4E064C4F5E064210AC1F168
:102570000403CA40447804FA03F1847814402143E8
:1025800009010E4C0678A155047804F01F050124BA
:10259000AC4005786D11AD0005F1E025C5F80041AE
:1025A00009E0047804F01F050124AC40044D0678CE
:1025B000761145F8264070BD0CED00E000E400E027
:1025C00080E100E002490143024A116070470000C7
:1025D0000000FA050CED00E070B5002419E004F1EC
:1025E000B001C8B2002100F0CFF90021022000F0B4
:1025F000CBF90021102000F0C7F9002505E00121EA
:10260000002000F0C1F9681CC5B2802DF7DB601C0A
:10261000C4B2082CE3DB70BD08B50121082000F02E
:1026200047FB10208DF8030003208DF802004FF4C3
:102630008060ADF8000069466948FFF70BFC4FF475
:102640008050ADF8000069466548FFF703FC4FF481
:102650000060ADF8000069466148FFF7FBFB4FF4EE
:102660008040ADF8000069465D48FFF7F3FB4FF48A
:102670000050ADF8000069465948FFF7EBFB4FF4F6
:1026800080615748FFF773FC4FF480515448FFF7BF
:102690006EFC4FF400615248FFF769FC4FF4804133
:1026A0004F48FFF764FC4FF400514D48FFF75FFCC3
:1026B0004FF480514A48FFF75AFC642001F0A8FC0F
:1026C0004FF480514648FFF750FC642001F0A0FC15
:1026D0004FF480514248FFF74AFC0021AE2000F041
:1026E00053F90021022000F04FF90021102000F0E2
:1026F0004BF90021402000F047F90021812000F033
:1027000043F90021CF2000F03FF90021A12000F083
:102710003BF90021C82000F037F90021A62000F085
:1027200033F90021A82000F02FF900213F2000F00C
:102730002BF90021812000F027F90021FF2000F073
:1027400023F90021D32000F01FF90021084600F0F2
:102750001BF90021D52000F017F90021802000F09E
:1027600013F90021D92000F00FF90021F12000F029
:102770000BF90021DA2000F007F90021122000F007
:1027800003F90021DB2000F0FFF80021402000F0D9
:10279000FBF80021202000F0F7F80021022000F0D3
:1027A000F3F800218D2000F0EFF80021142000F054
:1027B000EBF80021A42000F0E7F80021A62000F0AB
:1027C000E3F80021AF2000F0DFF80021AF2000F097
:1027D000DBF8FFF701FF0021084600F003F808BD11
:1027E000000C014070B504460D4605F1B001C8B2B9
:1027F000002100F0C9F8102141EA1410002100F076
:10280000C3F804F00F0141F00100002100F0BCF812
:1028100070BD00002DE9F04107460E4690460025A8
:102820000024A8F12000C5B27F2F02DD0027B01CD4
:10283000C6B21F480078102824D131463846FFF729
:10284000D1FF002408E004EB05111A4A505C012175
:1028500000F09AF8601CC4B2082CF4DB701CC1B202
:102860003846FFF7BFFF002409E004EB05110831EB
:10287000104A505C012100F087F8601CC4B2082C9B
:10288000F3DB12E031463846FFF7ACFF00240AE0E4
:1028900005EB4501084A02EB4101085D012100F00A
:1028A00073F8601CC4B2062CF2DBBDE8F0810000B6
:1028B0001D0300207E880008568600082DE9FF5F72
:1028C000074691461D460E9E4FF0000A002433E055
:1028D000281B401EC1B20A2002F0DBFDB9FBF0F05C
:1028E0000A21B0FBF1F201FB1208BAF1000F13D17B
:1028F000681EA04210DDB8F1000F0BD1B34606EB05
:10290000DB71491001FB0471C8B220220199FFF765
:1029100081FF0FE04FF0010AB34606EBDB7149106F
:1029200001FB0471C8B208F13001CAB20199FFF786
:1029300071FF00BF601CC4B2AC42C9DBBDE8FF9FA1
:102940002DE9F04104460F461546002615E0AA5D24
:1029500039462046FFF75EFF0A480078102803D169
:1029600004F10800C4B201E0A01DC4B2782C02DD5D
:102970000024B81CC7B2701CC6B2A85D0028E6D1FE
:10298000BDE8F0811D03002070B504460E462EB14F
:102990004FF400611C48FFF7EAFA04E04FF40061CD
:1029A0001948FFF7E2FA4FF480611748FFF7DDFAA4
:1029B00000251BE04FF480411348FFF7D6FA04F0DE
:1029C000800028B14FF400510F48FFF7D0FA04E01F
:1029D0004FF400510C48FFF7C8FA4FF480410A4801
:1029E000FFF7C5FA6006040E681CC5B2082DE1DBCE
:1029F0004FF480610448FFF7BAFA4FF400610248CF
:102A0000FFF7B5FA70BD0000000C014010B50021C1
:102A1000054800F0FDFD002004490880012102481E
:102A200000F074FB10BD00000010004020030020E7
:102A30000FB410B588B0119C01210B9800F038F943
:102A400001210E9800F014F9BDF83000ADF8000037
:102A500003208DF8020018208DF8030069460A98BB
:102A6000FFF7F8F9BDF84000401E80B2ADF818003D
:102A7000ADF814400020ADF81A00ADF8160005A915
:102A80000D9800F0C7FD6020ADF804000020ADF8FF
:102A90000C000120ADF80600BDF83E00ADF80A00BC
:102AA000BDF83C0030B1042809D008280CD00C280F
:102AB00014D10EE001A90D9800F046FC0EE001A92A
:102AC0000D9800F097FC09E001A90D9800F0F2FCC8
:102AD00004E001A90D9800F047FD00BF00BFBDF85C
:102AE0003C0030B1042809D008280CD00C2814D19F
:102AF0000EE008210D9800F073FC0EE008210D98FF
:102B000000F0CAFC09E008210D9800F023FD04E064
:102B100008210D9800F066FD00BF00BF01210D984F
:102B200000F0E2FA01210D9800F0F0FA08B010BCB4
:102B30005DF814FB38B5334801F030FAFFF74CFD6F
:102B4000012000903048038830A200212D4805F074
:102B5000D7FC00212E480068FDF7A8FE0DD82C48B0
:102B60000068FDF73DFE84B20120234629A20146FC
:102B70000090244805F0C4FC0FE02548006880F070
:102B800000452846FDF72CFE84B20120234623A2EF
:102B9000014600901B4805F0B3FC0120032321A24D
:102BA00002210090174805F0ABFC012004231FA26E
:102BB00003210090134805F0A3FC1E48007801286B
:102BC0000DD11D4903C9FDF71FFE84B20120234624
:102BD0001AA2042100900B4805F092FC0CE0194960
:102BE00003C9FDF711FE84B20120234616A2042179
:102BF0000090044805F084FC10220121014804F0F3
:102C000053FC38BD18B300206000002064697300D5
:102C1000640000202B616E67000000002D616E676C
:102C20000000000066697265000000006578697444
:102C3000000000009B00002070000020625F7261B5
:102C40000000000078000020735F72610000000047
:102C500029B1064A52690243044B5A6104E0034A0F
:102C600052698243014B5A617047000000100240D4
:102C700029B1064AD2690243044BDA6104E0034AEF
:102C8000D2698243014BDA617047000000100240B4
:102C900029B1064A12690243044B1A6104E0034A4F
:102CA00012698243014B1A61704700000010024014
:102CB00029B1064A92690243044B9A6104E0034A2F
:102CC00092698243014B9A617047000000100240F4
:102CD00029B1064AD2680243044BDA6004E0034A91
:102CE000D2688243014BDA60704700000010024056
:102CF00030B500210022002400232D4D6D6805F021
:102D00000C0121B1042905D0082923D105E0294D62
:102D1000056022E0274D05601FE0254D6D6805F434
:102D20007012234D6D6805F48034022505EB924244
:102D30001CB9214D554305600BE01D4D6D6805F430
:102D400000351DB11C4D5543056002E0194D55433A
:102D5000056002E0174D056000BF00BF144D6D68AF
:102D600005F0F0010909154D6B5C0568DD40456013
:102D70000F4D6D6805F4E061090A104D6B5C456804
:102D8000DD4085600A4D6D6805F46051C90A0B4D40
:102D90006B5C4568DD40C560054D6D6805F44041DC
:102DA000890B074D6B5CC568B5FBF3F5056130BD5C
:102DB0000010024000127A0000093D0026030020A6
:102DC000360300200FB408B5BDF81000ADF80000C0
:102DD00048208DF8030069460298FFF73BF801B0E0
:102DE0005DF814FB0FB408B5BDF81000ADF8000095
:102DF00003208DF8020010208DF803006946029828
:102E0000FFF728F801B05DF814FB704710B500F02B
:102E100001F810BD0CB50020019000903348006807
:102E200040F480303149086000BF3048006800F449
:102E3000003000900198401C0190009818B901984A
:102E4000B0F5A06FF1D12948006800F4003010B14E
:102E50000120009001E0002000900098012843D15B
:102E60002348006840F010002149086008460068C7
:102E700020F0030008600846006840F00200086087
:102E80001A48406819494860084640684860084642
:102E9000406840F4806048600846406820F47C1038
:102EA00048600846406840F4E810486008460068FA
:102EB00040F08070086000BF0C48006800F00070AF
:102EC0000028F9D00948406820F00300074948600D
:102ED0000846406840F00200486000BF0348406870
:102EE00000F00C000828F9D10CBD000000100240D1
:102EF0000020024008B5124801F050F8FFF76CFBC3
:102F0000012000900F4803880FA200210C4805F013
:102F1000F7FA012000230FA202210090084805F0D3
:102F2000EFFA012004230EA203210090044805F0CB
:102F3000E7FA10220021024804F0B6FA08BD0000AA
:102F400018B300206000002064697374616E6365CB
:102F500000000000746F20666972652100000000A7
:102F60006578697400000000042808D14FF0E02162
:102F7000096941F004014FF0E022116107E04FF0D0
:102F8000E021096921F004014FF0E022116170474E
:102F900010B502F079FF03F065FF02F085FF10BD68
:102FA00010B504466FF00400FFF7DEFFE11704EBF5
:102FB0005171C1F3C701074A11701046007800EB48
:102FC0004001C1EBC0104FF6FF7101EAC000024999
:102FD000088010BD220300202403002010B51348F0
:102FE000006840F001001149086008464068104937
:102FF00008400E494860084600680E4908400B49E1
:1030000008600846006820F4802008600846406890
:1030100020F4FE0048604FF41F008860FFF7F6FEC2
:103020004FF000600449086010BD0000001002402D
:103030000000FFF8FFFFF6FE08ED00E010B50121EB
:10304000880700F066F970B319480078401C1849E9
:10305000087008460078642801DD002008701448D4
:103060000078282190FBF1F201FB1200012809D120
:103070001048007830B1FFF7AFFA0C2201210E485A
:1030800004F012FA0A480078142190FBF1F201FBD7
:103090001200022807D10948006820B90020FFF774
:1030A000CBF9064908600121880700F02CF810BD13
:1030B0001F0300201E03002018B300205001002031
:1030C00010B50121064800F024F940B1012104485F
:1030D00000F019F803480088401C0249088010BD20
:1030E000001000402003002021B1028842F080023D
:1030F000028004E002884FF67F731A400280704716
:10310000CA4302827047CA430282704721B10288D3
:1031100042F00102028004E002884FF6FE731A407A
:103120000280704710B504466848844208D10121E6
:10313000C014FFF7CDFD0021E014FFF7C9FDC4E086
:10314000B4F1804F08D101210846FFF7A1FD00210D
:103150000120FFF79DFDB8E05D48844208D10121C0
:103160000220FFF795FD00210220FFF791FDACE062
:103170005848844208D101210420FFF789FD00212D
:103180000420FFF785FDA0E05348844208D10121C7
:103190000820FFF77DFD00210820FFF779FD94E06E
:1031A0004E48844208D101211020FFF771FD002113
:1031B0001020FFF76DFD88E04948844208D10121C5
:1031C0002020FFF765FD00212020FFF761FD7CE056
:1031D0004448844208D101214014FFF779FD0021C1
:1031E0006014FFF775FD70E03F48844209D101216A
:1031F000C804FFF76DFD00214FF40020FFF768FDC4
:1032000063E03A48844209D101210805FFF760FDD7
:1032100000214FF48010FFF75BFD56E034488442F4
:1032200009D101214805FFF753FD00214FF400109B
:10323000FFF74EFD49E02F48844208D1012140208C
:10324000FFF726FD00214020FFF722FD3DE02A4840
:10325000844208D101218020FFF71AFD002180203F
:10326000FFF716FD31E02548844208D10121801581
:10327000FFF70EFD0021A015FFF70AFD25E020480D
:10328000844209D101210804FFF722FD00214FF4F7
:103290008030FFF71DFD18E01A48844209D1012152
:1032A0004804FFF715FD00214FF40030FFF710FD33
:1032B0000BE01548844208D101218804FFF708FD7E
:1032C00000214FF48020FFF703FD10BD002C0140CA
:1032D0000004004000080040000C004000100040C6
:1032E0000014004000340140004C014000500140F7
:1032F0000054014000180040001C00400020004025
:103300000040014000440140004801400146888CD3
:10331000704730B50246002000230024158A05EAD4
:103320000103958905EA010413B10CB1012000E005
:10333000002030BD1AB183890B43838102E0838969
:103340008B4383817047000070B500240022002366
:10335000058C4FF6FE7635400584028C8388048BFD
:103360004FF68F752C40B51E2C400D882C43751ED2
:103370002A400D892A434D882A43144DA8420BD078
:10338000134DA84208D0134DA84205D0124DA842B3
:1033900002D0124DA84213D14FF6F7752A404D893D
:1033A0002A434FF6FB752A408D882A434FF6FF6566
:1033B0002B404FF6FF552B408D892B43CD892B4356
:1033C00083800483CD888586028470BD002C0140F3
:1033D00000340140004001400044014000480140E9
:1033E0000A460021018B4FF6F77319401143018300
:1033F0007047000070B5002400220023058C4FF6B2
:10340000EF7635400584028C8388048B48F6FF757F
:103410002C404FF6FF452C400D884FF6FF7606EA0C
:1034200005252C434FF6DF752A400D8906EA051560
:103430002A434D8806EA05152A43154DA84202D0B5
:10344000144DA8421DD14FF67F752A404D894FF685
:10345000FF7606EA05152A434FF6BF752A408D8888
:1034600006EA05152A434FF6FF352B404FF2FF754C
:103470002B408D8906EA85052B43CD8906EA850513
:103480002B4383800483CD880587028470BD0000B0
:10349000002C0140003401400A460021018B4FF20C
:1034A000FF7319404FF6FF7303EA022319430183A8
:1034B0007047000070B5002400220023058C4FF6F1
:1034C000FF6635400584028C8388848B4FF68F75A8
:1034D0002C404FF6FC752C400D882C434FF6FF55C1
:1034E0002A400D894FF6FF7606EA05252A434D88C6
:1034F00006EA05252A43154DA84202D0144DA842DC
:103500001DD14FF2FF752A404D894FF6FF7606EA2E
:1035100005252A434FF6FF352A408D8806EA052502
:103520002A434EF6FF752B404DF6FF752B408D89D3
:1035300006EA05152B43CD8906EA05152B43838042
:103540008483CD888587028470BD0000002C0140F3
:10355000003401400A460021818B4FF6F773194071
:10356000114381837047000070B5002200230024BE
:10357000058C4EF6FF7635400584038C8488828B5B
:1035800048F6FF752A404FF6FF452A400D884FF652
:10359000FF7606EA05252A434DF6FF752B400D8977
:1035A00006EA05352B434D8806EA05352B430B4DBE
:1035B000A84202D00A4DA84208D14BF6FF752C4014
:1035C0008D894FF6FF7606EA85152C438480828329
:1035D000CD88A0F84050038470BD0000002C01404D
:1035E000003401400A460021818B4FF2FF731940DD
:1035F0004FF6FF7303EA02231943818370478186E4
:1036000070470187704781877047A0F84010704766
:1036100081847047002202881D4B98420ED01D4BBA
:1036200098420BD0B0F1804F08D01B4B984205D088
:103630001A4B984202D01A4B984204D14FF68F731E
:103640001A404B881A43174B984207D0164B9842A2
:1036500004D04FF6FF431A40CB881A4302808B8870
:1036600083850B8803850A4B98420BD0094B9842FF
:1036700008D00E4B984205D00D4B984202D00D4B0E
:10368000984201D10B7A03860123838270470000A0
:10369000002C0140003401400004004000080040BC
:1036A000000C0040001000400014004000400140A9
:1036B000004401400048014008B50A4800F06EFC93
:1036C000FEF78AFF012000900748037807A2002137
:1036D000044804F015FF0C220121024803F0E4FE27
:1036E00008BD000018B300202800002070696400A5
:1036F00000B58BB002F0C8FB40F224410B4800F04B
:1037000061F878B10A48006828220A490A90684698
:10371000FCF7A4FD074810380FC801F0A1FE0348CC
:1037200000F00CF902F0C0FB0BB000BD0038014006
:1037300008000020B8B2002000B58BB002F0A4FB56
:1037400040F224410B4800F03DF878B10A48006887
:1037500028220A490A906846FCF780FD074810387D
:103760000FC801F07DFE034800F0E8F802F09CFB72
:103770000BB000BD004400400C000020F0B200205F
:1037800021B1828942F40052828104E082894DF69F
:10379000FF731A40828170471AB1838A0B43838278
:1037A00002E0838A8B438382704702460020B1F592
:1037B000007F00D100BF13880B400BB1012000E057
:1037C0000020704770B50246002400230025002029
:1037D00040F66A16B14200D100BFC1F3421501F0B4
:1037E0001F03012606FA03F3012D02D19689334007
:1037F00006E0022D02D1168A334001E0968A33405A
:103800000C12012606FA04F41688344013B10CB1E8
:10381000012000E0002070BDF0B503460024002622
:103820000025002040F66A17B94200D100BF1846B3
:10383000C1F3421401F01F06012707FA06F5012C17
:1038400001D10C3004E0022C01D1103000E0143022
:103850001AB107682F43076002E00768AF430760AB
:10386000F0BD00002DE9F04786B005460E46002465
:10387000A24600BFA1460027B08900B100BF2F4675
:103880002C8A4CF6FF700440F08804432C82AC89EB
:103890004EF6F3100440B08831890843718908431B
:1038A0000443AC81AC8A4FF6FF400440B089044326
:1038B000AC8201A8FFF71CFA1F48874202D1DDF84D
:1038C00010A001E0DDF80CA0A88900F4004040B190
:1038D0000AEBCA0000EB0A1031684900B0FBF1F8AE
:1038E00007E00AEBCA0000EB0A1031688900B0FB60
:1038F000F1F86420B8FBF0F004012009642101FB19
:103900001089A88900F4004040B1322000EBC900C2
:10391000B0FBF1F000F00700044308E0322000EBB8
:1039200009106421B0FBF1F000F00F0004432C817A
:1039300006B0BDE8F08700000038014001468888E5
:10394000C0F308007047C1F308028280704700BFCF
:10395000FEE7490050EAC12018BF04204A0D18BFF5
:1039600040F0010040F2FF72B2EB515F08BF40F03F
:103970000200012808BF052070472DE9F0414F1EC5
:1039800000EBC7010446D1E9000115461E4637F099
:1039900006020DD02A463346FCF7FCFD7F1E04EBE1
:1039A000C703D3E90023FCF74EFD37F00602F1D13F
:1039B000022F25D0042F13D0062F18BFBDE8F081A9
:1039C0002A463346FCF7E6FDD4E90A23FCF73BFD23
:1039D0002A463346FCF7DEFDD4E90823FCF733FD25
:1039E0002A463346FCF7D6FDD4E90623FCF72BFD27
:1039F0002A463346FCF7CEFDD4E90423FCF723FD29
:103A00002A463346FCF7C6FDD4E90223FCF71BFD2A
:103A10002A463346FCF7BEFDD4E90023BDE8F04159
:103A2000FCF711BD0122FDF710B800221346104625
:103A30001146FCF721BE0000024A00201107FDF7E5
:103A400004B8000001FDFFFF014609B900207047DE
:103A5000C8B220B1C8B20E4A105C401CF7E701F4AE
:103A60007F4028B10A48C1F30722805C0930EEE7A5
:103A700001F47F0028B10648C1F30742805C113091
:103A8000E5E7034800EB116000781930DFE700003C
:103A90003485000802E008C8121F08C1002AFAD1C4
:103AA00070477047002001E001C1121F002AFBD1BE
:103AB0007047000001490860704700005003002073
:103AC00003490868884201D0012070470020FCE7C4
:103AD000240100202DE9FC5F04468B4615461E4656
:103AE000DDE90C9ADDE90E7804F114004060006015
:103AF00000BF1C346560A660C4F80C90C4F810A028
:103B00002321D4E9030202F064FCD4E9033C6344BA
:103B10001A1F0F4BD4E9010102F07CF92060A7764F
:103B200067760020E061C4F82880C4F82C806061CA
:103B30002076E06520661C3C00902346054A21461D
:103B4000019004F14C0003F02AFA0020BDE8FC9F2C
:103B5000116B0008716D00082DE9F04704460E4610
:103B600017469846DDF8209084F80990607A20F096
:103B700001006072E66127620020A062C4F8248020
:103B8000002506E004F1140101EBC50002F002FA81
:103B90006D1C012DF6DBBDE8F08710B50246002054
:103BA00001460EE002F1140303EBC100D0E900432B
:103BB0006360D0E9003423604060006000BF481CAF
:103BC00001460129EEDB10BD2DE9F04D8D4F21F0AE
:103BD000004A86B005460C46BA452ADBAAEB070028
:103BE00028430AD08848824501DC1AD1CDB106B0FD
:103BF0002846BDE8F04DFFF715BF844A844B2846A0
:103C0000FCF7C8FC07460E46824A834B28462146ED
:103C1000FCF7C0FC06B03A463346BDE8F04DFCF771
:103C200012BC0120FFF746FF06B0BDE8F04DFFF7DC
:103C3000FCBE7A48824542DABAF1795F0BDA28464F
:103C4000FFF787FE042808BFFFF7F6FE284606B0F8
:103C50002146BDE8F08D2A460B461046FCF79AFC3B
:103C6000834602466E480E460B4606217844FFF70F
:103C700084FE5A463346FCF78DFC804669488A46E6
:103C80005A46334604217844FFF777FE5A463346B6
:103C9000FCF780FC00223B46FCF7D5FB02460B46B6
:103CA00040465146FCF7E8FC2A462346FCF772FCE6
:103CB00006B02A462346BDE8F04DFCF7C4BB2846B3
:103CC00024F0004100223D463B46FCF760FC4FF0EB
:103CD000FF32FCF7BAFE0646024653480F460B4633
:103CE00006217844FFF749FE32463B46FCF752FC7A
:103CF000CDE900014D4832463B4604217844FFF7A8
:103D00003CFE32463B46FCF745FC00222B46FCF7C6
:103D10009AFB834602913046394603F068FC8046A0
:103D200043480D46504517DCDDE900015A46029B29
:103D3000FCF7A2FC42462B46FCF72CFC42462B46E5
:103D4000FCF781FB0122FCF780FE304A304BFCF788
:103D50001BFC304A304B4CE04FF0000A52460B46F9
:103D60004046FCF770FBCDE9031052462B46104647
:103D70001946FCF70FFC32463B46FCF708FCDDE930
:103D80000332FCF779FC06460F46DDE900015A468E
:103D9000029BFCF771FC83460091012230463946B4
:103DA000FCF753FE194A1A4BFCF7F1FB06460F4687
:103DB000012240462946FCF748FE5A46009BFCF784
:103DC000E9FB32463B46FCF7DFFB06460F46012285
:103DD00050462946FCF739FE0E4DDFF858802A463A
:103DE0004346FCF7D4FB32463B46FCF7D0FB2A4661
:103DF0004346FCF7CCFB002CD8BF81F0004106B055
:103E0000BDE8F08D0000F03F0000F07F075C143348
:103E100026A6913C182D4454FB21F93F0000E03FB9
:103E200000520000165200008A510000A05100000C
:103E30003333EF3FFB21E93F70B50546284602F0DA
:103E4000EBF804460CB9002070BD0020E06020466D
:103E5000FAE7000010B50446114812490860042032
:103E60004860402008811048C86002200861002096
:103E700088820B480D490860042048608020088132
:103E80000948C8600220086104208882214605484C
:103E900004F06EF82146054804F06AF810BD0000F1
:103EA0000008014018B400200004004034B4002091
:103EB0002DE9F0412548016825480068FCF7ECFC35
:103EC0000CD22248006880F0004621480168304644
:103ED000FCF7E2FC02D200201D4908601D48016881
:103EE0001D480068FCF73FFA07461B480168184860
:103EF0000068FCF732FA8046184801684046FCF733
:103F000032FA06463946FCF7D6F9054629461448E2
:103F10000068FCF7D0F9044612492046FCF7BCFCC7
:103F200001D2104C05E010492046FCF7BFFC00D23E
:103F30000D4C0B48046006480068074908600848B3
:103F40000068FCF734FC40B2BDE8F0818800002036
:103F50008400002090000020A00000208C000020A1
:103F6000940000200000F0C10000F041002410E0A7
:103F70004FF0FF310748006802F0B5FB044644B932
:103F80000549086B01F090FA034A918E106BFCF71B
:103F90007EF9EDE70C000020E0B20020024600218F
:103FA0000EE0C1EBC10002EB400007A31B880380B9
:103FB0000020C1EBC10302EB43039881481CC1B24E
:103FC0001029EEDB0120704720000000002411E0E2
:103FD0004FF0FF310848006802F085FB04464CB9F9
:103FE0000648C16A06A001F0B7FF044A918ED06A64
:103FF000FCF74DF9ECE7000008000020A8B2002013
:10400000CAD5B5BDCAFDBEDD3A25730A0000000061
:104010000146114A12884A434FF0E0235A610022B8
:104020009A611A46126942F001021A6100BF4FF00C
:10403000E022106900F001021AB100F48032002A77
:10404000F5D04FF0E022126922F001024FF0E02398
:104050001A6100229A617047240300201CB50024D5
:1040600012E34FF0FF3201A9F848006802F0B3F8FC
:104070000446002CF4D10198422871D2DFE800F008
:10408000702157275D6061712A958F927F8070A89B
:10409000AB9899AEC2C3FDFCFBFAF92DF8F7F630E8
:1040A000F5F4F3F2F1F0EFEEEDECEB39704833EAB2
:1040B000E9E8E7E6E5E4E3E2E1E0DFDE36DDDCDB8C
:1040C000DAD903F095FFE2A001F046FFDBE2FFF74B
:1040D000F3FAD8E2FCF7B0FED5E203F061FFD2E2DA
:1040E000FEF728FDCFE2FDF791F8CCE2FDF7B0FC3A
:1040F000C9E200200090E0480378E0A20621E148F0
:1041000004F0FEF910220121DE4803F0CDF9BAE2F5
:1041100000200090DC480378DCA20721D94804F095
:10412000EFF910220121D74803F0BEF9ABE200F00D
:1041300081FBD8A001F010FFA5E200F07BFBA2E21A
:1041400000BF00200090DD480378DDA20021CD48AB
:1041500004F0D6F90C220121CA4803F0A5F992E235
:104160008CE201200023D7A201460090C54804F04C
:10417000C7F90C220121C34803F096F983E200BF7E
:1041800000200090D0480378D0A20021BD4804F060
:10419000B7F910220121BB4803F086F973E2FCF75E
:1041A00081FE70E2FCF7B4FE6DE200F043FB6AE2D0
:1041B00000BF00200090C7480378C7A20021B14883
:1041C00004F09EF910220121AE4803F06DF95AE285
:1041D000FCF79EFE57E200F02DFB54E20120002385
:1041E000BFA203210090A74804F08AF91022012100
:1041F000A44803F059F94FF47A7002F031FD00F051
:1042000019FB40E200BFB7490968C869B649FCF725
:10421000AAF80646FCF7E4FA85B200202B46B3A2C2
:1042200001460090974804F06BF9AE490968086DA3
:1042300024E0FEE1FCE11EE2F7E109E20CE20AE221
:10424000BBE1B9E1E2E1D2E18AE188E19DE19BE1F4
:10425000CAE1AEE180E1F5E09BE099E0EFE0EBE060
:10426000E7E0BCE0BAE083E083E080E07CE06CE083
:104270006AE054E03BE039E020E01EE0FCF7B0FAF1
:1042800085B200202B469AA2062100907D4804F0BA
:1042900037F999490968086DFCF7A2FA85B2002040
:1042A0002B4696A207210090764804F029F91022A7
:1042B0000121744803F0F8F8E5E100BF8949096875
:1042C000086A8949FCF74FF80646FCF789FA85B277
:1042D00000202B468BA2012100906A4804F010F9BF
:1042E00010220121674803F0DFF8CCE100BF7D49CF
:1042F0000968486A7C49FCF736F80646FCF770FA0C
:1043000085B200202B4680A2022100905D4804F077
:10431000F7F8102201215B4803F0C6F8B3E1002052
:1043200000907A48007800EB4000794901EB4000AA
:10433000037978A20421534804F0E2F81022012105
:10434000504803F0B1F89EE100BF00200090734890
:10435000038873A200214B4804F0D2F810220121F7
:10436000484803F0A1F88EE100F064FA8BE100BF49
:1043700000BF002000906B4803886BA200214148D9
:1043800004F0BEF8102201213E4803F08DF87AE1D6
:1043900000BF3D48007801280DD1644903C9FCF7EE
:1043A00033FA85B200202B4661A2042100903548E3
:1043B00004F0A6F80CE0604903C9FCF725FA85B2C1
:1043C00000202B465DA2042100902E4804F098F8AE
:1043D000102201212B4803F067F854E100BF0021AF
:1043E00058480068FCF762FA0DD856480068FCF798
:1043F000F7F985B201202B4653A2014600902148CF
:1044000004F07EF80FE04F48006880F00046304628
:10441000FCF7E6F985B201202B464DA2014600903B
:10442000184804F06DF810220121164803F03CF8FA
:1044300029E100F0FFF926E1FEF75CFD23E1FEF73C
:1044400079FB20E1FDF7CAFC1DE10000000000201F
:104450007468726561645F646973706C6179A3BA32
:104460007461736B31BDE7C3E6B8FCD0C2B3C9B9A0
:10447000A6A3A10A00000000290000204154737780
:104480000000000018B300209B0000205241737709
:10449000000000007468726561645F646973706C29
:1044A0006179A3BABBD8B5BD6D61696EBDE7C3E6DE
:1044B000B8FCD0C2B3C9B9A6A3A10A002800002045
:1044C000706964006F6B00004200002073657441E6
:1044D00000000000430000207365744200000000EB
:1044E0006F6B210034000020000020414B70000061
:1044F00064756F31000000003800002064756F3271
:10450000000000004B6900004B64000044000020E4
:1045100020A500206E6F7774000000001C000020B2
:1045200050776D0060000020646973007000002007
:10453000625F72610000000078000020735F7261AA
:1045400000000000640000202B616E670000000086
:104550002D616E670000000000F06CF993E000BF71
:104560004A480068FCF73CF985B200202B46AFF2C0
:104570006C0203210090464803F0C2FF1022012183
:10458000434802F091FF7EE000BF42480068FCF71C
:1045900027F985B200202B46AFF2B002022100902D
:1045A0003B4803F0ADFF10220121394802F07CFFA7
:1045B00069E0FCF7ADFD66E000BF374937480068A9
:1045C000FBF7D1FE0646FCF70BF985B200202B461F
:1045D00033A2042100902E4803F092FF1022012103
:1045E0002B4802F061FF4EE0FCF710FE4BE000208C
:1045F00000902D4803782DA20321254803F080FF69
:1046000010220121224802F04FFF3CE000200090E0
:104610002848038828A204211D4803F071FF1022B6
:1046200001211B4802F040FF2DE0FDF7D1F92AE0FF
:1046300000BF002000902248037822A202211448E3
:1046400003F05EFF10220121114802F02DFF1AE055
:1046500000F0F0F817E000BF002000901B4803783E
:104660001BA204210A4803F04BFF10220121084835
:1046700002F01AFF07E0FDF7EBF904E016A001993C
:1046800001F06AFC00BF00BFEBE4000090000020D6
:1046900018B300208C00002000007A44880000201D
:1046A0006465616400000000680000207265637842
:1046B00000000000600000207761766500000000C7
:1046C0009900002061647661000000009A000020DB
:1046D00074696D65000000007468726561645F64F0
:1046E0006973706C6179A3BACFD4CABEB8FCD0C26A
:1046F000B4EDCEF3A3ACB4EDCEF3616374696F6E29
:104700003A25640A0000000008B54FF4A060FDF7E8
:1047100059FF36208DF8000000208DF801008DF83B
:10472000020001208DF803006846FDF713FF08BD65
:1047300008B5002416E04FF0FF3269460A480068C9
:1047400001F049FD044654B908A0009901F004FCA9
:104750000098C1B20F48007802F0C2FF02E00EA03C
:1047600001F0FAFBE7E70000580100207468726569
:1047700061645F6B657968616E646C65A3BACAD564
:10478000B5BDB0B4BCFC3A25642CBFAACABCB4A663
:10479000C0ED0A001E0000207468726561645F6BE2
:1047A000657968616E646C65A3BAB0B4BCFCBDD3B6
:1047B000CAD5CAA7B0DCA3A10A00000070B505469F
:1047C0000B48006898B90020FDF736FE08490860DC
:1047D0000846006858B1084601680648006801F0BC
:1047E00074FD044614B904A001F0B6FB00BF70BD0F
:1047F000500100205801002074696D65725F6B657F
:10480000797363616EA3BAB0B4BCFCB7A2CBCDB36D
:10481000C9B9A6A3A10A000010B500F085F800F000
:1048200057FD00F03FFA00F0B9F900F05BFC002002
:1048300010BD000008B52648FFF7B0FBFDF7CCFE21
:104840000120034623A200210090214803F058FED6
:104850000120022321A2014600901D4803F050FED2
:10486000012003231FA202210090194803F048FEF3
:10487000012004231DA203210090154803F040FEEF
:10488000012005231AA204210090114803F038FEEC
:104890000120062318A2052100900D4803F030FEE8
:1048A000012000901648037816A20621084803F05C
:1048B00027FE012000901548037815A2072104481F
:1048C00003F01EFE10220121014802F0EDFD08BD9B
:1048D00018B300206D61696E000000007465737488
:1048E0000000000067756E310000000070776D00F9
:1048F00067756E320000000067756E3300000000BF
:104900002900002041547377000000009B00002024
:10491000524173770000000010B5044601F028F8FA
:10492000FFF77AFF10BD000010B50022114634A039
:1049300001F094FE364908600846006810B135A0C1
:1049400001F00AFB002211463AA001F087FE3D4922
:1049500008600846006810B13BA001F0FDFA002293
:10496000114641A001F07AFE4249086008460068FD
:1049700010B141A001F0F0FA0022114646A001F06A
:104980006DFE4A4908600846006810B148A001F071
:10499000E3FA0022114650A001F060FE544908607D
:1049A0000846006810B153A001F0D6FA0022052194
:1049B0005AA001F0E7FB5B4908600846006810B1A7
:1049C00059A001F0C9FA002205215EA001F0DAFB2E
:1049D0005F4908600846006810B15EA001F0BCFAAB
:1049E0000022052162A001F0CDFB64490860084661
:1049F000006810B162A001F0AFFA002010BD000005
:104A000073656D5F64656275675F756172740000E0
:104A10000800002064656275675F75617274D0C5B7
:104A2000BAC5C1BFB4B4BDA8B3C9B9A6A3A10A0A87
:104A30000000000073656D5F63616D6572615F7595
:104A4000617274000C00002063616D6572615F75B6
:104A5000617274D0C5BAC5C1BFB4B4BDA8B3C9B979
:104A6000A6A3A10A0A00000073656D5F656C656707
:104A7000756E00005400002073656D5F656C65679E
:104A8000756ED0C5BAC5C1BFB4B4BDA8B3C9B9A607
:104A9000A3A10A0A0000000073656D5F656C65677D
:104AA000756E5F6175746F666972650058000020ED
:104AB00073656D5F656C6567756E5F6175746F6654
:104AC000697265D0C5BAC5C1BFB4B4BDA8B3C9B910
:104AD000A6A3A10A0A00000073656D5F656C656797
:104AE000756E5F7368616B656669726500000000D2
:104AF0005C00002073656D5F656C6567756E5F7344
:104B000068616B6566697265D0C5BAC5C1BFB4B46A
:104B1000BDA8B3C9B9A6A3A10A0A00006D625F6B64
:104B20006579000058010020B0B4BCFCB4A6C0ED0B
:104B3000D3CACFE4B4B4BDA8B3C9B9A6A3A10A0A25
:104B4000000000006D625F646973706C6179000041
:104B5000000000206F6C6564CFD4CABED3CACFE416
:104B6000B4B4BDA8B3C9B9A6A3A10A0A0000000045
:104B70006D625F6374726C417432340024000020F3
:104B80006374726C41743234D3CACFE4B4B4BDA838
:104B9000B3C9B9A6A3A10A0A0000000010B54FF0DE
:104BA0007E5200214FF0804000F002FD2049086055
:104BB0000846006818B11FA001F0CEF902E023A05A
:104BC00001F0CAF94FF07E5200214FF0804000F012
:104BD000EFFC244908600846006818B122A001F0E3
:104BE000BBF902E026A001F0B7F92B48104909688B
:104BF000C8622A480E490968886229480C49096830
:104C0000086301200A490968088123481549096891
:104C1000C862224813490968886221481149096815
:104C2000086301200F4909680881002010BD0000B9
:104C300034000020B4B4BDA85049445F7374656566
:104C40007231B3C9B9A6A3A10A0A0000B4B4BDA8C1
:104C50005049445F737465657231CAA7B0DCA3A183
:104C60000A0A000038000020B4B4BDA85049445FCF
:104C7000737465657232B3C9B9A6A3A10A0A0000AC
:104C8000B4B4BDA85049445F737465657232CAA755
:104C9000B0DCA3A10A0A00000000F0410000F0C14E
:104CA000000048421CB5142006214FF40073002276
:104CB000CDE90010584959A001F0FCFE5C4908609C
:104CC0000846006818B15BA001F046F902E061A057
:104CD00001F042F9142003214FF400730022CDE9C2
:104CE0000010644964A001F0E5FE684908600846C8
:104CF000006818B166A001F02FF902E06CA001F085
:104D00002BF9142002210B020022CDE9001070497A
:104D100070A001F0CFFE724908600846006818B123
:104D200070A001F019F902E075A001F015F9142046
:104D300008218B010022CDE90010784978A001F00C
:104D4000B9FE7B4908600846006818B179A001F0F7
:104D500003F902E07DA001F0FFF814200A214FF4CE
:104D600000730022CDE900107E497FA001F0A2FE71
:104D70007F4908600846006818B17EA001F0ECF891
:104D800002E083A001F0E8F8142009214FF4007339
:104D90000022CDE90010854985A001F08BFE8849ED
:104DA00008600846006818B186A001F0D5F802E056
:104DB0008CA001F0D1F814200C214FF400730022D4
:104DC000CDE900108F4990A001F074FE944908606D
:104DD0000846006818B193A001F0BEF802E09BA05D
:104DE00001F0BAF814200B214FF400730022CDE932
:104DF0000010A049A0A001F05DFEA549086008468A
:104E0000006818B1A3A001F0A7F802E0ABA001F080
:104E1000A3F800201CBD0000CD3F0008646562754A
:104E2000675F7561727468616E646C650000000094
:104E30001000002064656275675F75617274B4A6C6
:104E4000C0EDCFDFB3CCB4B4BDA8B3C9B9A6A3A19C
:104E50000A0A000064656275675F75617274B4A6C2
:104E6000C0EDCFDFB3CCB4B4BDA8CAA7B0DCA3A15A
:104E70000A0A00006D3F000863616D6572615F752D
:104E800061727468616E646C65000000140000203B
:104E900063616D6572615F75617274B4A6C0EDCFB8
:104EA000DFB3CCB4B4BDA8B3C9B9A6A3A10A0A00A4
:104EB00063616D6572615F75617274B4A6C0EDCF98
:104EC000DFB3CCB4B4BDA8CAA7B0DCA3A10A0A0062
:104ED000314700086B657968616E646C650000009D
:104EE00018000020B0B4BCFCB4A6C0EDCFDFB3CC3A
:104EF000B4B4BDA8B3C9B9A6A3A10A0A00000000B2
:104F0000B0B4BCFCB4A6C0EDCFDFB3CCB4B4BDA884
:104F1000CAA7B0DCA3A10A0A000000008D80000827
:104F20007461736B72656164415432340000000037
:104F30002000002041543234CFDFB3CCB4B4BDA83C
:104F4000B3C9B9A6A3A10A0A000000004154323433
:104F5000CFDFB3CCB4B4BDA8CAA7B0DCA3A10A0A02
:104F6000000000005D400008646973706C617900A6
:104F700004000020CFD4CABECBA2D0C2CFDFB3CCB6
:104F8000B4B4BDA8B3C9B9A6A3A10A0A0000000021
:104F9000CFD4CABECBA2D0C2CFDFB3CCB4B4BDA8ED
:104FA000CAA7B0DCA3A10A0A00000000311700085C
:104FB000456C6567756E5F746872656164000000BA
:104FC00048000020456C6567756E5F7468726561A6
:104FD00064CFDFB3CCB4B4BDA8B3C9B9A6A3A10A4A
:104FE0000A000000456C6567756E5F7468726561E4
:104FF00064CFDFB3CCB4B4BDA8CAA7B0DCA3A10A08
:105000000A00000061130008456C6567756E5F61FA
:1050100075746F666972655F7468726561640000BB
:105020004C000020456C6567756E5F6175746F6636
:105030006972655F746872656164CFDFB3CCB4B4C4
:10504000BDA8B3C9B9A6A3A10A0A0000456C65674B
:10505000756E5F6175746F666972655F746872659D
:105060006164CFDFB3CCB4B4BDA8CAA7B0DCA3A140
:105070000A0A0000191B0008456C6567756E5F73AE
:1050800068616B65666972655F746872656164000A
:1050900050000020456C6567756E5F7368616B65D5
:1050A000666972655F746872656164CFDFB3CCB4A2
:1050B000B4BDA8B3C9B9A6A3A10A0A00456C656727
:1050C000756E5F7368616B65666972655F7468723F
:1050D000656164CFDFB3CCB4B4BDA8CAA7B0DCA30C
:1050E000A10A0A0010B53948006838B1374800688D
:1050F00001F006FE36A000F02FFF02E04FF0FF3077
:1051000010BD3A48006838B13848006801F0F8FD31
:1051100037A000F021FF02E04FF0FF30F0E73B48FE
:10512000006838B13948006801F0EAFD38A000F0A5
:1051300013FF02E04FF0FF30E2E73C48006838B16F
:105140003A48006801F0DCFD39A000F005FF02E0FC
:105150004FF0FF30D4E73C48006838B13A48006867
:1051600001F0CEFD39A000F0F7FE02E04FF0FF3075
:10517000C6E73C48006838B13A48006801F0C0FD15
:1051800039A000F0E9FE02E04FF0FF30B8E73E48FA
:10519000006838B13C48006801F0B2FD3BA000F067
:1051A000DBFE02E04FF0FF30AAE74048006838B16C
:1051B0003E48006801F0A4FD3DA000F0CDFE02E0F5
:1051C0004FF0FF309CE700209AE70000100000201D
:1051D00064656275675F75617274CFDFB3CCBFAA17
:1051E000CABCB5F7B6C8A3A10A0A00001400002083
:1051F00063616D6572615F75617274CFDFB3CCBF3F
:10520000AACABCB5F7B6C8A3A10A0A0018000020B4
:10521000B0B4BCFCB4A6C0EDCFDFB3CCBFAACABC4F
:10522000B5F7B6C8A3A10A0A0000000004000020D8
:10523000CFD4CABECFDFB3CCBFAACABCB5F7B6C8FD
:10524000A3A10A0A000000002000002041543234CB
:10525000CFDFB3CCBFAACABCB5F7B6C8A3A10A0AB0
:105260000000000048000020B5E7B4C5C5DABBF96E
:10527000B4A1B2BFB7D6CFDFB3CCBFAACABCB5F713
:10528000B6C8A3A10A0A00004C000020B5E7B4C5C7
:10529000C5DAB7A2BBD3B2BFB7D631CFDFB3CCBF6D
:1052A000AACABCB5F7B6C8A3A10A0A0050000020DC
:1052B000B5E7B4C5C5DAB7A2BBD3B2BFB7D632CF54
:1052C000DFB3CCBFAACABCB5F7B6C8A3A10A0A000F
:1052D00008B50620322300220949009009A001F0F8
:1052E00033FE0C4908600846006830B10846006883
:1052F00001F07AFE08A000F02FFE002008BD00009B
:10530000BD47000874696D65725F6B657973636191
:105310006E00000054010020B0B4BCFCC9A8C3E872
:10532000B6A8CAB1C6F7C6F4B6AFB3C9B9A6A3A1A9
:105330000A0A00000FB400B58FB001211798FDF7DD
:10534000B7FC1198B0F5804F04D101211198FDF7F9
:10535000AFFC03E001211198FDF78AFCBDF858006D
:10536000ADF8380018208DF83B0003208DF83A0086
:105370000EA91598FCF76EFDBDF85000ADF8380089
:1053800004208DF83B000EA91398FCF763FD1898D4
:105390000A900020ADF82C00ADF82E00ADF83000DA
:1053A000ADF834000C20ADF832000AA91098FEF7D1
:1053B00059FA282214A96846FAF750FF10A80FC816
:1053C00002F0FEFF012240F224411098FEF724FA79
:1053D000012240211098FEF7DFF901211098FEF715
:1053E000CFF90FB05DF814FB0FB400B58BB00121FD
:1053F0000846FDF72DFC1698009018490C98884235
:1054000002D11898019001E01798019000200290B5
:10541000BDF86400039000200490802005900020D7
:1054200006900790202008904FF4405009900020EB
:105430000A9069461598FBF74CFE4FF48030FBF755
:1054400025FE012208211598FBF73AFE0121159847
:10545000FBF72AFE0BB05DF814FB0000004400408F
:105460000FB410B5109C00210B98FBF71DFE4FF4F4
:105470008030FBF70BFEBDF83C000B994860012122
:105480000B98FBF711FE204601F010F910BC5DF8F7
:1054900014FB10B50246012000E050430B1EA1F1A1
:1054A0000104E1B2F9D110BD10B504462078AA2854
:1054B00033D16078552830D1E07854282DD1A078A8
:1054C0001649087036211648006800F0FEFE15489F
:1054D0000078022821D114480078C0F1A0000F49BB
:1054E0000978884219DC114908680021FEF748F95B
:1054F00001200F4908600F49C1F8A4014FF448701A
:1055000001F0AEFB00200A49086009490831086033
:105510002A210348006800F0D8FE10BD6800002072
:10552000000000209800002099000020E0B2002038
:105530009C0122420000224230B51A4C4368246884
:105540001919884215D04B889BB9174B1B68994293
:105550000FD0164B1B688B4201D1144B18604B685F
:105560004360104B1B68C31A0E4D4C682D682C44C9
:10557000A3600C4C836824681A19824211D05388A6
:105580007BB90A4B1B68834201D1084B1A60436800
:105590005360044B1B68D31A024D44682D682C4499
:1055A000A36030BDAC000020B0000020B40000209B
:1055B0002DE9F04105460E4617465820FEF73CFC03
:1055C000044614B90020BDE8F081E56126626762F7
:1055D0000A48E0620A48A0620020206320646063F9
:1055E000A063E0636064A064E0640648606106480C
:1055F000A061064820612046E5E7000000007A44EB
:1056000000007AC41F5600081156000831560008E1
:1056100010B50446204600F0E7F9002010BD10B593
:10562000044658220021204600F0D3FE002010BD81
:105630002DE9F04105460E462C4601F00DFC616D4A
:10564000471A208901F0F8FB874202D20720BDE803
:10565000F08101F001FC606531462068FAF77DFEBB
:105660006064D4E91001FAF726FE2064216B206CF7
:10567000FBF71CF902D2206B20640BE0206B80F05A
:1056800000473846216CFBF711F903D2206B80F0FC
:1056900000402064616CE069FAF765FE6063216C8C
:1056A000206AFAF760FEA063D4E91101FAF755FE0B
:1056B0000746616AFAF757FEE063D4E90D01FAF78D
:1056C000FAFD0746E16BFAF7F6FDE064E06C206551
:1056D000E16AE06CFBF7EAF801D2E06AE064A16AF3
:1056E000E06CFBF7D9F801D2A06AE064606CA064BA
:1056F000E06C60600020AAE72DE9F04F86B00D460F
:105700009C46DDE9106401960F9B04F04008B8F157
:10571000000F02D0DFF8708101E0DFF87081CDF872
:10572000008004F01008B8F1000F01D024F001044B
:1057300004F00108B8F1000F02D04FF0300801E08A
:105740004FF02008C246002704F00208B8F1000F0D
:1057500011D0002A02DA2D2752420CE004F004088E
:10576000B8F1000F01D02B2705E004F00808B8F1CC
:10577000000F00D02027002142B94FF0300B88469F
:10578000491C0DF1080909F808B01DE01AE0E146CE
:10579000B9F10A0F08D14FF00A0BB2FBFBFE0BFB6D
:1057A0001E28B2FBFBF202E002F00F08120900BF54
:1057B000DDF8009019F808B08846491C0DF1080979
:1057C00009F808B0002AE2D1B14200DD0E469B1B69
:1057D00004F01108B8F1000F10D117B1002B00DD53
:1057E0005B1E06E0A84203D84FF0200880F8008036
:1057F000401CB3F10008A3F10103F3DC27B1A84278
:1058000001D807705B1E401C04F01008B8F1000FAF
:105810000AD104E0A84201D880F800A0401CB3F1EE
:105820000008A3F10103F5DC06E0A84203D84FF01D
:10583000300880F80080401CB046761E8845F4DCB5
:1058400008E0A84205D80DF1080818F8018080F892
:105850000080401CB1F10008A1F1010104DDDDF878
:105860000480B8F1000FECD106E0A84203D84FF055
:10587000200880F80080401CB3F10008A3F1010368
:10588000F3DC06B0BDE8F08F4586000834860008DA
:105890002DE9FC5F82468B46BAF81800FAF77AFFCA
:1058A00004460D465846FAF775FF06461C4A1D4B3E
:1058B000FAF770FE804622462B46FAF76BFECDE9DA
:1058C0000001FAF7A1FFAAF81600BAF8140030B1E7
:1058D00004280BD0082810D00C281CD114E0BAF8EA
:1058E0001610DAF80C00FDF78AFE15E0BAF816106B
:1058F000DAF80C00FDF785FE0EE0BAF81610DAF8BB
:105900000C00FDF780FE07E0BAF81610DAF80C007C
:10591000FDF77BFE00E000BF00BFBDE8FC9F00007C
:105920002D431CEBE2361A3F1CB5142001214B021B
:105930000022CDE90010044904A001F0BBF80446A0
:10594000204601F0DDF91CBD194900086D61696E42
:105950000000000010B5044C02E020688047241DC0
:1059600002488442F9D310BDC48E0008C88E0008D6
:1059700010B5044C02E020688047241D0248844290
:10598000F9D310BDC88E0008CC8E000810B5FAF708
:10599000D9FB044604480088401C00B20249088034
:1059A0002046FAF7D3FB10BD1401002010B5FAF71A
:1059B000C9FB04460B480088401E00B20949088014
:1059C0000846B0F90000002807DC002008802046C7
:1059D000FAF7BCFB00F0A8FD02E02046FAF7B6FBA0
:1059E00010BD00001401002070B5054605B970BD5A
:1059F0001D480068854203D31C480068854200D3D7
:105A0000F5E7A5F10C044FF0FF31194800F06BFEEB
:105A1000608818B12088B0F5F55F08D015A000F0B7
:105A20009BFA23886288214619A000F095FA00208D
:105A300060804FF4F550208021480068844201D2F4
:105A40001F480460084960680968611A401A1D49C6
:105A50000968081A1B4908602046FFF76DFD0448D5
:105A600000F024FE00BFC2E7AC000020B000002020
:105A700038A70020746F206672656520612062611E
:105A800064206461746120626C6F636B3A0A000089
:105A90006D656D3A203078253038782C2075736527
:105AA0006420666C61673A2025642C206D6167690B
:105AB0006320636F64653A203078253034780A00BB
:105AC000B4000020BC0000200048704754030020B0
:105AD0000048704754A3002070B54820FDF760FAD5
