:020000040800F2
:1000000008B800203902000829180008EB01000890
:1000100025180008AD0D0008A32B00080000000003
:100020000000000000000000000000005D2000084B
:100030007B0E00080000000073010008E5210008A5
:10004000530200085302000853020008530200083C
:10005000530200085302000853020008530200082C
:10006000530200085302000853020008530200081C
:10007000530200085302000853020008530200080C
:1000800053020008530200085302000853020008FC
:1000900053020008530200085302000853020008EC
:1000A00053020008530200085302000853020008DC
:1000B000912200085302000853020008530200086E
:1000C00053020008530200085302000853020008BC
:1000D00053020008452900088D2900085302000832
:1000E000530200085302000853020008530200089C
:1000F000530200085302000853020008530200088C
:10010000530200085302000853020008530200087B
:100110005302000853020008152300085302000888
:10012000530200085302000853020008530200085B
:10013000DFF80CD000F0A0FC00480047950B000849
:1001400008B80020EFF3108072B6704780F3108873
:100150007047334A1368012B04D04FF0010313603A
:10016000304A1060304A116030484FF080510160D1
:100170007047EFF3108272B62948016891B14FF0D1
:10018000000101602748016829B1EFF3098121E9E5
:10019000F00F00680160244909680968B1E8F00FB0
:1001A00081F3098882F310884EF0040E70471E49CF
:1001B00008601C494FF00000086019494FF0010029
:1001C00008601B484FF47F01D0F8002041EA02018B
:1001D000016016484FF080510160164800680068C1
:1001E00080F3088861B662B670471EF0040F0CBF3A
:1001F000EFF30880EFF3098020E9F00F40F804EDF9
:100200001EF0040F0CBF80F3088880F3098800B546
:1002100004F0D6FB5DF804EB4EF0040E70470000CE
:1002200020010020180100201C01002004ED00E046
:1002300020ED00E008ED00E0064880470648004752
:10024000FEE7FEE7FEE7FEE7FEE7FEE7FEE7FEE786
:10025000FEE7FEE7312200083101000840EA010311
:100260009B0703D009E008C9121F08C0042AFAD26C
:1002700003E011F8013B00F8013B521EF9D2704730
:10028000D2B201E000F8012B491EFBD270470022D8
:10029000F6E710B513460A4604461946FFF7F0FF85
:1002A000204610BD034611F8012B00F8012B002A4F
:1002B000F9D118467047F0B480EA0102D40F420029
:1002C000B2EB410F02D20246084611464A0042D024
:1002D000C30DDDB2C1F3C752AD1A202D35DAC1F31B
:1002E000160141F4000204B15242C5F1200602FA9F
:1002F00006F12A411044B3EBD05F23D0C4B1012DE5
:10030000A0EBC35009DCF0BC4FF0004202EAC3523C
:10031000DBB200F5000000F00DBB400000F1807082
:1003200000EBC350A0F1807040EAD170490009E0B1
:10033000490841EAC071A0EBC35000F50000400835
:1003400000EBC350F0BC00F0ECBA6142012202EBBA
:100350004101001BF6E7F0BC704781F00041AAE7BD
:1003600080F00040A7E780EA010210B502F00043E8
:10037000400022D04A001FD0010E01EB1261C0F3F1
:100380005600C2F3560240F4000042F40002A0FB03
:10039000022000047F39140400D0401C50EA1240AF
:1003A00001D44000491EC2B20C0604EBD010401C20
:1003B0004008802A02D003E0002010BD20F0010098
:1003C000002900DA0020184310BD30B480EA010291
:1003D00002F0004530F0004221F0004013D090B10F
:1003E000C30DD40DC2F31601C0F31600E41A41F494
:1003F000000140F400027D34914201D3641C00E00E
:100400004900002C02DA30BC002070474FF4000095
:100410000023914201D3891A034340084FEA410166
:10042000F7D151B1914202D14FF0004105E002D223
:100430004FF0010101E06FF0010103EBC4502844CB
:1004400030BC00F06EBA2DE9FE4F804681EA030011
:10045000C00F0C46009021F0004123F00045B8EB9E
:100460000200A94105D24046214690461C460B4653
:10047000024623F00040104347D0270DC7F30A007F
:10048000C3F30A510290401A019040286BDAC3F37B
:10049000130040F4801B0098924620B10023D2EB59
:1004A000030A63EB0B0B01985946C0F1400250461A
:1004B00000F006FA06460D4650465946019A00F0ED
:1004C0001EFA10EB08006141002487EA115284EA09
:1004D000E7731A4340D0009A62B3019A012A4FEAA7
:1004E000075215DC001B61EB02014FF0004202EAEB
:1004F0000752CDE90042001C41F5801132462B46DF
:1005000000F055FA03B0BDE8F08F40462146F9E708
:10051000001B61EB0201001C41F5801300185B41D8
:100520002018A2F5001747EB030140EAD570B61971
:100530006D4111E06D084FEA360645EAC0754FEA95
:100540000752001B61EB0201001C41F580114908B4
:100550004FEA30000019514132462B4603B0BDE846
:10056000F04F00F015BA0098012240000023D0EBB4
:10057000020263EBE073009821464FEAE074B8EBA7
:10058000000061EB0401E9E783F000435BE781F0E1
:10059000004158E72DE9FE4F81EA030404F00044CE
:1005A00021F0004100944FF0000B23F0004350EA8B
:1005B00001045ED052EA03045BD0C3F30A54C1F3D2
:1005C0000A552C44A4F2F3340194A0FB0254C1F365
:1005D000130141F48011C3F3130343F4801301FBAF
:1005E000024400FB034E840A970A44EA815447EA16
:1005F0008357A4FB076802958D0A05FB07854FEA20
:10060000932C04FB0C542705029D4FEA065847EA39
:100610001637B5EB08056EEB070C870E920E47EA0E
:10062000811742EA8312A7FB0201B6EB0B0164EBD0
:1006300000042B0D43EA0C335E1844EB1C50DA46E1
:100640005146E7FB0201C5F313044FEA0B3343EABB
:1006500014534FEA0432019C43EA0603A4F10C044C
:100660000294009CCDE900B400F0A1F903B0BDE80C
:10067000F08F00200146F9E72DE9F04D81EA0304EF
:1006800004F0004B21F0004514464FF0000A23F01F
:10069000004150EA050220D054EA01021DD0C5F302
:1006A0000A570246C5F31303C1F31300C1F30A56F8
:1006B00040F4801543F48013A7EB0608101BD646C0
:1006C00008F2FD3873EB050002D308F1010801E0E0
:1006D00092185B41B8F1000F03DA00200146BDE833
:1006E000F08D00204FF48011064684460EE0171B63
:1006F00073EB050705D3121B63EB050306434CEAB6
:10070000010C49084FEA300092185B4150EA01079A
:10071000EDD152EA030012D082EA040083EA050117
:10072000084305D0101BAB4106D20122002306E08E
:1007300000224FF0004302E06FF0010253101AEB69
:1007400006004CEB085110EB0A0041EB0B01BDE831
:10075000F04D00F01DB9C10F80EAE0700844CA07EF
:100760009623002100F0E6B896230022114600F0FF
:10077000E1B80EB5C10F80EAE0700844CA07002155
:1007800040F233438DE80E000A460B4600F00FF9A5
:1007900003B000BD0EB540F2334102910021CDE916
:1007A00000110A460B4600F002F903B000BD00F04C
:1007B000004220F00040C10DC0F3160040F40000DC
:1007C0007F2901DA00207047962903DCC1F19601E8
:1007D000C84001E096398840002AF4D04042704772
:1007E00020F00040C10DC0F3160040F400007F2946
:1007F00001DA00207047962903DCC1F19601C84058
:100800007047963988407047C1F30A5210B5C1F35A
:10081000130140F2FF3341F480119A4201DA0020C3
:1008200010BD40F233439A42A2F2334203DC5242FB
:1008300000F055F810BD904010BD00F0004230F0BF
:1008400000400AD0C10D01F56071C0F3160042EA04
:100850000151C2084007114370470020014670470C
:1008600001F0004330B421F0004150EA010206D00B
:100870000A0DA2F56072C1F31301002A02DC30BC3C
:1008800000207047440F44EAC104C100E01830BCA6
:1008900000EBC25000F045B8002801DBC0F1004079
:1008A000002901DBC1F1004181427047002801DBD2
:1008B000C0F10040002901DBC1F1004188427047CE
:1008C000202A04DB203A00FA02F100207047914010
:1008D000C2F1200320FA03F3194390407047202A05
:1008E00004DB203A21FA02F00021704721FA02F3DA
:1008F000D040C2F120029140084319467047202A97
:1009000006DBCB17203A41FA02F043EAE07306E037
:1009100041FA02F3D040C2F1200291400843194647
:1009200070470029A8BF7047401C490008BF20F04D
:100930000100704710B4B0FA80FC00FA0CF050EAE5
:10094000010404BF10BC704749B1CCF1200421FA66
:1009500004F411FA0CF118BF012121430843A3EB61
:100960000C01CB1D4FEA00614FEA102042BF00206E
:1009700010BC704700EBC35010440029A4BF10BC4A
:100980007047401C490008BF20F0010010BC7047B0
:1009900010B5141E73F1000408DA401C41F1000187
:1009A00092185B411A4301D120F0010010BD2DE9DE
:1009B000F04D92469B4611B1B1FA81F202E0B0FAD5
:1009C00080F220329046FFF77BFF04460F4640EA54
:1009D0000A0041EA0B0153465A46084313D0114618
:1009E00053EA010019D0C8F140025046FFF777FFE3
:1009F00005460E46504659464246FFF761FF0843FA
:100A000005D0012004E020463946BDE8F08D0020E5
:100A1000054346EAE0762C4337430A986305E40A27
:100A2000A0EB08000022FD0A44EA47540A3002D530
:100A300000200146E9E7010510196941DDE9084593
:100A400000196941BDE8F04DA2E770B521F00043FF
:100A500003430CD0C1F30A550024D5EB040564EB25
:100A60000403D617AD1AB34102DB0020014670BD66
:100A7000201841EB025170BD064C074D06E0E068BE
:100A800040F0010394E8070098471034AC42F6D3D5
:100A9000FFF752FBB0790008D07900082DE9F04D3E
:100AA00000231A461B1A8A4103DB00200146BDE8D9
:100AB000F08DC1F30A52C1F3130141F480154FF0D8
:100AC000000BD10702D100186D41521E00270446C9
:100AD00040F2FF11384601EB620A3E46804602466C
:100AE00000204FF48011FFF7FAFEC2197141BB18C4
:100AF00046EB0100B4EB030C75EB000C04D3E41AD5
:100B000065EB000517460E46241908F101006D41FA
:100B100080463428E3DDF91946EB0600091BA8419D
:100B200003D24FF0FF32134601E0002213461BEBC5
:100B3000070046EB0A51BDE8F04DFFF729BF70B53D
:100B40008C1810F8015B15F0070301D110F8013B78
:100B50002A1106D110F8012B03E010F8016B01F8FF
:100B6000016B5B1EF9D12B0705D40023521E0DD457
:100B700001F8013BFAE710F8013BCB1A921C03E0A5
:100B800013F8015B01F8015B521EF9D5A142D8D3DD
:100B9000002070BD10B5FFF7D5FA05F045FB002029
:100BA00010BD000008B5124802F0FEFA00F080FE09
:100BB000012000900F4803780FA200210C4806F096
:100BC0000DFA012000230EA204210090084806F02F
:100BD00005FA012000230CA205210090044806F02C
:100BE000FDF910220121024805F034FB08BD000088
:100BF000F0B2002042000020736574410000000044
:100C00006E6578740000000065786974000000006B
:100C100008B5124802F0C8FA00F04AFE0120009020
:100C20000F4803780FA200210C4806F0D7F90120E5
:100C300000230EA204210090084806F0CFF90120FD
:100C400000230CA205210090044806F0C7F91022E9
:100C50000121024805F0FEFA08BD0000F0B20020B4
:100C60004300002073657442000000006E657874D4
:100C700000000000657869740000000038B53A484B
:100C800002F092FA00F014FE38490968C869384940
:100C9000FFF769FB0546FFF7A3FD84B20120234659
:100CA00034A200210090304806F098F92F490968D5
:100CB000086A2F49FFF757FB0546FFF791FD84B2FD
:100CC000012023462CA201460090274806F086F911
:100CD00026490968486A2649FFF745FB0546FFF79C
:100CE0007FFD84B20120234624A2022100901E48E9
:100CF00006F074F9012000902148007800EB4000D4
:100D0000204901EB400003791FA20421164806F098
:100D100065F9012000231EA205210090124806F06B
:100D20005DF912490968086DFFF75AFD84B2012088
:100D3000234619A2062100900B4806F04FF91849E6
:100D40000968086DFFF74CFD84B20120234615A207
:100D500007210090044806F041F9102201210248C1
:100D600005F078FA38BD0000F0B200203400002011
:100D7000000020414B7000004B6900004B640000F4
:100D800044000020F8A400206E6F7774000000007B
:100D9000657869740000000064756F310000000020
:100DA0003800002064756F320000000000BFFEE7CD
:100DB00008B50121102001F0C7F84FF40070ADF81C
:100DC000000010208DF8030003208DF80200694612
:100DD000044800F0EBFA4FF40071024800F071FB98
:100DE00008BD00000010014010B50021014801F0CD
:100DF000B7FA10BD0010004000F0805111B1034956
:100E0000086001E0024948607047000004040240A5
:100E10000000024021B1026842F00102026004E0D9
:100E200002684FF6FE731A40026070471AB10368F9
:100E30000B43036002E003688B430360704710B507
:100E40000022026847F6F0739A430C6A8B682343CA
:100E50000C6923434C6923438C692343CC692343A6
:100E60004C6A23438C6A23431A430260CB68436075
:100E70000B6883604B68C36010BD704738B51E486F
:100E800002F092F900F014FD012000231BA2194684
:100E90000090194806F0A2F80120002319A201468B
:100EA0000090154806F09AF818480068FFF798FC7B
:100EB00084B20120234616A2022100900E4806F0BB
:100EC0008DF8144903C9FFF79FFC84B20120234623
:100ED00011A205210090084806F080F801200423A3
:100EE0000FA207210090044806F078F81022012193
:100EF000014805F0AFF938BDF0B200206175746F9C
:100F000000000000666972650000000074000020A7
:100F10004B700000600000207261746500000000EA
:100F2000657869740000000086B00020049008E134
:100F30004FF0FF318348006804F0ABFA0490049846
:100F40000028F4D14FF4FA7004F060FD7E48007878
:100F5000FFF70AFC83467D49FFF737FA8246FFF721
:100F60006CFC804600227A4BFFF70EFB06460022FF
:100F70004FF08043FFF70EFB0446FFF771FC754905
:100F8000086051E070480078FFF7EEFB83466F4938
:100F9000FFF71BFA8246FFF750FC064600226C4B17
:100FA000FFF7F2FA044600224FF08043FFF7F2FA0F
:100FB0008046FFF755FC6749086002F0A3F86649D0
:100FC0000870084690F90000002815DA084690F9E4
:100FD0000000FFF7C0FB07466049FFF7C4F906466B
:100FE0005F49FFF7BDF90546FFF7FAFB84B22146DA
:100FF0005C4803F025FB14E0574890F90000FFF728
:10100000AAFB07465549FFF7AEF906465449FFF7D4
:10101000A7F90546FFF7E4FB84B22146514803F0E7
:101020000FFB232004F0F2FC00214A480068FFF780
:1010300033FCA7D14C490868002101F0CBFC00F03B
:101040005DFA824600F05AFA83465146FFF733F9BB
:101050008146FFF7C5FB84B22046FFF79BFB07469E
:1010600000223B4BFFF796FA0546FFF7CDFB3F49C1
:101070000880084600881E38088030213C480068F7
:1010800003F0F9FF39480088B0F5967F04DB4FF490
:1010900096703649088006E034480088C82802DC8B
:1010A000C82032490880314909884800FFF761FBB0
:1010B000064630480CC83046FFF7DEFACDE900019D
:1010C00001F0ACFE00224FF08043CDE90201FFF7B2
:1010D000D3FA04460022284BFFF75CFA8046274AE1
:1010E000274BFFF7C9FA8246FFF7BAFB254908608C
:1010F000084601682448FFF736F906462349FFF7FA
:10110000DAF80546FFF76CFB84B22146204803F06D
:1011100097FA4FF4966004F079FC01201D490860AD
:101120001D49C1F8A4014FF4487004F06FFC002081
:1011300018490860091D08602A210D48006803F05D
:101140009AFFF5E6540000205B0000200000A04359
:101150000000E03F6C0000205A0000208988A84071
:1011600000003A44ECB30020B8B200205800002040
:10117000000000206000002000806640A7E8482EA4
:10118000FF210940680000201111A14000403F44A8
:10119000D0B30020A00122420000224286B00020ED
:1011A000049087E04FF0FF314348006804F071F984
:1011B0000490049800287DD1404909884800FFF731
:1011C000D8FA80463E480CC84046FFF755FACDE9AC
:1011D000000101F023FE064600224FF08043FFF796
:1011E0004BFA04460022374BFFF7D4F9364A374B07
:1011F000CDE90201FFF740FA8246FFF731FB34499F
:101200000860084601683348FFF7ADF806463249E2
:10121000FFF751F80546FFF7E3FA84B221462F485D
:1012200003F00EFA2E4890F90000002815DA2C4839
:1012300090F90000FFF78FFA07462A49FFF793F865
:1012400006462949FFF78CF80546FFF7C9FA84B22C
:101250002146264803F0F4F914E0214890F90000F3
:10126000FFF779FA07461F49FFF77DF806461E4942
:10127000FFF776F80546FFF7B3FA84B221461B481C
:1012800003F0DEF94FF4966004F0C0FB012018492A
:1012900008601849C1F8A4014FF4487004F0B6FB87
:1012A000002013490860091D08602A2112480068BF
:1012B00003F0E1FE76E70000500000205800002017
:1012C0006000002000806640A7E8482EFF2109400A
:1012D000680000201111A14000403F44D0B300201D
:1012E0005A0000208988A84000003A44ECB300204E
:1012F000A0012242000022420000002008B5012186
:10130000102000F021FE4FF48070ADF80000102096
:101310008DF8030003208DF802006946044800F0B0
:1013200045F84FF48071024800F0CBF808BD00008A
:101330000010014038B5144801F036FF00F0B8FA4B
:1013400012480068FFF74CFA84B20120234610A22D
:10135000002100900C4805F041FE012000230EA260
:1013600002210090084805F039FE012004230DA257
:1013700003210090044805F031FE102200210248AC
:1013800004F068FF38BD0000F0B2002068000020C3
:1013900064697320616E670066697265206F6B21F6
:1013A0000000000065786974000000002DE9F0413C
:1013B000024600250026002000230024002791F883
:1013C00003C00CF00F0591F803C00CF0100CBCF139
:1013D000000F03D091F802C04CEA050591F800C057
:1013E000BCF1000F31D0146800202BE04FF0010C4D
:1013F0000CFA00F3B1F800C00CEA03069E4220D1BB
:1014000083004FF00F0C0CFA03F7BC4305FA03FC02
:101410004CEA040491F803C0BCF1280F06D14FF048
:10142000010C0CFA00FCC2F814C00AE091F803C0E9
:10143000BCF1480F05D14FF0010C0CFA00FCC2F8CA
:1014400010C0401C0828D1D31460B1F800C0BCF112
:10145000FF0F34DD546800202EE000F1080C4FF03F
:10146000010808FA0CF3B1F800C00CEA03069E422A
:1014700021D183004FF00F0C0CFA03F7BC4305FA9F
:1014800003FC4CEA040491F803C0BCF1280F05D119
:1014900000F1080C08FA0CF8C2F8148091F803C0A7
:1014A000BCF1480F07D100F1080C4FF0010808FA11
:1014B0000CF8C2F81080401C0828CED35460BDE858
:1014C000F0814161704701617047000010B500BFB5
:1014D000084800884FF47A7100FB01F4064801F0D7
:1014E0003FF80444002004498884322004F08EFA36
:1014F000204610BDF8020020001000402DE9F84FF2
:101500004FF0000A0024A346A14631E00120214902
:101510000860142003F07AFB00201F49C1F89401F1
:1015200000BF1C487C3800680028FAD000F0DAFBC5
:10153000641C00BF17487C3800680128FAD0FFF708
:1015400053FCFFF7C3FF82465046FFF70DF90090AA
:10155000FFF773F907460022104BFFF78DF8054699
:10156000FFF77EF9834649465846FEF7A4FE8146BA
:10157000052CCBD14846FFF760F907460022084BFF
:10158000FFF77AF80546FFF76BF983465846BDE842
:10159000F88F0000948122420080224200004D40DA
:1015A000000014401FB50121202000F0CDFC2020B8
:1015B000ADF8000003208DF8020010208DF8030024
:1015C00069461E48FFF7F2FE20211C48FFF779FF0D
:1015D0004020ADF8000004208DF80300694617484C
:1015E000FFF7E4FE40211548FFF76BFF01211020B3
:1015F00000F08AFC4FF0804000F0BEFE40F2E73081
:10160000ADF808004720ADF804000020ADF80A004E
:10161000ADF8060001A90A4801F026F901210848A1
:1016200000F098FE01221146054800F0ADFF02F0DF
:1016300095F80021024800F093FE1FBD0014014000
:101640000010004008B50121082000F07DFC0121B8
:10165000082000F079FC0121082000F075FC012130
:10166000082000F071FC0121082000F06DFC012130
:10167000082000F069FC0121402000F065FC0121F8
:10168000402000F061FC48208DF8030003208DF815
:1016900002001020ADF8000069461B48FFF786FEE7
:1016A0002020ADF8000069461748FFF77FFE402074
:1016B000ADF8000069461448FFF778FE8020ADF8C9
:1016C000000069461048FFF771FE4FF48070ADF8D6
:1016D000000069460C48FFF769FE4FF40070ADF852
:1016E000000069460848FFF761FE0120ADF80000E0
:1016F00069460648FFF75AFE0220ADF80000694629
:101700000248FFF753FE08BD000C014000180140DD
:1017100010B504464048007801284ED13F48006883
:10172000D0B13E48001D0068B0B13C4808300068A8
:1017300090B13A480C30006870B1384810300068F9
:1017400050B136481430006830B13548006818B1DF
:101750003348001D006878BB082004F057F90020CA
:101760002D4908702D48006808B9012010BD2B488C
:10177000001D006808B90220F8E728480830006812
:1017800008B90320F2E725480C30006808B90420A6
:10179000ECE722481030006808B90520E6E71F484A
:1017A0001430006808B90620E0E71D48006808B951
:1017B0000720DBE70820D9E7FFE718480068012881
:1017C00023D11648001D006801281ED11348083097
:1017D0000068012819D111480C300068012814D183
:1017E0000E481030006801280FD10C4814300068F2
:1017F00001280AD10A480068012806D10848001DBE
:101800000068012801D104490870012C02D101208F
:10181000014908700020A9E734010020108121420D
:101820000001234200BFFEE77047000070B50021B1
:1018300000230F22C47804B3154C246804F4E06438
:10184000C4F5E064210AC1F10403CA40447804FAF3
:1018500003F184781440214309010E4C0678A15508
:10186000047804F01F050124AC4005786D11AD002B
:1018700005F1E025C5F8004109E0047804F01F05F2
:101880000124AC40044D0678761145F8264070BD21
:101890000CED00E000E400E080E100E002490143DB
:1018A000024A1160704700000000FA050CED00E0EC
:1018B00070B5002419E004F1B001C8B2002100F0B5
:1018C000CFF90021022000F0CBF90021102000F018
:1018D000C7F9002505E00121002000F0C1F9681CCE
:1018E000C5B2802DF7DB601CC4B2082CE3DB70BDF1
:1018F00008B50121082000F027FB10208DF8030017
:1019000003208DF802004FF48060ADF800006946B6
:101910006948FFF74BFD4FF48050ADF80000694671
:101920006548FFF743FD4FF40060ADF800006946DD
:101930006148FFF73BFD4FF48040ADF80000694679
:101940005D48FFF733FD4FF40050ADF800006946E5
:101950005948FFF72BFD4FF480615748FFF7B3FD5F
:101960004FF480515448FFF7AEFD4FF400615248E8
:10197000FFF7A9FD4FF480414F48FFF7A4FD4FF456
:1019800000514D48FFF79FFD4FF480514A48FFF743
:101990009AFD642001F042FC4FF480514648FFF765
:1019A00090FD642001F03AFC4FF480514248FFF76B
:1019B0008AFD0021AE2000F053F90021022000F042
:1019C0004FF90021102000F04BF90021402000F0D9
:1019D00047F90021812000F043F90021CF2000F0D9
:1019E0003FF90021A12000F03BF90021C82000F0C0
:1019F00037F90021A62000F033F90021A82000F0DB
:101A00002FF900213F2000F02BF90021812000F068
:101A100027F90021FF2000F023F90021D32000F056
:101A20001FF90021084600F01BF90021D52000F025
:101A300017F90021802000F013F90021D92000F0CF
:101A40000FF90021F12000F00BF90021DA2000F05D
:101A500007F90021122000F003F90021DB2000F03B
:101A6000FFF80021402000F0FBF80021202000F0CA
:101A7000F7F80021022000F0F3F800218D2000F09B
:101A8000EFF80021142000F0EBF80021A42000F072
:101A9000E7F80021A62000F0E3F80021AF2000F0D5
:101AA000DFF80021AF2000F0DBF8FFF701FF002195
:101AB000084600F003F808BD000C014070B504466C
:101AC0000D4605F1B001C8B2002100F0C9F810219F
:101AD00041EA1410002100F0C3F804F00F0141F0B6
:101AE0000100002100F0BCF870BD00002DE9F041BC
:101AF00007460E46904600250024A8F12000C5B2F6
:101B00007F2F02DD0027B01CC6B21F4800781028C6
:101B100024D131463846FFF7D1FF002408E004EB1A
:101B200005111A4A505C012100F09AF8601CC4B2F9
:101B3000082CF4DB701CC1B23846FFF7BFFF00244D
:101B400009E004EB05110831104A505C012100F056
:101B500087F8601CC4B2082CF3DB12E0314638462B
:101B6000FFF7ACFF00240AE005EB4501084A02EB51
:101B70004101085D012100F073F8601CC4B2062C1D
:101B8000F2DBBDE8F0810000F50200205A73000886
:101B9000327100082DE9FF5F074691461D460E9EF3
:101BA0004FF0000A002433E0281B401EC1B20A2077
:101BB00002F06BFBB9FBF0F00A21B0FBF1F201FB84
:101BC0001208BAF1000F13D1681EA04210DDB8F15F
:101BD000000F0BD1B34606EBDB71491001FB04711A
:101BE000C8B220220199FFF781FF0FE04FF0010AF0
:101BF000B34606EBDB71491001FB0471C8B208F172
:101C00003001CAB20199FFF771FF00BF601CC4B276
:101C1000AC42C9DBBDE8FF9F2DE9F04104460F4609
:101C20001546002615E0AA5D39462046FFF75EFFFF
:101C30000A480078102803D104F10800C4B201E07A
:101C4000A01DC4B2782C02DD0024B81CC7B2701CE1
:101C5000C6B2A85D0028E6D1BDE8F081F5020020FB
:101C600070B504460E462EB14FF400611C48FFF7D4
:101C70002AFC04E04FF400611948FFF722FC4FF4FE
:101C800080611748FFF71DFC00251BE04FF48041E1
:101C90001348FFF716FC04F0800028B14FF4005100
:101CA0000F48FFF710FC04E04FF400510C48FFF719
:101CB00008FC4FF480410A48FFF705FC6006040E5B
:101CC000681CC5B2082DE1DB4FF480610448FFF7C2
:101CD000FAFB4FF400610248FFF7F5FB70BD00000E
:101CE000000C014010B50021054800F0BBFD0020AC
:101CF000044908800121024800F032FB10BD0000B9
:101D000000100040F80200200FB410B588B0119CFC
:101D100001210B9800F018F901210E9800F0F4F859
:101D2000BDF83000ADF8000003208DF80200182047
:101D30008DF8030069460A98FFF738FBBDF84000AC
:101D4000401E80B2ADF81800ADF814400020ADF888
:101D50001A00ADF8160005A90D9800F085FD602069
:101D6000ADF804000020ADF80C000120ADF806002D
:101D7000BDF83E00ADF80A00BDF83C0030B10428C3
:101D800009D008280CD00C2814D10EE001A90D9818
:101D900000F004FC0EE001A90D9800F055FC09E0EC
:101DA00001A90D9800F0B0FC04E001A90D9800F025
:101DB00005FD00BF00BFBDF83C0030B1042809D0CC
:101DC00008280CD00C2814D10EE008210D9800F042
:101DD00031FC0EE008210D9800F088FC09E0082194
:101DE0000D9800F0E1FC04E008210D9800F024FDBE
:101DF00000BF00BF01210D9800F0A0FA01210D984D
:101E000000F0AEFA08B010BC5DF814FB38B52748F6
:101E100001F0CAF9FFF74CFD012000902448038827
:101E200024A20021214805F0D9F8234890F90000A8
:101E300000280BDB012000901F4890F9000083B2BE
:101E40001EA20121194805F0C9F80BE001200090FD
:101E5000194890F90000404283B21AA201211348A8
:101E600005F0BCF80120032318A2022100900F48BE
:101E700005F0B4F80120042316A2032100900B48BA
:101E800005F0ACF8154903C9FEF7BEFC84B2012089
:101E9000234613A204210090044805F09FF8102265
:101EA0000121024804F0D6F938BD0000F0B200204C
:101EB00058000020646973005A0000202B616E678F
:101EC000000000002D616E67000000006669726509
:101ED00000000000657869740000000060000020C8
:101EE000726174650000000029B1064A526902431C
:101EF000044B5A6104E0034A52698243014B5A6120
:101F0000704700000010024029B1064AD26902431E
:101F1000044BDA6104E0034AD2698243014BDA617F
:101F2000704700000010024029B1064A12690243BE
:101F3000044B1A6104E0034A12698243014B1A619F
:101F4000704700000010024029B1064A926902431E
:101F5000044B9A6104E0034A92698243014B9A61FF
:101F6000704700000010024029B1064AD2680243BF
:101F7000044BDA6004E0034AD2688243014BDA6022
:101F8000704700000010024030B5002100220024FC
:101F900000232D4D6D6805F00C0121B1042905D0F9
:101FA000082923D105E0294D056022E0274D056071
:101FB0001FE0254D6D6805F47012234D6D6805F422
:101FC0008034022505EB92421CB9214D5543056032
:101FD0000BE01D4D6D6805F400351DB11C4D5543DA
:101FE000056002E0194D5543056002E0174D05609C
:101FF00000BF00BF144D6D6805F0F0010909154DD3
:102000006B5C0568DD4045600F4D6D6805F4E0616F
:10201000090A104D6B5C4568DD4085600A4D6D68AE
:1020200005F46051C90A0B4D6B5C4568DD40C56025
:10203000054D6D6805F44041890B074D6B5CC56823
:10204000B5FBF3F5056130BD0010024000127A00C7
:1020500000093D00FE0200200E030020704710B56D
:1020600000F002F810BD00000CB5002001900090B7
:102070003348006840F480303149086000BF304880
:10208000006800F4003000900198401C0190009816
:1020900018B90198B0F5A06FF1D12948006800F493
:1020A000003010B10120009001E000200090009865
:1020B000012843D12348006840F0100021490860FE
:1020C0000846006820F0030008600846006840F0F9
:1020D000020008601A48406819494860084640688C
:1020E00048600846406840F48060486008464068A0
:1020F00020F47C1048600846406840F4E8104860CE
:102100000846006840F08070086000BF0C48006816
:1021100000F000700028F9D00948406820F0030062
:10212000074948600846406840F00200486000BF28
:102130000348406800F00C000828F9D10CBD0000ED
:10214000001002400020024008B5124801F02CF8AF
:10215000FFF7AEFB012000900F4803880FA200217B
:102160000C4804F03BFF012000230FA20221009045
:10217000084804F033FF012004230EA2032100903D
:10218000044804F02BFF10220021024804F062F8FA
:1021900008BD0000F0B2002058000020646973748C
:1021A000616E636500000000746F206669726521CE
:1021B000000000006578697400000000042808D160
:1021C0004FF0E021096941F004014FF0E022116174
:1021D00007E04FF0E021096921F004014FF0E0220F
:1021E0001161704710B502F025FD03F011FD02F0FA
:1021F00031FD10BD10B504466FF00400FFF7DEFF9F
:10220000E11704EB5171C1F3C701074A1170104681
:10221000007800EB4001C1EBC0104FF6FF7101EAFE
:10222000C0000249088010BDFA020020FC02002014
:1022300010B51348006840F00100114908600846D5
:102240004068104908400E494860084600680E4939
:1022500008400B4908600846006820F480200860A8
:102260000846406820F4FE0048604FF41F00886074
:10227000FFF7F5FE4FF000600449086010BD000054
:10228000001002400000FFF8FFFFF6FE08ED00E03E
:1022900010B50121880700F066F970B3194800787D
:1022A000401C1849087008460078642801DD0020A9
:1022B000087014480078282190FBF1F201FB12000D
:1022C000012809D11048007830B1FFF7F1FA0C224B
:1022D00001210E4803F0BEFF0A480078142190FB4C
:1022E000F1F201FB1200022807D10948006820B969
:1022F0000020FFF70DFA064908600121880700F069
:102300002CF810BDF7020020F6020020F0B20020E9
:102310002801002010B50121064800F024F940B141
:102320000121044800F019F803480088401C0249C4
:10233000088010BD00100040F802002021B1028882
:1023400042F08002028004E002884FF67F731A4058
:1023500002807047CA4302827047CA4302827047B4
:1023600021B1028842F00102028004E002884FF6A7
:10237000FE731A400280704710B5044668488442D4
:1023800008D10121C014FFF7EFFD0021E014FFF791
:10239000EBFDC4E0B4F1804F08D101210846FFF7FE
:1023A000C3FD00210120FFF7BFFDB8E05D48844276
:1023B00008D101210220FFF7B7FD00210220FFF71D
:1023C000B3FDACE05848844208D101210420FFF756
:1023D000ABFD00210420FFF7A7FDA0E05348844295
:1023E00008D101210820FFF79FFD00210820FFF7F9
:1023F0009BFD94E04E48844208D101211020FFF754
:1024000093FD00211020FFF78FFD88E049488442AA
:1024100008D101212020FFF787FD00212020FFF7B0
:1024200083FD7CE04448844208D101214014FFF739
:102430009BFD00216014FFF797FD70E03F48844248
:1024400009D10121C804FFF78FFD00214FF40020BE
:10245000FFF78AFD63E03A48844209D1012108056B
:10246000FFF782FD00214FF48010FFF77DFD56E05D
:102470003448844209D101214805FFF775FD002148
:102480004FF40010FFF770FD49E02F48844208D157
:1024900001214020FFF748FD00214020FFF744FDC7
:1024A0003DE02A48844208D101218020FFF73CFD0D
:1024B00000218020FFF738FD31E02548844208D113
:1024C00001218015FFF730FD0021A015FFF72CFD3D
:1024D00025E02048844209D101210804FFF744FD8A
:1024E00000214FF48030FFF73FFD18E01A48844286
:1024F00009D101214804FFF737FD00214FF40030D6
:10250000FFF732FD0BE01548844208D10121880411
:10251000FFF72AFD00214FF48020FFF725FD10BDB5
:10252000002C01400004004000080040000C004066
:10253000001000400014004000340140004C0140F5
:10254000005001400054014000180040001C0040B1
:10255000002000400040014000440140004801408C
:102560000146888C704730B50246002000230024C5
:10257000158A05EA0103958905EA010413B10CB136
:10258000012000E0002030BD1AB183890B43838114
:1025900002E083898B4383817047000070B500247B
:1025A00000220023058C4FF6FE7635400584028C10
:1025B0008388048B4FF68F752C40B51E2C400D88F8
:1025C0002C43751E2A400D892A434D882A43144DF9
:1025D000A8420BD0134DA84208D0134DA84205D0F5
:1025E000124DA84202D0124DA84213D14FF6F775F2
:1025F0002A404D892A434FF6FB752A408D882A438D
:102600004FF6FF652B404FF6FF552B408D892B432E
:10261000CD892B4383800483CD888586028470BD59
:10262000002C0140003401400040014000440140C2
:10263000004801400A460021018B4FF6F77319400C
:10264000114301837047000070B50024002200236D
:10265000058C4FF6EF7635400584028C8388048B19
:1026600048F6FF752C404FF6FF452C400D884FF67D
:10267000FF7606EA05252C434FF6DF752A400D89C3
:1026800006EA05152A434D8806EA05152A43154D25
:10269000A84202D0144DA8421DD14FF67F752A40A2
:1026A0004D894FF6FF7606EA05152A434FF6BF75AA
:1026B0002A408D8806EA05152A434FF6FF352B4040
:1026C0004FF2FF752B408D8906EA85052B43CD8996
:1026D00006EA85052B4383800483CD880587028421
:1026E00070BD0000002C0140003401400A4600216A
:1026F000018B4FF2FF7319404FF6FF7303EA022379
:10270000194301837047000070B5002400220023A4
:10271000058C4FF6FF6635400584028C8388848BD8
:102720004FF68F752C404FF6FC752C400D882C43CE
:102730004FF6FF552A400D894FF6FF7606EA05252C
:102740002A434D8806EA05252A43154DA84202D0A2
:10275000144DA8421DD14FF2FF752A404D894FF606
:10276000FF7606EA05252A434FF6FF352A408D8875
:1027700006EA05252A434EF6FF752B404DF6FF75F8
:102780002B408D8906EA05152B43CD8906EA0515F0
:102790002B4383808483CD888587028470BD0000AD
:1027A000002C0140003401400A460021818B4FF685
:1027B000F7731940114381837047000070B5002200
:1027C00000230024058C4EF6FF7635400584038CEB
:1027D0008488828B48F6FF752A404FF6FF452A40D1
:1027E0000D884FF6FF7606EA05252A434DF6FF755C
:1027F0002B400D8906EA05352B434D8806EA053541
:102800002B430B4DA84202D00A4DA84208D14BF6EB
:10281000FF752C408D894FF6FF7606EA85152C430F
:1028200084808283CD88A0F84050038470BD00006E
:10283000002C0140003401400A460021818B4FF2F8
:10284000FF7319404FF6FF7303EA02231943818394
:102850007047818670470187704781877047A0F86D
:102860004010704781847047002202881D4B9842B7
:102870000ED01D4B98420BD0B0F1804F08D01B4BAF
:10288000984205D01A4B984202D01A4B984204D174
:102890004FF68F731A404B881A43174B984207D054
:1028A000164B984204D04FF6FF431A40CB881A4388
:1028B00002808B8883850B8803850A4B98420BD056
:1028C000094B984208D00E4B984205D00D4B9842C8
:1028D00002D00D4B984201D10B7A038601238382EB
:1028E00070470000002C014000340140000400400B
:1028F00000080040000C00400010004000140040A0
:1029000000400140004401400048014008B50A4829
:1029100000F04AFCFEF7CCFF012000900748037846
:1029200007A20021044804F059FB0C2201210248AF
:1029300003F090FC08BD0000F0B200202800002049
:102940007069640000B58BB002F074F940F2244164
:102950000B4800F061F878B10A48006828220A495B
:102960000A906846FDF77AFC074810380FC801F056
:1029700073FC034800F00CF902F06CF90BB000BDD9
:10298000003801400800002090B2002000B58BB054
:1029900002F050F940F224410B4800F03DF878B1C4
:1029A0000A48006828220A490A906846FDF756FC42
:1029B000074810380FC801F04FFC034800F0E8F852
:1029C00002F048F90BB000BD004400400C000020AC
:1029D000C8B2002021B1828942F40052828104E011
:1029E00082894DF6FF731A40828170471AB1838A3B
:1029F0000B43838202E0838A8B43838270470246C3
:102A00000020B1F5007F00D100BF13880B400BB14F
:102A1000012000E00020704770B50246002400232A
:102A20000025002040F66A16B14200D100BFC1F374
:102A3000421501F01F03012606FA03F3012D02D10E
:102A40009689334006E0022D02D1168A334001E018
:102A5000968A33400C12012606FA04F41688344094
:102A600013B10CB1012000E0002070BDF0B50346A9
:102A7000002400260025002040F66A17B94200D144
:102A800000BF1846C1F3421401F01F06012707FAE0
:102A900006F5012C01D10C3004E0022C01D11030DC
:102AA00000E014301AB107682F43076002E007689E
:102AB000AF430760F0BD00002DE9F04786B0054642
:102AC0000E460024A24600BFA1460027B08900B1EF
:102AD00000BF2F462C8A4CF6FF700440F088044358
:102AE0002C82AC894EF6F3100440B088318908433B
:102AF000718908430443AC81AC8A4FF6FF4004401F
:102B0000B0890443AC8201A8FFF73EFA1F48874210
:102B100002D1DDF810A001E0DDF80CA0A88900F4D6
:102B2000004040B10AEBCA0000EB0A1031684900CE
:102B3000B0FBF1F807E00AEBCA0000EB0A103168BD
:102B40008900B0FBF1F86420B8FBF0F00401200923
:102B5000642101FB1089A88900F4004040B13220B3
:102B600000EBC900B0FBF1F000F00700044308E0FF
:102B7000322000EB09106421B0FBF1F000F00F00EF
:102B800004432C8106B0BDE8F08700000038014006
:102B900001468888C0F308007047C1F308028280AC
:102BA000704700BFFEE7490050EAC12018BF04206B
:102BB0004A0D18BF40F0010040F2FF72B2EB515FC6
:102BC00008BF40F00200012808BF052070472DE92A
:102BD000F0414F1E00EBC7010446D1E90001154644
:102BE0001E4637F006020DD02A463346FDF7D2FCCA
:102BF0007F1E04EBC703D3E90023FDF724FC37F065
:102C00000602F1D1022F25D0042F13D0062F18BFB2
:102C1000BDE8F0812A463346FDF7BCFCD4E90A231F
:102C2000FDF711FC2A463346FDF7B4FCD4E908232E
:102C3000FDF709FC2A463346FDF7ACFCD4E9062330
:102C4000FDF701FC2A463346FDF7A4FCD4E9042332
:102C5000FDF7F9FB2A463346FDF79CFCD4E9022335
:102C6000FDF7F1FB2A463346FDF794FCD4E9002337
:102C7000BDE8F041FDF7E7BB0122FDF7E6BE00220B
:102C8000134610461146FDF7F7BC0000024A00202B
:102C90001107FDF7DABE000001FDFFFF014609B98B
:102CA00000207047C8B220B1C8B20E4A105C401C68
:102CB000F7E701F47F4028B10A48C1F30722805C9E
:102CC0000930EEE701F47F0028B10648C1F307425E
:102CD000805C1130E5E7034800EB116000781930A3
:102CE000DFE700001070000802E008C8121F08C1EA
:102CF000002AFAD170477047002001E001C1121F7D
:102D0000002AFBD1704700000149086070470000AD
:102D10002803002003490868884201D00120704739
:102D20000020FCE7FC0000202DE9FC5F04468B46F8
:102D300015461E46DDE90C9ADDE90E7804F1140013
:102D40004060006000BF1C346560A660C4F80C9051
:102D5000C4F810A02321D4E9030202F010FAD4E948
:102D6000033C63441A1F0F4BD4E9010101F028FF13
:102D70002060A77667760020E061C4F82880C4F858
:102D80002C8060612076E06520661C3C0090234624
:102D9000054A2146019004F14C0002F0D6FF0020C4
:102DA000BDE8FC9FBD5800081D5B00082DE9F047F9
:102DB00004460E4617469846DDF8209084F80990A0
:102DC000607A20F001006072E66127620020A06254
:102DD000C4F82480002506E004F1140101EBC500CD
:102DE00001F0AEFF6D1C012DF6DBBDE8F08710B5DC
:102DF0000246002001460EE002F1140303EBC1007D
:102E0000D0E900436360D0E9003423604060006093
:102E100000BF481C01460129EEDB10BD2DE9F04D35
:102E20008D4F21F0004A86B005460C46BA452ADB94
:102E3000AAEB070028430AD08848824501DC1AD152
:102E4000CDB106B02846BDE8F04DFFF715BF844A66
:102E5000844B2846FDF79EFB07460E46824A834B6D
:102E600028462146FDF796FB06B03A463346BDE8B4
:102E7000F04DFDF7E8BA0120FFF746FF06B0BDE8C8
:102E8000F04DFFF7FCBE7A48824542DABAF1795F2D
:102E90000BDA2846FFF787FE042808BFFFF7F6FE87
:102EA000284606B02146BDE8F08D2A460B4610465E
:102EB000FDF770FB834602466E480E460B46062120
:102EC0007844FFF784FE5A463346FDF763FB80469D
:102ED00069488A465A46334604217844FFF777FE0C
:102EE0005A463346FDF756FB00223B46FDF7ABFA48
:102EF00002460B4640465146FDF7BEFB2A46234696
:102F0000FDF748FB06B02A462346BDE8F04DFDF725
:102F10009ABA284624F0004100223D463B46FDF780
:102F200036FB4FF0FF32FDF790FD06460246534850
:102F30000F460B4606217844FFF749FE32463B46D2
:102F4000FDF728FBCDE900014D4832463B46042100
:102F50007844FFF73CFE32463B46FDF71BFB002260
:102F60002B46FDF770FA834602913046394603F04E
:102F700014FA804643480D46504517DCDDE9000150
:102F80005A46029BFDF778FB42462B46FDF702FBB3
:102F900042462B46FDF757FA0122FDF756FD304A0F
:102FA000304BFDF7F1FA304A304B4CE04FF0000A5D
:102FB00052460B464046FDF746FACDE9031052460D
:102FC0002B4610461946FDF7E5FA32463B46FDF71B
:102FD000DEFADDE90332FDF74FFB06460F46DDE979
:102FE00000015A46029BFDF747FB834600910122F0
:102FF00030463946FDF729FD194A1A4BFDF7C7FA45
:1030000006460F46012240462946FDF71EFD5A4658
:10301000009BFDF7BFFA32463B46FDF7B5FA064680
:103020000F46012250462946FDF70FFD0E4DDFF8F1
:1030300058802A464346FDF7AAFA32463B46FDF73A
:10304000A6FA2A464346FDF7A2FA002CD8BF81F023
:10305000004106B0BDE8F08D0000F03F0000F07FB9
:10306000075C143326A6913C182D4454FB21F93FEC
:103070000000E03F8C4A0000A24A0000164A00000F
:103080002C4A00003333EF3FFB21E93F70B5054682
:10309000284601F097FE04460CB9002070BD0020C0
:1030A000E0602046FAE7000010B5044611481249D6
:1030B000086004204860402008811048C860022051
:1030C0000861002088820B480D4908600420486090
:1030D000802008810948C860022008610420888295
:1030E0002146054803F04CFE2146054803F048FE02
:1030F00010BD000000080140D0B3002000040040D3
:10310000ECB3002070B51848016818480068FDF756
:10311000C3FB0CD21448006880F0004613480168D5
:103120003046FDF7B9FB02D2002010490860104874
:1031300001680E480068FDF716F90646FDF737FBF3
:1031400045B20C480078284444B214F11E0F02DA4C
:103150006FF01D0402E01E2C00DD1E2405480470E3
:1031600090F9000070BD0000700000206C0000208D
:103170007400002078000020002410E04FF0FF31A0
:103180000748006802F085F9044644B90549086B10
:1031900001F086F8034A918E106BFDF778F8EDE7A1
:1031A0000C000020B8B20020024600210EE0C1EB66
:1031B000C10002EB400007A31B8803800020C1EB85
:1031C000C10302EB43039881481CC1B21029EEDB16
:1031D0000120704720000000002411E04FF0FF3173
:1031E0000848006802F055F904464CB90648C16A1F
:1031F00006A001F087FD044A918ED06AFDF747F8DA
:10320000ECE700000800002080B20020CAD5B5BD60
:10321000CAFDBEDD3A25730A000000000146114ACE
:1032200012884A434FF0E0235A6100229A611A46FD
:10323000126942F001021A6100BF4FF0E0221069EA
:1032400000F001021AB100F48032002AF5D04FF0EC
:10325000E022126922F001024FF0E0231A610022FD
:103260009A617047FC0200201CB50024DCE14FF09D
:10327000FF3201A9ED48006801F083FE0446002CEE
:10328000F4D1019831287AD2DFE800F07919421F91
:10329000484B4C5B22807A7D696A79939683849946
:1032A000ADAEF8F9F5F4F325F2F1F028EFEEEDEC20
:1032B000EBEAE9E8E7E6E52BE42E2FE3E20003F092
:1032C0009FFDDBA001F01EFDADE1FFF71FFBAAE1B2
:1032D000FDF768FCA7E103F06BFDA4E1FEF796FDA6
:1032E000A1E1FDF7CBFD9EE100BFDB480068FDF7E3
:1032F00077FA85B200202B46D8A206210090D84844
:1033000003F06CFE10220121D54802F0A3FF8AE1F0
:1033100000F0BAFAD3A001F0F5FC84E100F0B4FAB1
:1033200081E100BF00200090D8480378D8A2002196
:10333000CB4803F053FE0C220121C94802F08AFF5A
:1033400071E101200023D3A201460090C44803F09C
:1033500045FE0C220121C24802F07CFF63E100BF60
:1033600000200090CC480378CCA20021BC4803F098
:1033700035FE10220121BA4802F06CFF53E14DE105
:10338000FDF746FC4FE1FDF779FC4CE100F07CFADB
:1033900049E100BF00200090C2480378C2A200218A
:1033A000AF4803F01BFE10220121AD4802F052FF8E
:1033B00039E1FDF763FC36E100F066FA33E1012004
:1033C0000023BBA203210090A54803F007FE1022B2
:1033D0000121A34802F03EFF4FF47A7002F016FB81
:1033E00000F052FA1FE100BFB2490968C869B2494A
:1033F000FCF7B9FF0646FDF7F3F985B200202B462E
:1034000096A201460090964803F0E8FDA949096894
:10341000086DFDF7E5F985B200202B46A7A206212D
:1034200000908F4803F0DAFDA6490968086DFDF7A2
:10343000D7F985B200202B46A3A207210090884827
:1034400003F0CCFD10220121854802F003FFEAE0E1
:10345000D5E0C5E0C1E0BDE07CE07AE0B7E0B3E0F4
:10346000AFE08BE089E064E064E061E05DE04DE0C6
:103470004BE035E01CE01AE001E0FFE700BF8D49BA
:103480000968086A8C49FCF76EFF0646FDF7A8F943
:1034900085B200202B468EA201210090704803F0D7
:1034A0009DFD102201216E4802F0D4FEBBE000BF5A
:1034B00080490968486A8049FCF755FF0646FDF7D0
:1034C0008FF985B200202B4682A202210090644829
:1034D00003F084FD10220121614802F0BBFEA2E04E
:1034E000002000907C48007800EB40007B4901EB15
:1034F000400003797AA20421594803F06FFD10229D
:103500000121574802F0A6FE8DE000BF0020009088
:103510007548038875A20021514803F05FFD102211
:1035200001214F4802F096FE7DE000F0ADF97AE00F
:1035300000BF00BF002000906D4803886DA20021ED
:10354000474803F04BFD10220121454802F082FE5E
:1035500069E000BF684903C9FDF756F985B200204C
:103560002B4666A2042100903D4803F037FD10224F
:1035700001213B4802F06EFE55E000BF614890F922
:10358000000000280BDB012000905E4890F900004D
:1035900083B25DA20121324803F020FD0BE001203F
:1035A0000090584890F90000404283B258A201218F
:1035B0002B4803F013FD10220121294802F04AFE96
:1035C00031E000F061F92EE0FEF7BEFD2BE0FEF7E2
:1035D0001DFC28E0FDF7AEFE25E000F055F922E0E5
:1035E000012000904C4803784CA203211C4803F0B2
:1035F000F5FC102201211A4802F02CFE13E00120F4
:1036000000903B48038847A20421154803F0E6FCDC
:1036100010220121124802F01DFE04E043A001998E
:1036200001F070FB00BF00BF21E600000000002099
:103630007468726561645F646973706C6179A3BA60
:103640007461736B31BDE7C3E6B8FCD0C2B3C9B9CE
:10365000A6A3A10A00000000740000204B70000027
:10366000F0B200207468726561645F646973706CA5
:103670006179A3BABBD8B5BD6D61696EBDE7C3E61C
:10368000B8FCD0C2B3C9B9A6A3A10A002800002083
:10369000706964006F6B0000420000207365744124
:1036A0000000000043000020736574420000000029
:1036B0006F6B2100340000200000204164756F31E1
:1036C000000000003800002064756F320000000028
:1036D0004B6900004B64000044000020F8A4002067
:1036E0006E6F7774000000001C00002050776D00A2
:1036F00058000020646973006000002072617465E6
:10370000000000005A0000202B616E6700000000DE
:103710002D616E67000000005B0000207265637819
:103720000000000077617665000000007468726533
:1037300061645F646973706C6179A3BACFD4CABEE7
:10374000B8FCD0C2B4EDCEF3A3ACB4EDCEF361635C
:1037500074696F6E3A25640A0000000008B54FF4E2
:10376000A060FEF79BF836208DF8000000208DF851
:1037700001008DF8020001208DF803006846FEF775
:1037800055F808BD08B5002416E04FF0FF32694631
:103790000A48006801F0F5FB044654B908A00099F6
:1037A00001F0B0FA0098C1B20F48007802F06EFE46
:1037B00002E00EA001F0A6FAE7E7000030010020C9
:1037C0007468726561645F6B657968616E646C656D
:1037D000A3BACAD5B5BDB0B4BCFC3A25642CBFAA07
:1037E000CABCB4A6C0ED0A001E0000207468726551
:1037F00061645F6B657968616E646C65A3BAB0B42F
:10380000BCFCBDD3CAD5CAA7B0DCA3A10A00000086
:1038100070B505460B48006898B90020FDF778FFA1
:10382000084908600846006858B10846016806481B
:10383000006801F020FC044614B904A001F062FA0B
:1038400000BF70BD280100203001002074696D6543
:10385000725F6B65797363616EA3BAB0B4BCFCB779
:10386000A2CBCDB3C9B9A6A3A10A000010B500F040
:1038700075F800F029FC00F0FFF900F079F900F08C
:1038800069FB002010BD000038B52448FFF78CFC10
:10389000FEF70EF80120002321A2194600901F48D0
:1038A00003F09CFB012003461FA2014600901B4829
:1038B00003F094FB012002231BA219460090174835
:1038C00003F08CFB0120032319A219460090134832
:1038D00003F084FB0120042317A2194600900F482F
:1038E00003F07CFB0120052314A2194600900B482D
:1038F00003F074FB13480068FCF772FF84B20120E8
:10390000234611A206210090044803F067FB102211
:103910000121024802F09EFC38BD0000F0B20020F8
:103920006D61696E00000000746573740000000032
:1039300067756E310000000070776D0067756E323C
:1039400000000000740000204B70000010B5044619
:1039500000F0E6FEFFF78AFF10BD000010B5002260
:1039600011462DA001F050FD2F490860084600685F
:1039700010B12EA001F0C6F90022114633A001F0CB
:1039800043FD364908600846006810B134A001F0D4
:10399000B9F9002211463AA001F036FD3B49086012
:1039A0000846006810B13AA001F0ACF900221146B7
:1039B0003FA001F029FD434908600846006810B1A6
:1039C00041A001F09FF90022052149A001F0B0FAC1
:1039D000494908600846006810B148A001F092F912
:1039E000002205214CA001F0A3FA4E4908600846C8
:1039F000006810B14CA001F085F90022052151A00A
:103A000001F096FA524908600846006810B151A0CA
:103A100001F078F9002010BD73656D5F6465627513
:103A2000675F75617274000008000020646562754C
:103A3000675F75617274D0C5BAC5C1BFB4B4BDA8A3
:103A4000B3C9B9A6A3A10A0A0000000073656D5F9F
:103A500063616D6572615F75617274000C000020B6
:103A600063616D6572615F75617274D0C5BAC5C1FD
:103A7000BFB4B4BDA8B3C9B9A6A3A10A0A00000087
:103A800073656D5F656C6567756E000050000020A2
:103A900073656D5F656C6567756ED0C5BAC5C1BF6E
:103AA000B4B4BDA8B3C9B9A6A3A10A0A0000000016
:103AB00073656D5F656C6567756E5F6175746F6664
:103AC000697265005400002073656D5F656C656701
:103AD000756E5F6175746F66697265D0C5BAC5C170
:103AE000BFB4B4BDA8B3C9B9A6A3A10A0A00000017
:103AF0006D625F6B6579000030010020B0B4BCFCE2
:103B0000B4A6C0EDD3CACFE4B4B4BDA8B3C9B9A6B6
:103B1000A3A10A0A000000006D625F646973706C03
:103B200061790000000000206F6C6564CFD4CABECC
:103B3000D3CACFE4B4B4BDA8B3C9B9A6A3A10A0A35
:103B4000000000006D625F6374726C417432340077
:103B5000240000206374726C41743234D3CACFE401
:103B6000B4B4BDA8B3C9B9A6A3A10A0A0000000055
:103B700010B54FF07E5200214FF0804000F0E4FB82
:103B8000204908600846006818B11FA001F0BAF883
:103B900002E023A001F0B6F84FF07E5200214FF072
:103BA000804000F0D1FB244908600846006818B145
:103BB00022A001F0A7F802E026A001F0A3F82B480C
:103BC00010490968C8622A480E490968886229486C
:103BD0000C490968086301200A49096808812348DB
:103BE00015490968C8622248134909688862214852
:103BF00011490968086301200F49096808810020FC
:103C000010BD000034000020B4B4BDA85049445F8A
:103C1000737465657231B3C9B9A6A3A10A0A00001D
:103C2000B4B4BDA85049445F737465657231CAA7C6
:103C3000B0DCA3A10A0A000038000020B4B4BDA87B
:103C40005049445F737465657232B3C9B9A6A3A1C4
:103C50000A0A0000B4B4BDA85049445F7374656596
:103C60007232CAA7B0DCA3A10A0A00000000F0412A
:103C70000000F0C1000048421CB5142006214FF49A
:103C800000730022CDE90010414942A001F0E8FD97
:103C9000454908600846006818B144A001F032F8B0
:103CA00002E04AA001F02EF8142003214FF4007323
:103CB0000022CDE900104D494DA001F0D1FD514940
:103CC00008600846006818B14FA001F01BF802E038
:103CD00055A001F017F8142002210B020022CDE9B3
:103CE0000010594959A001F0BBFD5B490860084626
:103CF000006818B159A001F005F802E05EA001F0DB
:103D000001F814200A214FF400730022CDE90010BD
:103D1000604961A001F0A4FD61490860084600689F
:103D200018B160A000F0EEFF02E065A000F0EAFF2D
:103D3000142009214FF400730022CDE900106749D7
:103D400067A001F08DFD6A4908600846006818B157
:103D500068A000F0D7FF02E06EA000F0D3FF1420AF
:103D60000C214FF400730022CDE90010714972A0BC
:103D700001F076FD764908605D48006818B15DA0E5
:103D800000F0C0FF02E063A000F0BCFF00201CBDFB
:103D9000D931000864656275675F75617274686126
:103DA0006E646C65000000001000002064656275A0
:103DB000675F75617274B4A6C0EDCFDFB3CCB4B4E5
:103DC000BDA8B3C9B9A6A3A10A0A000064656275BB
:103DD000675F75617274B4A6C0EDCFDFB3CCB4B4C5
:103DE000BDA8CAA7B0DCA3A10A0A00007931000867
:103DF00063616D6572615F7561727468616E646C38
:103E0000650000001400002063616D6572615F75DC
:103E1000617274B4A6C0EDCFDFB3CCB4B4BDA8B3A7
:103E2000C9B9A6A3A10A0A0063616D6572615F75D5
:103E3000617274B4A6C0EDCFDFB3CCB4B4BDA8CA70
:103E4000A7B0DCA3A10A0A00853700086B65796872
:103E5000616E646C6500000018000020B0B4BCFC0A
:103E6000B4A6C0EDCFDFB3CCB4B4BDA8B3C9B9A676
:103E7000A3A10A0A00000000B0B4BCFCB4A6C0EDC7
:103E8000CFDFB3CCB4B4BDA8CAA7B0DCA3A10A0AE3
:103E90000000000069320008646973706C61790089
:103EA00004000020CFD4CABECBA2D0C2CFDFB3CC97
:103EB000B4B4BDA8B3C9B9A6A3A10A0A0000000002
:103EC000CFD4CABECBA2D0C2CFDFB3CCB4B4BDA8CE
:103ED000CAA7B0DCA3A10A0A000000009D110008D7
:103EE000456C6567756E5F7468726561640000009B
:103EF00048000020456C6567756E5F746872656187
:103F000064CFDFB3CCB4B4BDA8B3C9B9A6A3A10A2A
:103F10000A000000456C6567756E5F7468726561C4
:103F200064CFDFB3CCB4B4BDA8CAA7B0DCA3A10AE8
:103F30000A000000290F0008456C6567756E5F6117
:103F400075746F666972655F74687265616400009C
:103F50004C00002010B52B48006838B12948006893
:103F600001F0A4FD28A000F0CDFE02E04FF0FF30EC
:103F700010BD2C48006838B12A48006801F096FD51
:103F800029A000F0BFFE02E04FF0FF30F0E72D481F
:103F9000006838B12B48006801F088FD2AA000F0C5
:103FA000B1FE02E04FF0FF30E2E72E48006838B182
:103FB0002C48006801F07AFD2BA000F0A3FE02E07F
:103FC0004FF0FF30D4E72E48006838B12C48006825
:103FD00001F06CFD2BA000F095FE02E04FF0FF30E9
:103FE000C6E73048006838B12E48006801F05EFD31
:103FF0002DA000F087FE02E04FF0FF30B8E7002070
:10400000B6E700001000002064656275675F7561A7
:104010007274CFDFB3CCBFAACABCB5F7B6C8A3A130
:104020000A0A00001400002063616D6572615F750B
:10403000617274CFDFB3CCBFAACABCB5F7B6C8A350
:10404000A10A0A0018000020B0B4BCFCB4A6C0ED60
:10405000CFDFB3CCBFAACABCB5F7B6C8A3A10A0AC2
:104060000000000004000020CFD4CABECFDFB3CCD4
:10407000BFAACABCB5F7B6C8A3A10A0A00000000CF
:1040800048000020B5E7B4C5C5DABBF9B4A1B2BF9A
:10409000B7D6CFDFB3CCBFAACABCB5F7B6C8A3A109
:1040A0000A0A00004C000020B5E7B4C5C5DAB7A283
:1040B000BBD3B2BFB7D631CFDFB3CCBFAACABCB572
:1040C000F7B6C8A3A10A0A0008B5062032230022C9
:1040D0000949009009A001F00DFE0C49086008464E
:1040E000006830B10846006801F054FE08A000F0F6
:1040F00009FE002008BD00001138000874696D65D4
:10410000725F6B65797363616E0000002C010020A3
:10411000B0B4BCFCC9A8C3E8B6A8CAB1C6F7C6F417
:10412000B6AFB3C9B9A6A3A10A0A00000FB400B57F
:104130008FB001211798FDF707FF1198B0F5804F58
:1041400004D101211198FDF7FFFE03E00121119830
:10415000FDF7DAFEBDF85800ADF8380018208DF8EC
:104160003B0003208DF83A000EA91598FDF71EF9C3
:10417000BDF85000ADF8380004208DF83B000EA9C2
:104180001398FDF713F918980A900020ADF82C0049
:10419000ADF82E00ADF83000ADF834000C20ADF8CD
:1041A00032000AA91098FEF787FC282214A9684655
:1041B000FCF754F810A80FC802F070FE012240F27C
:1041C00024411098FEF752FC012240211098FEF77E
:1041D0000DFC01211098FEF7FDFB0FB05DF814FBFC
:1041E0000FB400B58BB001210846FDF77DFE16988F
:1041F000009018490C98884202D11898019001E06B
:104200001798019000200290BDF8640003900020F0
:1042100004908020059000200690079020200890B0
:104220004FF44050099000200A9069461598FCF719
:1042300006FE4FF48030FCF7DFFD012208211598BF
:10424000FCF7F4FD01211598FCF7E4FD0BB05DF8D7
:1042500014FB0000004400400FB410B5109C002176
:104260000B98FCF7D7FD4FF48030FCF7C5FDBDF887
:104270003C000B99486001210B98FCF7CBFD2046D0
:1042800001F0EAF810BC5DF814FB10B502460120FD
:1042900000E050430B1EA1F10104E1B2F9D110BDC1
:1042A00010B504462078AA280DD1607855280AD187
:1042B000E078542807D1A078034908702F210348DB
:1042C000006800F0D8FE10BD5B0000200000002058
:1042D00030B51A4C436824681919884215D04B88A8
:1042E0009BB9174B1B6899420FD0164B1B688B422A
:1042F00001D1144B18604B684360104B1B68C31A04
:104300000E4D4C682D682C44A3600C4C83682468C7
:104310001A19824211D053887BB90A4B1B68834219
:1043200001D1084B1A6043685360044B1B68D31AD1
:10433000024D44682D682C44A36030BD84000020E9
:10434000880000208C0000202DE9F04105460E4633
:1043500017465820FEF79AFE044614B90020BDE81F
:10436000F081E561266267620A48E0620A48A0625D
:104370000020206320646063A063E0636064A06445
:10438000E064064860610648A06106482061204656
:10439000E5E7000000007A4400007AC4B743000853
:1043A000A9430008E143000810B50446204600F088
:1043B000F3F9002010BD10B5044658220021204614
:1043C00000F0DDFE002010BD024651620020704763
:1043D00002461162002070470246D16100207047FA
:1043E0002DE9F04105460E462C4601F00BFC616DAF
:1043F000471A208901F0F6FB874202D20720BDE868
:10440000F08101F0FFFB606531462068FBF7A5FFF6
:104410006064D4E91001FBF74EFF2064216B206C2F
:10442000FCF744FA02D2206B20640BE0206B80F092
:1044300000473846216CFCF739FA03D2206B80F034
:1044400000402064616CE069FBF78DFF6063216CC4
:10445000206AFBF788FFA063D4E91101FBF77DFF19
:104460000746616AFBF77FFFE063D4E90D01FBF7C4
:1044700022FF0746E16BFBF71EFFE064E06C20655E
:10448000E16AE06CFCF712FA01D2E06AE064A16A2A
:10449000E06CFCF701FA01D2A06AE064606CA064F1
:1044A000E06C60600020AAE72DE9F04F86B00D4671
:1044B0009C46DDE9106401960F9B04F04008B8F1BA
:1044C000000F02D0DFF8708101E0DFF87081CDF8D5
:1044D000008004F01008B8F1000F01D024F00104AE
:1044E00004F00108B8F1000F02D04FF0300801E0ED
:1044F0004FF02008C246002704F00208B8F1000F70
:1045000011D0002A02DA2D2752420CE004F00408F0
:10451000B8F1000F01D02B2705E004F00808B8F12E
:10452000000F00D02027002142B94FF0300B884601
:10453000491C0DF1080909F808B01DE01AE0E14630
:10454000B9F10A0F08D14FF00A0BB2FBFBFE0BFBCF
:104550001E28B2FBFBF202E002F00F08120900BFB6
:10456000DDF8009019F808B08846491C0DF10809DB
:1045700009F808B0002AE2D1B14200DD0E469B1BCB
:1045800004F01108B8F1000F10D117B1002B00DDB5
:104590005B1E06E0A84203D84FF0200880F8008098
:1045A000401CB3F10008A3F10103F3DC27B1A842DA
:1045B00001D807705B1E401C04F01008B8F1000F12
:1045C0000AD104E0A84201D880F800A0401CB3F151
:1045D0000008A3F10103F5DC06E0A84203D84FF080
:1045E000300880F80080401CB046761E8845F4DC18
:1045F00008E0A84205D80DF1080818F8018080F8F5
:104600000080401CB1F10008A1F1010104DDDDF8DA
:104610000480B8F1000FECD106E0A84203D84FF0B7
:10462000200880F80080401CB3F10008A3F10103CA
:10463000F3DC06B0BDE8F08F2171000810710008AE
:104640002DE9FC5F82468B46BAF81800FCF7A2F809
:1046500004460D465846FCF79DF806461C4A1D4B7D
:10466000FBF798FF804622462B46FBF793FFCDE9E8
:104670000001FCF7C9F8AAF81600BAF8140030B126
:1046800004280BD0082810D00C281CD114E0BAF84C
:104690001610DAF80C00FEF7DCF815E0BAF8161080
:1046A000DAF80C00FEF7D7F80EE0BAF81610DAF8D0
:1046B0000C00FEF7D2F807E0BAF81610DAF80C0092
:1046C000FEF7CDF800E000BF00BFBDE8FC9F000092
:1046D0002D431CEBE2361A3F1CB5142001214B027E
:1046E0000022CDE90010044904A001F0B9F8044605
:1046F000204601F0DBF91CBD4D3900086D61696E83
:104700000000000010B5044C02E020688047241D22
:1047100002488442F9D310BDA4790008A8790008A2
:1047200010B5044C02E020688047241D02488442F2
:10473000F9D310BDA8790008AC79000810B5FBF7D3
:1047400001FD044604480088401C00B2024908806C
:104750002046FBF7FBFC10BDEC00002010B5FBF77A
:10476000F1FC04460B480088401E00B2094908804D
:104770000846B0F90000002807DC00200880204629
:10478000FBF7E4FC00F0A6FD02E02046FBF7DEFCB0
:1047900010BD0000EC00002070B5054605B970BDE5
:1047A0001D480068854203D31C480068854200D339
:1047B000F5E7A5F10C044FF0FF31194800F069FE50
:1047C000608818B12088B0F5F55F08D015A000F01A
:1047D00099FA23886288214619A000F093FA0020F4
:1047E00060804FF4F550208021480068844201D257
:1047F0001F480460084960680968611A401A1D4929
:104800000968081A1B4908602046FFF761FD044843
:1048100000F022FE00BFC2E78400002088000020D4
:1048200010A70020746F20667265652061206261A8
:1048300064206461746120626C6F636B3A0A0000EB
:104840006D656D3A203078253038782C2075736589
:104850006420666C61673A2025642C206D6167696D
:104860006320636F64653A203078253034780A001D
:104870008C00002094000020004870472C0300208A
:10488000004870472CA3002070B54820FDF7B2FC0B
:10489000FCF734FDFCF78CFAFCF7D4FEFDF728F8A2
:1048A000FDF706F829A200210846FDF7B5F902F048
:1048B00011FB294908680021FEF78CF8FCF772FE0D
:1048C0003220FEF7F1FB40F2FD212448FFF7B8FE4D
:1048D0004FF43A712248FFF7B3FE02F09BF901F062
:1048E00083FD204800684FF47A72B0FBF2F1B1F119
:1048F000807F00D31DE021F07F40401E4FF0E0227A
:10490000506150170F22002807DA13071D0E164BAF
:1049100000F00F04241F1D5503E013071C0E134B5A
:104920001C5400BF00204FF0E0229061072010616E
:1049300000BFFFF7E7FEFFF7A3FF0446FFF79CFF6A
:104940000546214600F09AFE70BD000068656C6C5B
:104950006F206D6375000000B8B20020D0B3002056
:10496000ECB300201403002018ED00E000E400E0A8
:1049700010B50446FFF7E2FE19E020780A280AD1B4
:104980000D210E48FEF709F900BF80210B48FEF704
:1049900036F80028F9D014F8011B0848FEF7FDF896
:1049A00000BF80210548FEF72AF80028F9D02078BA
:1049B0000028E2D1FFF7D2FE10BD00000038014010
:1049C00070B505462C1D2E48006838B128462C4984
:1049D00009688847064606B970BD00BF29A0E16B8B
:1049E00000F090F92BA0216A00F08CF92DA0616AEB
:1049F00000F088F92FA0A16A00F084F931A0E16AE3
:104A000000F080F933A0216800F07CF935A06168DE
:104A100000F078F937A0A16800F074F939A0E168D6
:104A200000F070F93BA0216900F06CF93DA06169CC
:104A300000F068F93FA0A16900F064F941A0E169C4
:104A400000F060F943A0216B00F05CF945A0616BB8
:104A500000F058F947A0A16B00F054F9287800F055
:104A6000040038B100F0FAFF0646314645A000F0D8
:104A700049F902E04BA000F045F900BFFEE7000055
:104A8000240100207073723A203078253038780A7B
:104A9000000000007230303A203078253038780A33
:104AA000000000007230313A203078253038780A22
:104AB000000000007230323A203078253038780A11
:104AC000000000007230333A203078253038780A00
:104AD000000000007230343A203078253038780AEF
:104AE000000000007230353A203078253038780ADE
:104AF000000000007230363A203078253038780ACD
:104B0000000000007230373A203078253038780ABB
:104B1000000000007230383A203078253038780AAA
:104B2000000000007230393A203078253038780A99
:104B3000000000007231303A203078253038780A91
:104B4000000000007231313A203078253038780A80
:104B5000000000007231323A203078253038780A6F
:104B600000000000206C723A203078253038780A36
:104B7000000000002070633A203078253038780A31
:104B80000000000068617264206661756C74206FBB
:104B90006E207468726561643A2025730D0A0D0AEF
:104BA0000000000068617264206661756C74206F9B
:104BB0006E2068616E646C65720D0A0D0A0000005B
:104BC000F0B504460D461646301D20F0070040386B
:104BD0000146002203E00C4F41F82270521C102ABB
:104BE000F9D30D624FF0000CC1F824C0C1F828C001
:104BF000C1F82CC0C1F830C04B638C634FF0807C8F
:104C0000C1F83CC0F0BD0000EFBEADDE4FF0E022C9
:104C100052694FF47A73B2FBF3F250434FF0E02243
:104C2000916900BF4FF0E02292698A1A8242F9D35B
:104C30007047000010B5FBF785FA04460448007879
:104C4000401C034908702046FBF780FA10BD0000A5
:104C50008000002010B5FBF775FA04460448007880
:104C6000401E034908702046FBF770FA10BD000093
:104C70008000002070B504462068A0F11405284685
:104C800000F0CEFE002070BD2DE9F04105460C4637
:104C90009046204600F020FFB8F1000F03D0B8F195
:104CA000010F23D105E004F11401284600F060F85B
:104CB0001CE02E680FE0A6F1140794F8350097F871
:104CC0003510884206DA04F1140107F1140000F0EF
:104CD0004FF802E03668AE42EDD100BFAE4204D1DB
:104CE00004F11401284600F043F800BF00BF002083
:104CF000BDE8F08110B5044604F1140000F01AF884
:104D0000002010BD0FB438B505A800907F210848D9
:104D1000009B049A01F0ECF804467F2C00D97F2414
:104D20000348FFF725FE0020009038BC5DF814FB17
:104D300090A60020406000607047406000607047AF
:104D40004060006070470268516002680A6001605C
:104D5000486070470268516002680A6001604860FC
:104D600070470268516002680A60016048607047DD
:104D70004268116042684A604160086070470146BD
:104D80000868884201D1012070470020FCE70146F5
:104D90000868884201D1012070470020FCE7D0E973
:104DA00000215160D0E9001211604060006070473E
:104DB000D0E900215160D0E900121160406000602C
:104DC000704700002DE9F041054615B90020BDE807
:104DD000F081E81C20F003054E480068854201D9A7
:104DE0000020F4E70C2D00D20C254FF0FF314A488B
:104DF00000F04FFB4948006849490968461A7EE0BF
:104E00004748006884196088002874D106F10C00B6
:104E10006168081AA8426ED306F10C006168091A8D
:104E200005F11800814230D306F10C0000EB0508B3
:104E30003B48006800EB08074FF4F550388000202D
:104E4000788060687860BE60C4F80480012060806B
:104E50003048796800680C30814205D03049786864
:104E600009680844C0F808802E48016805F10C0064
:104E700008442C4908602C4800680968884219D207
:104E8000284800682849086014E00120608024490F
:104E900060680968611A401A224909680844214972
:104EA0000860214800680968884203D21D480068EC
:104EB0001D4908604FF4F55020801848006884426E
:104EC00012D107E015480068406815490968084490
:104ED0001249086011480068408828B10F480068EE
:104EE000124909688842EDD10B4800F0B5FA04F187
:104EF0000C006CE7FFE70A48006830444668054844
:104F00000068401BB0423FF67BAF034800F0A4FAB4
:104F100000205CE79000002010A700208C000020FB
:104F200084000020940000209800002088000020C9
:104F30002DE9F04105460E4617462946042000F0AB
:104F400042F9044614B92046BDE8F0816772204654
:104F5000FFF7D0FE2684218C8800FFF733FFE06145
:104F6000E06920B9204600F058F90020ECE7002065
:104F70006084A084E08404F12800FFF7DBFE204673
:104F8000E2E72DE9F74304460E46002700F066FDF0
:104F90000546FBF7D7F88046608C38B9029828B9E7
:104FA0004046FBF7D3F8B81EBDE8FE833AE0002088
:104FB0002863029830B94046FBF7C8F86FF001004B
:104FC0002863F1E7627A294604F11400FFF75CFEDA
:104FD000029800280CDD00F015FE074602AA002109
:104FE00005F14C0000F06AFE05F14C0000F0D2FE25
:104FF0004046FBF7ABF800F06DF9286B08B1286B61
:10500000D2E7FBF79FF88046029800280ADD00F0FF
:10501000F9FDC71B0298C01B02900298002801DA14
:1050200000200290608C0028C1D0E18CE06950F82B
:1050300021003060E08C401CE084E08C218C8842B0
:1050400001DB0020E084608C401E608404F12800B5
:10505000FFF795FE50B904F12800FFF70BFE40461C
:10506000FBF774F800F036F900209DE74046FBF7A7
:105070006DF8002098E770B504460D4600222946D9
:10508000204600F001F870BD2DE9F74304460E46B6
:10509000002700F0E3FC0546FBF754F88046608CDF
:1050A000218C884207D1029828B94046FBF74EF878
:1050B000F81EBDE8FE8339E000202863029828B975
:1050C0004046FBF743F86FF00200F2E7627A2946A8
:1050D00004F12800FFF7D8FD029800280CDD00F04D
:1050E00091FD074602AA002105F14C0000F0E6FD03
:1050F00005F14C0000F04EFE4046FBF727F800F0AB
:10510000E9F8286B08B1286BD3E7FBF71BF880465A
:10511000029800280ADD00F075FDC71B0298C01B2D
:1051200002900298002801DA00200290608C218C05
:105130008842C1D0A18CE06940F82160A08C401C5D
:10514000A084A08C218C884201DB0020A084608C8C
:10515000401C608404F11400FFF711FE50B904F103
:105160001400FFF787FD4046FAF7F0FF00F0B2F8B1
:1051700000209EE74046FAF7E9FF002099E7F0B5E6
:105180000C460546E6B2042A15D300F0030797B98A
:10519000014646EA062343EA034304E008C108C186
:1051A00008C108C1103A102AF8D201E008C1121F44
:1051B000042AFBD20D4601E005F8016B171EA2F18F
:1051C0000102F9D1F0BD2DE9F04106460F46304607
:1051D00000F044F80546E868FFF7F4FD044614B90A
:1051E0000020BDE8F08100212046EA68FFF7C7FFF4
:1051F00026720020607208223946204600F023FA09
:10520000FAF7A0FF804604F10C01281DFFF79BFD73
:105210004046FAF79BFF2046E3E770B504460020BE
:105220002072FAF78FFF054604F10C00FFF7B7FD77
:105230002846FAF78BFF2046FFF7AEFA70BD70B52F
:10524000044600202072FAF77DFF054604F10C00A9
:10525000FFF7A5FD2846FAF779FF70BD0246002149
:105260000AE0074800EB01100078904203D104489F
:1052700000EB01107047491C0529F2DB0020F9E71B
:105280009C0000202DE9F04104460D4616462846B4
:10529000FFF7E4FF074645F0800020720822314600
:1052A000204600F0D0F9FAF74DFF804604F10C01DA
:1052B000381DFFF748FD4046FAF748FFBDE8F0818A
:1052C0000146087A00F0800008B1012070470020F4
:1052D000FCE700002DE9F041FAF734FF07461B48D0
:1052E000008868BB1A480068FDF7D8FC461E1948BC
:1052F00050F83600A0F114041748006884421BD00F
:1053000016490E701448056804601548007848B9BD
:1053100004F11C0105F11C00FAF71BFF3846FAF7EF
:1053200015FF0CE004F11C0105F11C00FAF711FF58
:105330003846FAF70BFF02E03846FAF707FF02E0BB
:105340003846FAF703FFBDE8F0810000EC000020CA
:10535000F800002030A70020F0000020F40000201A
:105360008000002070B50446FAF7ECFE054614F8FC
:10537000340F20F00F0040F0010020706278343CC0
:105380000A4B03EBC20004F1140142681160426849
:105390004A604160086000BF0549A06B0968084386
:1053A000034908602846FAF7D1FE70BD30A70020F7
:1053B000F800002070B50446FAF7C4FE054604F173
:1053C0001400D0E900215160D0E900121160406062
:1053D000006000BF94F83510094A02EBC100016873
:1053E000814201D1012100E0002129B10548A16BD2
:1053F00000688843034908602846FAF7A7FE70BD95
:1054000030A70020F80000202DE9F04105460E46A7
:10541000174629460120FFF7D6FE044614B9204658
:10542000BDE8F0812046FFF765FCA6836772204641
:10543000F6E72DE9F04104460D4616461F462A467A
:1054400001212046FFF71EFF2046FFF753FCA683ED
:1054500067720020BDE8F08170B504460025FAF7B8
:1054600071FE064604F11400FFF789FC28B904F127
:105470001400FFF7FFFB012502E0A08B401CA08376
:105480003046FAF763FE012D01D1FFF723FF00201C
:1054900070BD73B50546FAF755FE0646A88B002881
:1054A00006DDA88B401EA8833046FAF74FFE28E0A1
:1054B000019828B93046FAF749FE6FF001007CBD2B
:1054C00000F0CCFA0446002020636A7A214605F1F8
:1054D0001400FFF7D9FB0198002809DD01AA00217B
:1054E00004F14C0000F0EAFB04F14C0000F052FC27
:1054F0003046FAF72BFEFFF7EDFE206B08B1206B6C
:10550000DDE70020DBE7000008B509A0FFF7FAFBA4
:105510000AA0FFF7F7FB12A002230122032100904B
:1055200012A0FFF7EFFB19A0FFF7ECFB08BD00008E
:105530000A205C207C202F0A000000002D205254FD
:10554000202D2020202020546872656164204F7037
:1055500065726174696E672053797374656D0A00B2
:10556000417567202038203230313900202F207CCF
:10557000205C202020202025642E25642E256420F8
:105580006275696C642025730A0000002032303097
:1055900036202D203230313920436F70797269679F
:1055A00068742062792072742D7468726561642059
:1055B0007465616D0A00000070B500F023FB0646BB
:1055C000FFF7BCF81A4805682BE0A5F11404A06A9F
:1055D000301A6FF00041884222D22D682046FDF734
:1055E00006FCFFF7BBF8D4E90710884700F00AFB78
:1055F0000646FFF7A3F8607A00F0020058B1607A1F
:1056000000F0010038B1607A20F00100607220469D
:1056100000F0C0FB05E0607A20F00100607200E05D
:1056200002E003488542D0D100BFFFF797F870BD74
:105630000C01002001460A4600E0521C10780028A8
:10564000FBD1501A704770B50346A2B118460C46FC
:1056500000BF14F8016B00F8016B3EB902E00025B1
:1056600000F8015B551E2A1EF9D102E0551E2A1EC4
:10567000EFD100BF00BF184670BD00002DE9F0411A
:1056800005460E46E81C20F0030726F00308B8F193
:10569000180F09D9A8F11800B84205D3A8EB0700E4
:1056A00018381E49086006E0324629461CA0FFF75C
:1056B00029FBBDE8F0812948076004684FF4F550E4
:1056C0002080164800680C3060600020A060608078
:1056D0002249606809680844214908604FF4F55080
:1056E0000968088001201E49096848800B48006845
:1056F0000C301B4909684860084800680C3018499C
:10570000096888600023012216A11848FFF791FE5E
:10571000124800681649086000BFCAE790000020E0
:105720006D656D20696E69742C206572726F7220D0
:10573000626567696E206164647265737320307896
:1057400025782C20616E6420656E6420616464722B
:1057500065737320307825780A00000084000020EB
:1057600088000020686561700000000010A700201C
:105770008C00002010B500200B490880002405E0B3
:105780000A4901EBC400FFF7D8FA641C202CF7DBB0
:105790001F20074908700020064908600649086074
:1057A0000648FFF7CAFA10BDEC00002030A7002021
:1057B000F4000020F0000020F8000020FC00002091
:1057C00070B508480068FDF769FA451E064850F8AC
:1057D0003500A0F114040548046004F11C00FAF738
:1057E000E6FC70BDF800002030A70020F00000208B
:1057F00010B5002405E0044901EBC400FFF7A0FA4E
:10580000641C002CF7D010BD040100201FB500243B
:1058100005E00D4901EBC400FFF792FA641C002C6F
:10582000F7D00A200421CA01084BCDE90032CDE9A6
:1058300002100023064A07A1084800F0CDF80748E7
:1058400000F034F91FBD00000C010020B0A80020BA
:105850003D5B000874696D657200000030A800208F
:105860002DE9FF5F06460F4690461D46DDE90EAB6B
:1058700031460020FFF7A7FC8146B9F1000F03D1A4
:10588000002004B0BDE8F09F2846FFF79BFA0446CD
:1058900024B94846FFF7C1FC0020F2E743463A46E8
:1058A000314648468DE8300CFDF73EFA4846E8E7B9
:1058B00010B50446204600F0D7F810BD70B5124868
:1058C0000468FAF73FFC05462046FFF773FD042005
:1058D00084F8340004F14C0000F027FA2046FFF76A
:1058E000EFFC012805D1A06F18B92046FFF7A7FCEF
:1058F00004E004F114010548FFF72CFA2846FAF7F2
:1059000025FCFFF7E7FC70BDF0000020FC00002044
:1059100001E000F001F8FCE770B537E0FAF712FC9F
:105920000546FDF7F7F918B31B480068A0F1140409
:1059300004F11400D0E900215160D0E90012116097
:105940004060006000BFFEF7F9FEA06F10B1204676
:10595000A16F88472046FFF7B3FC012805D1FEF769
:10596000FDFE2846FAF7F2FB70BDFEF7F7FE03E0F6
:105970002846FAF7EBFBF7E72846FAF7E7FBA06AB9
:10598000FEF70AFF2046FFF748FC00BFFDF7C2F90B
:105990000028C3D100BFE7E7FC0000201FB520208E
:1059A0001F21C200074BCDE90032CDE902100023D0
:1059B000054A06A1074800F00FF8064800F076F8FF
:1059C0001FBD000090A50020115900087469646C87
:1059D0006500000010A500202DE9FF5F05460C467C
:1059E00016461F46DDE910ABDDE90E89224600218F
:1059F0002846FFF747FC3B463246214628468DE8BD
:105A0000000FFDF791F904B0BDE8F09F70B50446B2
:105A1000204600F0E7F80546284600F025F870BD5E
:105A200070B5044694F8340000F00F00022802D04C
:105A30004FF0FF3070BDFAF785FB054604F1140006
:105A4000FFF7B6F904F14C0000F03AFA2846FAF7ED
:105A50007DFB2046FFF786FC0020EBE7014800684D
:105A600070470000F000002031B5FAF76BFB0546E7
:105A70000D480468204600F02FF86A46002104F122
:105A80004C0000F01BF904F14C0000F083F92846AB
:105A9000FAF75CFBFFF71EFC206B801C08B90020A6
:105AA0002063002038BD0000F000002010B504463F
:105AB0003434A078607061780120884060600220F2
:105AC00004F834092046FFF7ABFFFFF7C7FF08B122
:105AD000FFF700FC002010BD70B5044694F83400B8
