:020000040800F2
:1000000010B800203902000851170008EB01000861
:100010004D170008750E00082B280008000000008E
:100020000000000000000000000000003F1F00086A
:10003000FB0E00080000000073010008A12000086A
:10004000530200085302000853020008530200083C
:10005000530200085302000853020008530200082C
:10006000530200085302000853020008530200081C
:10007000530200085302000853020008530200080C
:1000800053020008530200085302000853020008FC
:1000900053020008530200085302000853020008EC
:1000A00053020008530200085302000853020008DC
:1000B0004D210008530200085302000853020008B3
:1000C00053020008530200085302000853020008BC
:1000D00053020008CD250008152600085302000829
:1000E000530200085302000853020008530200089C
:1000F000530200085302000853020008530200088C
:10010000530200085302000853020008530200087B
:10011000530200085302000853020008530200086B
:10012000530200085302000853020008530200085B
:10013000DFF80CD000F00AFC00480047C7090008AF
:1001400010B80020EFF3108072B6704780F310886B
:100150007047334A1368012B04D04FF0010313603A
:10016000304A1060304A116030484FF080510160D1
:100170007047EFF3108272B62948016891B14FF0D1
:10018000000101602748016829B1EFF3098121E9E5
:10019000F00F00680160244909680968B1E8F00FB0
:1001A00081F3098882F310884EF0040E70471E49CF
:1001B00008601C494FF00000086019494FF0010029
:1001C00008601B484FF47F01D0F8002041EA02018B
:1001D000016016484FF080510160164800680068C1
:1001E00080F3088861B662B670471EF0040F0CBF3A
:1001F000EFF30880EFF3098020E9F00F40F804EDF9
:100200001EF0040F0CBF80F3088880F3098800B546
:1002100004F06CF85DF804EB4EF0040E704700003B
:1002200010010020080100200C01002004ED00E076
:1002300020ED00E008ED00E0064880470648004752
:10024000FEE7FEE7FEE7FEE7FEE7FEE7FEE7FEE786
:10025000FEE7FEE7ED2000083101000840EA010357
:100260009B0703D009E008C9121F08C0042AFAD26C
:1002700003E011F8013B00F8013B521EF9D2704730
:10028000D2B201E000F8012B491EFBD270470022D8
:10029000F6E710B513460A4604461946FFF7F0FF85
:1002A000204610BD034611F8012B00F8012B002A4F
:1002B000F9D118467047F0B480EA0102D40F420029
:1002C000B2EB410F02D20246084611464A0042D024
:1002D000C30DDDB2C1F3C752AD1A202D35DAC1F31B
:1002E000160141F4000204B15242C5F1200602FA9F
:1002F00006F12A411044B3EBD05F23D0C4B1012DE5
:10030000A0EBC35009DCF0BC4FF0004202EAC3523C
:10031000DBB200F5000000F08DBA400000F1807003
:1003200000EBC350A0F1807040EAD170490009E0B1
:10033000490841EAC071A0EBC35000F50000400835
:1003400000EBC350F0BC00F06CBA6142012202EB3A
:100350004101001BF6E7F0BC704781F00041AAE7BD
:1003600080F00040A7E780EA010210B502F00043E8
:10037000400022D04A001FD0010E01EB1261C0F3F1
:100380005600C2F3560240F4000042F40002A0FB03
:10039000022000047F39140400D0401C50EA1240AF
:1003A00001D44000491EC2B20C0604EBD010401C20
:1003B0004008802A02D003E0002010BD20F0010098
:1003C000002900DA0020184310BD30B480EA010291
:1003D00002F0004530F0004221F0004013D090B10F
:1003E000C30DD40DC2F31601C0F31600E41A41F494
:1003F000000140F400027D34914201D3641C00E00E
:100400004900002C02DA30BC002070474FF4000095
:100410000023914201D3891A034340084FEA410166
:10042000F7D151B1914202D14FF0004105E002D223
:100430004FF0010101E06FF0010103EBC4502844CB
:1004400030BC00F0EEB92DE9FE4F804681EA030092
:10045000C00F0C46009021F0004123F00045B8EB9E
:100460000200A94105D24046214690461C460B4653
:10047000024623F00040104347D0270DC7F30A007F
:10048000C3F30A510290401A019040286BDAC3F37B
:10049000130040F4801B0098924620B10023D2EB59
:1004A000030A63EB0B0B01985946C0F1400250461A
:1004B00000F086F906460D4650465946019A00F06E
:1004C0009EF910EB08006141002487EA115284EA8A
:1004D000E7731A4340D0009A62B3019A012A4FEAA7
:1004E000075215DC001B61EB02014FF0004202EAEB
:1004F0000752CDE90042001C41F5801132462B46DF
:1005000000F0D5F903B0BDE8F08F40462146F9E789
:10051000001B61EB0201001C41F5801300185B41D8
:100520002018A2F5001747EB030140EAD570B61971
:100530006D4111E06D084FEA360645EAC0754FEA95
:100540000752001B61EB0201001C41F580114908B4
:100550004FEA30000019514132462B4603B0BDE846
:10056000F04F00F095B90098012240000023D0EB35
:10057000020263EBE073009821464FEAE074B8EBA7
:10058000000061EB0401E9E783F000435BE781F0E1
:10059000004158E72DE9FE4F81EA030404F00044CE
:1005A00021F0004100944FF0000B23F0004350EA8B
:1005B00001045ED052EA03045BD0C3F30A54C1F3D2
:1005C0000A552C44A4F2F3340194A0FB0254C1F365
:1005D000130141F48011C3F3130343F4801301FBAF
:1005E000024400FB034E840A970A44EA815447EA16
:1005F0008357A4FB076802958D0A05FB07854FEA20
:10060000932C04FB0C542705029D4FEA065847EA39
:100610001637B5EB08056EEB070C870E920E47EA0E
:10062000811742EA8312A7FB0201B6EB0B0164EBD0
:1006300000042B0D43EA0C335E1844EB1C50DA46E1
:100640005146E7FB0201C5F313044FEA0B3343EABB
:1006500014534FEA0432019C43EA0603A4F10C044C
:100660000294009CCDE900B400F021F903B0BDE88C
:10067000F08F00200146F9E7C10F80EAE0700844DE
:10068000CA079623002100F0D5B896230022114610
:1006900000F0D0B80EB540F2334102910021CDE90F
:1006A00000110A460B4600F002F903B000BD00F04D
:1006B000004220F00040C10DC0F3160040F40000DD
:1006C0007F2901DA00207047962903DCC1F19601E9
:1006D000C84001E096398840002AF4D04042704773
:1006E00020F00040C10DC0F3160040F400007F2947
:1006F00001DA00207047962903DCC1F19601C84059
:100700007047963988407047C1F30A5210B5C1F35B
:10071000130140F2FF3341F480119A4201DA0020C4
:1007200010BD40F233439A42A2F2334203DC5242FC
:1007300000F055F810BD904010BD00F0004230F0C0
:1007400000400AD0C10D01F56071C0F3160042EA05
:100750000151C2084007114370470020014670470D
:1007600001F0004330B421F0004150EA010206D00C
:100770000A0DA2F56072C1F31301002A02DC30BC3D
:1007800000207047440F44EAC104C100E01830BCA7
:1007900000EBC25000F045B8002801DBC0F100407A
:1007A000002901DBC1F1004181427047002801DBD3
:1007B000C0F10040002901DBC1F1004188427047CF
:1007C000202A04DB203A00FA02F100207047914011
:1007D000C2F1200320FA03F3194390407047202A06
:1007E00004DB203A21FA02F00021704721FA02F3DB
:1007F000D040C2F120029140084319467047202A98
:1008000006DBCB17203A41FA02F043EAE07306E038
:1008100041FA02F3D040C2F1200291400843194648
:1008200070470029A8BF7047401C490008BF20F04E
:100830000100704710B4B0FA80FC00FA0CF050EAE6
:10084000010404BF10BC704749B1CCF1200421FA67
:1008500004F411FA0CF118BF012121430843A3EB62
:100860000C01CB1D4FEA00614FEA102042BF00206F
:1008700010BC704700EBC35010440029A4BF10BC4B
:100880007047401C490008BF20F0010010BC7047B1
:1008900010B5141E73F1000408DA401C41F1000188
:1008A00092185B411A4301D120F0010010BD2DE9DF
:1008B000F04D92469B4611B1B1FA81F202E0B0FAD6
:1008C00080F220329046FFF77BFF04460F4640EA55
:1008D0000A0041EA0B0153465A46084313D0114619
:1008E00053EA010019D0C8F140025046FFF777FFE4
:1008F00005460E46504659464246FFF761FF0843FB
:1009000005D0012004E020463946BDE8F08D0020E6
:10091000054346EAE0762C4337430A986305E40A28
:10092000A0EB08000022FD0A44EA47540A3002D531
:1009300000200146E9E7010510196941DDE9084594
:1009400000196941BDE8F04DA2E70000064C074DD3
:1009500006E0E06840F0010394E80700984710348F
:10096000AC42F6D3FFF7E8FB48740008687400084F
:1009700070B58C1810F8015B15F0070301D110F861
:10098000013B2A1106D110F8012B03E010F8016B8E
:1009900001F8016B5B1EF9D12B0705D40023521E11
:1009A0000DD401F8013BFAE710F8013BCB1A921C79
:1009B00003E013F8015B01F8015B521EF9D5A14277
:1009C000D8D3002070BD10B5FFF7BCFB05F0C2F80E
:1009D000002010BD10B5FF2000F038F80446362C7A
:1009E00001D1002010BD3621FF2000F0C5F8FF2006
:1009F00000F02CF80446362C01D10020F2E701204B
:100A0000F0E700001FB50E480E490860486010204E
:100A100048812020088140200861C8600A48486158
:100A2000001D886108487C38C8610B4610330FCB25
:100A30008DE80F0003480FC800F056FC1FBD0000F2
:100A400000180140B8B300209001234270B586B071
:100A500004460026474B10330FCB8DE80F00454866
:100A60000FC800F0F6FC2546E01704EB10600012FA
:100A7000A02101EB4000C0B23E4A0490D2E904300C
:100A8000D2E90612CDE90030CDE9021239480FC88B
:100A900000F0ACFC374BD3E90420D3E90613CDE9D1
:100AA0000213CDE9002033480FC800F00EFDE01717
:100AB00004EB10600012A4EB0020C0B22D4B049098
:100AC000D3E90420D3E90613CDE90213CDE90020D0
:100AD00028480FC800F08AFC264B10330FCB8DE856
:100AE0000F0024480FC800F0F0FC224BD3E90502A8
:100AF0001969DB69CDE90223CDE900101D480FC853
:100B000000F0A7FCA1201B4B049010330FCB8DE805
:100B10000F0018480FC800F069FC164BD3E90420F9
:100B2000D3E90613CDE90213CDE9002011480FC81F
:100B300000F0CBFC00200F4B0490D3E905021969AB
:100B4000DB69CDE90223CDE900100A480FC800F0A7
:100B500011FC0646074BD3E90420D3E90613CDE97F
:100B60000213CDE9002003480FC800F090FC304686
:100B700006B070BDB8B3002070B586B004460E460E
:100B80003949D1E905030A69C969CDE90231CDE9DD
:100B9000002035480FC800F05CFC2546E01704EB48
:100BA00010600012A02101EB4000C0B22E49049059
:100BB000D1E905030A69C969CDE90231CDE900200F
:100BC00029480FC800F012FC274B10330FCB8DE8DB
:100BD0000F0025480FC800F078FCE01704EB106008
:100BE0000012A4EB0020C0B21F4B0490D3E9050211
:100BF0001969DB69CDE90223CDE900101A480FC855
:100C000000F0F4FB184BD3E90420D3E90613CDE937
:100C10000213CDE9002014480FC800F056FC124B17
:100C2000049610330FCB8DE80F000F480FC800F06B
:100C3000DDFB0D4B10330FCB8DE80F000A480FC8BA
:100C400000F043FC084BD3E905211869DB69CDE9C5
:100C50000213CDE9000204480FC800F018FC0A2076
:100C600004F06AFB06B070BDB8B3002008B51248A6
:100C700001F026FF00F0B0FD012000900F4803783E
:100C80000FA200210C4805F01FFF012000230EA237
:100C900004210090084805F017FF012000230CA252
:100CA00005210090044805F00FFF102201210248A1
:100CB00004F066FF08BD0000D8B20020420000200A
:100CC00073657441000000006E65787400000000D8
:100CD000657869740000000008B5124801F0F0FE64
:100CE00000F07AFD012000900F4803780FA2002148
:100CF0000C4805F0E9FE012000230EA2042100901B
:100D0000084805F0E1FE012000230CA20521009017
:100D1000044805F0D9FE10220121024804F030FFFA
:100D200008BD0000D8B20020430000207365744263
:100D3000000000006E65787400000000657869743A
:100D40000000000038B53A4801F0BAFE00F044FD5A
:100D500038490968C8693849FFF705FB0546FFF7B8
:100D6000BFFC84B20120234634A200210090304809
:100D700005F0AAFE2F490968086A2F49FFF7F3FA20
:100D80000546FFF7ADFC84B2012023462CA20146A4
:100D90000090274805F098FE26490968486A2649C8
:100DA000FFF7E1FA0546FFF79BFC84B201202346DA
:100DB00024A2022100901E4805F086FE012000902A
:100DC0002148007800EB4000204901EB4000037906
:100DD0001FA20421164805F077FE012000231EA261
:100DE00005210090124805F06FFE12490968086D50
:100DF000FFF776FC84B20120234619A20621009059
:100E00000B4805F061FE18490968086DFFF768FC9A
:100E100084B20120234615A207210090044805F062
:100E200053FE10220121024804F0AAFE38BD000042
:100E3000D8B2002034000020000020414B70000098
:100E40004B6900004B64000044000020E0A4002037
:100E50006E6F777400000000657869740000000010
:100E600064756F31000000003800002064756F3237
:100E70000000000000BFFEE700F0805111B10349FF
:100E8000086001E002494860704700000404024025
:100E90000000024021B1026842F00102026004E059
:100EA00002684FF6FE731A40026070471AB1036879
:100EB0000B43036002E003688B430360704710B587
:100EC0000022026847F6F0739A430C6A8B6823434A
:100ED0000C6923434C6923438C692343CC69234326
:100EE0004C6A23438C6A23431A430260CB684360F5
:100EF0000B6883604B68C36010BD704738B51448F9
:100F000001F0DEFD00F068FC0120002311A219466B
:100F100000900F4805F0D8FD11480068FFF7E0FB8E
:100F200084B2012023460FA201460090084805F034
:100F3000CBFD012004230CA202210090044805F0FF
:100F4000C3FD10220021024804F01AFE38BD000043
:100F5000D8B200206175746F666972650000000088
:100F6000640000204B700000657869740000000088
:100F700008B54FF0000A81E04FF0FF3140480068AB
:100F800003F01DFF8246BAF1000F77D14FF4FA70DB
:100F900004F0D2F93B480078FFF777FB3A4900901C
:100FA000FFF713FA8346FFF7C8FB80460022374B52
:100FB000FFF7EAFA064600224FF08043FFF7EAFA0D
:100FC0000446FFF7CDFB3249086051E02D48007818
:100FD000FFF75BFB2C490090FFF7F7F98346FFF71B
:100FE000ACFB06460022294BFFF7CEFA044600224E
:100FF0004FF08043FFF7CEFA8046FFF7B1FB24495C
:10100000086001F00BFD23490870084690F90000C4
:10101000002815DA084690F90000FFF72DFB074677
:101020001D49FFF7A0F906461C49FFF799F9054647
:10103000FFF756FB84B22146194802F097FF14E0EF
:10104000144890F90000FFF717FB07461249FFF715
:101050008AF906461149FFF783F90546FFF740FB79
:1010600084B221460E4802F081FF232004F064F987
:10107000002107480068FFF78FFBA7D17CE700003D
:10108000540000205B0000200000A0430000E03F6F
:101090005C0000205A0000208988A84000003A44E3
:1010A000F4B300201CB54FF0000A57E04FF0FF31B9
:1010B0002B48006803F083FE8246BAF1000F4DD141
:1010C00028480088FFF7E1FA27490090FFF74BF91D
:1010D0008346FFF732FB8046244A254BFFF75AFA36
:1010E00006460022234BFFF7AEF90446FFF70CFB40
:1010F00080B201460190204802F038FF1F4890F965
:101100000000002815DA1D4890F90000FFF7B4FA36
:1011100007461B49FFF727F906461A49FFF720F94A
:101120000546FFF7DDFA84B22146174802F01EFF9C
:1011300014E0124890F90000FFF79EFA07461049A4
:10114000FFF711F906460F49FFF70AF90546FFF7C1
:10115000C7FA84B221460C4802F008FFA6E7000057
:1011600050000020580000201111A1409A9999992F
:101170009999B93F00E88740D8B300205A00002071
:101180008988A84000003A44F4B300202DE9F041DA
:10119000024600250026002000230024002791F8A5
:1011A00003C00CF00F0591F803C00CF0100CBCF15B
:1011B000000F03D091F802C04CEA050591F800C079
:1011C000BCF1000F31D0146800202BE04FF0010C6F
:1011D0000CFA00F3B1F800C00CEA03069E4220D1DD
:1011E00083004FF00F0C0CFA03F7BC4305FA03FC25
:1011F0004CEA040491F803C0BCF1280F06D14FF06B
:10120000010C0CFA00FCC2F814C00AE091F803C00B
:10121000BCF1480F05D14FF0010C0CFA00FCC2F8EC
:1012200010C0401C0828D1D31460B1F800C0BCF134
:10123000FF0F34DD546800202EE000F1080C4FF061
:10124000010808FA0CF3B1F800C00CEA03069E424C
:1012500021D183004FF00F0C0CFA03F7BC4305FAC1
:1012600003FC4CEA040491F803C0BCF1280F05D13B
:1012700000F1080C08FA0CF8C2F8148091F803C0C9
:10128000BCF1480F07D100F1080C4FF0010808FA33
:101290000CF8C2F81080401C0828CED35460BDE87A
:1012A000F08141617047016170470FB41FB50020A4
:1012B0000B9908600AA80FC88DE80F0006A80FC890
:1012C00000F02AFE00200C990860022003F034F997
:1012D00001200B990860052003F02EF900200B99DE
:1012E00008601FBC5DF814FB0FB408B5DDE90521EB
:1012F00041EA0200012100F085FDBDF81200ADF8C1
:10130000000003208DF8020010208DF803006946CC
:101310000398FFF73BFFBDF81000ADF800006946E9
:101320000298FFF733FF01200799086008990860C9
:1013300001B05DF814FB0FB41FB500200B990860D5
:101340000AA80FC88DE80F0006A80FC800F0E4FD3A
:1013500001200C990860022003F0EEF801200B999F
:101360000860052003F0E8F800200B9908601FBC16
:101370005DF814FB0FB47FB5109E00240CA80FC8B5
:101380008DE80F0008A80FC800F0B6FD002514E096
:1013900000200D990860022003F0CEF801200D997D
:1013A00008606006040E0F98006808B1601CC4B2A3
:1013B000012003F0C1F8681CC5B2082DE8DB46B96E
:1013C0000CA80FC88DE80F0008A80FC8FFF7B3FFDF
:1013D00007E00CA80FC88DE80F0008A80FC8FFF79A
:1013E00064FF204604B070BC5DF814FB0FB47FB5F9
:1013F000109C0CA80FC88DE80F0008A80FC800F0BB
:101400008BFD00200D99086000251DE004F0800090
:10141000002803DD01200E99086002E000200E99EB
:1014200008606006040E022003F086F801200D9982
:101430000860022003F080F800200D990860022067
:1014400003F07AF8681CC5B2082DDFDB7FBC5DF8BD
:1014500014FB0FB41FB50AA80FC88DE80F0006A82B
:101460000FC800F059FD01200C9908600B99086025
:10147000052003F061F800200C990860062003F0B5
:101480005BF800200B9908601FBC5DF814FB0FB4DB
:101490001FB50AA80FC88DE80F0006A80FC800F0F6
:1014A0003BFD00200B9908600C99086001200B9906
:1014B0000860062003F040F801200C99086006201F
:1014C00003F03AF81FBC5DF814FB0FB41FB50024FD
:1014D0000AA80FC88DE80F0006A80FC800F00CFD81
:1014E00001200C99086003F027F801200B9908608F
:1014F00003F022F810E0601CC4B2FA2C0CDD0AA83C
:101500000FC88DE80F0006A80FC8FFF7C0FF012025
:1015100004B010BC5DF814FB0D9800680028EAD1F7
:101520000B99086000BFF3E708B50121082000F01F
:1015300069FC0121082000F065FC0121082000F071
:1015400061FC0121082000F05DFC0121082000F071
:1015500059FC0121082000F055FC0121402000F039
:1015600051FC0121402000F04DFC48208DF8030083
:1015700003208DF802001020ADF8000069461B48DA
:10158000FFF704FE2020ADF8000069461748FFF77A
:10159000FDFD4020ADF8000069461448FFF7F6FD58
:1015A0008020ADF8000069461048FFF7EFFD4FF4CA
:1015B0008070ADF8000069460C48FFF7E7FD4FF476
:1015C0000070ADF8000069460848FFF7DFFD012014
:1015D000ADF8000069460648FFF7D8FD0220ADF8D7
:1015E000000069460248FFF7D1FD08BD000C01402C
:1015F0000018014010B504464048007801284ED13B
:101600003F480068D0B13E48001D0068B0B13C487A
:101610000830006890B13A480C30006870B1384822
:101620001030006850B136481430006830B1354889
:10163000006818B13348001D006878BB082003F02B
:101640007BFE00202D4908702D48006808B9012054
:1016500010BD2B48001D006808B90220F8E7284893
:101660000830006808B90320F2E725480C3000680C
:1016700008B90420ECE722481030006808B90520BA
:10168000E6E71F481430006808B90620E0E71D4867
:10169000006808B90720DBE70820D9E7FFE718480A
:1016A0000068012823D11648001D006801281ED1BA
:1016B000134808300068012819D111480C3000681F
:1016C000012814D10E481030006801280FD10C48B1
:1016D0001430006801280AD10A480068012806D1A0
:1016E0000848001D0068012801D104490870012C38
:1016F00002D10120014908700020A9E7240100203F
:10170000108121420001234208B50121102000F080
:1017100079FB8020ADF8000010208DF80300032035
:101720008DF8020069460448FFF730FD8021024829
:10173000FFF7B9FD08BD00000010014010B5802181
:101740000148FFF7AEFD10BD0010014000BFFEE7ED
:101750007047000070B5002100230F22C47804B345
:10176000154C246804F4E064C4F5E064210AC1F176
:101770000403CA40447804FA03F1847814402143F6
:1017800009010E4C0678A155047804F01F050124C8
:10179000AC4005786D11AD0005F1E025C5F80041BC
:1017A00009E0047804F01F050124AC40044D0678DC
:1017B000761145F8264070BD0CED00E000E400E035
:1017C00080E100E002490143024A116070470000D5
:1017D0000000FA050CED00E070B5002419E004F1FA
:1017E000B001C8B2002100F0CFF90021022000F0C2
:1017F000CBF90021102000F0C7F9002505E00121F8
:10180000002000F0C1F9681CC5B2802DF7DB601C18
:10181000C4B2082CE3DB70BD08B50121082000F03C
:10182000F1FA10208DF8030003208DF802004FF428
:101830008060ADF8000069466948FFF7A7FC4FF4E7
:101840008050ADF8000069466548FFF79FFC4FF4F3
:101850000060ADF8000069466148FFF797FC4FF45F
:101860008040ADF8000069465D48FFF78FFC4FF4FB
:101870000050ADF8000069465948FFF787FC4FF467
:1018800080615748FFF70FFD4FF480515448FFF730
:101890000AFD4FF400615248FFF705FD4FF4804107
:1018A0004F48FFF700FD4FF400514D48FFF7FBFC98
:1018B0004FF480514A48FFF7F6FC642001F03AF9F2
:1018C0004FF480514648FFF7ECFC642001F032F9F8
:1018D0004FF480514248FFF7E6FC0021AE2000F0B3
:1018E00053F90021022000F04FF90021102000F0F0
:1018F0004BF90021402000F047F90021812000F041
:1019000043F90021CF2000F03FF90021A12000F091
:101910003BF90021C82000F037F90021A62000F093
:1019200033F90021A82000F02FF900213F2000F01A
:101930002BF90021812000F027F90021FF2000F081
:1019400023F90021D32000F01FF90021084600F000
:101950001BF90021D52000F017F90021802000F0AC
:1019600013F90021D92000F00FF90021F12000F037
:101970000BF90021DA2000F007F90021122000F015
:1019800003F90021DB2000F0FFF80021402000F0E7
:10199000FBF80021202000F0F7F80021022000F0E1
:1019A000F3F800218D2000F0EFF80021142000F062
:1019B000EBF80021A42000F0E7F80021A62000F0B9
:1019C000E3F80021AF2000F0DFF80021AF2000F0A5
:1019D000DBF8FFF701FF0021084600F003F808BD1F
:1019E000000C014070B504460D4605F1B001C8B2C7
:1019F000002100F0C9F8102141EA1410002100F084
:101A0000C3F804F00F0141F00100002100F0BCF820
:101A100070BD00002DE9F04107460E4690460025B6
:101A20000024A8F12000C5B27F2F02DD0027B01CE2
:101A3000C6B21F480078102824D131463846FFF737
:101A4000D1FF002408E004EB05111A4A505C012183
:101A500000F09AF8601CC4B2082CF4DB701CC1B210
:101A60003846FFF7BFFF002409E004EB05110831F9
:101A7000104A505C012100F087F8601CC4B2082CA9
:101A8000F3DB12E031463846FFF7ACFF00240AE0F2
:101A900005EB4501084A02EB4101085D012100F018
:101AA00073F8601CC4B2062CF2DBBDE8F0810000C4
:101AB000E5020020466E00081E6C00082DE9FF5F5D
:101AC000074691461D460E9E4FF0000A002433E063
:101AD000281B401EC1B20A2002F06DF8B9FBF0F0DD
:101AE0000A21B0FBF1F201FB1208BAF1000F13D189
:101AF000681EA04210DDB8F1000F0BD1B34606EB13
:101B0000DB71491001FB0471C8B220220199FFF773
:101B100081FF0FE04FF0010AB34606EBDB7149107D
:101B200001FB0471C8B208F13001CAB20199FFF794
:101B300071FF00BF601CC4B2AC42C9DBBDE8FF9FAF
:101B40002DE9F04104460F461546002615E0AA5D32
:101B500039462046FFF75EFF0A480078102803D177
:101B600004F10800C4B201E0A01DC4B2782C02DD6B
:101B70000024B81CC7B2701CC6B2A85D0028E6D10C
:101B8000BDE8F081E502002070B504460E462EB196
:101B90004FF400611C48FFF786FB04E04FF400613E
:101BA0001948FFF77EFB4FF480611748FFF779FB78
:101BB00000251BE04FF480411348FFF772FB04F04F
:101BC000800028B14FF400510F48FFF76CFB04E090
:101BD0004FF400510C48FFF764FB4FF480410A4872
:101BE000FFF761FB6006040E681CC5B2082DE1DB3F
:101BF0004FF480610448FFF756FB4FF40061024840
:101C0000FFF751FB70BD0000000C01400FB410B590
:101C100088B0119C01210B9800F0F4F801210E9876
:101C200000F0E0F8BDF83000ADF8000003208DF8BA
:101C3000020018208DF8030069460A98FFF7A6FAFB
:101C4000BDF84000401E80B2ADF81800ADF8144059
:101C50000020ADF81A00ADF8160005A90D9800F0A7
:101C600047FC6020ADF804000020ADF80C00012016
:101C7000ADF80600BDF83E00ADF80A00BDF83C0026
:101C800030B1042809D008280CD00C2814D10EE05B
:101C900001A90D9800F0C8FA0EE001A90D9800F016
:101CA00019FB09E001A90D9800F074FB04E001A9FB
:101CB0000D9800F0C9FB00BF00BFBDF83C0030B17B
:101CC000042809D008280CD00C2814D10EE00821D3
:101CD0000D9800F0F5FA0EE008210D9800F04CFB8D
:101CE00009E008210D9800F0A5FB04E008210D98FB
:101CF00000F0E8FB00BF00BF01210D9800F068FA7A
:101D000001210D9800F073FA08B010BC5DF814FBC7
:101D100008B5204800F0D4FEFFF75EFD01200090DA
:101D20001D4803881DA200211A4804F0CDFE1C485E
:101D300090F9000000280BDB01200090184890F972
:101D4000000083B217A20121124804F0BDFE0BE08F
:101D500001200090124890F90000404283B213A283
:101D600001210C4804F0B0FE0120032311A202213E
:101D70000090084804F0A8FE012004230FA20321CC
:101D80000090044804F0A0FE10220021014803F056
:101D9000F7FE08BDD8B20020580000206469730027
:101DA0005A0000202B616E67000000002D616E67F5
:101DB00000000000666972650000000065786974C3
:101DC0000000000029B1064A52690243044B5A61DF
:101DD00004E0034A52698243014B5A617047000094
:101DE0000010024029B1064AD2690243044BDA616D
:101DF00004E0034AD2698243014BDA617047000074
:101E00000010024029B1064A92690243044B9A61CC
:101E100004E0034A92698243014B9A6170470000D3
:101E20000010024030B500210022002400232D4D77
:101E30006D6805F00C0121B1042905D0082923D1D2
:101E400005E0294D056022E0274D05601FE0254D86
:101E50006D6805F47012234D6D6805F48034022519
:101E600005EB92421CB9214D554305600BE01D4D19
:101E70006D6805F400351DB11C4D5543056002E049
:101E8000194D5543056002E0174D056000BF00BFC6
:101E9000144D6D6805F0F0010909154D6B5C05687E
:101EA000DD4045600F4D6D6805F4E061090A104D95
:101EB0006B5C4568DD4085600A4D6D6805F46051D6
:101EC000C90A0B4D6B5C4568DD40C560054D6D680A
:101ED00005F44041890B074D6B5CC568B5FBF3F514
:101EE000056130BD0010024000127A0000093D007B
:101EF000EC020020FC0200200FB408B5BDF8100071
:101F0000ADF8000048208DF8030069460298FFF7FD
:101F10003DF901B05DF814FB0FB408B5BDF8100031
:101F2000ADF8000003208DF8020010208DF80300AA
:101F300069460298FFF72AF901B05DF814FB704773
:101F400010B500F001F810BD0CB500200190009014
:101F50003348006840F480303149086000BF3048A1
:101F6000006800F4003000900198401C0190009837
:101F700018B90198B0F5A06FF1D12948006800F4B4
:101F8000003010B10120009001E000200090009886
:101F9000012843D12348006840F01000214908601F
:101FA0000846006820F0030008600846006840F01A
:101FB000020008601A4840681949486008464068AD
:101FC00048600846406840F48060486008464068C1
:101FD00020F47C1048600846406840F4E8104860EF
:101FE0000846006840F08070086000BF0C48006838
:101FF00000F000700028F9D00948406820F0030084
:10200000074948600846406840F00200486000BF49
:102010000348406800F00C000828F9D10CBD00000E
:10202000001002400020024008B50D4800F048FDB5
:10203000FFF7D2FB012000230AA2022100900848EA
:1020400004F042FD0120042309A20321009004486A
:1020500004F03AFD10220021014803F091FD08BD73
:10206000D8B2002066697265206F6B210000000005
:102070006578697400000000042808D14FF0E02161
:10208000096941F004014FF0E022116107E04FF0CF
:10209000E021096921F004014FF0E022116170474D
:1020A00010B502F05DFA03F049FA02F069FA10BDCA
:1020B00010B504466FF00400FFF7DEFFE11704EBF4
:1020C0005171C1F3C701074A11701046007800EB47
:1020D0004001C1EBC0104FF6FF7101EAC000024998
:1020E000088010BDE8020020EA02002010B5134865
:1020F000006840F001001149086008464068104936
:1021000008400E494860084600680E4908400B49DF
:1021100008600846006820F480200860084640688F
:1021200020F4FE0048604FF41F008860FFF708FFAE
:102130004FF000600449086010BD0000001002402C
:102140000000FFF8FFFFF6FE08ED00E010B50121EA
:10215000880700F058F870B319480078401C1849F7
:10216000087008460078642801DD002008701448D3
:102170000078282190FBF1F201FB1200012809D11F
:102180001048007830B1FFF727FB0C2201210E48E0
:1021900003F0F6FC0A480078142190FBF1F201FBF1
:1021A0001200022807D10948006820B90020FFF773
:1021B00021FA064908600121880700F015F810BDD2
:1021C000E7020020E6020020D8B20020180100201B
:1021D00021B1028842F08002028004E002884FF6BA
:1021E0007F731A4002807047CA430282704721B150
:1021F000028842F00102028004E002884FF6FE737A
:102200001A400280704730B50246002000230024A7
:10221000158A05EA0103958905EA010413B10CB199
:10222000012000E0002030BD70B500240022002312
:10223000058C4FF6FE7635400584028C8388048B2E
:102240004FF68F752C40B51E2C400D882C43751E03
:102250002A400D892A434D882A43144DA8420BD0A9
:10226000134DA84208D0134DA84205D0124DA842E4
:1022700002D0124DA84213D14FF6F7752A404D896E
:102280002A434FF6FB752A408D882A434FF6FF6597
:102290002B404FF6FF552B408D892B43CD892B4387
:1022A00083800483CD888586028470BD002C014024
:1022B000003401400040014000440140004801401A
:1022C0000A460021018B4FF6F77319401143018331
:1022D0007047000070B5002400220023058C4FF6E3
:1022E000EF7635400584028C8388048B48F6FF75B1
:1022F0002C404FF6FF452C400D884FF6FF7606EA3E
:1023000005252C434FF6DF752A400D8906EA051591
:102310002A434D8806EA05152A43154DA84202D0E6
:10232000144DA8421DD14FF67F752A404D894FF6B6
:10233000FF7606EA05152A434FF6BF752A408D88B9
:1023400006EA05152A434FF6FF352B404FF2FF757D
:102350002B408D8906EA85052B43CD8906EA850544
:102360002B4383800483CD880587028470BD0000E1
:10237000002C0140003401400A460021018B4FF23D
:10238000FF7319404FF6FF7303EA022319430183D9
:102390007047000070B5002400220023058C4FF622
:1023A000FF6635400584028C8388848B4FF68F75D9
:1023B0002C404FF6FC752C400D882C434FF6FF55F2
:1023C0002A400D894FF6FF7606EA05252A434D88F7
:1023D00006EA05252A43154DA84202D0144DA8420D
:1023E0001DD14FF2FF752A404D894FF6FF7606EA60
:1023F00005252A434FF6FF352A408D8806EA052534
:102400002A434EF6FF752B404DF6FF752B408D8904
:1024100006EA05152B43CD8906EA05152B43838073
:102420008483CD888587028470BD0000002C014024
:10243000003401400A460021818B4FF6F7731940A2
:10244000114381837047000070B5002200230024EF
:10245000058C4EF6FF7635400584038C8488828B8C
:1024600048F6FF752A404FF6FF452A400D884FF683
:10247000FF7606EA05252A434DF6FF752B400D89A8
:1024800006EA05352B434D8806EA05352B430B4DEF
:10249000A84202D00A4DA84208D14BF6FF752C4045
:1024A0008D894FF6FF7606EA85152C43848082835A
:1024B000CD88A0F84050038470BD0000002C01407E
:1024C000003401400A460021818B4FF2FF7319400E
:1024D0004FF6FF7303EA0223194381837047818615
:1024E00070470187704781877047A0F84010704798
:1024F000002202881D4B98420ED01D4B98420BD0F3
:10250000B0F1804F08D01B4B984205D01A4B98422F
:1025100002D01A4B984204D14FF68F731A404B8861
:102520001A43174B984207D0164B984204D04FF6E7
:10253000FF431A40CB881A4302808B8883850B881F
:1025400003850A4B98420BD0094B984208D00E4B9A
:10255000984205D00D4B984202D00D4B984201D1C4
:102560000B7A03860123838270470000002C014010
:10257000003401400004004000080040000C00400E
:1025800000100040001400400040014000440140A1
:102590000048014008B50A4800F092FAFFF71CF91C
:1025A000012000900748037807A20021044804F0A6
:1025B0008BFA0C220121024803F0E2FA08BD000068
:1025C000D8B20020280000207069640000B58BB0EC
:1025D00001F0C6FF40F224410B4800F061F878B1E9
:1025E0000A48006828220A490A906846FDF736FE24
:1025F000074810380FC801F0C5FA034800F00CF97D
:1026000001F0BEFF0BB000BD003801400800002003
:1026100078B2002000B58BB001F0A2FF40F2244157
:102620000B4800F03DF878B10A48006828220A49B2
:102630000A906846FDF712FE074810380FC801F0EF
:10264000A1FA034800F0E8F801F09AFF0BB000BDD2
:10265000004400400C000020B0B2002021B182896B
:1026600042F40052828104E082894DF6FF731A40E1
:10267000828170471AB1838A0B43838202E0838A86
:102680008B438382704702460020B1F5007F00D162
:1026900000BF13880B400BB1012000E00020704701
:1026A00070B50246002400230025002040F66A167B
:1026B000B14200D100BFC1F3421501F01F03012652
:1026C00006FA03F3012D02D19689334006E0022D6C
:1026D00002D1168A334001E0968A33400C1201265B
:1026E00006FA04F41688344013B10CB1012000E05E
:1026F000002070BDF0B50346002400260025002010
:1027000040F66A17B94200D100BF1846C1F342141F
:1027100001F01F06012707FA06F5012C01D10C3044
:1027200004E0022C01D1103000E014301AB1076827
:102730002F43076002E00768AF430760F0BD000069
:102740002DE9F04786B005460E460024A24600BF9C
:10275000A1460027B08900B100BF2F462C8A4CF655
:10276000FF700440F08804432C82AC894EF6F310CD
:102770000440B08831890843718908430443AC811F
:10278000AC8A4FF6FF400440B0890443AC8201A8F4
:10279000FFF748FB1F48874202D1DDF810A001E097
:1027A000DDF80CA0A88900F4004040B10AEBCA0093
:1027B00000EB0A1031684900B0FBF1F807E00AEBC2
:1027C000CA0000EB0A1031688900B0FBF1F8642000
:1027D000B8FBF0F004012009642101FB1089A889ED
:1027E00000F4004040B1322000EBC900B0FBF1F032
:1027F00000F00700044308E0322000EB09106421D8
:10280000B0FBF1F000F00F0004432C8106B0BDE8EE
:10281000F08700000038014001468888C0F30800B6
:102820007047C1F308028280704700BFFEE70000D6
:10283000014609B900207047C8B220B1C8B20E4A9B
:10284000105C401CF7E701F47F4028B10A48C1F34F
:102850000722805C0930EEE701F47F0028B10648CA
:10286000C1F30742805C1130E5E7034800EB1160DB
:1028700000781930DFE70000FC6A000802E008C8B1
:10288000121F08C1002AFAD170477047002001E0EA
:1028900001C1121F002AFBD17047000003490868DC
:1028A000884201D0012070470020FCE7EC000020A6
:1028B0002DE9FC5F04468B4615461E46DDE90C9A61
:1028C000DDE90E7804F114004060006000BF1C34A4
:1028D0006560A660C4F80C90C4F810A02321D4E968
:1028E000030202F0E2F8D4E9033C63441A1F0F4BE1
:1028F000D4E9010101F0FAFD2060A7766776002097
:10290000E061C4F82880C4F82C8060612076E0651E
:1029100020661C3C00902346054A2146019004F1A4
:102920004C0002F0A8FE0020BDE8FC9FE951000821
:10293000495400082DE9F04704460E4617469846CC
:10294000DDF8209084F80990607A20F00100607230
:10295000E66127620020A062C4F82480002506E01A
:1029600004F1140101EBC50001F080FE6D1C012D86
:10297000F6DBBDE8F08710B50246002001460EE008
:1029800002F1140303EBC100D0E900436360D0E916
:10299000003423604060006000BF481C01460129EC
:1029A000EEDB10BD70B50546284601F0A1FE0446D9
:1029B0000CB9002070BD0020E0602046FAE700005E
:1029C00010B50446114812490860042048604020B0
:1029D00008811048C86002200861002088820B48E6
:1029E0000D49086004204860802008810948C860BB
:1029F00002200861042088822146054803F000FE79
:102A00002146054803F0FCFD10BD00000008014010
:102A1000D8B3002000040040F4B3002070B518487B
:102A2000016818480068FDF7B7FE0CD2144800682A
:102A300080F00046134801683046FDF7ADFE02D233
:102A4000002010490860104801680E480068FDF732
:102A50008AFC0646FDF72BFE45B20C480078284458
:102A600044B214F11E0F02DA6FF01D0402E01E2CB6
:102A700000DD1E240548047090F9000070BD0000C0
:102A8000600000205C00002064000020680000203E
:102A9000002410E04FF0FF310748006802F08FF982
:102AA000044644B90549086B01F090F8034A918E39
:102AB000106BFDF7ECFBEDE70C000020A0B200204E
:102AC000024600210EE0C1EBC10002EB400007A36B
:102AD0001B8803800020C1EBC10302EB43039881F4
:102AE000481CC1B21029EEDB012070472000000015
:102AF000002411E04FF0FF310848006802F05FF950
:102B000004464CB90648C16A06A001F091FD044A8A
:102B1000918ED06AFDF7BBFBECE7000008000020B7
:102B200068B20020CAD5B5BDCAFDBEDD3A25730A1C
:102B3000000000000146114A12884A434FF0E0238A
:102B40005A6100229A611A46126942F001021A6122
:102B500000BF4FF0E022106900F001021AB100F44A
:102B60008032002AF5D04FF0E022126922F00102F3
:102B70004FF0E0231A6100229A617047EA020020B8
:102B80001CB50024B0E14FF0FF3201A9D74800681E
:102B900001F08DFE0446002CF4D101982D2878D246
:102BA000DFE800F07717401D46494A59207E787BC0
:102BB0006768779194818297ABACF2F3EFEEED23E7
:102BC000ECEBEA26E9E8E7E6E5E4E3E229E12C2D8F
:102BD000E00003F055FDC6A001F02AFD83E1FFF7F8
:102BE000D9FC80E1FEF742F87DE103F021FD7AE1B6
:102BF000FFF78EF877E1FEF781F974E100BFC64870
:102C00000068FDF76DFD85B200202B46C3A20621AA
:102C10000090C34803F058FF10220121C04802F081
:102C2000AFFF60E100F070FABEA001F001FD5AE1D3
:102C300000F06AFA57E100BF00200090C348037813
:102C4000C3A20021B64803F03FFF0C220121B44883
:102C500002F096FF47E101200023BEA2014600904A
:102C6000AF4803F031FF0C220121AD4802F088FF8C
:102C700039E100BF00200090B7480378B7A20021D7
:102C8000A74803F021FF10220121A54802F078FF98
:102C900029E123E1FEF720F825E1FEF753F822E1D0
:102CA00000F032FA1FE100BF00200090AD48037829
:102CB000ADA200219A4803F007FF10220121984895
:102CC00002F05EFF0FE1FEF73DF80CE100F01CFAA8
:102CD00009E101200023A6A203210090904803F0FF
:102CE000F3FE102201218E4802F04AFF4FF47A7061
:102CF00002F022FB00F008FAF5E000BF9D490968E8
:102D0000C8699D49FDF72FFB0646FDF7E9FC85B232
:102D100000202B4681A201460090814803F0D4FE9A
:102D200094490968086DFDF7DBFC85B200202B464D
:102D300092A2062100907A4803F0C6FE91490968E4
:102D4000086DFDF7CDFC85B200202B468EA2072131
:102D50000090734803F0B8FE10220121704802F081
:102D60000FFFC0E0ABE0A7E0A3E09FE09BE077E0CF
:102D700075E064E064E061E05DE04DE04BE035E08B
:102D80001CE01AE001E0FFE700BF7A490968086A21
:102D90007949FDF7E8FA0646FDF7A2FC85B2002066
:102DA0002B467BA2012100905D4803F08DFE10228E
:102DB00001215B4802F0E4FE95E000BF6D4909681F
:102DC000486A6D49FDF7CFFA0646FDF789FC85B2E2
:102DD00000202B466FA202210090514803F074FEA0
:102DE000102201214E4802F0CBFE7CE00020009032
:102DF0006948007800EB4000684901EB4000037926
:102E000067A20421464803F05FFE102201214448D6
:102E100002F0B6FE67E000BF002000906248038821
:102E200062A200213E4803F04FFE102201213C48DF
:102E300002F0A6FE57E000F067F954E000BF00BFC3
:102E4000002000905A4803885AA20021344803F019
:102E50003BFE10220021324802F092FE43E000BF08
:102E6000554890F9000000280BDB012000905248E3
:102E700090F9000083B251A20121294803F024FEF9
:102E80000BE0012000904C4890F90000404283B2D2
:102E90004CA20121224803F017FE102200212048F5
:102EA00002F06EFE1FE000F02FF91CE0FFF7BCF807
:102EB00019E0FEF72DFF16E000F026F913E00120DF
:102EC00000904248037842A20321154803F0FCFD1C
:102ED00010220021124802F053FE04E03DA00199A7
:102EE00001F0A6FB00BF00BF4DE60000000000207F
:102EF0007468726561645F646973706C6179A3BAA8
:102F00007461736B31BDE7C3E6B8FCD0C2B3C9B915
:102F1000A6A3A10A00000000640000204B7000007E
:102F2000D8B200207468726561645F646973706C04
:102F30006179A3BABBD8B5BD6D61696EBDE7C3E663
:102F4000B8FCD0C2B3C9B9A6A3A10A0028000020CA
:102F5000706964006F6B000042000020736574416B
:102F60000000000043000020736574420000000070
:102F70006F6B2100340000200000204164756F3128
:102F8000000000003800002064756F32000000006F
:102F90004B6900004B64000044000020E0A40020C6
:102FA0006E6F7774000000001C00002050776D00E9
:102FB00058000020646973005A0000202B616E677E
:102FC000000000002D616E67000000005B00002023
:102FD000726563007468726561645F646973706CC4
:102FE0006179A3BACFD4CABEB8FCD0C2B4EDCEF3D7
:102FF000A3ACB4EDCEF3616374696F6E3A25640AD5
:103000000000000008B5002416E04FF0FF326946CA
:103010000A48006801F04BFC044654B908A0009926
:1030200001F006FB0098C1B20F48007802F09EFE46
:1030300002E00EA001F0FCFAE7E70000200100200A
:103040007468726561645F6B657968616E646C65F4
:10305000A3BACAD5B5BDB0B4BCFC3A25642CBFAA8E
:10306000CABCB4A6C0ED0A001E00002074687265D8
:1030700061645F6B657968616E646C65A3BAB0B4B6
:10308000BCFCBDD3CAD5CAA7B0DCA3A10A0000000E
:1030900070B505460B48006898B90020FEF7AAFAFB
:1030A000084908600846006858B1084601680648A3
:1030B000006801F076FC044614B904A001F0B8FAE7
:1030C00000BF70BD180100202001002074696D65EB
:1030D000725F6B65797363616EA3BAB0B4BCFCB701
:1030E000A2CBCDB3C9B9A6A3A10A000010B500F0C8
:1030F00075F800F07FFC00F0FFF900F079F900F0BE
:10310000A3FB002010BD000038B52448FFF7D8FC11
:10311000FEF762FB0120002321A2194600901F4800
:1031200003F0D2FC012003461FA2014600901B4879
:1031300003F0CAFC012002231BA219460090174885
:1031400003F0C2FC0120032319A219460090134882
:1031500003F0BAFC0120042317A2194600900F487F
:1031600003F0B2FC0120052314A2194600900B487D
:1031700003F0AAFC13480068FDF7B2FA84B20120FC
:10318000234611A206210090044803F09DFC102262
:103190000121024802F0F4FC38BD0000D8B2002042
:1031A0006D61696E000000007465737400000000BA
:1031B00067756E310000000070776D0067756E32C4
:1031C00000000000640000204B70000010B50446B1
:1031D00000F03CFFFFF78AFF10BD000010B5002291
:1031E00011462DA001F0A6FD2F4908600846006891
:1031F00010B12EA001F01CFA0022114633A001F0FC
:1032000099FD364908600846006810B134A001F005
:103210000FFA002211463AA001F08CFD3B490860EC
:103220000846006810B13AA001F002FA00221146E7
:103230003FA001F07FFD434908600846006810B1D7
:1032400041A001F0F5F90022052149A001F006FB9B
:10325000494908600846006810B148A001F0E8F943
:10326000002205214CA001F0F9FA4E4908600846F9
:10327000006810B14CA001F0DBF90022052151A03B
:1032800001F0ECFA524908600846006810B151A0FC
:1032900001F0CEF9002010BD73656D5F6465627545
:1032A000675F7561727400000800002064656275D4
:1032B000675F75617274D0C5BAC5C1BFB4B4BDA82B
:1032C000B3C9B9A6A3A10A0A0000000073656D5F27
:1032D00063616D6572615F75617274000C0000203E
:1032E00063616D6572615F75617274D0C5BAC5C185
:1032F000BFB4B4BDA8B3C9B9A6A3A10A0A0000000F
:1033000073656D5F656C6567756E00005000002029
:1033100073656D5F656C6567756ED0C5BAC5C1BFF5
:10332000B4B4BDA8B3C9B9A6A3A10A0A000000009D
:1033300073656D5F656C6567756E5F6175746F66EB
:10334000697265005400002073656D5F656C656788
:10335000756E5F6175746F66697265D0C5BAC5C1F7
:10336000BFB4B4BDA8B3C9B9A6A3A10A0A0000009E
:103370006D625F6B6579000020010020B0B4BCFC79
:10338000B4A6C0EDD3CACFE4B4B4BDA8B3C9B9A63E
:10339000A3A10A0A000000006D625F646973706C8B
:1033A00061790000000000206F6C6564CFD4CABE54
:1033B000D3CACFE4B4B4BDA8B3C9B9A6A3A10A0ABD
:1033C000000000006D625F6374726C4174323400FF
:1033D000240000206374726C41743234D3CACFE489
:1033E000B4B4BDA8B3C9B9A6A3A10A0A00000000DD
:1033F00010B54FF07E5200214FF0804000F03AFCB3
:10340000204908600846006818B11FA001F010F9B3
:1034100002E023A001F00CF94FF07E5200214FF0A2
:10342000804000F027FC244908600846006818B175
:1034300022A001F0FDF802E026A001F0F9F82B48E7
:1034400010490968C8622A480E49096888622948F3
:103450000C490968086301200A4909680881234862
:1034600015490968C86222481349096888622148D9
:1034700011490968086301200F4909680881002083
:1034800010BD000034000020B4B4BDA85049445F12
:10349000737465657231B3C9B9A6A3A10A0A0000A5
:1034A000B4B4BDA85049445F737465657231CAA74E
:1034B000B0DCA3A10A0A000038000020B4B4BDA803
:1034C0005049445F737465657232B3C9B9A6A3A14C
:1034D0000A0A0000B4B4BDA85049445F737465651E
:1034E0007232CAA7B0DCA3A10A0A00000000F041B2
:1034F0000000F0C1000048421CB5142006214FF422
:1035000000730022CDE900104C494DA001F03EFEB1
:10351000504908600846006818B14FA001F088F8CB
:1035200002E055A001F084F8142003214FF4007349
:103530000022CDE90010584958A001F027FE5C494F
:1035400008600846006818B15AA001F071F802E05E
:1035500060A001F06DF8142002210B020022CDE9D9
:103560000010644964A001F011FE66490860084635
:10357000006818B164A001F05BF802E069A001F0F6
:1035800057F8142008218B010022CDE900106C4966
:103590006CA001F0FBFD6F4908600846006818B197
:1035A0006DA001F045F802E071A001F041F814208F
:1035B0000A214FF400730022CDE90010724973A074
:1035C00001F0E4FD734908600846006818B172A074
:1035D00001F02EF802E077A001F02AF8142009216A
:1035E0004FF400730022CDE90010794979A001F071
:1035F000CDFD7C4908600846006818B17AA001F04A
:1036000017F802E080A001F013F814200C214FF409
:1036100000730022CDE90010834984A001F0B6FDBB
:10362000884908606F48006818B16FA001F000F881
:1036300002E075A000F0FCFF00201CBDF12A00088C
:1036400064656275675F7561727468616E646C65EC
:10365000000000001000002064656275675F7561FE
:103660007274B4A6C0EDCFDFB3CCB4B4BDA8B3C9F7
:10367000B9A6A3A10A0A000064656275675F756157
:103680007274B4A6C0EDCFDFB3CCB4B4BDA8CAA7E2
:10369000B0DCA3A10A0A0000912A000863616D65ED
:1036A00072615F7561727468616E646C65000000C0
:1036B0001400002063616D6572615F75617274B49E
:1036C000A6C0EDCFDFB3CCB4B4BDA8B3C9B9A6A32F
:1036D000A10A0A0063616D6572615F75617274B4FD
:1036E000A6C0EDCFDFB3CCB4B4BDA8CAA7B0DCA3ED
:1036F000A10A0A00053000086B657968616E646C88
:103700006500000018000020B0B4BCFCB4A6C0EDF9
:10371000CFDFB3CCB4B4BDA8B3C9B9A6A3A10A0A7C
:1037200000000000B0B4BCFCB4A6C0EDCFDFB3CC49
:10373000B4B4BDA8CAA7B0DCA3A10A0A0000000067
:103740001D6700087461736B7265616441543234A3
:10375000000000002000002041543234CFDFB3CC01
:10376000B4B4BDA8B3C9B9A6A3A10A0A0000000059
:1037700041543234CFDFB3CCB4B4BDA8CAA7B0DC57
:10378000A3A10A0A00000000812B0008646973707D
:103790006C61790004000020CFD4CABECBA2D0C295
:1037A000CFDFB3CCB4B4BDA8B3C9B9A6A3A10A0AEC
:1037B00000000000CFD4CABECBA2D0C2CFDFB3CCB2
:1037C000B4B4BDA8CAA7B0DCA3A10A0A00000000D7
:1037D000A5100008456C6567756E5F746872656159
:1037E0006400000048000020456C6567756E5F74DA
:1037F0006872656164CFDFB3CCB4B4BDA8B3C9B996
:10380000A6A3A10A0A000000456C6567756E5F7487
:103810006872656164CFDFB3CCB4B4BDA8CAA7B089
:10382000DCA3A10A0A000000710F0008456C65675F
:10383000756E5F6175746F666972655F74687265D5
:10384000616400004C00002010B53248006838B1B7
:103850003048006801F0C0FD2FA000F0E9FE02E052
:103860004FF0FF3010BD3348006838B13148006870
:1038700001F0B2FD30A000F0DBFE02E04FF0FF30BF
:10388000F0E73448006838B13248006801F0A4FD20
:1038900031A000F0CDFE02E04FF0FF30E2E7354806
:1038A000006838B13348006801F096FD32A000F09E
:1038B000BFFE02E04FF0FF30D4E73548006838B172
:1038C0003348006801F088FD32A000F0B1FE02E04C
:1038D0004FF0FF30C6E73548006838B1334800681C
:1038E00001F07AFD32A000F0A3FE02E04FF0FF30BD
:1038F000B8E73748006838B13548006801F06CFD1A
:1039000034A000F095FE02E04FF0FF30AAE700205F
:10391000A8E700001000002064656275675F7561AC
:103920007274CFDFB3CCBFAACABCB5F7B6C8A3A127
:103930000A0A00001400002063616D6572615F7502
:10394000617274CFDFB3CCBFAACABCB5F7B6C8A347
:10395000A10A0A0018000020B0B4BCFCB4A6C0ED57
:10396000CFDFB3CCBFAACABCB5F7B6C8A3A10A0AB9
:103970000000000004000020CFD4CABECFDFB3CCCB
:10398000BFAACABCB5F7B6C8A3A10A0A00000000C6
:103990002000002041543234CFDFB3CCBFAACABCD0
:1039A000B5F7B6C8A3A10A0A00000000480000202D
:1039B000B5E7B4C5C5DABBF9B4A1B2BFB7D6CFDF9E
:1039C000B3CCBFAACABCB5F7B6C8A3A10A0A000007
:1039D0004C000020B5E7B4C5C5DAB7A2BBD3B2BF6F
:1039E000B7D631CFDFB3CCBFAACABCB5F7B6C8A330
:1039F000A10A0A0008B506203223002209490090D6
:103A000009A001F00DFE0C4908600846006830B1BD
:103A10000846006801F054FE08A000F009FE0020EE
:103A200008BD00009130000874696D65725F6B65B8
:103A3000797363616E0000001C010020B0B4BCFC0F
:103A4000C9A8C3E8B6A8CAB1C6F7C6F4B6AFB3C929
:103A5000B9A6A3A10A0A00000FB400B58FB00121D6
:103A60001798FEF7CFF91198B0F5804F04D10121D6
:103A70001198FEF7C7F903E001211198FEF7B2F99A
:103A8000BDF85800ADF8380018208DF83B00032031
:103A90008DF83A000EA91598FDF778FBBDF8500097
:103AA000ADF8380004208DF83B000EA91398FDF7FF
:103AB0006DFB18980A900020ADF82C00ADF82E0090
:103AC000ADF83000ADF834000C20ADF832000AA992
:103AD0001098FEF735FE282214A96846FCF7BEFBB5
:103AE00010A80FC802F050FF012240F224411098A4
:103AF000FEF700FE012240211098FEF7BBFD0121D8
:103B00001098FEF7ABFD0FB05DF814FB0FB400B5D5
:103B10008BB001210846FEF755F916980090184918
:103B20000C98884202D11898019001E017980190F2
:103B300000200290BDF864000390002004908020D3
:103B40000590002006900790202008904FF44050E8
:103B5000099000200A9069461598FDF7B0F94FF4D6
:103B60008030FDF789F9012208211598FDF79EF9AB
:103B700001211598FDF78EF90BB05DF814FB0000DC
:103B8000004400400FB410B5109C00210B98FDF7C5
:103B900081F94FF48030FDF76FF9BDF83C000B99C7
:103BA000486001210B98FDF775F9204601F0EAF80D
:103BB00010BC5DF814FB10B50246012000E0504334
:103BC0000B1EA1F10104E1B2F9D110BD10B50446FC
:103BD0002078AA280DD1607855280AD1E078542899
:103BE00007D1A078034908702C210348006800F031
:103BF000D8FE10BD5B0000200000002030B51A4C3C
:103C0000436824681919884215D04B889BB9174B13
:103C10001B6899420FD0164B1B688B4201D1144B85
:103C200018604B684360104B1B68C31A0E4D4C68FC
:103C30002D682C44A3600C4C836824681A198242B6
:103C400011D053887BB90A4B1B68834201D1084BC2
:103C50001A6043685360044B1B68D31A024D4468D2
:103C60002D682C44A36030BD740000207800002033
:103C70007C0000202DE9F04105460E4617465820ED
:103C8000FEF790FE044614B90020BDE8F081E5611E
:103C9000266267620A48E0620A48A0620020206348
:103CA00020646063A063E0636064A064E06406482D
:103CB00060610648A061064820612046E5E70000F3
:103CC00000007A4400007AC4E33C0008D53C0008B8
:103CD0000D3D000810B50446204600F0F3F9002021
:103CE00010BD10B5044658220021204600F0DDFE2C
:103CF000002010BD0246516200207047024611624A
:103D0000002070470246D161002070472DE9F04144
:103D100005460E462C4601F00BFC616D471A2089C2
:103D200001F0F6FB874202D20720BDE8F08101F0E6
:103D3000FFFB606531462068FCF70FFB6064D4E947
:103D40001001FCF7B8FA2064216B206CFCF72EFD03
:103D500002D2206B20640BE0206B80F000473846D5
:103D6000216CFCF723FD03D2206B80F0004020641F
:103D7000616CE069FCF7F7FA6063216C206AFCF77C
:103D8000F2FAA063D4E91101FCF7E7FA0746616A89
:103D9000FCF7E9FAE063D4E90D01FCF78CFA074679
:103DA000E16BFCF788FAE064E06C2065E16AE06CA6
:103DB000FCF7FCFC01D2E06AE064A16AE06CFCF76D
:103DC000EBFC01D2A06AE064606CA064E06C60600F
:103DD0000020AAE72DE9F04F86B00D469C46DDE9AC
:103DE000106401960F9B04F04008B8F1000F02D058
:103DF000DFF8708101E0DFF87081CDF8008004F019
:103E00001008B8F1000F01D024F0010404F00108FB
:103E1000B8F1000F02D04FF0300801E04FF0200859
:103E2000C246002704F00208B8F1000F11D0002AA2
:103E300002DA2D2752420CE004F00408B8F1000F1A
:103E400001D02B2705E004F00808B8F1000F00D0DE
:103E50002027002142B94FF0300B8846491C0DF154
:103E6000080909F808B01DE01AE0E146B9F10A0FA7
:103E700008D14FF00A0BB2FBFBFE0BFB1E28B2FB76
:103E8000FBF202E002F00F08120900BFDDF800901B
:103E900019F808B08846491C0DF1080909F808B05E
:103EA000002AE2D1B14200DD0E469B1B04F011084E
:103EB000B8F1000F10D117B1002B00DD5B1E06E03A
:103EC000A84203D84FF0200880F80080401CB3F1CE
:103ED0000008A3F10103F3DC27B1A84201D8077061
:103EE0005B1E401C04F01008B8F1000F0AD104E07A
:103EF000A84201D880F800A0401CB3F10008A3F14B
:103F00000103F5DC06E0A84203D84FF0300880F842
:103F10000080401CB046761E8845F4DC08E0A842CC
:103F200005D80DF1080818F8018080F80080401CC1
:103F3000B1F10008A1F1010104DDDDF80480B8F160
:103F4000000FECD106E0A84203D84FF0200880F81B
:103F50000080401CB3F10008A3F10103F3DC06B0BC
:103F6000BDE8F08F0D6C0008FC6B00082DE9FC5FCC
:103F700082468B46BAF81800FCF78CFB04460D46C7
:103F80005846FCF787FB06461C4A1D4BFCF702FB14
:103F9000804622462B46FCF7FDFACDE90001FCF7EE
:103FA000B3FBAAF81600BAF8140030B104280BD0FD
:103FB000082810D00C281CD114E0BAF81610DAF832
:103FC0000C00FEF78CFA15E0BAF81610DAF80C00BF
:103FD000FEF787FA0EE0BAF81610DAF80C00FEF7D2
:103FE00082FA07E0BAF81610DAF80C00FEF77DFA4C
:103FF00000E000BF00BFBDE8FC9F00002D431CEBAC
:10400000E2361A3F1CB5142001214B020022CDE9F3
:104010000010044904A001F0B9F80446204601F05C
:10402000DBF91CBDCD3100086D61696E0000000038
:1040300010B5044C02E020688047241D02488442E9
:10404000F9D310BD3C7400084074000810B5044C4E
:1040500002E020688047241D02488442F9D310BD45
:10406000407400084474000810B5FCF76BF804466F
:1040700004480088401C00B2024908802046FCF732
:1040800065F810BDDC00002010B5FCF75BF80446B5
:104090000B480088401E00B2094908800846B0F964
:1040A0000000002807DC002008802046FCF74EF8BE
:1040B00000F0A6FD02E02046FCF748F810BD000025
:1040C000DC00002070B5054605B970BD1D480068CC
:1040D000854203D31C480068854200D3F5E7A5F16B
:1040E0000C044FF0FF31194800F069FE608818B1E8
:1040F0002088B0F5F55F08D015A000F099FA238864
:104100006288214619A000F093FA002060804FF4E5
:10411000F550208021480068844201D21F48046085
:10412000084960680968611A401A1D490968081A37
:104130001B4908602046FFF761FD044800F022FE9D
:1041400000BFC2E77400002078000020F8A600201D
:10415000746F20667265652061206261642064610D
:10416000746120626C6F636B3A0A00006D656D3A92
:10417000203078253038782C207573656420666C83
:1041800061673A2025642C206D6167696320636F45
:1041900064653A203078253034780A007C000020AD
:1041A0008400002000487047140300200048704736
:1041B00014A3002070B54820FDF77AFFFDF7A4FA9C
:1041C000FDF7BCFAFDF7B0F9FDF726FBFDF704FBA0
:1041D00029A200210846FDF7B3FC02F0F1FB2949B2
:1041E00008680021FEF73AFAFCF70CFC3220FEF7D3
:1041F000E7FB40F2FD212448FFF7B8FE4FF43A7187
:104200002248FFF7B3FE02F047F901F05DFD2048B8
:1042100000684FF47A72B0FBF2F1B1F1807F00D305
:104220001DE021F07F40401E4FF0E022506150170A
:104230000F22002807DA13071D0E164B00F00F049B
:10424000241F1D5503E013071C0E134B1C5400BF05
:1042500000204FF0E02290610720106100BFFFF7BF
:10426000E7FEFFF7A3FF0446FFF79CFF0546214644
:1042700000F09AFE70BD000068656C6C6F206D6385
:1042800075000000A0B20020D8B30020F4B30020D5
:104290000003002018ED00E000E400E010B5044643
:1042A000FFF7E2FE19E020780A280AD10D210E4816
:1042B000FEF7B7FA00BF80210B48FEF7E4F90028AB
:1042C000F9D014F8011B0848FEF7ABFA00BF8021B3
:1042D0000548FEF7D8F90028F9D020780028E2D167
:1042E000FFF7D2FE10BD00000038014070B5054652
:1042F0002C1D2E48006838B128462C49096888478B
:10430000064606B970BD00BF29A0E16B00F090F928
:104310002BA0216A00F08CF92DA0616A00F088F9C9
:104320002FA0A16A00F084F931A0E16A00F080F9C1
:1043300033A0216800F07CF935A0616800F078F9BD
:1043400037A0A16800F074F939A0E16800F070F9B5
:104350003BA0216900F06CF93DA0616900F068F9AB
:104360003FA0A16900F064F941A0E16900F060F9A3
:1043700043A0216B00F05CF945A0616B00F058F997
:1043800047A0A16B00F054F9287800F0040038B180
:1043900000F0FAFF0646314645A000F049F902E078
:1043A0004BA000F045F900BFFEE70000140100201B
:1043B0007073723A203078253038780A0000000097
:1043C0007230303A203078253038780A000000000A
:1043D0007230313A203078253038780A00000000F9
:1043E0007230323A203078253038780A00000000E8
:1043F0007230333A203078253038780A00000000D7
:104400007230343A203078253038780A00000000C5
:104410007230353A203078253038780A00000000B4
:104420007230363A203078253038780A00000000A3
:104430007230373A203078253038780A0000000092
:104440007230383A203078253038780A0000000081
:104450007230393A203078253038780A0000000070
:104460007231303A203078253038780A0000000068
:104470007231313A203078253038780A0000000057
:104480007231323A203078253038780A0000000046
:10449000206C723A203078253038780A000000000D
:1044A0002070633A203078253038780A0000000008
:1044B00068617264206661756C74206F6E20746828
:1044C000726561643A2025730D0A0D0A0000000030
:1044D00068617264206661756C74206F6E2068611B
:1044E0006E646C65720D0A0D0A000000F0B504469A
:1044F0000D461646301D20F00700403801460022C8
:1045000003E00C4F41F82270521C102AF9D30D62BF
:104510004FF0000CC1F824C0C1F828C0C1F82CC06D
:10452000C1F830C04B638C634FF0807CC1F83CC055
:10453000F0BD0000EFBEADDE4FF0E02252694FF457
:104540007A73B2FBF3F250434FF0E022916900BF5F
:104550004FF0E02292698A1A8242F9D37047000034
:1045600010B5FBF7EFFD044604480078401C0349F2
:1045700008702046FBF7EAFD10BD00007000002027
:1045800010B5FBF7DFFD044604480078401E0349E0
:1045900008702046FBF7DAFD10BD00007000002017
:1045A00070B504462068A0F11405284600F0CEFE40
:1045B000002070BD2DE9F04105460C46904620468E
:1045C00000F020FFB8F1000F03D0B8F1010F23D1A4
:1045D00005E004F11401284600F060F81CE02E68A4
:1045E0000FE0A6F1140794F8350097F835108842CB
:1045F00006DA04F1140107F1140000F04FF802E0AC
:104600003668AE42EDD100BFAE4204D104F11401D0
:10461000284600F043F800BF00BF0020BDE8F0814D
:1046200010B5044604F1140000F01AF8002010BD83
:104630000FB438B505A800907F210848009B049A64
:1046400001F0ECF804467F2C00D97F240348FFF7E3
:1046500025FE0020009038BC5DF814FB78A60020F1
:1046600040600060704740600060704740600060DC
:1046700070470268516002680A60016048607047D4
:104680000268516002680A60016048607047026811
:10469000516002680A6001604860704742681160BA
:1046A00042684A6041600860704701460868884275
:1046B00001D1012070470020FCE7014608688842CC
:1046C00001D1012070470020FCE7D0E900215160B2
:1046D000D0E900121160406000607047D0E900210D
:1046E0005160D0E900121160406000607047000026
:1046F0002DE9F041054615B90020BDE8F081E81C20
:1047000020F003054E480068854201D90020F4E7F7
:104710000C2D00D20C254FF0FF314A4800F04FFB22
:104720004948006849490968461A7EE047480068D8
:1047300084196088002874D106F10C006168081A99
:10474000A8426ED306F10C006168091A05F1180041
:10475000814230D306F10C0000EB05083B480068AD
:1047600000EB08074FF4F55038800020788060682F
:104770007860BE60C4F804800120608030487968A9
:1047800000680C30814205D03049786809680844D7
:10479000C0F808802E48016805F10C0008442C4937
:1047A00008602C4800680968884219D228480068C7
:1047B0002849086014E00120608024496068096885
:1047C000611A401A224909680844214908602148B1
:1047D00000680968884203D21D4800681D490860C6
:1047E0004FF4F550208018480068844212D107E049
:1047F000154800684068154909680844124908606E
:1048000011480068408828B10F48006812490968BB
:104810008842EDD10B4800F0B5FA04F10C006CE7CA
:10482000FFE70A4800683044466805480068401BB6
:10483000B0423FF67BAF034800F0A4FA00205CE7EB
:1048400080000020F8A600207C00002074000020DA
:104850008400002088000020780000202DE9F0412D
:1048600005460E4617462946042000F042F9044644
:1048700014B92046BDE8F08167722046FFF7D0FEEC
:104880002684218C8800FFF733FFE061E06920B9BE
:10489000204600F058F90020ECE700206084A08456
:1048A000E08404F12800FFF7DBFE2046E2E72DE973
:1048B000F74304460E46002700F066FD0546FBF769
:1048C00041FC8046608C38B9029828B94046FBF715
:1048D0003DFCB81EBDE8FE833AE000202863029844
:1048E00030B94046FBF732FC6FF001002863F1E776
:1048F000627A294604F11400FFF75CFE0298002852
:104900000CDD00F015FE074602AA002105F14C005F
:1049100000F06AFE05F14C0000F0D2FE4046FBF7C5
:1049200015FC00F06DF9286B08B1286BD2E7FBF796
:1049300009FC8046029800280ADD00F0F9FDC71B3B
:104940000298C01B02900298002801DA0020029011
:10495000608C0028C1D0E18CE06950F82100306003
:10496000E08C401CE084E08C218C884201DB00203C
:10497000E084608C401E608404F12800FFF795FEFF
:1049800050B904F12800FFF70BFE4046FBF7DEFBB1
:1049900000F036F900209DE74046FBF7D7FB0020EA
:1049A00098E770B504460D4600222946204600F0DF
:1049B00001F870BD2DE9F74304460E46002700F0CC
:1049C000E3FC0546FBF7BEFB8046608C218C8842E9
:1049D00007D1029828B94046FBF7B8FBF81EBDE89E
:1049E000FE8339E000202863029828B94046FBF78F
:1049F000ADFB6FF00200F2E7627A294604F128006D
:104A0000FFF7D8FD029800280CDD00F091FD074665
:104A100002AA002105F14C0000F0E6FD05F14C0072
:104A200000F04EFE4046FBF791FB00F0E9F8286BE2
:104A300008B1286BD3E7FBF785FB80460298002876
:104A40000ADD00F075FDC71B0298C01B029002989A
:104A5000002801DA00200290608C218C8842C1D0AD
:104A6000A18CE06940F82160A08C401CA084A08C3F
:104A7000218C884201DB0020A084608C401C608473
:104A800004F11400FFF711FE50B904F11400FFF710
:104A900087FD4046FBF75AFB00F0B2F800209EE786
:104AA0004046FBF753FB002099E7F0B50C4605465E
:104AB000E6B2042A15D300F0030797B9014646EA87
:104AC000062343EA034304E008C108C108C108C142
:104AD000103A102AF8D201E008C1121F042AFBD2B2
:104AE0000D4601E005F8016B171EA2F10102F9D194
:104AF000F0BD2DE9F04106460F46304600F044F87F
:104B00000546E868FFF7F4FD044614B90020BDE847
:104B1000F08100212046EA68FFF7C7FF26720020D7
:104B2000607208223946204600F023FAFBF70AFBA0
:104B3000804604F10C01281DFFF79BFD4046FBF762
:104B400005FB2046E3E770B5044600202072FBF722
:104B5000F9FA054604F10C00FFF7B7FD2846FBF70C
:104B6000F5FA2046FFF7AEFA70BD70B50446002096
:104B70002072FBF7E7FA054604F10C00FFF7A5FDEC
:104B80002846FBF7E3FA70BD024600210AE0074819
:104B900000EB01100078904203D1044800EB0110B3
:104BA0007047491C0529F2DB0020F9E78C00002042
:104BB0002DE9F04104460D4616462846FFF7E4FF6E
:104BC000074645F08000207208223146204600F05A
:104BD000D0F9FBF7B7FA804604F10C01381DFFF756
:104BE00048FD4046FBF7B2FABDE8F0810146087A7D
:104BF00000F0800008B1012070470020FCE70000B1
:104C00002DE9F041FBF79EFA07461B48008868BB78
:104C10001A480068FDF70CFE461E194850F8360089
:104C2000A0F114041748006884421BD016490E7086
:104C30001448056804601548007848B904F11C015F
:104C400005F11C00FBF785FA3846FBF77FFA0CE00C
:104C500004F11C0105F11C00FBF77BFA3846FBF759
:104C600075FA02E03846FBF771FA02E03846FBF7C6
:104C70006DFABDE8F0810000DC000020E8000020B3
:104C800018A70020E0000020E400002070000020B1
:104C900070B50446FBF756FA054614F8340F20F0B9
:104CA0000F0040F0010020706278343C0A4B03EBA7
:104CB000C20004F114014268116042684A60416018
:104CC000086000BF0549A06B0968084303490860F4
:104CD0002846FBF73BFA70BD18A70020E80000202B
:104CE00070B50446FBF72EFA054604F11400D0E92E
:104CF00000215160D0E9001211604060006000BFE7
:104D000094F83510094A02EBC1000168814201D1D3
:104D1000012100E0002129B10548A16B006888430A
:104D2000034908602846FBF711FA70BD18A7002058
:104D3000E80000202DE9F04105460E4617462946B9
:104D40000120FFF7D6FE044614B92046BDE8F081E5
:104D50002046FFF765FCA68367722046F6E72DE93B
:104D6000F04104460D4616461F462A4601212046BC
:104D7000FFF71EFF2046FFF753FCA6836772002053
:104D8000BDE8F08170B504460025FBF7DBF9064667
:104D900004F11400FFF789FC28B904F11400FFF7AF
:104DA000FFFB012502E0A08B401CA0833046FBF7EF
:104DB000CDF9012D01D1FFF723FF002070BD73B5A0
:104DC0000546FBF7BFF90646A88B002806DDA88B31
:104DD000401EA8833046FBF7B9F928E0019828B9AE
:104DE0003046FBF7B3F96FF001007CBD00F0CCFA60
:104DF0000446002020636A7A214605F11400FFF77B
:104E0000D9FB0198002809DD01AA002104F14C001A
:104E100000F0EAFB04F14C0000F052FC3046FBF7D6
:104E200095F9FFF7EDFE206B08B1206BDDE7002060
:104E3000DBE7000008B509A0FFF7FAFB0AA0FFF7BF
:104E4000F7FB12A0022301220321009012A0FFF71A
:104E5000EFFB19A0FFF7ECFB08BD00000A205C2067
:104E60007C202F0A000000002D205254202D2020ED
:104E7000202020546872656164204F7065726174EF
:104E8000696E672053797374656D0A0041756720F8
:104E90002038203230313900202F207C205C202027
:104EA00020202025642E25642E2564206275696CDF
:104EB000642025730A0000002032303036202D2077
:104EC0003230313920436F707972696768742062BB
:104ED000792072742D746872656164207465616DE7
:104EE0000A00000070B500F023FB0646FFF7BCF88F
:104EF0001A4805682BE0A5F11404A06A301A6FF077
:104F00000041884222D22D682046FDF734FDFFF78C
:104F1000BBF8D4E90710884700F00AFB0646FFF704
:104F2000A3F8607A00F0020058B1607A00F0010046
:104F300038B1607A20F001006072204600F0C0FBBA
:104F400005E0607A20F00100607200E002E00348B2
:104F50008542D0D100BFFFF797F870BDFC0000205C
:104F600001460A4600E0521C10780028FBD1501A76
:104F7000704770B50346A2B118460C4600BF14F83E
:104F8000016B00F8016B3EB902E0002500F8015BFF
:104F9000551E2A1EF9D102E0551E2A1EEFD100BF70
:104FA00000BF184670BD00002DE9F04105460E46D1
:104FB000E81C20F0030726F00308B8F1180F09D900
:104FC000A8F11800B84205D3A8EB070018381E490D
:104FD000086006E0324629461CA0FFF729FBBDE821
:104FE000F0812948076004684FF4F5502080164886
:104FF00000680C3060600020A0606080224960681A
:1050000009680844214908604FF4F5500968088090
:1050100001201E49096848800B4800680C301B4974
:1050200009684860084800680C30184909688860B9
:105030000023012216A11848FFF791FE12480068CC
:105040001649086000BFCAE7800000206D656D202A
:10505000696E69742C206572726F7220626567696F
:105060006E206164647265737320307825782C201B
:10507000616E6420656E6420616464726573732080
:10508000307825780A0000007400002078000020A5
:105090006865617000000000F8A600207C00002018
:1050A00010B500200B490880002405E00A4901EBF7
:1050B000C400FFF7D8FA641C202CF7DB1F20074937
:1050C0000870002006490860064908600648FFF796
:1050D000CAFA10BDDC00002018A70020E400002060
:1050E000E0000020E8000020EC00002070B5084837
:1050F0000068FDF79DFB451E064850F83500A0F1FD
:1051000014040548046004F11C00FBF750F870BD5E
:10511000E800002018A70020E000002010B50024BF
:1051200005E0044901EBC400FFF7A0FA641C002C61
:10513000F7D010BDF40000201FB5002405E00D4994
:1051400001EBC400FFF792FA641C002CF7D00A2090
:105150000421CA01084BCDE90032CDE90210002339
:10516000064A07A1084800F0CDF8074800F034F9D6
:105170001FBD0000FC00002098A800206954000812
:1051800074696D657200000018A800202DE9FF5FAA
:1051900006460F4690461D46DDE90EAB314600201F
:1051A000FFF7A7FC8146B9F1000F03D1002004B03E
:1051B000BDE8F09F2846FFF79BFA044624B948460D
:1051C000FFF7C1FC0020F2E743463A463146484625
:1051D0008DE8300CFDF76CFB4846E8E710B5044657
:1051E000204600F0D7F810BD70B512480468FAF7F1
:1051F000A9FF05462046FFF773FD042084F834001C
:1052000004F14C0000F027FA2046FFF7EFFC0128DC
:1052100005D1A06F18B92046FFF7A7FC04E004F100
:1052200014010548FFF72CFA2846FAF78FFFFFF71D
:10523000E7FC70BDE0000020EC00002001E000F081
:1052400001F8FCE770B537E0FAF77CFF0546FDF79B
:1052500025FB18B31B480068A0F1140404F11400E6
:10526000D0E900215160D0E9001211604060006077
:1052700000BFFEF7F9FEA06F10B12046A16F88476E
:105280002046FFF7B3FC012805D1FEF7FDFE2846B6
:10529000FAF75CFF70BDFEF7F7FE03E02846FAF769
:1052A00055FFF7E72846FAF751FFA06AFEF70AFF15
:1052B0002046FFF748FC00BFFDF7F0FA0028C3D1F5
:1052C00000BFE7E7EC0000201FB520201F21C2002F
:1052D000074BCDE90032CDE902100023054A06A1B3
:1052E000074800F00FF8064800F076F81FBD0000F0
:1052F00078A500203D5200087469646C65000000C8
:10530000F8A400202DE9FF5F05460C4616461F460F
:10531000DDE910ABDDE90E89224600212846FFF7C2
:1053200047FC3B463246214628468DE8000FFDF7F4
:10533000BFFA04B0BDE8F09F70B50446204600F007
:10534000E7F80546284600F025F870BD70B504461C
:1053500094F8340000F00F00022802D04FF0FF3024
:1053600070BDFAF7EFFE054604F11400FFF7B6F939
:1053700004F14C0000F03AFA2846FAF7E7FE20461E
:10538000FFF786FC0020EBE701480068704700004B
:10539000E000002031B5FAF7D5FE05460D48046857
:1053A000204600F02FF86A46002104F14C0000F07E
:1053B0001BF904F14C0000F083F92846FAF7C6FE09
:1053C000FFF71EFC206B801C08B900202063002022
:1053D00038BD0000E000002010B504463434A07849
:1053E00060706178012088406060022004F8340910
:1053F0002046FFF7ABFFFFF7C7FF08B1FFF700FC40
:10540000002010BD70B5044694F8340000F00F0081
:10541000012802D04FF0FF3070BDFAF793FE054629
:1054200094F8340020F00F0040F0020084F83400BB
:105430002046FFF755FC04F14C0000F0D7F9284650
:10544000FAF784FE0020E7E770B5044625466FF0C2
:105450000100286305F11400FFF740F92846FFF723
:1054600017FCFFF7CDFB70BD1CE00F4800F01AF9E8
:105470000446601C38B9FFF787FF0546FFF7C2FFF7
:10548000FFF7BEFB0CE000F053F80546601B6FF021
:105490000041884203D2641B2046FFF79FFE00BFF5
:1054A000FFF720FDE1E70000FC00002070B5FAF7EF
:1054B00049FE05461448046894F8340000F00F00D3
:1054C00001281CD1D4E90510814218D004F1140040
:1054D000FFF704F994F835200C4B03EBC20004F1FC
:1054E00014014268116042684A604160086000BF70
:1054F0002846FAF72BFEFFF783FB002070BD2846F5
:10550000FAF724FE0020F9E7E000002018A70020A9
:105510000146002902DA4FF0FF3008E04FF47A72BA
:105520004A4302F2E7324FF47A7392FBF3F070478A
:1055300001480068704700006C00002010B50A4860
:105540000068401C08490860FFF71EFF0446A06C75
:10555000401EA064A06C18B9606CA064FFF7A6FFA1
:1055600000F004F810BD00006C00002070B5FFF7DB
:10557000DFFF0546FAF7E6FD064628E01948006811
:10558000A0F11404A06A281A6FF0004188421DD2CD
:105590002046FDF7F0F9D4E907108847FFF7C8FF68
:1055A0000546607A00F0020058B1607A00F0010010
:1055B00038B1607A20F001006072204600F080F877
:1055C00005E0607A20F00100607200E004E0054828
:1055D000FFF773F80028D1D000BF3046FAF7B6FDC8
:1055E00070BD0000F4000020034649B1012904D039
:1055F000022908D0032910D10AE0586A10600CE093
:105600001068586209E0587A20F00200587204E0ED
:10561000587A40F00200587200BF00BF0020704767
:105620002DE9F84304460E4617469846DDF82090CB
:1056300021460920FFF75DFA054615B90020BDE8AF
:10564000F88343463A4631462846CDF80090FDF7A8
:1056500071F92846F3E770B50446FAF773FD05467D
:105660002046FDF788F92846FAF770FD2046FFF737
:105670007CFA002070BD2DE9F84307460C4615461C
:105680001E46DDE90889224609213846FFF790FACF
:105690004346324629463846CDF80090FDF74AF990
:1056A000BDE8F88370B504462046FFF706F810B150
:1056B0004FF0FF3070BD2068A0F11405A86AF9E72B
:1056C0002DE9F8430546FAF73DFD80462846FDF7EB
:1056D00052F9687A20F0010068724046FAF736FD08
:1056E000FFF726FF696A0844A862FAF72BFD804697
:1056F000687A00F0040008B1384E00E0384E009699
:1057000000242AE019E05DF824201168142202EB3D
:10571000C402881A826AAB6AD21A00D108E0826A8F
:10572000AB6AD21A6FF000439A4200D20CE000BF7D
:105730005DF8240000684DF824005DF8240006EBB5
:10574000C40149688842DED100BF2CB15DF8240055
:105750000830611C4DF82100641C002CD2D0214877
:105760000068401C1F4908600846076805F11401DD
:105770000098FEF78CFF022412E007F0030060B9E6
:10578000C4F1010305F1140202EBC301C4F10102EB
:105790005DF82200FEF77BFF00E003E0BF08641C19
:1057A000012CEAD900BF687A40F0010068724046D7
:1057B000FAF7CCFC687A00F0040058B10A4890F877
:1057C000340000F00F00012804D00748FFF7BEFDA9
:1057D000FFF716FA0020BDE8F8830000FC00002067
:1057E000F40000200401002018A8002070B5044631
:1057F000607A00F0010010B94FF0FF3070BDFAF789
:10580000A1FC05462046FDF7B6F82846FAF79EFCAF
:10581000607A20F0010060720020EFE72DE9FF4F71
:1058200089B0804644460A984044461E464504D204
:105830004FF0FF36A6EB08000A906FE10B98007856
:10584000252806D0B44202D80B9800782070641C3A
:1058500061E1002526E00B98401C0B900B98007826
:105860002D2802D145F010051CE00B9800782B285C
:1058700002D145F0040515E00B980078202802D1EC
:1058800045F008050EE00B980078232802D145F07A
:10589000200507E00B980078302802D145F001057B
:1058A00000E000E0D7E700BF4FF0FF370B9800782B
:1058B00030380A2804D20BA800F0F2F907460EE0AF
:1058C0000B9800782A280AD10B98401C0B900C9852
:1058D00080C80C90002F02DA7F4245F010054FF08F
:1058E000FF390B9800782E281CD10B98401C0B9088
:1058F0000B98007830380A2804D20BA800F0D0F9B1
:1059000081460AE00B9800782A2806D10B98401CA3
:105910000B900C9850F8049B0C90B9F1000F01DA31
:105920004FF00009002004900B980078682803D0FD
:105930000B9800786C2805D10B98007804900B9890
:10594000401C0B900A2005900B9800786F2875D0AA
:105950000CDC632813D004DC252870D058286FD1C4
:105960008DE064286DD06928F9D18FE070286AD065
:10597000732825D0752878D07828F0D182E005F0FA
:10598000100040B904E0B44201D820202070641C0B
:10599000781E071EF7DC0C9810F8041B0C90C8B298
:1059A0000790B44201D807982070641C04E0B44208
:1059B00001D820202070641C781E071EF7DCAAE0A6
:1059C0000C98006806900C98001D0C90069808B979
:1059D0005AA006900698FFF7C3FA8346B9F1000F64
:1059E00002DDCB4500DDCB4605F0100048B904E0F0
:1059F000B44201D820202070641C38467F1E5845D0
:105A0000F6DC002008900BE0B44202D8069800783B
:105A10002070641C0698401C06900898401C089052
:105A200008985845F0DB04E0B44201D820202070EB
:105A3000641C38467F1E5845F6DC6CE01CE015E01F
:105A400028E022E0FFE7781C10B9082745F001059F
:105A5000CDE9007902950C9804C8102331460C90CA
:105A60002046FEF7B7F9044655E012E0B44201D8EB
:105A700025202070641C4EE0082005901DE045F0B4
:105A8000400500BF1020059017E000BF45F002055B
:105A900000BF12E0B44201D825202070641C0B988E
:105AA000007830B1B44202D80B9800782070641CA2
:105AB00002E00B98401E0B902DE000BF04986C286C
:105AC00007D10C9850F804AB0C9005F00200B8B167
:105AD00016E0049868280BD10C9830F8041B1FFAC4
