:020000040800F2
:1000000040B80020390200086D210008EB0100080B
:1000100069210008411000082B350008000000008D
:10002000000000000000000000000000E7290008B8
:100030000F11000800000000730100086D2B00087C
:10004000530200085302000853020008530200083C
:10005000530200085302000853020008530200082C
:10006000530200085302000853020008530200081C
:10007000530200085302000853020008530200080C
:1000800053020008530200085302000853020008FC
:1000900053020008530200085302000853020008EC
:1000A00053020008530200085302000853020008DC
:1000B000192C0008530200085302000853020008DC
:1000C00053020008530200085302000853020008BC
:1000D00053020008CD32000815330008530200080F
:1000E000530200085302000853020008530200089C
:1000F000530200085302000853020008530200088C
:10010000530200085302000853020008530200087B
:1001100053020008530200089D2C000853020008F7
:10012000530200085302000853020008530200085B
:10013000DFF80CD000F0A0FC00480047950B000849
:1001400040B80020EFF3108072B6704780F310883B
:100150007047334A1368012B04D04FF0010313603A
:10016000304A1060304A116030484FF080510160D1
:100170007047EFF3108272B62948016891B14FF0D1
:10018000000101602748016829B1EFF3098121E9E5
:10019000F00F00680160244909680968B1E8F00FB0
:1001A00081F3098882F310884EF0040E70471E49CF
:1001B00008601C494FF00000086019494FF0010029
:1001C00008601B484FF47F01D0F8002041EA02018B
:1001D000016016484FF080510160164800680068C1
:1001E00080F3088861B662B670471EF0040F0CBF3A
:1001F000EFF30880EFF3098020E9F00F40F804EDF9
:100200001EF0040F0CBF80F3088880F3098800B546
:1002100005F0D0FA5DF804EB4EF0040E70470000D4
:10022000340100202C0100203001002004ED00E00A
:1002300020ED00E008ED00E0064880470648004752
:10024000FEE7FEE7FEE7FEE7FEE7FEE7FEE7FEE786
:10025000FEE7FEE7B92B00083101000840EA010380
:100260009B0703D009E008C9121F08C0042AFAD26C
:1002700003E011F8013B00F8013B521EF9D2704730
:10028000D2B201E000F8012B491EFBD270470022D8
:10029000F6E710B513460A4604461946FFF7F0FF85
:1002A000204610BD034611F8012B00F8012B002A4F
:1002B000F9D118467047F0B480EA0102D40F420029
:1002C000B2EB410F02D20246084611464A0042D024
:1002D000C30DDDB2C1F3C752AD1A202D35DAC1F31B
:1002E000160141F4000204B15242C5F1200602FA9F
:1002F00006F12A411044B3EBD05F23D0C4B1012DE5
:10030000A0EBC35009DCF0BC4FF0004202EAC3523C
:10031000DBB200F5000000F00DBB400000F1807082
:1003200000EBC350A0F1807040EAD170490009E0B1
:10033000490841EAC071A0EBC35000F50000400835
:1003400000EBC350F0BC00F0ECBA6142012202EBBA
:100350004101001BF6E7F0BC704781F00041AAE7BD
:1003600080F00040A7E780EA010210B502F00043E8
:10037000400022D04A001FD0010E01EB1261C0F3F1
:100380005600C2F3560240F4000042F40002A0FB03
:10039000022000047F39140400D0401C50EA1240AF
:1003A00001D44000491EC2B20C0604EBD010401C20
:1003B0004008802A02D003E0002010BD20F0010098
:1003C000002900DA0020184310BD30B480EA010291
:1003D00002F0004530F0004221F0004013D090B10F
:1003E000C30DD40DC2F31601C0F31600E41A41F494
:1003F000000140F400027D34914201D3641C00E00E
:100400004900002C02DA30BC002070474FF4000095
:100410000023914201D3891A034340084FEA410166
:10042000F7D151B1914202D14FF0004105E002D223
:100430004FF0010101E06FF0010103EBC4502844CB
:1004400030BC00F06EBA2DE9FE4F804681EA030011
:10045000C00F0C46009021F0004123F00045B8EB9E
:100460000200A94105D24046214690461C460B4653
:10047000024623F00040104347D0270DC7F30A007F
:10048000C3F30A510290401A019040286BDAC3F37B
:10049000130040F4801B0098924620B10023D2EB59
:1004A000030A63EB0B0B01985946C0F1400250461A
:1004B00000F006FA06460D4650465946019A00F0ED
:1004C0001EFA10EB08006141002487EA115284EA09
:1004D000E7731A4340D0009A62B3019A012A4FEAA7
:1004E000075215DC001B61EB02014FF0004202EAEB
:1004F0000752CDE90042001C41F5801132462B46DF
:1005000000F055FA03B0BDE8F08F40462146F9E708
:10051000001B61EB0201001C41F5801300185B41D8
:100520002018A2F5001747EB030140EAD570B61971
:100530006D4111E06D084FEA360645EAC0754FEA95
:100540000752001B61EB0201001C41F580114908B4
:100550004FEA30000019514132462B4603B0BDE846
:10056000F04F00F015BA0098012240000023D0EBB4
:10057000020263EBE073009821464FEAE074B8EBA7
:10058000000061EB0401E9E783F000435BE781F0E1
:10059000004158E72DE9FE4F81EA030404F00044CE
:1005A00021F0004100944FF0000B23F0004350EA8B
:1005B00001045ED052EA03045BD0C3F30A54C1F3D2
:1005C0000A552C44A4F2F3340194A0FB0254C1F365
:1005D000130141F48011C3F3130343F4801301FBAF
:1005E000024400FB034E840A970A44EA815447EA16
:1005F0008357A4FB076802958D0A05FB07854FEA20
:10060000932C04FB0C542705029D4FEA065847EA39
:100610001637B5EB08056EEB070C870E920E47EA0E
:10062000811742EA8312A7FB0201B6EB0B0164EBD0
:1006300000042B0D43EA0C335E1844EB1C50DA46E1
:100640005146E7FB0201C5F313044FEA0B3343EABB
:1006500014534FEA0432019C43EA0603A4F10C044C
:100660000294009CCDE900B400F0A1F903B0BDE80C
:10067000F08F00200146F9E72DE9F04D81EA0304EF
:1006800004F0004B21F0004514464FF0000A23F01F
:10069000004150EA050220D054EA01021DD0C5F302
:1006A0000A570246C5F31303C1F31300C1F30A56F8
:1006B00040F4801543F48013A7EB0608101BD646C0
:1006C00008F2FD3873EB050002D308F1010801E0E0
:1006D00092185B41B8F1000F03DA00200146BDE833
:1006E000F08D00204FF48011064684460EE0171B63
:1006F00073EB050705D3121B63EB050306434CEAB6
:10070000010C49084FEA300092185B4150EA01079A
:10071000EDD152EA030012D082EA040083EA050117
:10072000084305D0101BAB4106D20122002306E08E
:1007300000224FF0004302E06FF0010253101AEB69
:1007400006004CEB085110EB0A0041EB0B01BDE831
:10075000F04D00F01DB9C10F80EAE0700844CA07EF
:100760009623002100F0E6B896230022114600F0FF
:10077000E1B80EB5C10F80EAE0700844CA07002155
:1007800040F233438DE80E000A460B4600F00FF9A5
:1007900003B000BD0EB540F2334102910021CDE916
:1007A00000110A460B4600F002F903B000BD00F04C
:1007B000004220F00040C10DC0F3160040F40000DC
:1007C0007F2901DA00207047962903DCC1F19601E8
:1007D000C84001E096398840002AF4D04042704772
:1007E00020F00040C10DC0F3160040F400007F2946
:1007F00001DA00207047962903DCC1F19601C84058
:100800007047963988407047C1F30A5210B5C1F35A
:10081000130140F2FF3341F480119A4201DA0020C3
:1008200010BD40F233439A42A2F2334203DC5242FB
:1008300000F055F810BD904010BD00F0004230F0BF
:1008400000400AD0C10D01F56071C0F3160042EA04
:100850000151C2084007114370470020014670470C
:1008600001F0004330B421F0004150EA010206D00B
:100870000A0DA2F56072C1F31301002A02DC30BC3C
:1008800000207047440F44EAC104C100E01830BCA6
:1008900000EBC25000F045B8002801DBC0F1004079
:1008A000002901DBC1F1004181427047002801DBD2
:1008B000C0F10040002901DBC1F1004188427047CE
:1008C000202A04DB203A00FA02F100207047914010
:1008D000C2F1200320FA03F3194390407047202A05
:1008E00004DB203A21FA02F00021704721FA02F3DA
:1008F000D040C2F120029140084319467047202A97
:1009000006DBCB17203A41FA02F043EAE07306E037
:1009100041FA02F3D040C2F1200291400843194647
:1009200070470029A8BF7047401C490008BF20F04D
:100930000100704710B4B0FA80FC00FA0CF050EAE5
:10094000010404BF10BC704749B1CCF1200421FA66
:1009500004F411FA0CF118BF012121430843A3EB61
:100960000C01CB1D4FEA00614FEA102042BF00206E
:1009700010BC704700EBC35010440029A4BF10BC4A
:100980007047401C490008BF20F0010010BC7047B0
:1009900010B5141E73F1000408DA401C41F1000187
:1009A00092185B411A4301D120F0010010BD2DE9DE
:1009B000F04D92469B4611B1B1FA81F202E0B0FAD5
:1009C00080F220329046FFF77BFF04460F4640EA54
:1009D0000A0041EA0B0153465A46084313D0114618
:1009E00053EA010019D0C8F140025046FFF777FFE3
:1009F00005460E46504659464246FFF761FF0843FA
:100A000005D0012004E020463946BDE8F08D0020E5
:100A1000054346EAE0762C4337430A986305E40A27
:100A2000A0EB08000022FD0A44EA47540A3002D530
:100A300000200146E9E7010510196941DDE9084593
:100A400000196941BDE8F04DA2E770B521F00043FF
:100A500003430CD0C1F30A550024D5EB040564EB25
:100A60000403D617AD1AB34102DB0020014670BD66
:100A7000201841EB025170BD064C074D06E0E068BE
:100A800040F0010394E8070098471034AC42F6D3D5
:100A9000FFF752FB008F0008208F00082DE9F04D72
:100AA00000231A461B1A8A4103DB00200146BDE8D9
:100AB000F08DC1F30A52C1F3130141F480154FF0D8
:100AC000000BD10702D100186D41521E00270446C9
:100AD00040F2FF11384601EB620A3E46804602466C
:100AE00000204FF48011FFF7FAFEC2197141BB18C4
:100AF00046EB0100B4EB030C75EB000C04D3E41AD5
:100B000065EB000517460E46241908F101006D41FA
:100B100080463428E3DDF91946EB0600091BA8419D
:100B200003D24FF0FF32134601E0002213461BEBC5
:100B3000070046EB0A51BDE8F04DFFF729BF70B53D
:100B40008C1810F8015B15F0070301D110F8013B78
:100B50002A1106D110F8012B03E010F8016B01F8FF
:100B6000016B5B1EF9D12B0705D40023521E0DD457
:100B700001F8013BFAE710F8013BCB1A921C03E0A5
:100B800013F8015B01F8015B521EF9D5A142D8D3DD
:100B9000002070BD10B5FFF7D5FA06F03FFA00202F
:100BA00010BD10B5FF2000F037F80446362C01D1F7
:100BB000002010BD3621FF2000F0C4F8FF2000F017
:100BC0002BF80446362C01D10020F2E70120F0E793
:100BD0001FB50E480E49086048601020488120204B
:100BE000088140200861C8600A484861001D88618A
:100BF00008487C38C8610B4610330FCB8DE80F00D6
:100C000003480FC801F09FF81FBD00000018014005
:100C1000E4B300209001234270B586B0044600265C
:100C2000474B10330FCB8DE80F0045480FC801F03C
:100C30003FF92546E01704EB10600012A02101EBFC
:100C40004000C0B23E4A0490D2E90430D2E9061214
:100C5000CDE90030CDE9021239480FC801F0F5F8AE
:100C6000374BD3E90420D3E90613CDE90213CDE9CC
:100C7000002033480FC801F057F9E01704EB10606B
:100C80000012A4EB0020C0B22D4B0490D3E9042045
:100C9000D3E90613CDE90213CDE9002028480FC897
:100CA00001F0D3F8264B10330FCB8DE80F0024480A
:100CB0000FC801F039F9224BD3E905021969DB6944
:100CC000CDE90223CDE900101D480FC801F0F0F86E
:100CD000A1201B4B049010330FCB8DE80F00184858
:100CE0000FC801F0B2F8164BD3E90420D3E906137C
:100CF000CDE90213CDE9002011480FC801F014F925
:100D000000200F4B0490D3E905021969DB69CDE996
:100D10000223CDE900100A480FC801F05AF8064630
:100D2000074BD3E90420D3E90613CDE90213CDE93B
:100D3000002003480FC801F0D9F8304606B070BD56
:100D4000E4B3002070B586B004460E463949D1E9B7
:100D500005030A69C969CDE90231CDE900203548AA
:100D60000FC801F0A5F82546E01704EB106000124B
:100D7000A02101EB4000C0B22E490490D1E9050347
:100D80000A69C969CDE90231CDE9002029480FC8B7
:100D900001F05BF8274B10330FCB8DE80F0025488F
:100DA0000FC801F0C1F8E01704EB10600012A4EBCB
:100DB0000020C0B21F4B0490D3E905021969DB691A
:100DC000CDE90223CDE900101A480FC801F03DF823
:100DD000184BD3E90420D3E90613CDE90213CDE97A
:100DE000002014480FC801F09FF8124B04961033EE
:100DF0000FCB8DE80F000F480FC801F026F80D4B00
:100E000010330FCB8DE80F000A480FC801F08CF8A3
:100E1000084BD3E905211869DB69CDE90213CDE957
:100E2000000204480FC801F061F80A2005F0E8FC50
:100E300006B070BDE4B3002008B5124802F0ACFE65
:100E400001F0D8F9012000900F4803780FA200218B
:100E50000C4807F06DFB012000230EA20421009036
:100E6000084807F065FB012000230CA20521009033
:100E7000044807F05DFB10220121024806F0E4F867
:100E800008BD000004B300204200002073657441D7
:100E9000000000006E6578740000000065786974D9
:100EA0000000000008B5124802F076FE01F0A2F939
:100EB000012000900F4803780FA200210C4807F092
:100EC00037FB012000230EA204210090084807F000
:100ED0002FFB012000230CA205210090044807F0FD
:100EE00027FB10220121024806F0AEF808BD0000E1
:100EF00004B300204300002073657442000000002A
:100F00006E65787400000000657869740000000068
:100F100038B53A4802F040FE01F06CF938490968EA
:100F2000C8693849FFF71FFA0546FFF759FC84B234
:100F30000120234634A200210090304807F0F8FA3F
:100F40002F490968086A2F49FFF70DFA0546FFF790
:100F500047FC84B2012023462CA20146009027487A
:100F600007F0E6FA26490968486A2649FFF7FBF9BF
:100F70000546FFF735FC84B20120234624A2022156
:100F800000901E4807F0D4FA012000902148007814
:100F900000EB4000204901EB400003791FA204212F
:100FA000164807F0C5FA012000231EA20521009073
:100FB000124807F0BDFA12490968086DFFF710FCE6
:100FC00084B20120234619A2062100900B4807F0A5
:100FD000AFFA18490968086DFFF702FC84B20120D6
:100FE000234615A207210090044807F0A1FA102219
:100FF0000121024806F028F838BD000004B30020A3
:1010000034000020000020414B7000004B690000BC
:101010004B640000440000200CA500206E6F777424
:1010200000000000657869740000000064756F318D
:10103000000000003800002064756F3200000000DE
:1010400000BFFEE708B50121102001F01FFC4FF49E
:101050000070ADF8000010208DF8030003208DF81B
:1010600002006946044800F003FD4FF40071024895
:1010700000F089FD08BD00000010014010B50021FE
:10108000014801F031FE10BD0010004000F0805119
:1010900011B10349086001E002494860704700004F
:1010A000040402400000024021B1026842F0010243
:1010B000026004E002684FF6FE731A400260704757
:1010C0001AB103680B43036002E003688B430360BB
:1010D000704710B50022026847F6F0739A430C6A15
:1010E0008B6823430C6923434C6923438C69234356
:1010F000CC6923434C6A23438C6A23431A4302601E
:10110000CB6843600B6883604B68C36010BD704759
:1011100038B5214802F040FD01F06CF801200023B1
:101120001EA2194600901C4807F002FA0120002375
:101130001CA201460090184807F0FAF9012000901F
:101140001A4803781AA20321134807F0F1F9012085
:1011500000901948038819A204210F4807F0E8F904
:10116000184903C9FFF750FB84B20120234616A299
:1011700005210090084807F0DBF90120042314A2A0
:1011800007210090044807F0D3F9102201210248FA
:1011900005F05AFF38BD000004B300206175746F7C
:1011A0000000000066697265000000006300002016
:1011B000726563780000000060000020776176654A
:1011C00000000000680000207261746500000000EB
:1011D000657869740000000038B5324802F0DCFC24
:1011E00001F008F8012000232FA2194600902D4895
:1011F00007F09EF9012000232DA201460090294806
:1012000007F096F92C480068FFF7EAFA84B201204B
:1012100023462AA202210090224807F089F9284893
:101220000068FFF7DDFA84B20120234625A20321DE
:1012300000901C4807F07CF9234924480068FFF718
:1012400092F80546FFF7CCFA84B20120234620A28B
:1012500004210090134807F06BF91F4903C9FFF7F9
:10126000D3FA84B2012023461CA2052100900D4828
:1012700007F05EF9012000901A4803781AA20621AF
:10128000084807F055F90120042319A2072100900E
:10129000044807F04DF910220121024805F0D4FE60
:1012A00038BD000004B300206175746F00000000B9
:1012B00066697265000000007C0000204B70000031
:1012C000800000204B69000000007A447800002074
:1012D000646561640000000068000020726174654C
:1012E000000000008700002074696D6500000000A8
:1012F000657869740000000086B00020049014E155
:101300004FF0FF318948006804F0BDFF0490049855
:101310000028F4D14FF4FA7005F072FA844800788E
:10132000FFF722FA83468349FFF74FF88246FFF71B
:1013300084FA80460022804BFFF726F906460022F9
:101340004FF08043FFF726F90446FFF789FA7B49FF
:10135000086058E002F09AFB79490870084690F955
:101360000000002815DA084690F90000FFF7F3F9AD
:1013700007467449FEF7F7FF06467349FEF7F0FF8C
:101380000546FFF72DFA84B22146704804F050F864
:1013900014E06B4890F90000FFF7DDF90746694952
:1013A000FEF7E1FF06466849FEF7DAFF0546FFF75C
:1013B00017FA84B22146654804F03AF86448007888
:1013C00005F01EFA00215D480068FFF765FA1AD0A3
:1013D00057480078FFF7C8F983465649FEF7F5FFEE
:1013E0008246FFF72AFA80460022534BFFF7CCF8DB
:1013F000064600224FF08043FFF7CCF80446FFF783
:101400002FFA4E49086000214C480068FFF744FA63
:10141000A0D150490868002101F0A0FF40F2DC5043
:1014200005F0EEF900F0CCFB824600F0C9FB8346E4
:101430005146FEF740FF8146FFF7D2F984B22046BD
:10144000FFF7A8F9074600223B4BFFF7A3F8054634
:10145000FFF7DAF940490880084600881E380880FE
:1014600036213E48006804F000FD3B480088B0F596
:10147000967F04DB4FF496703749088006E03648C3
:101480000088C82802DCC82033490880324909880E
:101490004800FFF76EF9804631480CC84046FFF718
:1014A000EBF8CDE9000102F07DF900224FF0804316
:1014B000CDE90201FFF7E0F806460022294BFFF7CD
:1014C00069F80446284A294BFFF7D6F88246FFF709
:1014D000C7F927490860084601682648FEF743FF18
:1014E00006462549FEF7E7FE0546FFF779F984B27F
:1014F0002146224803F09CFF40F6980005F080F951
:1015000001201F4908601F49C1F8A4014FF4487029
:1015100005F076F900201A49086019490831086079
:101520002A210E48006804F0A0FCE9E658000020DB
:10153000630000200000A0430000E03F7400002092
:10154000620000208988A84000003A4420B40020AE
:1015500087000020CCB200206000002000000020A6
:101560006800002000806640A7E8482EFF2109405F
:10157000700000201111A14000403F4404B400203D
:101580009C0122420000224286B00020049088E0A4
:101590004FF0FF314348006804F075FE0490049852
:1015A00000287ED1404909884800FFF7E2F88046CC
:1015B0003E480CC84046FFF75FF8CDE9000102F055
:1015C000F1F8064600224FF08043FFF755F8044635
:1015D0000022374BFEF7DEFF364A374BCDE90201DA
:1015E000FFF74AF88246FFF73BF93449086008469E
:1015F00001683348FEF7B7FE06463249FEF75BFE48
:101600000546FFF7EDF884B221462F4803F010FF9E
:101610002E4890F90000002815DA2C4890F90000B7
:10162000FFF799F807462A49FEF79DFE0646294925
:10163000FEF796FE0546FFF7D3F884B2214626480A
:1016400003F0F6FE14E0214890F90000FFF783F85C
:1016500007461F49FEF787FE06461E49FEF780FE35
:101660000546FFF7BDF884B221461B4803F0E0FEB3
:1016700040F6980005F0C4F80120184908601849A0
:10168000C1F8A4014FF4487005F0BAF800201349DE
:1016900008601249083108602A211248006804F0E5
:1016A000E4FB75E754000020600000206800002083
:1016B00000806640A7E8482EFF2109407000002006
:1016C0001111A14000403F4404B4002062000020FA
:1016D0008988A84000003A4420B400209C0122429E
:1016E000000022420000002008B5164802F054FA1B
:1016F00000F080FD0120002313A21946009011483C
:1017000006F016FF0120002310A2014600900D48AC
:1017100006F00EFF012000900E4803780EA2032170
:10172000084806F005FF012004230DA205210090C2
:10173000044806F0FDFE10220121024805F084FC59
:1017400008BD000004B30020746F00006669726574
:1017500000000000630000207265632000000000AC
:10176000657869740000000008B51A4802F014FAA0
:1017700000F040FD0120002317A2194600901548F3
:1017800006F0D6FE0120002315A201460090114864
:1017900006F0CEFE012000901348037813A2022128
:1017A0000C4806F0C5FE012000901248037812A2F2
:1017B0000421084806F0BCFE0120002310A20321EA
:1017C0000090044806F0B4FE10220121014805F003
:1017D0003BFC08BD04B30020726564790000000082
:1017E0007368616B00000000860000206164766110
:1017F000000000008700002074696D650000000093
:10180000657869740000000086B04FF0000BB8E006
:101810004FF0FF315B48006804F035FD8346BBF1B3
:10182000000FF4D1DFF860A1FA2058490880098838
:101830004800FEF79EFF804655480CC84046FEF71C
:101840001BFFCDE9000101F0ADFF00224FF0804306
:10185000CDE90201FEF710FF064600224D4BFEF7D0
:1018600099FE4D4A4D4BCDE90401FEF705FF0446B4
:10187000FEF7F6FF4A490860084601684948FEF746
:1018800072FD06464849FEF716FD0546FEF7A8FF1D
:1018900084B22146454803F0CBFD0120444908703D
:1018A0002EE000215046FEF7F7FF10D25146414886
:1018B000FEF759FD06464049FEF752FD0546FEF784
:1018C0008FFF84B221463D4803F0B2FD0FE0514640
:1018D0003848FEF748FD06463749FEF741FD054604
:1018E000FEF77EFF84B22146344803F0A1FD32208A
:1018F00004F086FF4FF07E515046FEF7DCFC824636
:101900002F495046FEF7C8FFCBD90220284908705E
:101910002EE000215046FEF7BFFF10D25146254869
:10192000FEF721FD06462449FEF71AFD0546FEF79F
:1019300057FF84B22146214803F07AFD0FE051465B
:101940001C48FEF710FD06461B49FEF709FD05463B
:10195000FEF746FF84B22146184803F069FD3220A5
:1019600004F04EFF4FF07E515046FEF7F6FC8246E3
:1019700005495046FEF79AFFCBD900200C49087064
:1019800000BF45E75C0000200000F0C160000020BF
:101990006800002000806640A7E8482EFF2109402B
:1019A000700000201111A14000403F4404B4002009
:1019B000850000208988A84000003A4420B4002017
:1019C0000000F04108B50121102000F05FFF8020E9
:1019D000ADF8000010208DF8030003208DF8020000
:1019E0006946044800F044F88021024800F0CBF832
:1019F00008BD00000010014038B5144802F0CCF8D2
:101A000000F0F8FB12480068FEF7EAFE84B20120FD
:101A1000234610A2002100900C4806F089FD012009
:101A200000230EA202210090084806F081FD01204B
:101A300004230DA203210090044806F079FD102232
:101A40000021024805F000FB38BD000004B300206F
:101A50007000002064697320616E670066697265BA
:101A6000206F6B21000000006578697400000000A1
:101A70002DE9F04102460025002600200023002425
:101A8000002791F803C00CF00F0591F803C00CF08B
:101A9000100CBCF1000F03D091F802C04CEA050510
:101AA00091F800C0BCF1000F31D0146800202BE089
:101AB0004FF0010C0CFA00F3B1F800C00CEA030679
:101AC0009E4220D183004FF00F0C0CFA03F7BC4369
:101AD00005FA03FC4CEA040491F803C0BCF1280F9A
:101AE00006D14FF0010C0CFA00FCC2F814C00AE059
:101AF00091F803C0BCF1480F05D14FF0010C0CFA6E
:101B000000FCC2F810C0401C0828D1D31460B1F802
:101B100000C0BCF1FF0F34DD546800202EE000F15E
:101B2000080C4FF0010808FA0CF3B1F800C00CEAF9
:101B300003069E4221D183004FF00F0C0CFA03F7ED
:101B4000BC4305FA03FC4CEA040491F803C0BCF161
:101B5000280F05D100F1080C08FA0CF8C2F814801F
:101B600091F803C0BCF1480F07D100F1080C4FF009
:101B7000010808FA0CF8C2F81080401C0828CED3DF
:101B80005460BDE8F0814161704701617047000019
:101B900010B500BF084800884FF47A7100FB01F4CB
:101BA000064801F0A1F90444002004498884322049
:101BB00004F026FE204610BD0C030020001000405B
:101BC0002DE9F84F4FF0000A0024A346A14631E06A
:101BD000012021490860142003F012FF00201F4952
:101BE000C1F8940100BF1C487C3800680028FAD076
:101BF00000F01AFD641C00BF17487C3800680128FB
:101C0000FAD0FFF73BFAFFF7C3FF82465046FEF7D4
:101C1000ABFD0090FEF711FE07460022104BFEF7C9
:101C20002BFD0546FEF71CFE834649465846FEF747
:101C300042FB8146052CCBD14846FEF7FEFD074608
:101C40000022084BFEF718FD0546FEF709FE834605
:101C50005846BDE8F88F000094812242008022425D
:101C600000004D40000014401FB50121202000F06D
:101C70000DFE2020ADF8000003208DF8020010209A
:101C80008DF8030069461E48FFF7F2FE20211C482C
:101C9000FFF779FF4020ADF8000004208DF8030025
:101CA00069461748FFF7E4FE40211548FFF76BFF30
:101CB0000121102000F0CAFD4FF0804001F020F813
:101CC00040F2E730ADF808004720ADF804000020EE
:101CD000ADF80A00ADF8060001A90A4801F088FA3B
:101CE0000121084800F0FAFF01221146054801F0E1
:101CF0000FF902F0CFFA0021024800F0F5FF1FBDF6
:101D000000140140001000400FB41FB500200B99D3
:101D100008600AA80FC88DE80F0006A80FC800F0D9
:101D20004FFE00200C990860022003F069FE01209C
:101D30000B990860052003F063FE00200B990860F2
:101D40001FBC5DF814FB0FB408B5DDE9052141EABD
:101D50000200012100F09AFDBDF81200ADF800006C
:101D600003208DF8020010208DF8030069460398C7
:101D7000FFF77EFEBDF81000ADF80000694602983E
:101D8000FFF776FE0120079908600899086001B006
:101D90005DF814FB0FB41FB500200B9908600AA86A
:101DA0000FC88DE80F0006A80FC800F009FE01203B
:101DB0000C990860022003F023FE01200B990860B3
:101DC000052003F01DFE00200B9908601FBC5DF884
:101DD00014FB0FB47FB5109E00240CA80FC88DE82B
:101DE0000F0008A80FC800F0DBFD002514E000205C
:101DF0000D990860022003F003FE01200D99086090
:101E00006006040E0F98006808B1601CC4B201207F
:101E100003F0F6FD681CC5B2082DE8DB46B90CA836
:101E20000FC88DE80F0008A80FC8FFF7B3FF07E041
:101E30000CA80FC88DE80F0008A80FC8FFF764FFB3
:101E4000204604B070BC5DF814FB0FB47FB5109C45
:101E50000CA80FC88DE80F0008A80FC800F0B0FD4F
:101E600000200D99086000251DE004F08000002886
:101E700003DD01200E99086002E000200E99086041
:101E80006006040E022003F0BBFD01200D990860DE
:101E9000022003F0B5FD00200D990860022003F038
:101EA000AFFD681CC5B2082DDFDB7FBC5DF814FBFD
:101EB0000FB41FB50AA80FC88DE80F0006A80FC8F9
:101EC00000F07EFD01200C9908600B990860052048
:101ED00003F096FD00200C990860062003F090FDA9
:101EE00000200B9908601FBC5DF814FB0FB41FB5F0
:101EF0000AA80FC88DE80F0006A80FC800F060FD03
:101F000000200B9908600C99086001200B9908606B
:101F1000062003F075FD01200C990860062003F0EF
:101F20006FFD1FBC5DF814FB0FB41FB500240AA899
:101F30000FC88DE80F0006A80FC800F031FD012082
:101F40000C99086003F05CFD01200B99086003F018
:101F500057FD10E0601CC4B2FA2C0CDD0AA80FC8B3
:101F60008DE80F0006A80FC8FFF7C0FF012004B0DE
:101F700010BC5DF814FB0D9800680028EAD10B999D
:101F8000086000BFF3E7000008B50121082000F059
:101F90007DFC0121082000F079FC0121082000F0DF
:101FA00075FC0121082000F071FC0121082000F0DF
:101FB0006DFC0121082000F069FC0121402000F0A7
:101FC00065FC0121402000F061FC48208DF80300F1
:101FD00003208DF802001020ADF8000069461B4870
:101FE000FFF746FD2020ADF8000069461748FFF7CF
:101FF0003FFD4020ADF8000069461448FFF738FD6A
:102000008020ADF8000069461048FFF731FD4FF41D
:102010008070ADF8000069460C48FFF729FD4FF4C9
:102020000070ADF8000069460848FFF721FD012067
:10203000ADF8000069460648FFF71AFD0220ADF82A
:10204000000069460248FFF713FD08BD000C01407F
:102050000018014010B504464048007801284ED1D0
:102060003F480068D0B13E48001D0068B0B13C4810
:102070000830006890B13A480C30006870B13848B8
:102080001030006850B136481430006830B135481F
:10209000006818B13348001D006878BB082004F0C0
:1020A000AFFB00202D4908702D48006808B90120B9
:1020B00010BD2B48001D006808B90220F8E7284829
:1020C0000830006808B90320F2E725480C300068A2
:1020D00008B90420ECE722481030006808B9052050
:1020E000E6E71F481430006808B90620E0E71D48FD
:1020F000006808B90720DBE70820D9E7FFE71848A0
:102100000068012823D11648001D006801281ED14F
:10211000134808300068012819D111480C300068B4
:10212000012814D10E481030006801280FD10C4846
:102130001430006801280AD10A480068012806D135
:102140000848001D0068012801D104490870012CCD
:1021500002D10120014908700020A9E748010020B0
:10216000108121420001234200BFFEE770470000BA
:1021700070B5002100230F22C47804B3154C2468E5
:1021800004F4E064C4F5E064210AC1F10403CA4028
:10219000447804FA03F184781440214309010E4C79
:1021A0000678A155047804F01F050124AC40057899
:1021B0006D11AD0005F1E025C5F8004109E0047896
:1021C00004F01F050124AC40044D0678761145F853
:1021D000264070BD0CED00E000E400E080E100E08E
:1021E00002490143024A1160704700000000FA05ED
:1021F0000CED00E070B5002419E004F1B001C8B2A4
:10220000002100F0CFF90021022000F0CBF90021DD
:10221000102000F0C7F9002505E00121002000F0A2
:10222000C1F9681CC5B2802DF7DB601CC4B2082C54
:10223000E3DB70BD08B50121082000F027FB10206A
:102240008DF8030003208DF802004FF48060ADF894
:10225000000069466948FFF70BFC4FF48050ADF869
:10226000000069466548FFF703FC4FF40060ADF8D5
:10227000000069466148FFF7FBFB4FF48040ADF872
:10228000000069465D48FFF7F3FB4FF40050ADF8DE
:10229000000069465948FFF7EBFB4FF4806157484F
:1022A000FFF773FC4FF480515448FFF76EFC4FF476
:1022B00000615248FFF769FC4FF480414F48FFF737
:1022C00064FC4FF400514D48FFF75FFC4FF4805120
:1022D0004A48FFF75AFC642001F098FC4FF4805103
:1022E0004648FFF750FC642001F090FC4FF4805109
:1022F0004248FFF74AFC0021AE2000F053F90021CC
:10230000022000F04FF90021102000F04BF90021CD
:10231000402000F047F90021812000F043F900211E
:10232000CF2000F03FF90021A12000F03BF900216F
:10233000C82000F037F90021A62000F033F9002171
:10234000A82000F02FF900213F2000F02BF90021F8
:10235000812000F027F90021FF2000F023F900215F
:10236000D32000F01FF90021084600F01BF90021DE
:10237000D52000F017F90021802000F013F900218A
:10238000D92000F00FF90021F12000F00BF9002115
:10239000DA2000F007F90021122000F003F90021F3
:1023A000DB2000F0FFF80021402000F0FBF80021C6
:1023B000202000F0F7F80021022000F0F3F80021BF
:1023C0008D2000F0EFF80021142000F0EBF8002140
:1023D000A42000F0E7F80021A62000F0E3F8002197
:1023E000AF2000F0DFF80021AF2000F0DBF8FFF7AE
:1023F00001FF0021084600F003F808BD000C014071
:1024000070B504460D4605F1B001C8B2002100F0D8
:10241000C9F8102141EA1410002100F0C3F804F0BB
:102420000F0141F00100002100F0BCF870BD000078
:102430002DE9F04107460E46904600250024A8F1FC
:102440002000C5B27F2F02DD0027B01CC6B21F4896
:102450000078102824D131463846FFF7D1FF0024F8
:1024600008E004EB05111A4A505C012100F09AF8CB
:10247000601CC4B2082CF4DB701CC1B23846FFF7F4
:10248000BFFF002409E004EB05110831104A505C3D
:10249000012100F087F8601CC4B2082CF3DB12E0C5
:1024A00031463846FFF7ACFF00240AE005EB450152
:1024B000084A02EB4101085D012100F073F8601C3D
:1024C000C4B2062CF2DBBDE8F08100000903002055
:1024D000AE880008868600082DE9FF5F0746914612
:1024E0001D460E9E4FF0000A002433E0281B401EBC
:1024F000C1B20A2002F091FDB9FBF0F00A21B0FB55
:10250000F1F201FB1208BAF1000F13D1681EA042CC
:1025100010DDB8F1000F0BD1B34606EBDB714910AB
:1025200001FB0471C8B220220199FFF781FF0FE07F
:102530004FF0010AB34606EBDB71491001FB047151
:10254000C8B208F13001CAB20199FFF771FF00BFAC
:10255000601CC4B2AC42C9DBBDE8FF9F2DE9F0416D
:1025600004460F461546002615E0AA5D394620466A
:10257000FFF75EFF0A480078102803D104F1080035
:10258000C4B201E0A01DC4B2782C02DD0024B81C46
:10259000C7B2701CC6B2A85D0028E6D1BDE8F081C4
:1025A0000903002070B504460E462EB14FF40061B9
:1025B0001C48FFF7EAFA04E04FF400611948FFF7FE
:1025C000E2FA4FF480611748FFF7DDFA00251BE0BF
:1025D0004FF480411348FFF7D6FA04F0800028B189
:1025E0004FF400510F48FFF7D0FA04E04FF40051C8
:1025F0000C48FFF7C8FA4FF480410A48FFF7C5FAC4
:102600006006040E681CC5B2082DE1DB4FF4806142
:102610000448FFF7BAFA4FF400610248FFF7B5FA31
:1026200070BD0000000C014010B50021054800F00D
:10263000DDFD0020044908800121024800F054FB20
:1026400010BD0000001000400C0300200FB410B5B6
:1026500088B0119C01210B9800F018F901210E9807
:1026600000F0F4F8BDF83000ADF8000003208DF85C
:10267000020018208DF8030069460A98FFF7F8F960
:10268000BDF84000401E80B2ADF81800ADF814400F
:102690000020ADF81A00ADF8160005A90D9800F05D
:1026A000A7FD6020ADF804000020ADF80C0001206B
:1026B000ADF80600BDF83E00ADF80A00BDF83C00DC
:1026C00030B1042809D008280CD00C2814D10EE011
:1026D00001A90D9800F026FC0EE001A90D9800F06C
:1026E00077FC09E001A90D9800F0D2FC04E001A9F3
:1026F0000D9800F027FD00BF00BFBDF83C0030B1D1
:10270000042809D008280CD00C2814D10EE0082188
:102710000D9800F053FC0EE008210D9800F0AAFC83
:1027200009E008210D9800F003FD04E008210D9850
:1027300000F046FD00BF00BF01210D9800F0C2FA75
:1027400001210D9800F0D0FA08B010BC5DF814FB20
:1027500038B5274801F020FAFFF74CFD0120009022
:102760002448038824A20021214805F0E1FE2348E3
:1027700090F9000000280BDB012000901F4890F921
:10278000000083B21EA20121194805F0D1FE0BE022
:1027900001200090194890F90000404283B21AA22B
:1027A0000121134805F0C4FE0120032318A20221D1
:1027B00000900F4805F0BCFE0120042316A203215F
:1027C00000900B4805F0B4FE154903C9FEF71CF84C
:1027D00084B20120234613A204210090044805F08E
:1027E000A7FE10220121024804F02EFC38BD000093
:1027F00004B30020600000206469730062000020C0
:102800002B616E67000000002D616E670000000004
:102810006669726500000000657869740000000058
:1028200068000020726174650000000029B1064A4A
:1028300052690243044B5A6104E0034A52698243DD
:10284000014B5A61704700000010024029B1064A4E
:10285000D2690243044BDA6104E0034AD26982433D
:10286000014BDA61704700000010024029B1064AAE
:1028700012690243044B1A6104E0034A126982435D
:10288000014B1A61704700000010024029B1064A4E
:1028900092690243044B9A6104E0034A92698243BD
:1028A000014B9A61704700000010024029B1064AAE
:1028B000D2680243044BDA6004E0034AD2688243E0
:1028C000014BDA60704700000010024030B5002173
:1028D0000022002400232D4D6D6805F00C0121B16C
:1028E000042905D0082923D105E0294D056022E0FF
:1028F000274D05601FE0254D6D6805F47012234DCE
:102900006D6805F48034022505EB92421CB9214D17
:10291000554305600BE01D4D6D6805F400351DB194
:102920001C4D5543056002E0194D5543056002E01A
:10293000174D056000BF00BF144D6D6805F0F00134
:102940000909154D6B5C0568DD4045600F4D6D68EC
:1029500005F4E061090A104D6B5C4568DD40856057
:102960000A4D6D6805F46051C90A0B4D6B5C4568F2
:10297000DD40C560054D6D6805F44041890B074D8C
:102980006B5CC568B5FBF3F5056130BD0010024016
:1029900000127A0000093D001203002022030020EB
:1029A0000FB408B5BDF81000ADF8000048208DF850
:1029B000030069460298FFF75BF801B05DF814FB6D
:1029C0000FB408B5BDF81000ADF8000003208DF875
:1029D000020010208DF8030069460298FFF748F8BE
:1029E00001B05DF814FB704710B500F001F810BDA0
:1029F0000CB50020019000903348006840F480300E
:102A00003149086000BF3048006800F40030009091
:102A10000198401C0190009818B90198B0F5A06F7A
:102A2000F1D12948006800F4003010B10120009075
:102A300001E0002000900098012843D1234800685D
:102A400040F01000214908600846006820F00300AB
:102A500008600846006840F0020008601A484068B4
:102A6000194948600846406848600846406840F494
:102A7000806048600846406820F47C104860084642
:102A8000406840F4E81048600846006840F08070F4
:102A9000086000BF0C48006800F000700028F9D002
:102AA0000948406820F0030007494860084640682C
:102AB00040F00200486000BF0348406800F00C008E
:102AC0000828F9D10CBD000000100240002002408F
:102AD00008B5124801F060F8FFF78CFB0120009068
:102AE0000F4803880FA200210C4805F021FD0120AA
:102AF00000230FA202210090084805F019FD0120D3
:102B000004230EA203210090044805F011FD1022B9
:102B10000021024804F098FA08BD000004B3002028
:102B20006000002064697374616E636500000000DA
:102B3000746F206669726521000000006578697411
:102B400000000000042808D14FF0E021096941F09D
:102B500004014FF0E022116107E04FF0E021096924
:102B600021F004014FF0E0221161704710B502F02E
:102B70005BFF03F047FF02F067FF10BD10B504468E
:102B80006FF00400FFF7DEFFE11704EB5171C1F3B2
:102B9000C701074A11701046007800EB4001C1EBF5
:102BA000C0104FF6FF7101EAC0000249088010BD55
:102BB0000E0300201003002010B51348006840F0F9
:102BC00001001149086008464068104908400E4954
:102BD0004860084600680E4908400B4908600846EE
:102BE000006820F4802008600846406820F4FE0059
:102BF00048604FF41F008860FFF7F6FE4FF000605A
:102C00000449086010BD0000001002400000FFF8F9
:102C1000FFFFF6FE08ED00E010B50121880700F087
:102C200066F970B319480078401C184908700846C6
:102C30000078642801DD00200870144800782821FD
:102C400090FBF1F201FB1200012809D11048007835
:102C500030B1FFF7CFFA0C2201210E4804F0F4F94D
:102C60000A480078142190FBF1F201FB12000228BF
:102C700007D10948006820B90020FFF7EBF90649A1
:102C800008600121880700F02CF810BD0B0300201C
:102C90000A03002004B300203C01002010B50121EC
:102CA000064800F024F940B10121044800F019F869
:102CB00003480088401C0249088010BD00100040F5
:102CC0000C03002021B1028842F08002028004E05F
:102CD00002884FF67F731A4002807047CA4302820F
:102CE0007047CA430282704721B1028842F0010254
:102CF000028004E002884FF6FE731A40028070479B
:102D000010B504466848844208D10121C014FFF779
:102D1000CDFD0021E014FFF7C9FDC4E0B4F1804F00
:102D200008D101210846FFF7A1FD00210120FFF78E
:102D30009DFDB8E05D48844208D101210220FFF7E3
:102D400095FD00210220FFF791FDACE05848844238
:102D500008D101210420FFF789FD00210420FFF79D
:102D600085FDA0E05348844208D101210820FFF7E7
:102D70007DFD00210820FFF779FD94E04E48844254
:102D800008D101211020FFF771FD00211020FFF76D
:102D90006DFD88E04948844208D101212020FFF7D9
:102DA00065FD00212020FFF761FD7CE0444884425E
:102DB00008D101214014FFF779FD00216014FFF7CD
:102DC00075FD70E03F48844209D10121C804FFF736
:102DD0006DFD00214FF40020FFF768FD63E03A48E5
:102DE000844209D101210805FFF760FD00214FF45D
:102DF0008010FFF75BFD56E03448844209D1012181
:102E00004805FFF753FD00214FF40010FFF74EFD7A
:102E100049E02F48844208D101214020FFF726FDD8
:102E200000214020FFF722FD3DE02A48844208D1DE
:102E300001218020FFF71AFD00218020FFF716FDF9
:102E400031E02548844208D101218015FFF70EFDAD
:102E50000021A015FFF70AFD25E02048844209D192
:102E600001210804FFF722FD00214FF48030FFF715
:102E70001DFD18E01A48844209D101214804FFF7DA
:102E800015FD00214FF40030FFF710FD0BE0154851
:102E9000844208D101218804FFF708FD00214FF486
:102EA0008020FFF703FD10BD002C0140000400400E
:102EB00000080040000C00400010004000140040DA
:102EC00000340140004C01400050014000540140DA
:102ED00000180040001C004000200040004001405D
:102EE00000440140004801400146888C704730B5DD
:102EF0000246002000230024158A05EA0103958973
:102F000005EA010413B10CB1012000E0002030BD3E
:102F10001AB183890B43838102E083898B438381C8
:102F20007047000070B5002400220023058C4FF686
:102F3000FE7635400584028C8388048B4FF68F75AE
:102F40002C40B51E2C400D882C43751E2A400D893F
:102F50002A434D882A43144DA8420BD0134DA84252
:102F600008D0134DA84205D0124DA84202D0124DF0
:102F7000A84213D14FF6F7752A404D892A434FF6E0
:102F8000FB752A408D882A434FF6FF652B404FF68C
:102F9000FF552B408D892B43CD892B4383800483A0
:102FA000CD888586028470BD002C0140003401402C
:102FB0000040014000440140004801400A46002111
:102FC000018B4FF6F77319401143018370470000DE
:102FD00070B5002400220023058C4FF6EF763540B3
:102FE0000584028C8388048B48F6FF752C404FF6CD
:102FF000FF452C400D884FF6FF7606EA05252C4349
:103000004FF6DF752A400D8906EA05152A434D88DB
:1030100006EA05152A43154DA84202D0144DA842D0
:103020001DD14FF67F752A404D894FF6FF7606EA8F
:1030300005152A434FF6BF752A408D8806EA051507
:103040002A434FF6FF352B404FF2FF752B408D89F9
:1030500006EA85052B43CD8906EA85052B43838047
:103060000483CD880587028470BD0000002C0140D8
:10307000003401400A460021018B4FF2FF731940D2
:103080004FF6FF7303EA02231943018370470000E0
:1030900070B5002400220023058C4FF6FF663540F2
:1030A0000584028C8388848B4FF68F752C404FF6F5
:1030B000FC752C400D882C434FF6FF552A400D8996
:1030C0004FF6FF7606EA05252A434D8806EA0525D0
:1030D0002A43154DA84202D0144DA8421DD14FF2EB
:1030E000FF752A404D894FF6FF7606EA05252A43EB
:1030F0004FF6FF352A408D8806EA05252A434EF60D
:10310000FF752B404DF6FF752B408D8906EA05159E
:103110002B43CD8906EA05152B4383808483CD8814
:103120008587028470BD0000002C014000340140FE
:103130000A460021818B4FF6F773194011438183B2
:103140007047000070B5002200230024058C4EF665
:10315000FF7635400584038C8488828B48F6FF75A2
:103160002A404FF6FF452A400D884FF6FF7606EAC3
:1031700005252A434DF6FF752B400D8906EA0535D6
:103180002B434D8806EA05352B430B4DA84202D050
:103190000A4DA84208D14BF6FF752C408D894FF699
:1031A000FF7606EA85152C4384808283CD88A0F8BB
:1031B0004050038470BD0000002C014000340140E9
:1031C0000A460021818B4FF2FF7319404FF6FF73BF
:1031D00003EA022319438183704781867047018780
:1031E000704781877047A0F840107047818470470E
:1031F000002202881D4B98420ED01D4B98420BD0E6
:10320000B0F1804F08D01B4B984205D01A4B984222
:1032100002D01A4B984204D14FF68F731A404B8854
:103220001A43174B984207D0164B984204D04FF6DA
:10323000FF431A40CB881A4302808B8883850B8812
:1032400003850A4B98420BD0094B984208D00E4B8D
:10325000984205D00D4B984202D00D4B984201D1B7
:103260000B7A03860123838270470000002C014003
:10327000003401400004004000080040000C004001
:103280000010004000140040004001400044014094
:103290000048014008B50A4800F07EFCFEF7AAFF8E
:1032A000012000900748037807A20021044805F098
:1032B0003FF90C220121024803F0C6FE08BD0000C0
:1032C00004B30020280000207069640000B58BB0B2
:1032D00002F0AAFB40F224410B4800F061F878B1FB
:1032E0000A48006828220A490A906846FCF7B6FF97
:1032F000074810380FC801F077FE034800F00CF9BA
:1033000002F0A2FB0BB000BD003801400800002015
:10331000A4B2002000B58BB002F086FB40F224413D
:103320000B4800F03DF878B10A48006828220A49A5
:103330000A906846FCF792FF074810380FC801F062
:1033400053FE034800F0E8F802F07EFB0BB000BD2E
:10335000004400400C000020DCB2002021B1828932
:1033600042F40052828104E082894DF6FF731A40D4
:10337000828170471AB1838A0B43838202E0838A79
:103380008B438382704702460020B1F5007F00D155
:1033900000BF13880B400BB1012000E000207047F4
:1033A00070B50246002400230025002040F66A166E
:1033B000B14200D100BFC1F3421501F01F03012645
:1033C00006FA03F3012D02D19689334006E0022D5F
:1033D00002D1168A334001E0968A33400C1201264E
:1033E00006FA04F41688344013B10CB1012000E051
:1033F000002070BDF0B50346002400260025002003
:1034000040F66A17B94200D100BF1846C1F3421412
:1034100001F01F06012707FA06F5012C01D10C3037
:1034200004E0022C01D1103000E014301AB107681A
:103430002F43076002E00768AF430760F0BD00005C
:103440002DE9F04786B005460E460024A24600BF8F
:10345000A1460027B08900B100BF2F462C8A4CF648
:10346000FF700440F08804432C82AC894EF6F310C0
:103470000440B08831890843718908430443AC8112
:10348000AC8A4FF6FF400440B0890443AC8201A8E7
:10349000FFF71CFA1F48874202D1DDF810A001E0B7
:1034A000DDF80CA0A88900F4004040B10AEBCA0086
:1034B00000EB0A1031684900B0FBF1F807E00AEBB5
:1034C000CA0000EB0A1031688900B0FBF1F86420F3
:1034D000B8FBF0F004012009642101FB1089A889E0
:1034E00000F4004040B1322000EBC900B0FBF1F025
:1034F00000F00700044308E0322000EB09106421CB
:10350000B0FBF1F000F00F0004432C8106B0BDE8E1
:10351000F08700000038014001468888C0F30800A9
:103520007047C1F308028280704700BFFEE7490080
:1035300050EAC12018BF04204A0D18BF40F0010016
:1035400040F2FF72B2EB515F08BF40F00200012869
:1035500008BF052070472DE9F0414F1E00EBC70161
:103560000446D1E9000115461E4637F006020DD08B
:103570002A463346FDF70EF87F1E04EBC703D3E956
:103580000023FCF760FF37F00602F1D1022F25D0AF
:10359000042F13D0062F18BFBDE8F0812A4633460A
:1035A000FCF7F8FFD4E90A23FCF74DFF2A4633461F
:1035B000FCF7F0FFD4E90823FCF745FF2A46334621
:1035C000FCF7E8FFD4E90623FCF73DFF2A46334623
:1035D000FCF7E0FFD4E90423FCF735FF2A46334625
:1035E000FCF7D8FFD4E90223FCF72DFF2A46334627
:1035F000FCF7D0FFD4E90023BDE8F041FCF723BF7E
:103600000122FDF722BA0022134610461146FDF7AB
:1036100033B80000024A00201107FDF716BA000077
:1036200001FDFFFF014609B900207047C8B220B173
:10363000C8B20E4A105C401CF7E701F47F4028B185
:103640000A48C1F30722805C0930EEE701F47F00ED
:1036500028B10648C1F30742805C1130E5E7034812
:1036600000EB116000781930DFE700006485000886
:1036700002E008C8121F08C1002AFAD1704770473B
:10368000002001E001C1121F002AFBD17047000099
:1036900001490860704700003C03002003490868A6
:1036A000884201D0012070470020FCE71001002073
:1036B0002DE9FC5F04468B4615461E46DDE90C9A53
:1036C000DDE90E7804F114004060006000BF1C3496
:1036D0006560A660C4F80C90C4F810A02321D4E95A
:1036E000030202F046FCD4E9033C63441A1F0F4B6B
:1036F000D4E9010102F05EF92060A7766776002028
:10370000E061C4F82880C4F82C8060612076E06510
:1037100020661C3C00902346054A2146019004F196
:103720004C0003F00CFA0020BDE8FC9FB1660008D5
:10373000116900082DE9F04704460E4617469846E1
:10374000DDF8209084F80990607A20F00100607222
:10375000E66127620020A062C4F82480002506E00C
:1037600004F1140101EBC50002F0E4F96D1C012D18
:10377000F6DBBDE8F08710B50246002001460EE0FA
:1037800002F1140303EBC100D0E900436360D0E908
:10379000003423604060006000BF481C01460129DE
:1037A000EEDB10BD2DE9F04D8D4F21F0004A86B0C3
:1037B00005460C46BA452ADBAAEB070028430AD087
:1037C0008848824501DC1AD1CDB106B02846BDE853
:1037D000F04DFFF715BF844A844B2846FCF7DAFE0C
:1037E00007460E46824A834B28462146FCF7D2FE06
:1037F00006B03A463346BDE8F04DFCF724BE012042
:10380000FFF746FF06B0BDE8F04DFFF7FCBE7A4873
:10381000824542DABAF1795F0BDA2846FFF787FE74
:10382000042808BFFFF7F6FE284606B02146BDE88B
:10383000F08D2A460B461046FCF7ACFE8346024646
:103840006E480E460B4606217844FFF784FE5A4622
:103850003346FCF79FFE804669488A465A463346FF
:1038600004217844FFF777FE5A463346FCF792FE70
:1038700000223B46FCF7E7FD02460B464046514618
:10388000FCF7FAFE2A462346FCF784FE06B02A46D9
:103890002346BDE8F04DFCF7D6BD284624F0004194
:1038A00000223D463B46FCF772FE4FF0FF32FDF72B
:1038B000CCF80646024653480F460B46062178448C
:1038C000FFF749FE32463B46FCF764FECDE90001B6
:1038D0004D4832463B4604217844FFF73CFE3246D1
:1038E0003B46FCF757FE00222B46FCF7ACFD834617
:1038F00002913046394603F04AFC804643480D4663
:10390000504517DCDDE900015A46029BFCF7B4FE86
:1039100042462B46FCF73EFE42462B46FCF793FD03
:103920000122FDF792F8304A304BFCF72DFE304A69
:10393000304B4CE04FF0000A52460B464046FCF735
:1039400082FDCDE9031052462B4610461946FCF77E
:1039500021FE32463B46FCF71AFEDDE90332FCF756
:103960008BFE06460F46DDE900015A46029BFCF736
:1039700083FE83460091012230463946FDF765F803
:10398000194A1A4BFCF703FE06460F460122404631
:103990002946FDF75AF85A46009BFCF7FBFD3246D4
:1039A0003B46FCF7F1FD06460F46012250462946EC
:1039B000FDF74BF80E4DDFF858802A464346FCF7DA
:1039C000E6FD32463B46FCF7E2FD2A464346FCF75D
:1039D000DEFD002CD8BF81F0004106B0BDE8F08DBF
:1039E0000000F03F0000F07F075C143326A6913CF6
:1039F000182D4454FB21F93F0000E03F54560000CD
:103A00006A560000DE550000F45500003333EF3FE6
:103A1000FB21E93F70B50546284602F0CDF8044683
:103A20000CB9002070BD0020E0602046FAE70000DD
:103A300010B504461148124908600420486040202F
:103A400008811048C86002200861002088820B4865
:103A50000D49086004204860802008810948C8603A
:103A600002200861042088822146054804F038FAC3
:103A70002146054804F034FA10BD0000000801405A
:103A800004B400200004004020B400202DE9F047D9
:103A90002E4801682E480068FCF7FEFE0CD22B4829
:103AA000006880F000462A4801683046FCF7F4FEC2
:103AB00002D20020264908604FF080412548006866
:103AC000FCF7F4FE04D24FF08040224908600AE07F
:103AD0004FF040411F480068FCF7DEFE03D24FF074
:103AE00040401C4908601C4801681C480068FCF7FD
:103AF0003AFC80461948016815480068FCF72DFC1F
:103B00008146174801684846FCF72DFC07464146A8
:103B1000FCF7D1FB0646FCF74AFE45B21148007897
:103B2000284444B214F11E0F02DA6FF01D0402E0C3
:103B30001E2C00DD1E240B48047005480068074950
:103B40000860084890F90000BDE8F0877800002080
:103B50007400002088000020800000208C000020DD
:103B60007C00002084000020002410E04FF0FF3192
:103B70000748006802F087FB044644B90549086B12
:103B800001F056FA034A918E106BFCF780FBEDE7CB
:103B90000C000020CCB20020024600210EE0C1EB58
:103BA000C10002EB400007A31B8803800020C1EB8B
:103BB000C10302EB43039881481CC1B21029EEDB1C
:103BC0000120704720000000002411E04FF0FF3179
:103BD0000848006802F057FB04464CB90648C16A21
:103BE00006A001F089FF044A918ED06AFCF74FFBD2
:103BF000ECE700000800002094B20020CAD5B5BD53
:103C0000CAFDBEDD3A25730A000000000146114AD4
:103C100012884A434FF0E0235A6100229A611A4603
:103C2000126942F001021A6100BF4FF0E0221069F0
:103C300000F001021AB100F48032002AF5D04FF0F2
:103C4000E022126922F001024FF0E0231A61002203
:103C50009A617047100300201CB50024DFE24FF08A
:103C6000FF3201A9F948006802F085F80446002CEB
:103C7000F4D10198412870D2DFE800F06F21482785
:103C80004E5152612A86808370716F999C898A9FF8
:103C9000B3B4FEFDFCFBFA2DF9F8F730F6F5F4F3BA
:103CA000F2F1F0EFEEEDEC396F33EBEAE9E8E7E63D
:103CB000E5E4E3E2E1E0DF36DEDDDCDBDA0004F060
:103CC0004FF9E3A001F018FFA8E2FFF7E3FAA5E23D
:103CD000FDF7B2F8A2E204F01BF99FE2FEF738FD0F
:103CE0009CE2FDF779FA99E2FDF73EFD96E20020AD
:103CF0000090E1480378E1A20621E24804F018FCB4
:103D000010220121DF4803F09FF987E200F058FB01
:103D1000DDA001F0F1FE81E200F052FB7EE200BF87
:103D200000200090E2480378E2A20021D54804F088
:103D3000FFFB0C220121D34803F086F96EE201203B
:103D40000023DDA201460090CE4804F0F1FB0C22D6
:103D50000121CC4803F078F960E25AE200BF00206C
:103D60000090D6480378D6A20021C64804F0E0FBB4
:103D700010220121C34803F067F94FE2FDF792F8E2
:103D80004CE2FDF7C5F849E200F01AFB46E200BF3D
:103D900000200090CC480378CCA20021B94804F060
:103DA000C7FB10220121B74803F04EF936E2FDF7B8
:103DB000AFF833E200F004FB30E201200023C5A29B
:103DC00003210090AF4804F0B3FB10220121AD485D
:103DD00003F03AF94FF47A7002F012FD00F0F0FAB5
:103DE0001CE200BFBC490968C869BC49FCF7BBFAC2
:103DF0000646FCF7F5FC85B200202B46B8A201462A
:103E00000090A04804F094FBB3490968086DFCF7E2
:103E1000E7FC85B200202B46B2A20621009099480B
:103E200004F086FBB1490968086DFCF7D9FC24E071
:103E3000CAE1C8E1EAE1C3E1D5E1D8E1D6E187E131
:103E400085E1AEE19EE1DAE0D8E0ECE0EAE096E17F
:103E50007AE1D0E0CCE08BE089E0C6E0C2E0BEE0F1
:103E60009AE098E073E073E070E06CE05CE05AE0A8
:103E700044E02BE029E010E00EE085B200202B4664
:103E80009BA2072100907F4804F052FB10220121E1
:103E90007C4803F0D9F8C1E100BF8F490968086A7E
:103EA0008E49FCF760FA0646FCF79AFC85B20020C2
:103EB0002B4691A201210090724804F039FB102298
:103EC0000121704803F0C0F8A8E100BF82490968E9
:103ED000486A8249FCF747FA0646FCF781FC85B23E
:103EE00000202B4685A202210090664804F020FBAA
:103EF00010220121634803F0A7F88FE10020009011
:103F00007F48007800EB40007E4901EB40000379D8
:103F10007DA204215B4804F00BFB102201215948CB
:103F200003F092F87AE100BF0020009078480388FF
:103F300078A20021534804F0FBFA102201215148D5
:103F400003F082F86AE100F03BFA67E100BF00BFCE
:103F5000002000907048038870A20021494804F0B6
:103F6000E7FA10220121474803F06EF856E100BF3E
:103F70006B4903C9FCF748FC85B200202B4669A2B7
:103F8000042100903F4804F0D3FA102201213D485B
:103F900003F05AF842E100BF644890F9000000289D
:103FA0000BDB01200090614890F9000083B260A211
:103FB0000121344804F0BCFA0BE0012000905B487A
:103FC00090F90000404283B25BA201212D4804F029
:103FD000AFFA102201212B4803F036F81EE100F061
:103FE000EFF91BE1FEF774FD18E1FEF7B1FB15E1F7
:103FF000FDF702FD12E100F0E3F90FE100BF5048C8
:104000000068FCF7EDFB85B200202B463AA20321A5
:1040100000901C4804F08CFA10220121194803F08A
:1040200013F8FBE000BF47480068FCF7D9FB85B2F6
:1040300000202B462AA202210090124804F078FAB0
:10404000102201210F4802F0FFFFE7E000000020EE
:104050007468726561645F646973706C6179A3BA36
:104060007461736B31BDE7C3E6B8FCD0C2B3C9B9A4
:10407000A6A3A10A0000000029000020737769634D
:104080000000000004B300207468726561645F641E
:104090006973706C6179A3BABBD8B5BD6D61696E87
:1040A000BDE7C3E6B8FCD0C2B3C9B9A6A3A10A0054
:1040B00028000020706964006F6B0000420000203F
:1040C0007365744100000000430000207365744272
:1040D000000000006F6B2100340000200000204130
:1040E0004B70000064756F31000000003800002044
:1040F00064756F32000000004B6900004B640000E3
:10410000440000200CA500206E6F777400000000B2
:104110001C00002050776D0060000020646973006F
:1041200068000020726174650000000062000020D9
:104130002B616E67000000002D616E6700000000BB
:10414000800000207C000020FCF7E2FF66E000BF5A
:10415000334934480068FCF706F90646FCF740FB93
:1041600085B200202B4630A204210090304804F094
:10417000DFF9102201212E4802F066FF4EE0FDF724
:104180002BF84BE0002000902A4803782AA2032154
:10419000274804F0CDF910220121254802F054FFF0
:1041A0003CE0002000902648038826A204212048F5
:1041B00004F0BEF9102201211D4802F045FF2DE058
:1041C000FDF792FA2AE000BF002000901F48037814
:1041D0001FA20221164804F0ABF910220121144855
:1041E00002F032FF1AE000F0EBF817E000BF002009
:1041F00000901948037819A204210D4804F098F999
:10420000102201210A4802F01FFF07E0FDF7ACFA77
:1042100004E014A0019901F06FFC00BF00BF1EE58F
:1042200000007A44780000206465616400000000AA
:1042300004B3002063000020726563780000000072
:104240006000002077617665000000008600002095
:1042500061647661000000008700002074696D656C
:10426000000000007468726561645F646973706C5B
:104270006179A3BACFD4CABEB8FCD0C2B4EDCEF334
:10428000A3ACB4EDCEF3616374696F6E3A25640A32
:104290000000000008B54FF4A060FDF7A1FF362034
:1042A0008DF8000000208DF801008DF8020001203B
:1042B0008DF803006846FDF75BFF08BD08B50024D4
:1042C00016E04FF0FF3269460A48006801F053FDDE
:1042D000044654B908A0009901F00EFC0098C1B240
:1042E0000F48007802F0CCFF02E00EA001F004FCC1
:1042F000E7E70000440100207468726561645F6B49
:10430000657968616E646C65A3BACAD5B5BDB0B491
:10431000BCFC3A25642CBFAACABCB4A6C0ED0A00F6
:104320001E0000207468726561645F6B6579686166
:104330006E646C65A3BAB0B4BCFCBDD3CAD5CAA7C1
:10434000B0DCA3A10A00000070B505460B48006868
:1043500098B90020FDF77EFE08490860084600680D
:1043600058B1084601680648006801F07EFD044621
:1043700014B904A001F0C0FB00BF70BD3C010020D7
:104380004401002074696D65725F6B6579736361C8
:104390006EA3BAB0B4BCFCB7A2CBCDB3C9B9A6A3C7
:1043A000A10A000010B500F083F800F055FD00F000
:1043B0003DFA00F0B7F900F059FC002010BD0000F4
:1043C00008B52648FFF7E8FBFDF714FF0120034678
:1043D00023A200210090214804F0AAF80120022322
:1043E00021A2014600901D4804F0A2F801200323F9
:1043F0001FA202210090194804F09AF8012004231A
:104400001DA203210090154804F092F80120052315
:104410001AA204210090114804F08AF80120062312
:1044200018A2052100900D4804F082F801200090A8
:104430001648037816A20621084804F079F80120EE
:10444000082315A207210090044804F071F81022F7
:104450000121024802F0F8FD08BD000004B300206D
:104460006D61696E000000007465737400000000E7
:1044700067756E310000000070776D0067756E32F1
:104480000000000067756E33000000002900002066
:104490007377696300000000636F767200000000AC
:1044A00010B5044601F034F8FFF77CFF10BD0000A2
:1044B00010B50022114634A001F0A0FE3649086074
:1044C0000846006810B135A001F016FB0022114625
:1044D0003AA001F093FE3D4908600846006810B11B
:1044E0003BA001F009FB0022114641A001F086FE2D
:1044F000424908600846006810B141A001F0FCFA8A
:104500000022114646A001F079FE4A49086008469B
:10451000006810B148A001F0EFFA0022114650A047
:1045200001F06CFE544908600846006810B153A0C1
:1045300001F0E2FA002205215AA001F0F3FB5B49E9
:1045400008600846006810B159A001F0D5FA0022B1
:1045500005215EA001F0E6FB5F490860084600689F
:1045600010B15EA001F0C8FA0022052162A001F09E
:10457000D9FB644908600846006810B162A001F0E8
:10458000BBFA002010BD000073656D5F6465627545
:10459000675F7561727400000800002064656275D1
:1045A000675F75617274D0C5BAC5C1BFB4B4BDA828
:1045B000B3C9B9A6A3A10A0A0000000073656D5F24
:1045C00063616D6572615F75617274000C0000203B
:1045D00063616D6572615F75617274D0C5BAC5C182
:1045E000BFB4B4BDA8B3C9B9A6A3A10A0A0000000C
:1045F00073656D5F656C6567756E00005400002023
:1046000073656D5F656C6567756ED0C5BAC5C1BFF2
:10461000B4B4BDA8B3C9B9A6A3A10A0A000000009A
:1046200073656D5F656C6567756E5F6175746F66E8
:10463000697265005800002073656D5F656C656781
:10464000756E5F6175746F66697265D0C5BAC5C1F4
:10465000BFB4B4BDA8B3C9B9A6A3A10A0A0000009B
:1046600073656D5F656C6567756E5F7368616B65BB
:1046700066697265000000005C00002073656D5F74
:10468000656C6567756E5F7368616B656669726599
:10469000D0C5BAC5C1BFB4B4BDA8B3C9B9A6A3A19A
:1046A0000A0A00006D625F6B65790000440100201A
:1046B000B0B4BCFCB4A6C0EDD3CACFE4B4B4BDA8BA
:1046C000B3C9B9A6A3A10A0A000000006D625F6425
:1046D0006973706C61790000000000206F6C656484
:1046E000CFD4CABED3CACFE4B4B4BDA8B3C9B9A6A7
:1046F000A3A10A0A000000006D625F6374726C413E
:1047000074323400240000206374726C41743234BB
:10471000D3CACFE4B4B4BDA8B3C9B9A6A3A10A0A49
:104720000000000010B54FF07E5200214FF0804095
:1047300000F002FD204908600846006818B11FA07B
:1047400001F0DAF902E023A001F0D6F94FF07E5231
:1047500000214FF0804000F0EFFC2449086008463B
:10476000006818B122A001F0C7F902E026A001F00C
:10477000C3F92B4810490968C8622A480E490968DC
:10478000886229480C490968086301200A490968B8
:104790000881234815490968C862224813490968F5
:1047A0008862214811490968086301200F49096896
:1047B0000881002010BD000034000020B4B4BDA862
:1047C0005049445F737465657231B3C9B9A6A3A13A
:1047D0000A0A0000B4B4BDA85049445F737465650B
:1047E0007231CAA7B0DCA3A10A0A00003800002079
:1047F000B4B4BDA85049445F737465657232B3C9DF
:10480000B9A6A3A10A0A0000B4B4BDA85049445FE8
:10481000737465657232CAA7B0DCA3A10A0A0000EE
:104820000000F0410000F0C1000048421CB5142017
:1048300006214FF400730022CDE90010584959A019
:1048400001F008FF5C4908600846006818B15BA0E9
:1048500001F052F902E061A001F04EF914200321A9
:104860004FF400730022CDE90010644964A001F008
:10487000F1FE684908600846006818B166A001F0BA
:104880003BF902E06CA001F037F9142002210B0281
:104890000022CDE90010704970A001F0DBFE7249E2
:1048A00008600846006818B170A001F025F902E020
:1048B00075A001F021F9142008218B010022CDE917
:1048C0000010784978A001F0C5FE7B4908600846D1
:1048D000006818B179A001F00FF902E07DA001F0A5
:1048E0000BF914200A214FF400730022CDE90010C7
:1048F0007E497FA001F0AEFE7F490860084600684F
:1049000018B17EA001F0F8F802E083A001F0F4F8FD
:10491000142009214FF400730022CDE900108549CD
:1049200085A001F097FE884908600846006818B124
:1049300086A001F0E1F802E08CA001F0DDF814207F
:104940000C214FF400730022CDE900108F4990A094
:1049500001F080FE944908600846006818B193A0F1
:1049600001F0CAF802E09BA001F0C6F814200B2168
:104970004FF400730022CDE90010A049A0A001F07F
:1049800069FEA54908600846006818B1A3A001F0B7
:10499000B3F802E0ABA001F0AFF800201CBD0000AE
:1049A000C93B000864656275675F75617274686110
:1049B0006E646C6500000000100000206465627584
:1049C000675F75617274B4A6C0EDCFDFB3CCB4B4C9
:1049D000BDA8B3C9B9A6A3A10A0A0000646562759F
:1049E000675F75617274B4A6C0EDCFDFB3CCB4B4A9
:1049F000BDA8CAA7B0DCA3A10A0A0000693B000851
:104A000063616D6572615F7561727468616E646C1B
:104A1000650000001400002063616D6572615F75C0
:104A2000617274B4A6C0EDCFDFB3CCB4B4BDA8B38B
:104A3000C9B9A6A3A10A0A0063616D6572615F75B9
:104A4000617274B4A6C0EDCFDFB3CCB4B4BDA8CA54
:104A5000A7B0DCA3A10A0A00BD4200086B65796813
:104A6000616E646C6500000018000020B0B4BCFCEE
:104A7000B4A6C0EDCFDFB3CCB4B4BDA8B3C9B9A65A
:104A8000A3A10A0A00000000B0B4BCFCB4A6C0EDAB
:104A9000CFDFB3CCB4B4BDA8CAA7B0DCA3A10A0AC7
:104AA00000000000FD7F00087461736B7265616433
:104AB00041543234000000002000002041543234C0
:104AC000CFDFB3CCB4B4BDA8B3C9B9A6A3A10A0AB9
:104AD0000000000041543234CFDFB3CCB4B4BDA8E1
:104AE000CAA7B0DCA3A10A0A00000000593C0008D4
:104AF000646973706C61790004000020CFD4CABE71
:104B0000CBA2D0C2CFDFB3CCB4B4BDA8B3C9B9A6D1
:104B1000A3A10A0A00000000CFD4CABECBA2D0C213
:104B2000CFDFB3CCB4B4BDA8CAA7B0DCA3A10A0A36
:104B30000000000089150008456C6567756E5F749C
:104B4000687265616400000048000020456C65677C
:104B5000756E5F746872656164CFDFB3CCB4B4BD49
:104B6000A8B3C9B9A6A3A10A0A000000456C6567ED
:104B7000756E5F746872656164CFDFB3CCB4B4BD29
:104B8000A8CAA7B0DCA3A10A0A000000F912000815
:104B9000456C6567756E5F6175746F666972655F98
:104BA00074687265616400004C000020456C6567A4
:104BB000756E5F6175746F666972655F7468726542
:104BC0006164CFDFB3CCB4B4BDA8B3C9B9A6A3A107
:104BD0000A0A0000456C6567756E5F6175746F66E3
:104BE0006972655F746872656164CFDFB3CCB4B419
:104BF000BDA8CAA7B0DCA3A10A0A000009180008D2
:104C0000456C6567756E5F7368616B656669726533
:104C10005F7468726561640050000020456C6567D0
:104C2000756E5F7368616B65666972655F746872E3
:104C3000656164CFDFB3CCB4B4BDA8B3C9B9A6A3D2
:104C4000A10A0A00456C6567756E5F7368616B65E4
:104C5000666972655F746872656164CFDFB3CCB4F6
:104C6000B4BDA8CAA7B0DCA3A10A0A0010B5394890
:104C7000006838B13748006801F012FE36A000F035
:104C80003BFF02E04FF0FF3010BD3A48006838B1FA
:104C90003848006801F004FE37A000F02DFF02E064
:104CA0004FF0FF30F0E73B48006838B13948006802
:104CB00001F0F6FD38A000F01FFF02E04FF0FF30DA
:104CC000E2E73C48006838B13A48006801F0E8FD86
:104CD00039A000F011FF02E04FF0FF30D4E73C486C
:104CE000006838B13A48006801F0DAFD39A000F0F8
:104CF00003FF02E04FF0FF30C6E73C48006838B1E0
:104D00003A48006801F0CCFD39A000F0F5FE02E061
:104D10004FF0FF30B8E73E48006838B13C480068C3
:104D200001F0BEFD3BA000F0E7FE02E04FF0FF30D7
:104D3000AAE74048006838B13E48006801F0B0FD7D
:104D40003DA000F0D9FE02E04FF0FF309CE70020CC
:104D50009AE700001000002064656275675F756166
:104D60007274CFDFB3CCBFAACABCB5F7B6C8A3A1D3
:104D70000A0A00001400002063616D6572615F75AE
:104D8000617274CFDFB3CCBFAACABCB5F7B6C8A3F3
:104D9000A10A0A0018000020B0B4BCFCB4A6C0ED03
:104DA000CFDFB3CCBFAACABCB5F7B6C8A3A10A0A65
:104DB0000000000004000020CFD4CABECFDFB3CC77
:104DC000BFAACABCB5F7B6C8A3A10A0A0000000072
:104DD0002000002041543234CFDFB3CCBFAACABC7C
:104DE000B5F7B6C8A3A10A0A0000000048000020D9
:104DF000B5E7B4C5C5DABBF9B4A1B2BFB7D6CFDF4A
:104E0000B3CCBFAACABCB5F7B6C8A3A10A0A0000B2
:104E10004C000020B5E7B4C5C5DAB7A2BBD3B2BF1A
:104E2000B7D631CFDFB3CCBFAACABCB5F7B6C8A3DB
:104E3000A10A0A0050000020B5E7B4C5C5DAB7A240
:104E4000BBD3B2BFB7D632CFDFB3CCBFAACABCB5D3
:104E5000F7B6C8A3A10A0A0008B50620322300222B
:104E60000949009009A001F03FFE0C49086008467E
:104E7000006830B10846006801F086FE08A000F026
:104E80003BFE002008BD00004943000874696D65C1
:104E9000725F6B65797363616E00000040010020F2
:104EA000B0B4BCFCC9A8C3E8B6A8CAB1C6F7C6F47A
:104EB000B6AFB3C9B9A6A3A10A0A00000FB400B5E2
:104EC0008FB001211798FDF7E1FC1198B0F5804FE4
:104ED00004D101211198FDF7D9FC03E001211198BB
:104EE000FDF7B4FCBDF85800ADF8380018208DF877
:104EF0003B0003208DF83A000EA91598FCF7B8FD89
:104F0000BDF85000ADF8380004208DF83B000EA924
:104F10001398FCF7ADFD18980A900020ADF82C000E
:104F2000ADF82E00ADF83000ADF834000C20ADF82F
:104F300032000AA91098FEF783FA282214A96846BD
:104F4000FBF78CF910A80FC803F052FA012240F2C7
:104F500024411098FEF74EFA012240211098FEF7E6
:104F600009FA01211098FEF7F9F90FB05DF814FB6A
:104F70000FB400B58BB001210846FDF757FC169819
:104F8000009018490C98884202D11898019001E0CD
:104F90001798019000200290BDF864000390002053
:104FA0000490802005900020069007902020089013
:104FB0004FF44050099000200A9069461598FCF77C
:104FC00088F84FF48030FCF761F801220821159829
:104FD000FCF776F801211598FCF766F80BB05DF840
:104FE00014FB0000004400400FB410B5109C0021D9
:104FF0000B98FCF759F84FF48030FCF747F8BDF8F0
:105000003C000B99486001210B98FCF74DF82046B5
:1050100001F01CF910BC5DF814FB10B5024601202C
:1050200000E050430B1EA1F10104E1B2F9D110BD23
:1050300010B504462078AA2833D16078552830D19D
:10504000E07854282DD1A0781649087035211648EB
:10505000006800F00AFF15480078022821D11448A2
:105060000078C0F1A0000F490978884219D1114990
:1050700008680021FEF772F901200F4908600F4906
:10508000C1F8A4014FF4487001F0BAFB00200A49AE
:1050900008600949083108602A210348006800F0C7
:1050A000E4FE10BD63000020000000208500002009
:1050B00086000020CCB200209C0122420000224247
:1050C00030B51A4C436824681919884215D04B88AA
:1050D0009BB9174B1B6899420FD0164B1B688B422C
:1050E00001D1144B18604B684360104B1B68C31A06
:1050F0000E4D4C682D682C44A3600C4C83682468CA
:105100001A19824211D053887BB90A4B1B6883421B
:1051100001D1084B1A6043685360044B1B68D31AD3
:10512000024D44682D682C44A36030BD98000020D7
:105130009C000020A00000202DE9F04105460E460D
:1051400017465820FEF766FC044614B90020BDE857
:10515000F081E561266267620A48E0620A48A0625F
:105160000020206320646063A063E0636064A06447
:10517000E064064860610648A06106482061204658
:10518000E5E7000000007A4400007AC4A751000857
:1051900099510008D151000810B50446204600F08E
:1051A000F3F9002010BD10B5044658220021204616
:1051B00000F0DFFE002010BD024651620020704763
:1051C00002461162002070470246D16100207047FC
:1051D0002DE9F04105460E462C4601F00DFC616DAF
:1051E000471A208901F0F8FB874202D20720BDE868
:1051F000F08101F001FC606531462068FBF7ADF8F5
:105200006064D4E91001FBF756F82064216B206C30
:10521000FBF74CFB02D2206B20640BE0206B80F08C
:1052200000473846216CFBF741FB03D2206B80F02E
:1052300000402064616CE069FBF795F86063216CC5
:10524000206AFBF790F8A063D4E91101FBF785F819
:105250000746616AFBF787F8E063D4E90D01FBF7C5
:105260002AF80746E16BFBF726F8E064E06C20655E
:10527000E16AE06CFBF71AFB01D2E06AE064A16A24
:10528000E06CFBF709FB01D2A06AE064606CA064EB
:10529000E06C60600020AAE72DE9F04F86B00D4673
:1052A0009C46DDE9106401960F9B04F04008B8F1BC
:1052B000000F02D0DFF8708101E0DFF87081CDF8D7
:1052C000008004F01008B8F1000F01D024F00104B0
:1052D00004F00108B8F1000F02D04FF0300801E0EF
:1052E0004FF02008C246002704F00208B8F1000F72
:1052F00011D0002A02DA2D2752420CE004F00408F3
:10530000B8F1000F01D02B2705E004F00808B8F130
:10531000000F00D02027002142B94FF0300B884603
:10532000491C0DF1080909F808B01DE01AE0E14632
:10533000B9F10A0F08D14FF00A0BB2FBFBFE0BFBD1
:105340001E28B2FBFBF202E002F00F08120900BFB8
:10535000DDF8009019F808B08846491C0DF10809DD
:1053600009F808B0002AE2D1B14200DD0E469B1BCD
:1053700004F01108B8F1000F10D117B1002B00DDB7
:105380005B1E06E0A84203D84FF0200880F800809A
:10539000401CB3F10008A3F10103F3DC27B1A842DC
:1053A00001D807705B1E401C04F01008B8F1000F14
:1053B0000AD104E0A84201D880F800A0401CB3F153
:1053C0000008A3F10103F5DC06E0A84203D84FF082
:1053D000300880F80080401CB046761E8845F4DC1A
:1053E00008E0A84205D80DF1080818F8018080F8F7
:1053F0000080401CB1F10008A1F1010104DDDDF8DD
:105400000480B8F1000FECD106E0A84203D84FF0B9
:10541000200880F80080401CB3F10008A3F10103CC
:10542000F3DC06B0BDE8F08F7586000864860008DE
:105430002DE9FC5F82468B46BAF81800FBF7AAF903
:1054400004460D465846FBF7A5F906461C4A1D4B77
:10545000FBF7A0F8804622462B46FBF79BF8CDE9E8
:105460000001FBF7D1F9AAF81600BAF8140030B120
:1054700004280BD0082810D00C281CD114E0BAF84E
:105480001610DAF80C00FDF7A8FE15E0BAF81610B1
:10549000DAF80C00FDF7A3FE0EE0BAF81610DAF801
:1054A0000C00FDF79EFE07E0BAF81610DAF80C00C3
:1054B000FDF799FE00E000BF00BFBDE8FC9F0000C3
:1054C0002D431CEBE2361A3F1CB5142001214B0280
:1054D0000022CDE90010044904A001F0BBF8044605
:1054E000204601F0DDF91CBDA14400086D61696E24
:1054F0000000000010B5044C02E020688047241D25
:1055000002488442F9D310BDF48E0008F88E0008DA
:1055100010B5044C02E020688047241D02488442F4
:10552000F9D310BDF88E0008FC8E000810B5FAF70C
:1055300009FE044604480088401C00B20249088065
:105540002046FAF703FE10BD0001002010B5FAF75F
:10555000F9FD04460B480088401E00B20949088046
:105560000846B0F90000002807DC0020088020462B
:10557000FAF7ECFD00F0A8FD02E02046FAF7E6FDA0
:1055800010BD00000001002070B5054605B970BDD2
:105590001D480068854203D31C480068854200D33B
:1055A000F5E7A5F10C044FF0FF31194800F06BFE50
:1055B000608818B12088B0F5F55F08D015A000F01C
:1055C0009BFA23886288214619A000F095FA0020F2
:1055D00060804FF4F550208021480068844201D259
:1055E0001F480460084960680968611A401A1D492B
:1055F0000968081A1B4908602046FFF761FD044846
:1056000000F024FE00BFC2E7980000209C000020AC
:1056100024A70020746F2066726565206120626196
:1056200064206461746120626C6F636B3A0A0000ED
:105630006D656D3A203078253038782C207573658B
:105640006420666C61673A2025642C206D6167696F
:105650006320636F64653A203078253034780A001F
:10566000A0000020A8000020004870474003002050
:105670000048704740A3002070B54820FDF77EFA2F
:10568000FCF7A0F9FBF7DEFCFCF77EFCFCF7D2FD93
:10569000FCF7B0FD2AA200210846FCF75FFF02F0EC
:1056A000C3FE2A4908680021FDF758FEFCF7DCFA22
:1056B000FBF78EFA3220FEF7BBF940F2FD212448B9
:1056C000FFF7B6FE4FF43A712248FFF7B1FE02F041
:1056D0000FFB01F083FD204800684FF47A72B0FBA5
:1056E000F2F1B1F1807F00D31DE021F07F40401E38
:1056F0004FF0E022506150170F22002807DA1307FD
:105700001D0E164B00F00F04241F1D5503E0130758
:105710001C0E134B1C5400BF00204FF0E022906180
:105720000720106100BFFFF7E5FEFFF7A1FF044669
:10573000FFF79AFF0546214600F09AFE70BD000073
:1057400068656C6C6F206D6375000000CCB2002042
:1057500004B4002020B400202803002018ED00E04D
:1057600000E400E010B50446FFF7E0FE19E0207801
:105770000A280AD10D210E48FDF7D3FE00BF802173
:105780000B48FDF700FE0028F9D014F8011B08486B
:10579000FDF7C7FE00BF80210548FDF7F4FD002896
:1057A000F9D020780028E2D1FFF7D0FE10BD00002C
:1057B0000038014070B505462C1D2E48006838B1F0
:1057C00028462C4909688847064606B970BD00BFBF
:1057D00029A0E16B00F090F92BA0216A00F08CF970
:1057E0002DA0616A00F088F92FA0A16A00F084F969
:1057F00031A0E16A00F080F933A0216800F07CF963
:1058000035A0616800F078F937A0A16800F074F95C
:1058100039A0E16800F070F93BA0216900F06CF953
:105820003DA0616900F068F93FA0A16900F064F94A
:1058300041A0E16900F060F943A0216B00F05CF940
:1058400045A0616B00F058F947A0A16B00F054F936
:10585000287800F0040038B100F0FAFF064631461F
:1058600045A000F049F902E04BA000F045F900BF67
:10587000FEE70000380100207073723A203078256E
:105880003038780A000000007230303A2030782535
:105890003038780A000000007230313A2030782524
:1058A0003038780A000000007230323A2030782513
:1058B0003038780A000000007230333A2030782502
:1058C0003038780A000000007230343A20307825F1
:1058D0003038780A000000007230353A20307825E0
:1058E0003038780A000000007230363A20307825CF
:1058F0003038780A000000007230373A20307825BE
:105900003038780A000000007230383A20307825AC
:105910003038780A000000007230393A203078259B
:105920003038780A000000007231303A2030782593
:105930003038780A000000007231313A2030782582
:105940003038780A000000007231323A2030782571
:105950003038780A00000000206C723A2030782538
:105960003038780A000000002070633A2030782533
:105970003038780A00000000686172642066617542
:105980006C74206F6E207468726561643A202573B0
:105990000D0A0D0A000000006861726420666175DE
:1059A0006C74206F6E2068616E646C65720D0A0DF8
:1059B0000A000000F0B504460D461646301D20F0E2
:1059C000070040380146002203E00C4F41F82270E6
:1059D000521C102AF9D30D624FF0000CC1F824C0FC
:1059E000C1F828C0C1F82CC0C1F830C04B638C632B
:1059F0004FF0807CC1F83CC0F0BD0000EFBEADDED2
:105A00004FF0E02252694FF47A73B2FBF3F2504345
:105A10004FF0E022916900BF4FF0E02292698A1AAC
:105A20008242F9D37047000010B5FAF78BFB0446A9
:105A300004480078401C034908702046FAF786FBAA
:105A400010BD00009400002010B5FAF77BFB04465F
:105A500004480078401E034908702046FAF776FB98
:105A600010BD00009400002070B504462068A0F12D
:105A70001405284600F0CEFE002070BD2DE9F0414F
:105A800005460C469046204600F020FFB8F1000F76
:105A900003D0B8F1010F23D105E004F11401284629
:105AA00000F060F81CE02E680FE0A6F1140794F8EF
:105AB000350097F83510884206DA04F1140107F131
:105AC000140000F04FF802E03668AE42EDD100BF9E
:105AD000AE4204D104F11401284600F043F800BF9F
