:020000040800F2
:10000000B00600204501000895020008F101000833
:1000100091020008E3010008E50600080000000066
:10002000000000000000000000000000EB040008D9
:10003000E701000800000000E9040008D5050008F9
:100040005F0100085F0100085F0100085F01000810
:100050005F0100085F0100085F0100085F01000800
:100060005F0100085F0100085F0100085F010008F0
:100070005F0100085F0100085F0100085F010008E0
:100080005F0100085F0100085F0100085F010008D0
:100090005F0100085F0100085F0100085F010008C0
:1000A0005F0100085F0100085F0100085F010008B0
:1000B000390600085F0100085F0100085F010008C1
:1000C0005F0100085F0100085F0100085F01000890
:1000D0005F0100085F0100085F0100085F01000880
:1000E0005F0100085F0100085F0100085F01000870
:1000F0005F0100085F0100085F0100085F01000860
:100100005F0100085F0100085F0100085F0100084F
:100110005F0100085F0100085F0100085F0100083F
:100120005F0100085F0100085F0100085F0100082F
:10013000DFF80CD000F018F8004800475507000819
:10014000B00600200648804706480047FEE7FEE765
:10015000FEE7FEE7FEE7FEE7FEE7FEE7FEE7FEE777
:10016000D905000831010008064C074D06E0E0689B
:1001700040F0010394E8070098471034AC42F6D3EE
:10018000FFF7DAFFA8100008C810000870B58C1837
:1001900010F8015B15F0070301D110F8013B2A119B
:1001A00006D110F8012B03E010F8016B01F8016B88
:1001B0005B1EF9D12B0705D40023521E0DD401F884
:1001C000013BFAE710F8013BCB1A921C03E013F84D
:1001D000015B01F8015B521EF9D5A142D8D3002082
:1001E00070BD00BFFEE77047416170470161704715
:1001F00000BFFEE710B5044623480078012827D148
:100200002248006858B12148001D006838B11F48D5
:100210000830006818B11D480C300068C0B91420BF
:1002200000F072FA0020184908701848006808B9F0
:10023000012010BD1548001D006808B90220F8E72C
:1002400012480830006808B90320F2E70420F0E7FC
:100250000E480068012810D10C48001D00680128D4
:100260000BD10A4808300068012806D107480C3035
:100270000068012801D104490870012C02D1012035
:10028000014908700020D4E7C40100200001214288
:1002900000BFFEE7704770B5002419E004F1B0011B
:1002A000C8B2002100F0E8F80021022000F0E4F8D4
:1002B0000021102000F0E0F8002505E001210020D9
:1002C00000F0DAF8681CC5B2802DF7DB601CC4B200
:1002D000082CE3DB70BD70B504460D4605F1B00196
:1002E000C8B2002100F0C8F8102141EA1410002122
:1002F00000F0C2F804F00F0141F00100002100F00D
:10030000BBF870BD2DE9F04107460E46904600252A
:100310000024A8F12000C5B27F2F02DD0027B01C09
:10032000C6B21F480078102824D131463846FFF75E
:10033000D2FF002408E004EB05111A4A505C0121A9
:1003400000F09AF8601CC4B2082CF4DB701CC1B237
:100350003846FFF7C0FF002409E004EB051108311F
:10036000104A505C012100F087F8601CC4B2082CD0
:10037000F3DB12E031463846FFF7ADFF00240AE018
:1003800005EB4501084A02EB4101085D012100F03F
:1003900073F8601CC4B2062CF2DBBDE8F0810000EB
:1003A000C0010020B80A0008900800082DE9FF5F8E
:1003B000074691461D460E9E4FF0000A002433E08A
:1003C000281B401EC1B20A2000F0C6F9B9FBF0F0AC
:1003D0000A21B0FBF1F201FB1208BAF1000F13D1B0
:1003E000681EA04210DDB8F1000F0BD1B34606EB3A
:1003F000DB71491001FB0471C8B220220199FFF79B
:1004000081FF0FE04FF0010AB34606EBDB714910A4
:1004100001FB0471C8B208F13001CAB20199FFF7BB
:1004200071FF00BF601CC4B2AC42C9DBBDE8FF9FD6
:100430002DE9F04104460F461546002615E0AA5D59
:1004400039462046FFF75EFF0A480078102803D19E
:1004500004F10800C4B201E0A01DC4B2782C02DD92
:100460000024B81CC7B2701CC6B2A85D0028E6D133
:10047000BDE8F081C001002070B504460E4626B1EB
:1004800020211848FFF7B2FE03E020211548FFF7AE
:10049000ABFE08211348FFF7A7FE002517E0402117
:1004A0001048FFF7A1FE04F0800020B180210D4824
:1004B000FFF79CFE03E080210A48FFF795FE4021EC
:1004C0000848FFF793FE6006040E681CC5B2082DAD
:1004D000E5DB08210348FFF789FE20210148FFF7EB
:1004E00085FE70BD001401407047704710B500F0E4
:1004F00001F810BD0CB50020019000903348006851
:1005000040F480303149086000BF3048006800F492
:10051000003000900198401C0190009818B9019893
:10052000B0F5A06FF1D12948006800F4003010B197
:100530000120009001E0002000900098012843D1A4
:100540002348006840F01000214908600846006810
:1005500020F0030008600846006840F002000860D0
:100560001A4840681949486008464068486008468B
:10057000406840F4806048600846406820F47C1081
:1005800048600846406840F4E81048600846006843
:1005900040F08070086000BF0C48006800F00070F8
:1005A0000028F9D00948406820F003000749486056
:1005B0000846406840F00200486000BF03484068B9
:1005C00000F00C000828F9D10CBD0000001002401A
:1005D000002002407047000010B51348006840F04A
:1005E00001001149086008464068104908400E495A
:1005F0004860084600680E4908400B4908600846F4
:10060000006820F4802008600846406820F4FE005E
:1006100048604FF41F008860FFF768FF4FF00060EC
:100620000449086010BD0000001002400000FFF8FF
:10063000FFFFF6FE08ED00E010B50121880700F08D
:1006400040F870B319480078401C184908700846F3
:100650000078642801DD0020087014480078282103
:1006600090FBF1F201FB1200012809D1104800783B
:1006700030B1FFF710FE0C2201210E4800F078F88F
:100680000A480078142190FBF1F201FB12000228C5
:1006900007D10948007820B90020FFF7ABFD0649D3
:1006A00008700121880700F009F810BDC201002080
:1006B000C1010020CC010020C3010020CA430282F6
:1006C000704730B50246002000230024158A05EA51
:1006D0000103958905EA010413B10CB1012000E082
:1006E000002030BD00BFFEE702E008C8121F08C1AD
:1006F000002AFAD170477047002001E001C1121FA3
:10070000002AFBD1704700000146114A12884A4373
:100710004FF0E0235A6100229A611A46126942F0B2
:1007200001021A6100BF4FF0E022106900F00102DF
:100730001AB100F48032002AF5D04FF0E02212699D
:1007400022F001024FF0E0231A6100229A61704703
:10075000C80100200020704710B50246012000E0CB
:1007600050430B1EA1F10104E1B2F9D110BD00000C
:100770002DE9F8430646884617460025102F04D178
:10078000102042490870042503E00C203F490870FE
:100790000825B8F1000F03D0B8F1010F72D125E0A0
:1007A000002420E0082090FBF5F0604300F0FF09F2
:1007B000C4EBC40006EB400249460020FFF738FEB8
:1007C000082090FBF5F0604300F0FF09C4EBC40083
:1007D00006EB400000978289062349464020FFF738
:1007E000E5FD601CC4B2AC42DCDB4CE0002445E01B
:1007F000082090FBF5F0604300F0FF096000C0EBBB
:10080000C00006EB400249460020FFF711FE082019
:1008100090FBF5F0604300F0FF096000C0EBC00002
:1008200006EB400000978289042349462020FFF709
:10083000BDFD082090FBF5F0604300F0FF0960006B
:10084000401CC0EBC00006EB400249464020FFF7C9
:10085000EFFD082090FBF5F0604300F0FF09600019
:10086000401CC0EBC00006EB4000009782890423C7
:1008700049466020FFF79AFD601CC4B2AC42B7DB6A
:1008800001E0FFE700BF00BFBDE8F883C001002022
:100890000000000000000000002F00000000070022
:1008A000070000147F147F1400242A7F2A1200629C
:1008B0006408132300364955225000000503000048
:1008C00000001C224100000041221C000014083ED0
:1008D00008140008083E0808000000A06000000896
:1008E00008080808000060600000002010080402EA
:1008F000003E5149453E0000427F400000426151A8
:100900004946002141454B31001814127F10002741
:1009100045454539003C4A49493000017109050304
:1009200000364949493600064949291E0000363635
:100930000000000056360000000814224100001498
:100940001414141400004122140800020151090675
:1009500000324959513E007C1211127C007F4949F6
:100960004936003E41414122007F4141221C007F27
:1009700049494941007F09090901003E4149497A35
:10098000007F0808087F0000417F410000204041AF
:100990003F01007F08142241007F40404040007F1B
:1009A000020C027F007F0408107F003E4141413E5F
:1009B000007F09090906003E4151215E007F0919A7
:1009C00029460046494949310001017F0101003FA4
:1009D0004040403F001F2040201F003F4038403F24
:1009E0000063140814630007087008070061514988
:1009F000454300007F41410000552A552A5500001B
:100A000041417F0000040201020400404040404098
:100A1000000001020400002054545478007F484430
:100A2000443800384444442000384444487F003867
:100A30005454541800087E0901020018A4A4A47C90
:100A4000007F080404780000447D4000004080845A
:100A50007D00007F102844000000417F4000007CA2
:100A600004180478007C08040478003844444438AE
:100A700000FC242424180018242418FC007C0804FA
:100A8000040800485454542000043F444020003CD3
:100A90004040207C001C2040201C003C4030403C5A
:100AA000004428102844001CA0A0A07C00446454EA
:100AB0004C4414141414141400000000000000002E
:100AC0000000000000000000000000F8000000002E
:100AD000000000333000000000100C06100C06006F
:100AE000000000000000000040C07840C0784000D6
:100AF000043F04043F040400007088FC0830000038
:100B0000001820FF211E0000F008F000E01800008F
:100B100000211C031E211E0000F008887000000048
:100B20001E2123241927211010160E00000000009A
:100B30000000000000000000000000E018040200B7
:100B4000000000071820400000020418E000000028
:100B50000040201807000000404080F08040400026
:100B60000202010F01020200000000F0000000007C
:100B70000101011F01010100000000000000000050
:100B800080B07000000000000000000000000000C5
:100B9000000101010101010100000000000000004E
:100BA00000303000000000000000000080601804E9
:100BB000006018060100000000E010080810E000C6
:100BC000000F102020100F00001010F8000000008F
:100BD0000020203F202000000070080808887000D6
:100BE0000030282422213000003008888848300056
:100BF0000018202020110E000000C02010F8000076
:100C000000070424243F240000F80888880808000E
:100C10000019212020110E0000E010888818000023
:100C2000000F112020110E0000380808C8380800F5
:100C30000000003F00000000007088080888700075
:100C4000001C222121221C0000E010080810E000F6
:100C50000000312222110F00000000C0C00000007F
:100C600000000030300000000000008000000000A4
:100C7000000080600000000000008040201008009C
:100C80000001020408102000404040404040400065
:100C90000404040404040400000810204080000040
:100CA0000020100804020100007048080808F00045
:100CB0000000003036010000C030C828E810E00015
:100CC0000718272423140B000000C038E0000000A0
:100CD000203C23020227382008F88888887000000A
:100CE000203F202020110E00C030080808083800DE
:100CF000071820202010080008F808080810E00055
:100D0000203F202020100F0008F88888E8081000F5
:100D1000203F20202320180008F88888E8081000C9
:100D2000203F200003000000C03008080838000001
:100D300007182020221E020008F808000008F80802
:100D4000203F210101213F20000808F80808000089
:100D50000020203F2020000000000808F8080800BC
:100D6000C08080807F00000008F888C02818080034
:100D7000203F20012638200008F80800000000006D
:100D8000203F20202020300008F8F800F8F8080064
:100D9000203F003F003F200008F830C00008F8085E
:100DA000203F200007183F00E01008080810E0006E
:100DB0000F10202020100F0008F808080808F00085
:100DC000203F210101010000E01008080810E000A8
:100DD0000F18242438504F0008F88888888870003D
:100DE000203F2000030C30200070880808083800DD
:100DF0000038202121221C00180808F808081800D3
:100E00000000203F2000000008F808000008F80853
:100E1000001F202020201F000878880000C8380804
:100E2000000007380E010000F80800F80008F8007C
:100E3000033C0700073C0300081868808068180816
:100E400020302C03032C30200838C800C838080094
:100E50000000203F2000000010080808C8380800E3
:100E60002038262120201800000000FE0202020087
:100E70000000007F40404000000C30C00000000037
:100E8000000000010638C00000020202FE0000005F
:100E9000004040407F000000000004020202040005
:100EA0000000000000000000000000000000000042
:100EB000808080808080808000020204000000002A
:100EC0000000000000000000000080808080000022
:100ED0000019242222223F2008F800808000000010
:100EE000003F112020110E000000008080800000D3
:100EF000000E112020201100000000808088F800E2
:100F0000000E112020103F20000080808080000013
:100F1000001F222222221300008080F08888881877
:100F20000020203F20200000000080808080800082
:100F3000006B94949493600008F800808080000017
:100F4000203F210000203F200080989800000000F2
:100F50000020203F20200000000000809898000022
:100F600000C08080807F000008F800008080800042
:100F7000203F24022D302000000808F80000000067
:100F80000020203F20200000808080808080800022
:100F9000203F20003F20003F8080008080800000B4
:100FA000203F210000203F20000080808080000042
:100FB000001F202020201F00808000808000000073
:100FC00080FFA12020110E000000008080808000A2
:100FD000000E112020A0FF80808080008080800093
:100FE00020203F21200001000000808080808000C0
:100FF0000033242424241900008080E08080000035
:101000000000001F20200000808000000080800081
:10101000001F202020103F208080800000808080E2
:1010200000010E3008060100808000800080808072
:101030000F300C030C300F00008080008080800097
:101040000020312E0E3120008080800000808080C2
:1010500080818E7018060100008080808080800072
:101060000021302C2221300000000000807C020290
:1010700000000000003F404000000000FF000000B2
:1010800000000000FF0000000002027C8000000061
:101090000040403F0000000000060101020204047D
:1010A0000000000000000000C81000080000002040
:1010B000CC0100008C01000884110008CC01002044
:1010C000E4040000F8060008211BF010012AFF05C7
:1010D0000215F01B0F04012AFF0502130F18094027
:1010E00040405F55555575041A5F0C091121080CD5
:1010F00011200F094989790909090F201F112FFEB5
:1011000002424ACA4A0304134202FE000E14FF4080
:10111000504C4340404F50505C40FF1BF888012A20
:10112000FF050215F81B1F08012A7F200B109F8066
:10113000E23B808201000916E2A2928A86828080C8
:10114000041840807F172424A4FEA3221B22CCAACB
:10115000011415080601FF2B0104010511FF02020D
:10116000025808101010FF109008C3021108080F51
:10117000100444827F01808040432C10284681A0C7
:0411800032107201B6
:0400000508000131BD
:00000001FF
