:020000040800F2
:10000000F0B70020390200083D150008EB01000898
:1000100039150008350F00081325000800000000FE
:10002000000000000000000000000000771C000835
:10003000BB0F00080000000073010008891D0008C4
:10004000530200085302000853020008530200083C
:10005000530200085302000853020008530200082C
:10006000530200085302000853020008530200081C
:10007000530200085302000853020008530200080C
:1000800053020008530200085302000853020008FC
:1000900053020008530200085302000853020008EC
:1000A00053020008530200085302000853020008DC
:1000B000351E0008530200085302000853020008CE
:1000C00053020008530200085302000853020008BC
:1000D00053020008B5220008FD2200085302000860
:1000E000530200085302000853020008530200089C
:1000F000530200085302000853020008530200088C
:10010000530200085302000853020008530200087B
:10011000530200085302000853020008530200086B
:10012000530200085302000853020008530200085B
:10013000DFF80CD000F0AEFB004800470F090008C4
:10014000F0B70020EFF3108072B6704780F310888C
:100150007047334A1368012B04D04FF0010313603A
:10016000304A1060304A116030484FF080510160D1
:100170007047EFF3108272B62948016891B14FF0D1
:10018000000101602748016829B1EFF3098121E9E5
:10019000F00F00680160244909680968B1E8F00FB0
:1001A00081F3098882F310884EF0040E70471E49CF
:1001B00008601C494FF00000086019494FF0010029
:1001C00008601B484FF47F01D0F8002041EA02018B
:1001D000016016484FF080510160164800680068C1
:1001E00080F3088861B662B670471EF0040F0CBF3A
:1001F000EFF30880EFF3098020E9F00F40F804EDF9
:100200001EF0040F0CBF80F3088880F3098800B546
:1002100003F0A0FD5DF804EB4EF0040E7047000003
:10022000EC000020E4000020E800002004ED00E0E5
:1002300020ED00E008ED00E0064880470648004752
:10024000FEE7FEE7FEE7FEE7FEE7FEE7FEE7FEE786
:10025000FEE7FEE7D51D00083101000840EA010372
:100260009B0703D009E008C9121F08C0042AFAD26C
:1002700003E011F8013B00F8013B521EF9D2704730
:10028000D2B201E000F8012B491EFBD270470022D8
:10029000F6E710B513460A4604461946FFF7F0FF85
:1002A000204610BD034611F8012B00F8012B002A4F
:1002B000F9D118467047F0B480EA0102D40F420029
:1002C000B2EB410F02D20246084611464A0042D024
:1002D000C30DDDB2C1F3C752AD1A202D35DAC1F31B
:1002E000160141F4000204B15242C5F1200602FA9F
:1002F00006F12A411044B3EBD05F23D0C4B1012DE5
:10030000A0EBC35009DCF0BC4FF0004202EAC3523C
:10031000DBB200F5000000F031BA400000F180705F
:1003200000EBC350A0F1807040EAD170490009E0B1
:10033000490841EAC071A0EBC35000F50000400835
:1003400000EBC350F0BC00F010BA6142012202EB96
:100350004101001BF6E7F0BC704781F00041AAE7BD
:1003600080F00040A7E780EA010210B502F00043E8
:10037000400022D04A001FD0010E01EB1261C0F3F1
:100380005600C2F3560240F4000042F40002A0FB03
:10039000022000047F39140400D0401C50EA1240AF
:1003A00001D44000491EC2B20C0604EBD010401C20
:1003B0004008802A02D003E0002010BD20F0010098
:1003C000002900DA0020184310BD2DE9FE4F8046B9
:1003D00081EA0300C00F0C46009021F0004123F099
:1003E0000045B8EB0200A94105D24046214690469F
:1003F0001C460B46024623F00040104347D0270D11
:10040000C7F30A00C3F30A510290401A0190402832
:100410006BDAC3F3130040F4801B0098924620B1BE
:100420000023D2EB030A63EB0B0B01985946C0F192
:100430004002504600F068F906460D4650465946BF
:10044000019A00F080F910EB08006141002487EA6E
:10045000115284EAE7731A4340D0009A62B3019ABA
:10046000012A4FEA075215DC001B61EB02014FF035
:10047000004202EA0752CDE90042001C41F580111A
:1004800032462B4600F0B7F903B0BDE8F08F404686
:100490002146F9E7001B61EB0201001C41F58013C6
:1004A00000185B412018A2F5001747EB030140EA52
:1004B000D570B6196D4111E06D084FEA360645EA70
:1004C000C0754FEA0752001B61EB0201001C41F5A9
:1004D000801149084FEA30000019514132462B463D
:1004E00003B0BDE8F04F00F077B90098012240005A
:1004F0000023D0EB020263EBE073009821464FEA41
:10050000E074B8EB000061EB0401E9E783F000431D
:100510005BE781F0004158E72DE9FE4F81EA0304D3
:1005200004F0004421F0004100944FF0000B23F050
:10053000004350EA01045ED052EA03045BD0C3F3E7
:100540000A54C1F30A552C44A4F2F3340194A0FBDD
:100550000254C1F3130141F48011C3F3130343F4B4
:10056000801301FB024400FB034E840A970A44EA0D
:10057000815447EA8357A4FB076802958D0A05FB5F
:1005800007854FEA932C04FB0C542705029D4FEA84
:10059000065847EA1637B5EB08056EEB070C870ED1
:1005A000920E47EA811742EA8312A7FB0201B6EBDB
:1005B0000B0164EB00042B0D43EA0C335E1844EB93
:1005C0001C50DA465146E7FB0201C5F313044FEA1B
:1005D0000B3343EA14534FEA0432019C43EA060307
:1005E000A4F10C040294009CCDE900B400F003F9DE
:1005F00003B0BDE8F08F00200146F9E7C10F80EAA3
:10060000E0700844CA079623002100F0B7B80EB581
:1006100040F2334102910021CDE900110A460B4618
:1006200000F0E9F803B000BD20F00040C10DC0F3B8
:10063000160040F400007F2901DA00207047962957
:1006400003DCC1F19601C840704796398840704775
:10065000C1F30A5210B5C1F3130140F2FF3341F464
:1006600080119A4201DA002010BD40F233439A42D1
:10067000A2F2334203DC524200F055F810BD904024
:1006800010BD00F0004230F000400AD0C10D01F56D
:100690006071C0F3160042EA0151C20840071143DD
:1006A000704700200146704701F0004330B421F04C
:1006B000004150EA010206D00A0DA2F56072C1F3B2
:1006C0001301002A02DC30BC00207047440F44EACA
:1006D000C104C100E01830BC00EBC25000F045B8C6
:1006E000002801DBC0F10040002901DBC1F100411D
:1006F00081427047002801DBC0F10040002901DB86
:10070000C1F1004188427047202A04DB203A00FAF8
:1007100002F1002070479140C2F1200320FA03F358
:10072000194390407047202A04DB203A21FA02F056
:100730000021704721FA02F3D040C2F1200291401B
:10074000084319467047202A06DBCB17203A41FAA6
:1007500002F043EAE07306E041FA02F3D040C2F14E
:10076000200291400843194670470029A8BF7047EE
:10077000401C490008BF20F00100704710B4B0FAD7
:1007800080FC00FA0CF050EA010404BF10BC704772
:1007900049B1CCF1200421FA04F411FA0CF118BF8C
:1007A000012121430843A3EB0C01CB1D4FEA00615B
:1007B0004FEA102042BF002010BC704700EBC3502E
:1007C00010440029A4BF10BC7047401C490008BF5A
:1007D00020F0010010BC704710B5141E73F1000426
:1007E00008DA401C41F1000192185B411A4301D123
:1007F00020F0010010BD2DE9F04D92469B4611B14D
:10080000B1FA81F202E0B0FA80F220329046FFF7AE
:100810007BFF04460F4640EA0A0041EA0B015346BB
:100820005A46084313D0114653EA010019D0C8F1C3
:1008300040025046FFF777FF05460E4650465946A0
:100840004246FFF761FF084305D0012004E020463F
:100850003946BDE8F08D0020054346EAE0762C439A
:1008600037430A986305E40AA0EB08000022FD0A5A
:1008700044EA47540A3002D500200146E9E7010561
:1008800010196941DDE9084500196941BDE8F04DDD
:10089000A2E70000064C074D06E0E06840F00103C7
:1008A00094E8070098471034AC42F6D3FFF744FCB5
:1008B000AC6C0008CC6C000870B58C1810F8015BAB
:1008C00015F0070301D110F8013B2A1106D110F8E9
:1008D000012B03E010F8016B01F8016B5B1EF9D1ED
:1008E0002B0705D40023521E0DD401F8013BFAE773
:1008F00010F8013BCB1A921C03E013F8015B01F8DE
:10090000015B521EF9D5A142D8D3002070BD10B5AD
:10091000FFF718FC04F052FE002010BD10B5FF20B8
:1009200000F038F80446362C01D1002010BD3621E5
:10093000FF2000F0C5F8FF2000F02CF80446362C0C
:1009400001D10020F2E70120F0E700001FB50E48BA
:100950000E4908604860102048812020088140200E
:100960000861C8600A484861001D886108487C38F1
:10097000C8610B4610330FCB8DE80F0003480FC83A
:1009800000F0CAFB1FBD00000018014094B3002016
:100990009001234270B586B004460026474B1033C1
:1009A0000FCB8DE80F0045480FC800F06AFC2546C4
:1009B000E01704EB10600012A02101EB4000C0B270
:1009C0003E4A0490D2E90430D2E90612CDE9003063
:1009D000CDE9021239480FC800F020FC374BD3E9AB
:1009E0000420D3E90613CDE90213CDE900203348F2
:1009F0000FC800F082FCE01704EB10600012A4EBBB
:100A00000020C0B22D4B0490D3E90420D3E9061393
:100A1000CDE90213CDE9002028480FC800F0FEFB05
:100A2000264B10330FCB8DE80F0024480FC800F081
:100A300064FC224BD3E905021969DB69CDE9022385
:100A4000CDE900101D480FC800F01BFCA1201B4B76
:100A5000049010330FCB8DE80F0018480FC800F03A
:100A6000DDFB164BD3E90420D3E90613CDE90213CD
:100A7000CDE9002011480FC800F03FFC00200F4BCB
:100A80000490D3E905021969DB69CDE90223CDE9B8
:100A900000100A480FC800F085FB0646074BD3E953
:100AA0000420D3E90613CDE90213CDE90020034861
:100AB0000FC800F004FC304606B070BD94B30020AF
:100AC00070B586B004460E463949D1E905030A6976
:100AD000C969CDE90231CDE9002035480FC800F0E1
:100AE000D0FB2546E01704EB10600012A02101EBBB
:100AF0004000C0B22E490490D1E905030A69C969D2
:100B0000CDE90231CDE9002029480FC800F086FB6D
:100B1000274B10330FCB8DE80F0025480FC800F08E
:100B2000ECFBE01704EB10600012A4EB0020C0B255
:100B30001F4B0490D3E905021969DB69CDE9022353
:100B4000CDE900101A480FC800F068FB184BD3E934
:100B50000420D3E90613CDE90213CDE9002014489F
:100B60000FC800F0CAFB124B049610330FCB8DE870
:100B70000F000F480FC800F051FB0D4B10330FCB87
:100B80008DE80F000A480FC800F0B7FB084BD3E907
:100B900005211869DB69CDE90213CDE9000204489B
:100BA0000FC800F08CFB0A2004F0FAF806B070BD04
:100BB00094B3002008B5124801F0C0FD00F002FD1A
:100BC000012000900F4803780FA200210C4805F087
:100BD000ADFB012000230EA204210090084805F07F
:100BE000A5FB012000230CA205210090044805F07C
:100BF0009DFB10220121024804F0F6FC08BD000014
:100C0000B4B200204200002073657441000000006F
:100C10006E6578740000000065786974000000005B
:100C200008B5124801F08AFD00F0CCFC01200090CC
:100C30000F4803780FA200210C4805F077FB012034
:100C400000230EA204210090084805F06FFB01204C
:100C500000230CA205210090044805F067FB102238
:100C60000121024804F0C0FC08BD0000B4B200201D
:100C70004300002073657442000000006E657874C4
:100C800000000000657869740000000038B53A483B
:100C900001F054FD00F096FC38490968C8693849EC
:100CA000FFF761FB0546FFF7BFFC84B20120234636
:100CB00034A200210090304805F038FB2F49096824
:100CC000086A2F49FFF74FFB0546FFF7ADFC84B2DA
:100CD000012023462CA201460090274805F026FB60
:100CE00026490968486A2649FFF73DFB0546FFF794
:100CF0009BFC84B20120234624A2022100901E48BE
:100D000005F014FB012000902148007800EB400022
:100D1000204901EB400003791FA20421164805F089
:100D200005FB012000231EA205210090124805F0BA
:100D3000FDFA12490968086DFFF776FC84B20120BC
:100D4000234619A2062100900B4805F0EFFA184936
:100D50000968086DFFF768FC84B20120234615A2DC
:100D600007210090044805F0E1FA10220121024811
:100D700004F03AFC38BD0000B4B20020340000207A
:100D8000000020414B7000004B6900004B640000E4
:100D900044000020BCA400206E6F777400000000A7
:100DA000657869740000000064756F310000000010
:100DB0003800002064756F320000000000249BE0C2
:100DC0004FF0FF314D48006803F02DFD0446002C24
:100DD0006ED14B48007800EB40004A4A02EB4000DD
:100DE000B0F902104848006801F05DFC4448007802
:100DF00000EB4000434A32F910104448006801F00B
:100E000052FC4349B1F90200FFF7F8FB05463E48A2
:100E10000068294602693C48006890473C49B1F99E
:100E20000000FFF7EBFB05463848006829460269D9
:100E30003648006890473448006841683548FFF7F5
:100E40008CFA05463449FFF755FC04D23621334865
:100E500002F0C6FD1DE02C48006841682D48FFF7F0
:100E60007CFA05462E49FFF73BFC04D20F212B48A4
:100E700002F0B6FD0DE02448006841682548FFF700
:100E80006CFA0646FFF7D0FB85B22946234802F0EC
:100E9000A7FD1E48006841682248FFF75EFA054634
:100EA0002149FFF727FC04D25E21204802F098FD7B
:100EB0001DE01648006841681A48FFF74EFA0546DB
:100EC0001B49FFF70DFC04D22C21184802F088FDC5
:100ED0000DE00E48006841681248FFF73EFA0646EA
:100EE000FFF7A2FB85B22946104802F079FD0348BE
:100EF000006803F07BFC044662E700002C00002041
:100F000044000020BCA40020340000203800002051
:100F10003C0000200000E04100005842B4B3002033
:100F200000007041000098420000BC42D0B3002095
:100F30000000304200BFFEE700F0805111B10349CC
:100F4000086001E002494860704700000404024064
:100F50000000024021B1026842F00102026004E098
:100F600002684FF6FE731A40026070471AB10368B8
:100F70000B43036002E003688B430360704710B5C6
:100F80000022026847F6F0739A430C6A8B68234389
:100F90000C6923434C6923438C692343CC69234365
:100FA0004C6A23438C6A23431A430260CB68436034
:100FB0000B6883604B68C36010BD70472DE9F0413A
:100FC000024600250026002000230024002791F877
:100FD00003C00CF00F0591F803C00CF0100CBCF12D
:100FE000000F03D091F802C04CEA050591F800C04B
:100FF000BCF1000F31D0146800202BE04FF0010C41
:101000000CFA00F3B1F800C00CEA03069E4220D1AE
:1010100083004FF00F0C0CFA03F7BC4305FA03FCF6
:101020004CEA040491F803C0BCF1280F06D14FF03C
:10103000010C0CFA00FCC2F814C00AE091F803C0DD
:10104000BCF1480F05D14FF0010C0CFA00FCC2F8BE
:1010500010C0401C0828D1D31460B1F800C0BCF106
:10106000FF0F34DD546800202EE000F1080C4FF033
:10107000010808FA0CF3B1F800C00CEA03069E421E
:1010800021D183004FF00F0C0CFA03F7BC4305FA93
:1010900003FC4CEA040491F803C0BCF1280F05D10D
:1010A00000F1080C08FA0CF8C2F8148091F803C09B
:1010B000BCF1480F07D100F1080C4FF0010808FA05
:1010C0000CF8C2F81080401C0828CED35460BDE84C
:1010D000F08141617047016170470FB41FB5002076
:1010E0000B9908600AA80FC88DE80F0006A80FC862
:1010F00000F0AEFD00200C990860022002F050FFC5
:1011000001200B990860052002F04AFF00200B998E
:1011100008601FBC5DF814FB0FB408B5DDE90521BC
:1011200041EA0200012100F009FDBDF81200ADF80E
:10113000000003208DF8020010208DF8030069469E
:101140000398FFF73BFFBDF81000ADF800006946BB
:101150000298FFF733FF012007990860089908609B
:1011600001B05DF814FB0FB41FB500200B990860A7
:101170000AA80FC88DE80F0006A80FC800F068FD88
:1011800001200C990860022002F00AFF01200B994F
:101190000860052002F004FF00200B9908601FBCC6
:1011A0005DF814FB0FB47FB5109E00240CA80FC887
:1011B0008DE80F0008A80FC800F03AFD002514E0E4
:1011C00000200D990860022002F0EAFE01200D992E
:1011D00008606006040E0F98006808B1601CC4B275
:1011E000012002F0DDFE681CC5B2082DE8DB46B91F
:1011F0000CA80FC88DE80F0008A80FC8FFF7B3FFB1
:1012000007E00CA80FC88DE80F0008A80FC8FFF76B
:1012100064FF204604B070BC5DF814FB0FB47FB5CA
:10122000109C0CA80FC88DE80F0008A80FC800F08C
:101230000FFD00200D99086000251DE004F08000DE
:10124000002803DD01200E99086002E000200E99BD
:1012500008606006040E022002F0A2FE01200D9933
:101260000860022002F09CFE00200D990860022018
:1012700002F096FE681CC5B2082DDFDB7FBC5DF86E
:1012800014FB0FB41FB50AA80FC88DE80F0006A8FD
:101290000FC800F0DDFC01200C9908600B99086074
:1012A000052002F07DFE00200C990860062002F067
:1012B00077FE00200B9908601FBC5DF814FB0FB48B
:1012C0001FB50AA80FC88DE80F0006A80FC800F0C8
:1012D000BFFC00200B9908600C99086001200B9955
:1012E0000860062002F05CFE01200C9908600620D0
:1012F00002F056FE1FBC5DF814FB0FB41FB50024AE
:101300000AA80FC88DE80F0006A80FC800F090FCCF
:1013100001200C99086002F043FE01200B9908603F
:1013200002F03EFE10E0601CC4B2FA2C0CDD0AA8EC
:101330000FC88DE80F0006A80FC8FFF7C0FF0120F7
:1013400004B010BC5DF814FB0D9800680028EAD1C9
:101350000B99086000BFF3E708B50121082000F0F1
:10136000EDFB0121082000F0E9FB0121082000F03D
:10137000E5FB0121082000F0E1FB0121082000F03D
:10138000DDFB0121082000F0D9FB0121402000F005
:10139000D5FB0121402000F0D1FB48208DF803004F
:1013A00003208DF802001020ADF8000069461B48AC
:1013B000FFF704FE2020ADF8000069461748FFF74C
:1013C000FDFD4020ADF8000069461448FFF7F6FD2A
:1013D0008020ADF8000069461048FFF7EFFD4FF49C
:1013E0008070ADF8000069460C48FFF7E7FD4FF448
:1013F0000070ADF8000069460848FFF7DFFD0120E6
:10140000ADF8000069460648FFF7D8FD0220ADF8A8
:10141000000069460248FFF7D1FD08BD000C0140FD
:101420000018014010B504464048007801284ED10C
:101430003F480068D0B13E48001D0068B0B13C484C
:101440000830006890B13A480C30006870B13848F4
:101450001030006850B136481430006830B135485B
:10146000006818B13348001D006878BB082003F0FD
:1014700097FC00202D4908702D48006808B901200C
:1014800010BD2B48001D006808B90220F8E7284865
:101490000830006808B90320F2E725480C300068DE
:1014A00008B90420ECE722481030006808B905208C
:1014B000E6E71F481430006808B90620E0E71D4839
:1014C000006808B90720DBE70820D9E7FFE71848DC
:1014D0000068012823D11648001D006801281ED18C
:1014E000134808300068012819D111480C300068F1
:1014F000012814D10E481030006801280FD10C4883
:101500001430006801280AD10A480068012806D171
:101510000848001D0068012801D104490870012C09
:1015200002D10120014908700020A9E70001002034
:10153000108121420001234200BFFEE770470000F6
:1015400070B5002100230F22C47804B3154C246821
:1015500004F4E064C4F5E064210AC1F10403CA4064
:10156000447804FA03F184781440214309010E4CB5
:101570000678A155047804F01F050124AC400578D5
:101580006D11AD0005F1E025C5F8004109E00478D2
:1015900004F01F050124AC40044D0678761145F88F
:1015A000264070BD0CED00E000E400E080E100E0CA
:1015B00002490143024A1160704700000000FA0529
:1015C0000CED00E070B5002419E004F1B001C8B2E0
:1015D000002100F0CFF90021022000F0CBF900211A
:1015E000102000F0C7F9002505E00121002000F0DF
:1015F000C1F9681CC5B2802DF7DB601CC4B2082C91
:10160000E3DB70BD08B50121082000F097FA102037
:101610008DF8030003208DF802004FF48060ADF8D0
:10162000000069466948FFF7C9FC4FF48050ADF8E7
:10163000000069466548FFF7C1FC4FF40060ADF853
:10164000000069466148FFF7B9FC4FF48040ADF8EF
:10165000000069465D48FFF7B1FC4FF40050ADF85B
:10166000000069465948FFF7A9FC4FF480615748CC
:10167000FFF731FD4FF480515448FFF72CFD4FF434
:1016800000615248FFF727FD4FF480414F48FFF7B4
:1016900022FD4FF400514D48FFF71DFD4FF48051DE
:1016A0004A48FFF718FD642001F082F84FF480519A
:1016B0004648FFF70EFD642001F07AF84FF48051A0
:1016C0004248FFF708FD0021AE2000F053F9002149
:1016D000022000F04FF90021102000F04BF900210A
:1016E000402000F047F90021812000F043F900215B
:1016F000CF2000F03FF90021A12000F03BF90021AC
:10170000C82000F037F90021A62000F033F90021AD
:10171000A82000F02FF900213F2000F02BF9002134
:10172000812000F027F90021FF2000F023F900219B
:10173000D32000F01FF90021084600F01BF900211A
:10174000D52000F017F90021802000F013F90021C6
:10175000D92000F00FF90021F12000F00BF9002151
:10176000DA2000F007F90021122000F003F900212F
:10177000DB2000F0FFF80021402000F0FBF8002102
:10178000202000F0F7F80021022000F0F3F80021FB
:101790008D2000F0EFF80021142000F0EBF800217C
:1017A000A42000F0E7F80021A62000F0E3F80021D3
:1017B000AF2000F0DFF80021AF2000F0DBF8FFF7EA
:1017C00001FF0021084600F003F808BD000C0140AD
:1017D00070B504460D4605F1B001C8B2002100F015
:1017E000C9F8102141EA1410002100F0C3F804F0F8
:1017F0000F0141F00100002100F0BCF870BD0000B5
:101800002DE9F04107460E46904600250024A8F138
:101810002000C5B27F2F02DD0027B01CC6B21F48D2
:101820000078102824D131463846FFF7D1FF002434
:1018300008E004EB05111A4A505C012100F09AF807
:10184000601CC4B2082CF4DB701CC1B23846FFF730
:10185000BFFF002409E004EB05110831104A505C79
:10186000012100F087F8601CC4B2082CF3DB12E001
:1018700031463846FFF7ACFF00240AE005EB45018E
:10188000084A02EB4101085D012100F073F8601C79
:10189000C4B2062CF2DBBDE8F0810000C1020020DA
:1018A000AA660008826400082DE9FF5F074691469A
:1018B0001D460E9E4FF0000A002433E0281B401EF8
:1018C000C1B20A2001F0B1FEB9FBF0F00A21B0FB71
:1018D000F1F201FB1208BAF1000F13D1681EA04209
:1018E00010DDB8F1000F0BD1B34606EBDB714910E8
:1018F00001FB0471C8B220220199FFF781FF0FE0BC
:101900004FF0010AB34606EBDB71491001FB04718D
:10191000C8B208F13001CAB20199FFF771FF00BFE8
:10192000601CC4B2AC42C9DBBDE8FF9F2DE9F041A9
:1019300004460F461546002615E0AA5D39462046A6
:10194000FFF75EFF0A480078102803D104F1080071
:10195000C4B201E0A01DC4B2782C02DD0024B81C82
:10196000C7B2701CC6B2A85D0028E6D1BDE8F08100
:10197000C102002070B504460E462EB14FF400613E
:101980001C48FFF7A8FB04E04FF400611948FFF77B
:10199000A0FB4FF480611748FFF79BFB00251BE07D
:1019A0004FF480411348FFF794FB04F0800028B106
:1019B0004FF400510F48FFF78EFB04E04FF4005145
:1019C0000C48FFF786FB4FF480410A48FFF783FB82
:1019D0006006040E681CC5B2082DE1DB4FF480617F
:1019E0000448FFF778FB4FF400610248FFF773FBF0
:1019F00070BD0000000C01400FB410B588B0119C00
:101A000001210B9800F09AF801210E9800F086F859
:101A1000BDF83000ADF8000003208DF8020018205A
:101A20008DF8030069460A98FFF7C8FABDF8400030
:101A3000401E80B2ADF81800ADF814400020ADF89B
:101A40001A00ADF8160005A90D9800F0C5FB60203E
:101A5000ADF804000020ADF80C000120ADF8060040
:101A6000BDF83E00ADF80A00BDF83C0030B10428D6
:101A700009D008280CD00C2814D10EE001A90D982B
:101A800000F046FA0EE001A90D9800F097FA09E07F
:101A900001A90D9800F0F2FA04E001A90D9800F0F8
:101AA00047FB00BF00BFBDF83C0030B1042809D09F
:101AB00008280CD00C2814D10EE008210D9800F055
:101AC00073FA0EE008210D9800F0CAFA09E0082127
:101AD0000D9800F023FB04E008210D9800F066FB50
:101AE00000BF00BF01210D9800F0E6F901210D981B
:101AF00000F0F1F908B010BC5DF814FB29B1064AFA
:101B000052690243044B5A6104E0034A526982431A
:101B1000014B5A61704700000010024029B1064A8B
:101B2000D2690243044BDA6104E0034AD26982437A
:101B3000014BDA61704700000010024029B1064AEB
:101B400092690243044B9A6104E0034A926982431A
:101B5000014B9A61704700000010024030B500212F
:101B60000022002400232D4D6D6805F00C0121B1E9
:101B7000042905D0082923D105E0294D056022E07C
:101B8000274D05601FE0254D6D6805F47012234D4B
:101B90006D6805F48034022505EB92421CB9214D95
:101BA000554305600BE01D4D6D6805F400351DB112
:101BB0001C4D5543056002E0194D5543056002E098
:101BC000174D056000BF00BF144D6D6805F0F001B2
:101BD0000909154D6B5C0568DD4045600F4D6D686A
:101BE00005F4E061090A104D6B5C4568DD408560D5
:101BF0000A4D6D6805F46051C90A0B4D6B5C456870
:101C0000DD40C560054D6D6805F44041890B074D09
:101C10006B5CC568B5FBF3F5056130BD0010024093
:101C200000127A0000093D00C8020020D8020020FE
:101C30000FB408B5BDF81000ADF8000048208DF8CD
:101C4000030069460298FFF7B9F901B05DF814FB8B
:101C50000FB408B5BDF81000ADF8000003208DF8F2
:101C6000020010208DF8030069460298FFF7A6F9DC
:101C700001B05DF814FB704710B500F001F810BD1D
:101C80000CB50020019000903348006840F480308B
:101C90003149086000BF3048006800F4003000900F
:101CA0000198401C0190009818B90198B0F5A06FF8
:101CB000F1D12948006800F4003010B101200090F3
:101CC00001E0002000900098012843D123480068DB
:101CD00040F01000214908600846006820F0030029
:101CE00008600846006840F0020008601A48406832
:101CF000194948600846406848600846406840F412
:101D0000806048600846406820F47C1048600846BF
:101D1000406840F4E81048600846006840F0807071
:101D2000086000BF0C48006800F000700028F9D07F
:101D30000948406820F003000749486008464068A9
:101D400040F00200486000BF0348406800F00C000B
:101D50000828F9D10CBD000000100240002002400C
:101D6000042808D14FF0E021096941F004014FF047
:101D7000E022116107E04FF0E021096921F0040140
:101D80004FF0E0221161704710B502F01DF903F029
:101D900009F902F029F910BD10B504466FF00400EE
:101DA000FFF7DEFFE11704EB5171C1F3C701074AEA
:101DB00011701046007800EB4001C1EBC0104FF6E7
:101DC000FF7101EAC0000249088010BDC402002072
:101DD000C602002010B51348006840F00100114908
:101DE000086008464068104908400E4948600846A7
:101DF00000680E4908400B4908600846006820F456
:101E0000802008600846406820F4FE0048604FF4D7
:101E10001F008860FFF730FF4FF000600449086042
:101E200010BD0000001002400000FFF8FFFFF6FEAA
:101E300008ED00E010B50121880700F058F870B3F4
:101E400019480078401C1849087008460078642832
:101E500001DD0020087014480078282190FBF1F281
:101E600001FB1200012809D11048007830B1FFF7BA
:101E7000A9FB0C2201210E4803F0B6FB0A480078AA
:101E8000142190FBF1F201FB1200022807D109484E
:101E9000006820B90020FFF7C5FA06490860012153
:101EA000880700F015F810BDC3020020C202002010
:101EB000B4B20020F400002021B1028842F0800278
:101EC000028004E002884FF67F731A400280704758
:101ED000CA430282704721B1028842F001020280A7
:101EE00004E002884FF6FE731A400280704730B556
:101EF0000246002000230024158A05EA0103958983
:101F000005EA010413B10CB1012000E0002030BD4E
:101F100070B5002400220023058C4FF6FE76354074
:101F20000584028C8388048B4FF68F752C40B51E78
:101F30002C400D882C43751E2A400D892A434D885C
:101F40002A43144DA8420BD0134DA84208D0134D7C
:101F5000A84205D0124DA84202D0124DA84213D17A
:101F60004FF6F7752A404D892A434FF6FB752A40F4
:101F70008D882A434FF6FF652B404FF6FF552B40C7
:101F80008D892B43CD892B4383800483CD8885861F
:101F9000028470BD002C014000340140004001402B
:101FA00000440140004801400A460021018B4FF6E1
:101FB000F7731940114301837047000070B5002486
:101FC00000220023058C4FF6EF7635400584028C05
:101FD0008388048B48F6FF752C404FF6FF452C4054
:101FE0000D884FF6FF7606EA05252C434FF6DF7580
:101FF0002A400D8906EA05152A434D8806EA05158B
:102000002A43154DA84202D0144DA8421DD14FF6C7
:102010007F752A404D894FF6FF7606EA05152A435B
:102020004FF6BF752A408D8806EA05152A434FF6FC
:10203000FF352B404FF2FF752B408D8906EA850551
:102040002B43CD8906EA85052B4383800483CD8805
:102050000587028470BD0000002C0140003401405F
:102060000A460021018B4FF2FF7319404FF6FF73B0
:1020700003EA0223194301837047000070B500246E
:1020800000220023058C4FF6FF6635400584028C44
:102090008388848B4FF68F752C404FF6FC752C404F
:1020A0000D882C434FF6FF552A400D894FF6FF76D9
:1020B00006EA05252A434D8806EA05252A43154DDB
:1020C000A84202D0144DA8421DD14FF2FF752A40FC
:1020D0004D894FF6FF7606EA05252A434FF6FF3570
:1020E0002A408D8806EA05252A434EF6FF752B40C7
:1020F0004DF6FF752B408D8906EA05152B43CD89DA
:1021000006EA05152B4383808483CD888587028466
:1021100070BD0000002C0140003401400A4600213F
:10212000818B4FF6F773194011438183704700008C
:1021300070B5002200230024058C4EF6FF76354052
:102140000584038C8488828B48F6FF752A404FF6FD
:10215000FF452A400D884FF6FF7606EA05252A43FB
:102160004DF6FF752B400D8906EA05352B434D884A
:1021700006EA05352B430B4DA84202D00A4DA84272
:1021800008D14BF6FF752C408D894FF6FF7606EA95
:1021900085152C4384808283CD88A0F84050038429
:1021A00070BD0000002C0140003401400A460021AF
:1021B000818B4FF2FF7319404FF6FF7303EA02233E
:1021C00019438183704781867047018770478187F3
:1021D0007047A0F840107047002202881D4B9842BB
:1021E0000ED01D4B98420BD0B0F1804F08D01B4B46
:1021F000984205D01A4B984202D01A4B984204D10B
:102200004FF68F731A404B881A43174B984207D0EA
:10221000164B984204D04FF6FF431A40CB881A431E
:1022200002808B8883850B8803850A4B98420BD0EC
:10223000094B984208D00E4B984205D00D4B98425E
:1022400002D00D4B984201D10B7A03860123838281
:1022500070470000002C01400034014000040040A1
:1022600000080040000C0040001000400014004036
:1022700000400140004401400048014008B50A48C0
:1022800000F05CFAFFF79EF9012000900748037800
:1022900007A20021044804F049F80C220121024859
:1022A00003F0A2F908BD0000B4B20020280000200D
:1022B0007069640000B58BB001F086FE40F22441E5
:1022C0000B4800F061F878B10A48006828220A49F2
:1022D0000A906846FDF7C2FF074810380FC801F0A2
:1022E0008BF9034800F00CF901F07EFE0BB000BD45
:1022F000003801400800002054B2002000B58BB027
:1023000001F062FE40F224410B4800F03DF878B144
:102310000A48006828220A490A906846FDF79EFF8D
:10232000074810380FC801F067F9034800F0E8F8D3
:1023300001F05AFE0BB000BD004400400C0000202C
:102340008CB2002021B1828942F40052828104E0E3
:1023500082894DF6FF731A40828170471AB1838AD1
:102360000B43838202E0838A8B4383827047024659
:102370000020B1F5007F00D100BF13880B400BB1E6
:10238000012000E00020704770B5024600240023C1
:102390000025002040F66A16B14200D100BFC1F30B
:1023A000421501F01F03012606FA03F3012D02D1A5
:1023B0009689334006E0022D02D1168A334001E0AF
:1023C000968A33400C12012606FA04F4168834402B
:1023D00013B10CB1012000E0002070BDF0B5034640
:1023E000002400260025002040F66A17B94200D1DB
:1023F00000BF1846C1F3421401F01F06012707FA77
:1024000006F5012C01D10C3004E0022C01D1103072
:1024100000E014301AB107682F43076002E0076834
:10242000AF430760F0BD00002DE9F04786B00546D8
:102430000E460024A24600BFA1460027B08900B185
:1024400000BF2F462C8A4CF6FF700440F0880443EE
:102450002C82AC894EF6F3100440B08831890843D1
:10246000718908430443AC81AC8A4FF6FF400440B5
:10247000B0890443AC8201A8FFF770FB1F48874274
:1024800002D1DDF810A001E0DDF80CA0A88900F46D
:10249000004040B10AEBCA0000EB0A103168490065
:1024A000B0FBF1F807E00AEBCA0000EB0A10316854
:1024B0008900B0FBF1F86420B8FBF0F004012009BA
:1024C000642101FB1089A88900F4004040B132204A
:1024D00000EBC900B0FBF1F000F00700044308E096
:1024E000322000EB09106421B0FBF1F000F00F0086
:1024F00004432C8106B0BDE8F0870000003801409D
:1025000001468888C0F308007047C1F30802828042
:10251000704700BFFEE70000014609B90020704780
:10252000C8B220B1C8B20E4A105C401CF7E701F4F3
:102530007F4028B10A48C1F30722805C0930EEE7EA
:1025400001F47F0028B10648C1F30742805C1130D6
:10255000E5E7034800EB116000781930DFE7000081
:102560006063000802E008C8121F08C1002AFAD1FF
:1025700070477047002001E001C1121F002AFBD103
:102580007047000003490868884201D00120704765
:102590000020FCE7C80000202DE9FC5F04468B46C4
:1025A00015461E46DDE90C9ADDE90E7804F11400AB
:1025B0004060006000BF1C346560A660C4F80C90E9
:1025C000C4F810A02321D4E9030201F0A2FFD4E94A
:1025D000033C63441A1F0F4BD4E9010101F0BAFC1C
:1025E0002060A77667760020E061C4F82880C4F8F0
:1025F0002C8060612076E06520661C3C00902346BC
:10260000054A2146019004F14C0002F068FD0020CB
:10261000BDE8FC9F514C0008B14E00082DE9F04781
:1026200004460E4617469846DDF8209084F8099037
:10263000607A20F001006072E66127620020A062EB
:10264000C4F82480002506E004F1140101EBC50064
:1026500001F040FD6D1C012DF6DBBDE8F08710B5E3
:102660000246002001460EE002F1140303EBC10014
:10267000D0E900436360D0E900342360406000602B
:1026800000BF481C01460129EEDB10BD70B50546B0
:10269000284601F061FD04460CB9002070BD002001
:1026A000E0602046FAE770B504460D462846FDF77F
:1026B000A5FF2060002070BD10B504460F481049EA
:1026C000086004204860402008810E48C86002204D
:1026D00008610020888209480B490860042048608E
:1026E000802008810748C860022008610420888291
:1026F0002146034800F007FB10BD00000008014020
:10270000B4B3002000040040D0B30020002410E047
:102710004FF0FF310748006802F085F8044644B9DD
:102720000549086B00F08CFF034A918E106BFDF792
:10273000AEFDEDE70C0000207CB200200246002137
:102740000EE0C1EBC10002EB400007A31B88038031
:102750000020C1EBC10302EB43039881481CC1B2C6
:102760001029EEDB0120704720000000002411E05A
:102770004FF0FF310848006802F055F804464CB9A4
:102780000648C16A06A001F087FC044A918ED06A0F
:10279000FDF77DFDECE700000800002044B20020BA
:1027A000CAD5B5BDCAFDBEDD3A25730A00000000DA
:1027B0000146114A12884A434FF0E0235A61002231
:1027C0009A611A46126942F001021A6100BF4FF085
:1027D000E022106900F001021AB100F48032002AF0
:1027E000F5D04FF0E022126922F001024FF0E02311
:1027F0001A6100229A617047C60200201CB50024AD
:1028000031E14FF0FF3201A99748006801F083FDE4
:102810000446002CF4D101981F2870D2DFE800F0A4
:102820006F101F1625282938195C565946476F70B6
:10283000735F60768A8BBFC0D8D9F51CF3F2F100C4
:1028400003F050FB89A001F027FC0BE1FFF716FD18
:1028500008E1FEF7AFF905E103F01CFB02E100F02F
:10286000FDF98CA001F018FCFCE000F0F7F9F9E0AC
:1028700000BF002000909148037891A20021914868
:1028800003F054FD0C2201218E4802F0ADFEE9E078
:10289000012000238CA2014600908A4803F046FDE7
:1028A0000C220121874802F09FFEDBE000BF0020E0
:1028B00000908648037886A20021824803F036FD06
:1028C000102201217F4802F08FFECBE0FEF7A8F92D
:1028D000C8E0FEF7DBF9C5E000F0C0F9C2E000BFD8
:1028E000002000907C4803787CA20021754803F00A
:1028F0001DFD10220121734802F076FEB2E0ACE02B
:10290000FEF7C4F9AEE000F0A9F9ABE00120002326
:1029100074A2032100906B4803F008FD10220121EE
:10292000684802F061FE4FF47A7002F039FA00F064
:1029300095F997E000BF6C490968C8696B49FDF7D4
:1029400012FD0646FDF770FE85B200202B4668A2F8
:10295000014600905B4803F0E9FC63490968086D93
:10296000FDF762FE85B200202B4662A20621009090
:10297000544803F0DBFC61490968086DFDF754FE1B
:1029800085B200202B465EA2072100904D4803F03F
:10299000CDFC102201214B4802F026FE62E000BF70
:1029A00051490968086A5149FDF7DDFC0646FDF703
:1029B0003BFE85B200202B4653A2012100904148E6
:1029C00003F0B4FC102201213E4802F00DFE49E064
:1029D00000BF45490968486A4449FDF7C4FC0646FA
:1029E000FDF722FE85B200202B4648A2022100906E
:1029F000344803F09BFC10220121324802F0F4FD20
:102A000030E027E017E015E0FFE7002000904048A5
:102A1000007800EB40003F4901EB400003793EA203
:102A20000421284803F082FC10220121254802F0ED
:102A3000DBFD17E000BF002000903948038839A271
:102A40000021204803F072FC102201211D4802F0F1
:102A5000CBFD07E000F002F904E033A0019901F09A
:102A60001BFB00BF00BFCCE600000020746872654D
:102A700061645F646973706C6179A3BA7461736B2C
:102A800031BDE7C3E6B8FCD0C2B3C9B9A6A3A10A59
:102A9000000000007468726561645F646973706C43
:102AA0006179A3BABBD8B5BD6D61696EBDE7C3E6F8
:102AB000B8FCD0C2B3C9B9A6A3A10A00280000205F
:102AC00070696400B4B200206F6B00004200002007
:102AD0007365744100000000430000207365744278
:102AE000000000006F6B2100340000200000204136
:102AF0004B70000064756F3100000000380000204A
:102B000064756F32000000004B6900004B640000E8
:102B100044000020BCA400206E6F77740000000009
:102B20001C00002050776D007468726561645F64FA
:102B30006973706C6179A3BACFD4CABEB8FCD0C235
:102B4000B4EDCEF3A3ACB4EDCEF3616374696F6EF4
:102B50003A25640A0000000008B5002416E04FF092
:102B6000FF3269460A48006801F0D5FB044654B9B3
:102B700008A0009901F090FA0098C1B20F480078BF
:102B800002F028FE02E00EA001F086FAE7E700005E
:102B9000FC0000207468726561645F6B6579686130
:102BA0006E646C65A3BACAD5B5BDB0B4BCFC3A2599
:102BB000642CBFAACABCB4A6C0ED0A001E00002047
:102BC0007468726561645F6B657968616E646C6579
:102BD000A3BAB0B4BCFCBDD3CAD5CAA7B0DCA3A10C
:102BE0000A00000070B505460B48006898B900203F
:102BF000FEF718FC084908600846006858B1084606
:102C000001680648006801F000FC044614B904A0FD
:102C100001F042FA00BF70BDF4000020FC0000206B
:102C200074696D65725F6B65797363616EA3BAB029
:102C3000B4BCFCB7A2CBCDB3C9B9A6A3A10A00000E
:102C400010B500F077F800F00FFC00F0D9F900F0B3
:102C500053F900F057FB002010BD000008B51D48D7
:102C6000FFF76CFDFEF7AEFC012000231AA2194607
:102C70000090184803F05AFB0120002318A20146D7
:102C80000090144803F052FB0120034616A20221D3
:102C90000090104803F04AFB0120022313A20321F5
:102CA00000900C4803F042FB0120032310A20421F2
:102CB0000090084803F03AFB012004230DA20521EF
:102CC0000090044803F032FB0C220121014802F07D
:102CD0008BFC08BDB4B200206D61696E000000007D
:102CE0006D65617500000000747431007474320009
:102CF000746B3100746B320010B5044600F0E0FED6
:102D0000FFF79EFF10BD7FB504460D4642F21070DE
:102D100090FBF5F020830020E08247200390D4E967
:102D2000051220698DE8070094E80F00FEF764FEA5
:102D30007FBD000010B50022114627A001F02EFD36
:102D4000294908600846006810B128A001F0A4F9DC
:102D5000002211462DA001F021FD304908600846EF
:102D6000006810B12EA001F097F90022114634A09E
:102D700001F014FD364908600846006810B135A01E
:102D800001F08AF9002205213BA001F09BFA3C49A1
:102D900008600846006810B13AA001F07DF90022F1
:102DA00005213FA001F08EFA4049086008460068FE
:102DB00010B13FA001F070F90022052143A001F0FD
:102DC00081FA454908600846006810B143A001F047
:102DD00063F9002010BD000073656D5F6465627566
:102DE000675F756172740000080000206465627599
:102DF000675F75617274D0C5BAC5C1BFB4B4BDA8F0
:102E0000B3C9B9A6A3A10A0A0000000073656D5FEB
:102E100063616D6572615F75617274000C00002002
:102E200063616D6572615F75617274D0C5BAC5C149
:102E3000BFB4B4BDA8B3C9B9A6A3A10A0A000000D3
:102E400073656D5F42616E7169755F7461736B006C
:102E50002C00002073656D5F42616E7169755F744F
:102E600061736BD0C5BAC5C1BFB4B4BDA8B3C9B98D
:102E7000A6A3A10A0A0000006D625F6B65790000DD
:102E8000FC000020B0B4BCFCB4A6C0EDD3CACFE4B3
:102E9000B4B4BDA8B3C9B9A6A3A10A0A0000000032
:102EA0006D625F646973706C6179000000000020DE
:102EB0006F6C6564CFD4CABED3CACFE4B4B4BDA826
:102EC000B3C9B9A6A3A10A0A000000006D625F633E
:102ED00074726C4174323400240000206374726C8C
:102EE00041743234D3CACFE4B4B4BDA8B3C9B9A6CF
:102EF000A3A10A0A0000000010B54FF07E52002185
:102F00004FF0804000F0F0FB204908600846006860
:102F100018B11FA001F0C0F802E023A001F0BCF836
:102F20004FF07E5200214FF0804000F0DDFB24493D
:102F300008600846006818B122A001F0ADF802E070
:102F400026A001F0A9F82B4810490968C8622A4850
:102F50000E490968886229480C49096808630120FC
:102F60000A4909680881234815490968C862224846
:102F700013490968886221481149096808630120DA
:102F80000F4909680881002010BD000034000020AE
:102F9000B4B4BDA85049445F737465657231B3C958
:102FA000B9A6A3A10A0A0000B4B4BDA85049445F61
:102FB000737465657231CAA7B0DCA3A10A0A000068
:102FC00038000020B4B4BDA85049445F73746565EF
:102FD0007232B3C9B9A6A3A10A0A0000B4B4BDA84D
:102FE0005049445F737465657232CAA7B0DCA3A10F
:102FF0000A0A00000000F0410000F0C10000484251
:103000001CB5142006214FF400730022CDE90010F6
:10301000414942A001F0EEFD4549086008460068BC
:1030200018B144A001F038F802E04AA001F034F8E9
:10303000142003214FF400730022CDE900104D4904
:103040004DA001F0D7FD514908600846006818B14D
:103050004FA001F021F802E055A001F01DF8142066
:1030600002210B020022CDE90010594959A001F0BC
:10307000C1FD5B4908600846006818B159A001F01D
:103080000BF802E05EA001F007F8142008218B0184
:103090000022CDE90010614961A001F0ABFD644957
:1030A00008600846006818B162A000F0F5FF02E071
:1030B00066A000F0F1FF14200A214FF400730022F3
:1030C000CDE90010674968A001F094FD68490860E7
:1030D0000846006818B167A000F0DEFF02E06CA0AF
:1030E00000F0DAFF14200C214FF400730022CDE928
:1030F00000106E496EA001F07DFD71490860084620
:10310000006818B16FA000F0C7FF02E075A000F0E2
:10311000C3FF00201CBD00006D27000864656275B8
:10312000675F7561727468616E646C6500000000B1
:103130001000002064656275675F75617274B4A6E3
:10314000C0EDCFDFB3CCB4B4BDA8B3C9B9A6A3A1B9
:103150000A0A000064656275675F75617274B4A6DF
:10316000C0EDCFDFB3CCB4B4BDA8CAA7B0DCA3A177
:103170000A0A00000D27000863616D6572615F75C2
:1031800061727468616E646C650000001400002058
:1031900063616D6572615F75617274B4A6C0EDCFD5
:1031A000DFB3CCB4B4BDA8B3C9B9A6A3A10A0A00C1
:1031B00063616D6572615F75617274B4A6C0EDCFB5
:1031C000DFB3CCB4B4BDA8CAA7B0DCA3A10A0A007F
:1031D000592B00086B657968616E646C65000000AE
:1031E00018000020B0B4BCFCB4A6C0EDCFDFB3CC57
:1031F000B4B4BDA8B3C9B9A6A3A10A0A00000000CF
:10320000B0B4BCFCB4A6C0EDCFDFB3CCB4B4BDA8A1
:10321000CAA7B0DCA3A10A0A00000000815F000871
:103220007461736B72656164415432340000000054
:103230002000002041543234CFDFB3CCB4B4BDA859
:10324000B3C9B9A6A3A10A0A000000004154323450
:10325000CFDFB3CCB4B4BDA8CAA7B0DCA3A10A0A1F
:1032600000000000FD270008646973706C6179003C
:1032700004000020CFD4CABECBA2D0C2CFDFB3CCD3
:10328000B4B4BDA8B3C9B9A6A3A10A0A000000003E
:10329000CFD4CABECBA2D0C2CFDFB3CCB4B4BDA80A
:1032A000CAA7B0DCA3A10A0A00000000BD0D0008F7
:1032B00042616E7169755F746872656164000000D7
:1032C0003000002042616E7169755F7468726561DB
:1032D00064CFDFB3CCB4B4BDA8B3C9B9A6A3A10A67
:1032E0000A00000042616E7169755F746872656101
:1032F00064CFDFB3CCB4B4BDA8CAA7B0DCA3A10A25
:103300000A00000010B52B48006838B12948006851
:1033100001F096FD28A000F0BFFE02E04FF0FF3064
:1033200010BD2C48006838B12A48006801F088FDBB
:1033300029A000F0B1FE02E04FF0FF30F0E72D4889
:10334000006838B12B48006801F07AFD2AA000F02F
:10335000A3FE02E04FF0FF30E2E72E48006838B1EC
:103360002C48006801F06CFD2BA000F095FE02E0F7
:103370004FF0FF30D4E72E48006838B12C48006881
:1033800001F05EFD2BA000F087FE02E04FF0FF3061
:10339000C6E72E48006838B12C48006801F050FD9F
:1033A0002BA000F079FE02E04FF0FF30B8E70020DC
:1033B000B6E700001000002064656275675F756104
:1033C0007274CFDFB3CCBFAACABCB5F7B6C8A3A18D
:1033D0000A0A00001400002063616D6572615F7568
:1033E000617274CFDFB3CCBFAACABCB5F7B6C8A3AD
:1033F000A10A0A0018000020B0B4BCFCB4A6C0EDBD
:10340000CFDFB3CCBFAACABCB5F7B6C8A3A10A0A1E
:103410000000000004000020CFD4CABECFDFB3CC30
:10342000BFAACABCB5F7B6C8A3A10A0A000000002B
:103430002000002041543234CFDFB3CCBFAACABC35
:10344000B5F7B6C8A3A10A0A0000000030000020AA
:10345000B0E5C7F2CFDFB3CCBFAACABCB5F7B6C8D8
:10346000A3A10A0A0000000008B5062032230022AA
:103470000949009009A001F007FE0C4908600846C0
:10348000006830B10846006801F04EFE08A000F068
:1034900003FE002008BD0000E52B000874696D657F
:1034A000725F6B65797363616E000000F800002045
:1034B000B0B4BCFCC9A8C3E8B6A8CAB1C6F7C6F484
:1034C000B6AFB3C9B9A6A3A10A0A00000FB400B5EC
:1034D0008FB001211798FEF731FB1198B0F5804F9E
:1034E00004D101211198FEF729FB03E00121119875
:1034F000FEF714FBBDF85800ADF8380018208DF821
:103500003B0003208DF83A000EA91598FDF756FDF3
:10351000BDF85000ADF8380004208DF83B000EA92E
:103520001398FDF74BFD18980A900020ADF82C0079
:10353000ADF82E00ADF83000ADF834000C20ADF839
:1035400032000AA91098FEF76FFF282214A96846D6
:10355000FCF784FE10A80FC802F048FE012240F2DA
:1035600024411098FEF73AFF012240211098FEF7FF
:10357000F5FE01211098FEF7E5FE0FB05DF814FB93
:103580000FB400B58BB001210846FEF7B7FA1698C4
:10359000009018490C98884202D11898019001E0D7
:1035A0001798019000200290BDF86400039000205D
:1035B000049080200590002006900790202008901D
:1035C0004FF44050099000200A9069461598FDF785
:1035D000D6FC4FF48030FDF7AFFC0122082115988E
:1035E000FDF7C4FC01211598FDF7B4FC0BB05DF8A4
:1035F00014FB0000004400400FB410B5109C0021E3
:103600000B98FDF7A7FC4FF48030FDF795FCBDF853
:103610003C000B99486001210B98FDF79BFC20466C
:1036200001F0E4F810BC5DF814FB10B5024601206F
:1036300000E050430B1EA1F10104E1B2F9D110BD2D
:103640000178AA2911D1417855290ED18178C27803
:103650001144C9B20279914207D14179542904D168
:103660008178024A1180C178518070473C00002067
:1036700030B51A4C436824681919884215D04B8814
:103680009BB9174B1B6899420FD0164B1B688B4296
:1036900001D1144B18604B684360104B1B68C31A70
:1036A0000E4D4C682D682C44A3600C4C8368246834
:1036B0001A19824211D053887BB90A4B1B68834286
:1036C00001D1084B1A6043685360044B1B68D31A3E
:1036D000024D44682D682C44A36030BD500000208A
:1036E00054000020580000202DE9F04105460E4608
:1036F00017465820FEF7CAFF044614B90020BDE85B
:10370000F081E561266267620A48E0620A48A062C9
:103710000020206320646063A063E0636064A064B1
:10372000E064064860610648A061064820612046C2
:10373000E5E7000000007A4400007AC4573700082B
:10374000493700088137000810B50446204600F0CC
:10375000F3F9002010BD10B5044658220021204680
:1037600000F0D7FE002010BD0246516200207047D5
:1037700002461162002070470246D1610020704766
:103780002DE9F04105460E462C4601F005FC616D21
:10379000471A208901F0F0FB874202D20720BDE8DA
:1037A000F08101F0F9FB606531462068FCF7D5FD3A
:1037B0006064D4E91001FCF77EFD2064216B206C6D
:1037C000FCF798FF02D2206B20640BE0206B80F0A6
:1037D00000473846216CFCF78DFF03D2206B80F048
:1037E00000402064616CE069FCF7BDFD6063216C02
:1037F000206AFCF7B8FDA063D4E91101FCF7ADFD28
:103800000746616AFCF7AFFDE063D4E90D01FCF700
:1038100052FD0746E16BFCF74EFDE064E06C20656D
:10382000E16AE06CFCF766FF01D2E06AE064A16A3D
:10383000E06CFCF755FF01D2A06AE064606CA06404
:10384000E06C60600020AAE72DE9F04F86B00D46DD
:103850009C46DDE9106401960F9B04F04008B8F126
:10386000000F02D0DFF8708101E0DFF87081CDF841
:10387000008004F01008B8F1000F01D024F001041A
:1038800004F00108B8F1000F02D04FF0300801E059
:103890004FF02008C246002704F00208B8F1000FDC
:1038A00011D0002A02DA2D2752420CE004F004085D
:1038B000B8F1000F01D02B2705E004F00808B8F19B
:1038C000000F00D02027002142B94FF0300B88466E
:1038D000491C0DF1080909F808B01DE01AE0E1469D
:1038E000B9F10A0F08D14FF00A0BB2FBFBFE0BFB3C
:1038F0001E28B2FBFBF202E002F00F08120900BF23
:10390000DDF8009019F808B08846491C0DF1080947
:1039100009F808B0002AE2D1B14200DD0E469B1B37
:1039200004F01108B8F1000F10D117B1002B00DD21
:103930005B1E06E0A84203D84FF0200880F8008004
:10394000401CB3F10008A3F10103F3DC27B1A84246
:1039500001D807705B1E401C04F01008B8F1000F7E
:103960000AD104E0A84201D880F800A0401CB3F1BD
:103970000008A3F10103F5DC06E0A84203D84FF0EC
:10398000300880F80080401CB046761E8845F4DC84
:1039900008E0A84205D80DF1080818F8018080F861
:1039A0000080401CB1F10008A1F1010104DDDDF847
:1039B0000480B8F1000FECD106E0A84203D84FF024
:1039C000200880F80080401CB3F10008A3F1010337
:1039D000F3DC06B0BDE8F08F716400086064000895
:1039E0002DE9FC5F82468B46BAF81800FCF70FFE03
:1039F00004460D465846FCF70AFE06461C4A1D4B77
:103A0000FCF78AFD804622462B46FCF785FDCDE972
:103A10000001FCF71DFEAAF81600BAF8140030B138
:103A200004280BD0082810D00C281CD114E0BAF8B8
:103A30001610DAF80C00FEF7C6FB15E0BAF81610FF
:103A4000DAF80C00FEF7C1FB0EE0BAF81610DAF84F
:103A50000C00FEF7BCFB07E0BAF81610DAF80C0011
:103A6000FEF7B7FB00E000BF00BFBDE8FC9F000011
:103A7000FCA9F1D24D62503F1CB5142001214B022C
:103A80000022CDE90010044904A001F0B3F8044677
:103A9000204601F0D5F91CBDF92C00086D61696E56
:103AA0000000000010B5044C02E020688047241D8F
:103AB00002488442F9D310BDA06C0008A46C000831
:103AC00010B5044C02E020688047241D024884425F
:103AD000F9D310BDA46C0008A86C000810B5FCF761
:103AE00031FB044604480088401C00B202490880AB
:103AF0002046FCF72BFB10BDB800002010B5FCF7EA
:103B000021FB04460B480088401E00B2094908808A
:103B10000846B0F90000002807DC00200880204695
:103B2000FCF714FB00F0A0FD02E02046FCF70EFBC2
:103B300010BD0000B800002070B5054605B970BD85
:103B40001D480068854203D31C480068854200D3A5
:103B5000F5E7A5F10C044FF0FF31194800F063FEC2
:103B6000608818B12088B0F5F55F08D015A000F086
:103B700093FA23886288214619A000F08DFA00206C
:103B800060804FF4F550208021480068844201D2C3
:103B90001F480460084960680968611A401A1D4995
:103BA0000968081A1B4908602046FFF761FD0448B0
:103BB00000F01CFE00BFC2E75000002054000020AF
:103BC000D4A60020746F2066726565206120626152
:103BD00064206461746120626C6F636B3A0A000058
:103BE0006D656D3A203078253038782C20757365F6
:103BF0006420666C61673A2025642C206D616769DA
:103C00006320636F64653A203078253034780A0089
:103C1000580000206000002000487047F00200209B
:103C200000487047F0A2002070B54820FEF7B4F8B5
:103C3000FDF792FBFDF7E6FCFDF7C4FC28A200218E
:103C40000846FDF773FE02F0EDFA284908680021E6
:103C5000FEF778FBFCF77AFE0A20FEF72DFD1C210B
:103C60002348FFF7BDFE4C212248FFF7B9FE02F0C2
:103C70008FF801F05DFD204800684FF47A72B0FBC8
:103C8000F2F1B1F1807F00D31DE021F07F40401EB2
:103C90004FF0E022506150170F22002807DA130777
:103CA0001D0E164B00F00F04241F1D5503E01307D3
:103CB0001C0E134B1C5400BF00204FF0E0229061FB
:103CC0000720106100BFFFF7EDFEFFF7A9FF0446D4
:103CD000FFF7A2FF0546214600F09AFE70BD0000E6
:103CE00068656C6C6F206D63750000007CB200200D
:103CF000B4B30020D0B30020DC02002018ED00E0B7
:103D000000E400E010B50446FFF7E8FE19E0207873
:103D10000A280AD10D210E48FEF7F7FB00BF8021CB
:103D20000B48FEF724FB0028F9D014F8011B0848C3
:103D3000FEF7EBFB00BF80210548FEF718FB0028CB
:103D4000F9D020780028E2D1FFF7D8FE10BD00009E
:103D50000038014070B505462C1D2E48006838B16A
:103D600028462C4909688847064606B970BD00BF39
:103D700029A0E16B00F090F92BA0216A00F08CF9EA
:103D80002DA0616A00F088F92FA0A16A00F084F9E3
:103D900031A0E16A00F080F933A0216800F07CF9DD
:103DA00035A0616800F078F937A0A16800F074F9D7
:103DB00039A0E16800F070F93BA0216900F06CF9CE
:103DC0003DA0616900F068F93FA0A16900F064F9C5
:103DD00041A0E16900F060F943A0216B00F05CF9BB
:103DE00045A0616B00F058F947A0A16B00F054F9B1
:103DF000287800F0040038B100F0FAFF064631469A
:103E000045A000F049F902E04BA000F045F900BFE1
:103E1000FEE70000F00000207073723A2030782531
:103E20003038780A000000007230303A20307825AF
:103E30003038780A000000007230313A203078259E
:103E40003038780A000000007230323A203078258D
:103E50003038780A000000007230333A203078257C
:103E60003038780A000000007230343A203078256B
:103E70003038780A000000007230353A203078255A
:103E80003038780A000000007230363A2030782549
:103E90003038780A000000007230373A2030782538
:103EA0003038780A000000007230383A2030782527
:103EB0003038780A000000007230393A2030782516
:103EC0003038780A000000007231303A203078250E
:103ED0003038780A000000007231313A20307825FD
:103EE0003038780A000000007231323A20307825EC
:103EF0003038780A00000000206C723A20307825B3
:103F00003038780A000000002070633A20307825AD
:103F10003038780A000000006861726420666175BC
:103F20006C74206F6E207468726561643A2025732A
:103F30000D0A0D0A00000000686172642066617558
:103F40006C74206F6E2068616E646C65720D0A0D72
:103F50000A000000F0B504460D461646301D20F05C
:103F6000070040380146002203E00C4F41F8227060
:103F7000521C102AF9D30D624FF0000CC1F824C076
:103F8000C1F828C0C1F82CC0C1F830C04B638C63A5
:103F90004FF0807CC1F83CC0F0BD0000EFBEADDE4C
:103FA0004FF0E02252694FF47A73B2FBF3F25043C0
:103FB0004FF0E022916900BF4FF0E02292698A1A27
:103FC0008242F9D37047000010B5FCF7BBF80446F5
:103FD00004480078401C034908702046FCF7B6F8F6
:103FE00010BD00004C00002010B5FCF7ABF80446F3
:103FF00004480078401E034908702046FCF7A6F8E4
:1040000010BD00004C00002070B504462068A0F1EF
:104010001405284600F0CEFE002070BD2DE9F041C9
:1040200005460C469046204600F020FFB8F1000FF0
:1040300003D0B8F1010F23D105E004F114012846A3
:1040400000F060F81CE02E680FE0A6F1140794F869
:10405000350097F83510884206DA04F1140107F1AB
:10406000140000F04FF802E03668AE42EDD100BF18
:10407000AE4204D104F11401284600F043F800BF19
:1040800000BF0020BDE8F08110B5044604F1140023
:1040900000F01AF8002010BD0FB438B505A8009044
:1040A0007F210848009B049A01F0ECF804467F2C1D
:1040B00000D97F240348FFF725FE0020009038BC7C
:1040C0005DF814FB54A6002040600060704740601B
:1040D000006070474060006070470268516002688D
:1040E0000A600160486070470268516002680A60B7
:1040F0000160486070470268516002680A600160B0
:10410000486070474268116042684A6041600860D8
:10411000704701460868884201D10120704700209D
:10412000FCE701460868884201D101207047002061
:10413000FCE7D0E900215160D0E900121160406035
:1041400000607047D0E900215160D0E90012116091
:1041500040600060704700002DE9F041054615B948
:104160000020BDE8F081E81C20F003054E480068FF
:10417000854201D90020F4E70C2D00D20C254FF028
:10418000FF314A4800F04FFB494800684949096837
:10419000461A7EE04748006884196088002874D178
:1041A00006F10C006168081AA8426ED306F10C00F3
:1041B0006168091A05F11800814230D306F10C003C
:1041C00000EB05083B48006800EB08074FF4F5508A
:1041D00038800020788060687860BE60C4F8048011
:1041E000012060803048796800680C30814205D039
:1041F0003049786809680844C0F808802E4801688A
:1042000005F10C0008442C4908602C480068096836
:10421000884219D2284800682849086014E0012023
:104220006080244960680968611A401A2249096857
:10423000084421490860214800680968884203D27F
:104240001D4800681D4908604FF4F550208018484B
:104250000068844212D107E015480068406815499B
:10426000096808441249086011480068408828B16C
:104270000F480068124909688842EDD10B4800F0E8
:10428000B5FA04F10C006CE7FFE70A480068304417
:10429000466805480068401BB0423FF67BAF0348C4
:1042A00000F0A4FA00205CE75C000020D4A6002007
:1042B0005800002050000020600000206400002012
:1042C000540000202DE9F04105460E4617462946C8
:1042D000042000F042F9044614B92046BDE8F081FC
:1042E00067722046FFF7D0FE2684218C8800FFF7F6
:1042F00033FFE061E06920B9204600F058F9002062
:10430000ECE700206084A084E08404F12800FFF73B
:10431000DBFE2046E2E72DE9F74304460E46002780
:1043200000F066FD0546FBF70DFF8046608C38B94E
:10433000029828B94046FBF709FFB81EBDE8FE8386
:104340003AE000202863029830B94046FBF7FEFEB1
:104350006FF001002863F1E7627A294604F1140046
:10436000FFF75CFE029800280CDD00F015FE074602
:1043700002AA002105F14C0000F06AFE05F14C0094
:1043800000F0D2FE4046FBF7E1FE00F06DF9286B2D
:1043900008B1286BD2E7FBF7D5FE804602980028CB
:1043A0000ADD00F0F9FDC71B0298C01B02900298BD
:1043B000002801DA00200290608C0028C1D0E18C36
:1043C000E06950F821003060E08C401CE084E08C13
:1043D000218C884201DB0020E084608C401E6084D8
:1043E00004F12800FFF795FE50B904F12800FFF70B
:1043F0000BFE4046FBF7AAFE00F036F900209DE7D1
:104400004046FBF7A3FE002098E770B504460D4632
:1044100000222946204600F001F870BD2DE9F7433F
:1044200004460E46002700F0E3FC0546FBF78AFE33
:104430008046608C218C884207D1029828B940467A
:10444000FBF784FEF81EBDE8FE8339E000202863F8
:10445000029828B94046FBF779FE6FF00200F2E7B8
:10446000627A294604F12800FFF7D8FD0298002857
:104470000CDD00F091FD074602AA002105F14C0079
:1044800000F0E6FD05F14C0000F04EFE4046FBF763
:104490005DFE00F0E9F8286B08B1286BD3E7FBF765
:1044A00051FE8046029800280ADD00F075FDC71B0A
:1044B0000298C01B02900298002801DA00200290A6
:1044C000608C218C8842C1D0A18CE06940F82160C9
:1044D000A08C401CA084A08C218C884201DB002091
:1044E000A084608C401C608404F11400FFF711FE6E
:1044F00050B904F11400FFF787FD4046FBF726FE94
:1045000000F0B2F800209EE74046FBF71FFE0020B7
:1045100099E7F0B50C460546E6B2042A15D300F03B
:10452000030797B9014646EA062343EA034304E03A
:1045300008C108C108C108C1103A102AF8D201E028
:1045400008C1121F042AFBD20D4601E005F8016BD9
:10455000171EA2F10102F9D1F0BD2DE9F041064686
:104560000F46304600F044F80546E868FFF7F4FDD2
:10457000044614B90020BDE8F08100212046EA6815
:10458000FFF7C7FF267200206072082239462046D6
:1045900000F023FAFBF7D6FD804604F10C01281D3C
:1045A000FFF79BFD4046FBF7D1FD2046E3E770B5E2
:1045B000044600202072FBF7C5FD054604F10C00FF
:1045C000FFF7B7FD2846FBF7C1FD2046FFF7B4FA19
:1045D00070BD70B5044600202072FBF7B3FD0546A0
:1045E00004F10C00FFF7A5FD2846FBF7AFFD70BDF9
:1045F000024600210AE0074800EB011000789042D3
:1046000003D1044800EB01107047491C0529F2DB77
:104610000020F9E7680000202DE9F04104460D462E
:1046200016462846FFF7E4FF074645F08000207253
:1046300008223146204600F0D0F9FBF783FD804682
:1046400004F10C01381DFFF748FD4046FBF77EFDE5
:10465000BDE8F0810146087A00F0800008B1012031
:1046600070470020FCE700002DE9F041FBF76AFDF0
:1046700007461B48008868BB1A480068FDF74CFFD6
:10468000461E194850F83600A0F114041748006877
:1046900084421BD016490E70144805680460154802
:1046A000007848B904F11C0105F11C00FBF751FD2D
:1046B0003846FBF74BFD0CE004F11C0105F11C0032
:1046C000FBF747FD3846FBF741FD02E03846FBF7B4
:1046D0003DFD02E03846FBF739FDBDE8F081000002
:1046E000B8000020C4000020F4A60020BC00002078
:1046F000C00000204C00002070B50446FBF722FDEE
:10470000054614F8340F20F00F0040F0010020702F
:104710006278343C0A4B03EBC20004F11401426896
:10472000116042684A604160086000BF0549A06BA3
:1047300009680843034908602846FBF707FD70BD78
:10474000F4A60020C400002070B50446FBF7FAFC74
:10475000054604F11400D0E900215160D0E90012AF
:1047600011604060006000BF94F83510094A02EB08
:10477000C1000168814201D1012100E0002129B17D
:104780000548A16B00688843034908602846FBF789
:10479000DDFC70BDF4A60020C40000202DE9F0412E
:1047A00005460E46174629460120FFF7D6FE044669
:1047B00014B92046BDE8F0812046FFF765FCA683CA
:1047C00067722046F6E72DE9F04104460D4616468D
:1047D0001F462A4601212046FFF71EFF2046FFF70D
:1047E00053FCA68367720020BDE8F08170B50446D3
:1047F0000025FBF7A7FC064604F11400FFF789FC2F
:1048000028B904F11400FFF7FFFB012502E0A08B9B
:10481000401CA0833046FBF799FC012D01D1FFF726
:1048200023FF002070BD73B50546FBF78BFC0646E1
:10483000A88B002806DDA88B401EA8833046FBF716
:1048400085FC28E0019828B93046FBF77FFC6FF023
:1048500001007CBD00F0CCFA0446002020636A7A97
:10486000214605F11400FFF7D9FB0198002809DD66
:1048700001AA002104F14C0000F0EAFB04F14C0015
:1048800000F052FC3046FBF761FCFFF7EDFE206BB9
:1048900008B1206BDDE70020DBE7000008B509A0C8
:1048A000FFF7FAFB0AA0FFF7F7FB12A00223012291
:1048B0000321009012A0FFF7EFFB19A0FFF7ECFB1C
:1048C00008BD00000A205C207C202F0A00000000A8
:1048D0002D205254202D2020202020546872656104
:1048E00064204F7065726174696E672053797374C8
:1048F000656D0A004175672020362032303139005D
:10490000202F207C205C202020202025642E256460
:104910002E2564206275696C642025730A000000EE
:104920002032303036202D203230313920436F7024
:104930007972696768742062792072742D74687264
:10494000656164207465616D0A00000070B500F057
:1049500023FB0646FFF7C2F81A4805682BE0A5F1CD
:104960001404A06A301A6FF00041884222D22D68E8
:104970002046FDF774FEFFF7C1F8D4E90710884719
:1049800000F00AFB0646FFF7A9F8607A00F0020083
:1049900058B1607A00F0010038B1607A20F001006F
:1049A0006072204600F0C0FB05E0607A20F0010054
:1049B000607200E002E003488542D0D100BFFFF7FB
:1049C0009DF870BDD800002001460A4600E0521C48
:1049D00010780028FBD1501A704770B50346A2B179
:1049E00018460C4600BF14F8016B00F8016B3EB985
:1049F00002E0002500F8015B551E2A1EF9D102E0F5
:104A0000551E2A1EEFD100BF00BF184670BD000022
:104A10002DE9F04105460E46E81C20F0030726F07C
:104A20000308B8F1180F09D9A8F11800B84205D346
:104A3000A8EB070018381E49086006E032462946F0
:104A40001CA0FFF729FBBDE8F08129480760046836
:104A50004FF4F5502080164800680C30606000204C
:104A6000A0606080224960680968084421490860A4
:104A70004FF4F5500968088001201E4909684880F4
:104A80000B4800680C301B490968486008480068FA
:104A90000C301849096888600023012216A11848C3
:104AA000FFF791FE124800681649086000BFCAE788
:104AB0005C0000206D656D20696E69742C20657244
:104AC000726F7220626567696E20616464726573DB
:104AD0007320307825782C20616E6420656E642008
:104AE0006164647265737320307825780A00000071
:104AF0005000002054000020686561700000000034
:104B0000D4A600205800002010B500200B490880D2
:104B1000002405E00A4901EBC400FFF7D8FA641C41
:104B2000202CF7DB1F200749087000200649086089
:104B3000064908600648FFF7CAFA10BDB800002011
:104B4000F4A60020C0000020BC000020C40000200B
:104B5000C800002070B508480068FDF7DDFC451E60
:104B6000064850F83500A0F114040548046004F12B
:104B70001C00FBF71CFB70BDC4000020F4A6002045
:104B8000BC00002010B5002405E0044901EBC4007E
:104B9000FFF7A0FA641C002CF7D010BDD000002055
:104BA0001FB5002405E00D4901EBC400FFF792FAA0
:104BB000641C002CF7D00A200421CA01084BCDE95F
:104BC0000032CDE902100023064A07A1084800F090
:104BD000CDF8074800F034F91FBD0000D8000020D0
:104BE00074A80020D14E000874696D657200000041
:104BF000F4A700202DE9FF5F06460F4690461D46AC
:104C0000DDE90EAB31460020FFF7A7FC8146B9F184
:104C1000000F03D1002004B0BDE8F09F2846FFF745
:104C20009BFA044624B94846FFF7C1FC0020F2E78E
:104C300043463A46314648468DE8300CFDF7ACFC19
:104C40004846E8E710B50446204600F0D7F810BD06
:104C500070B512480468FBF775FA05462046FFF761
:104C600073FD042084F8340004F14C0000F027FAAE
:104C70002046FFF7EFFC012805D1A06F18B92046A8
:104C8000FFF7A7FC04E004F114010548FFF72CFA34
:104C90002846FBF75BFAFFF7E7FC70BDBC0000207D
:104CA000C800002001E000F001F8FCE770B537E033
:104CB000FBF748FA0546FDF765FC18B31B4800688A
:104CC000A0F1140404F11400D0E900215160D0E9EE
:104CD000001211604060006000BFFEF7FFFEA06F91
:104CE00010B12046A16F88472046FFF7B3FC01288A
:104CF00005D1FEF703FF2846FBF728FA70BDFEF743
:104D0000FDFE03E02846FBF721FAF7E72846FBF70C
:104D10001DFAA06AFEF710FF2046FFF748FC00BF0F
:104D2000FDF730FC0028C3D100BFE7E7C800002032
:104D30001FB520201F21C200074BCDE90032CDE96D
:104D400002100023054A06A1074800F00FF80648A4
:104D500000F076F81FBD000054A50020A54C000807
:104D60007469646C65000000D4A400202DE9FF5F25
:104D700005460C4616461F46DDE910ABDDE90E89F7
:104D8000224600212846FFF747FC3B463246214693
:104D900028468DE8000FFDF7FFFB04B0BDE8F09F4B
:104DA00070B50446204600F0E7F80546284600F0B6
:104DB00025F870BD70B5044694F8340000F00F007B
:104DC000022802D04FF0FF3070BDFBF7BBF905465B
:104DD00004F11400FFF7B6F904F14C0000F03AFAC0
:104DE0002846FBF7B3F92046FFF786FC0020EBE7E7
:104DF0000148006870470000BC00002031B5FBF797
:104E0000A1F905460D480468204600F02FF86A46CF
:104E1000002104F14C0000F01BF904F14C0000F0FB
:104E200083F92846FBF792F9FFF71EFC206B801CE4
:104E300008B900202063002038BD0000BC0000201D
:104E400010B504463434A078607061780120884041
:104E50006060022004F834092046FFF7ABFFFFF73B
:104E6000C7FF08B1FFF700FC002010BD70B5044675
:104E700094F8340000F00F00012802D04FF0FF300A
:104E800070BDFBF75FF9054694F8340020F00F0081
:104E900040F0020084F834002046FFF755FC04F18E
:104EA0004C0000F0D7F92846FBF750F90020E7E75F
:104EB00070B5044625466FF00100286305F1140023
:104EC000FFF740F92846FFF717FCFFF7CDFB70BD51
:104ED0001CE00F4800F01AF90446601C38B9FFF7CF
:104EE00087FF0546FFF7C2FFFFF7BEFB0CE000F0AF
:104EF00053F80546601B6FF00041884203D2641BE3
:104F00002046FFF79FFE00BFFFF720FDE1E700000E
:104F1000D800002070B5FBF715F905461448046861
:104F200094F8340000F00F0001281CD1D4E90510DA
:104F3000814218D004F11400FFF704F994F83520E9
:104F40000C4B03EBC20004F114014268116042688B
:104F50004A604160086000BF2846FBF7F7F8FFF79A
:104F600083FB002070BD2846FBF7F0F80020F9E72E
:104F7000BC000020F4A600200146002902DA4FF010
:104F8000FF3008E04FF47A724A4302F2E7324FF4FE
:104F90007A7392FBF3F07047014800687047000095
:104FA0004800002010B50A480068401C0849086005
:104FB000FFF71EFF0446A06C401EA064A06C18B949
:104FC000606CA064FFF7A6FF00F004F810BD0000BD
:104FD0004800002070B5FFF7DFFF0546FBF7B2F889
:104FE000064628E019480068A0F11404A06A281AAF
:104FF0006FF0004188421DD22046FDF730FBD4E916
:1050000007108847FFF7C8FF0546607A00F00200E6
:1050100058B1607A00F0010038B1607A20F00100E8
:105020006072204600F080F805E0607A20F0010010
:10503000607200E004E00548FFF773F80028D1D063
:1050400000BF3046FBF782F870BD0000D0000020A2
:10505000034649B1012904D0022908D0032910D1FF
:105060000AE0586A10600CE01068586209E0587A4B
:1050700020F00200587204E0587A40F002005872A2
:1050800000BF00BF002070472DE9F84304460E46DC
:1050900017469846DDF8209021460920FFF75DFA73
:1050A000054615B90020BDE8F88343463A46314627
:1050B0002846CDF80090FDF7B1FA2846F3E770B521
:1050C0000446FBF73FF805462046FDF7C8FA284698
:1050D000FBF73CF82046FFF77CFA002070BD2DE975
:1050E000F84307460C4615461E46DDE90889224668
:1050F00009213846FFF790FA43463246294638469A
:10510000CDF80090FDF78AFABDE8F88370B5044643
:105110002046FFF706F810B14FF0FF3070BD206851
:10512000A0F11405A86AF9E72DE9F8430546FBF755
:1051300009F880462846FDF792FA687A20F00100C7
:1051400068724046FBF702F8FFF726FF696A0844D9
:10515000A862FAF7F7FF8046687A00F0040008B109
:10516000384E00E0384E009600242AE019E05DF841
:1051700024201168142202EBC402881A826AAB6AE6
:10518000D21A00D108E0826AAB6AD21A6FF00043EB
:105190009A4200D20CE000BF5DF8240000684DF890
:1051A00024005DF8240006EBC40149688842DED182
:1051B00000BF2CB15DF824000830611C4DF82100BF
:1051C000641C002CD2D021480068401C1F49086094
:1051D0000846076805F114010098FEF78CFF0224C9
:1051E00012E007F0030060B9C4F1010305F11402F5
:1051F00002EBC301C4F101025DF82200FEF77BFF60
:1052000000E003E0BF08641C012CEAD900BF687A03
:1052100040F0010068724046FAF798FF687A00F0A3
:10522000040058B10A4890F8340000F00F0001283B
:1052300004D00748FFF7BEFDFFF716FA0020BDE8CF
:10524000F8830000D8000020D0000020E0000020FB
:10525000F4A7002070B50446607A00F0010010B990
:105260004FF0FF3070BDFAF76DFF05462046FDF7A1
:10527000F6F92846FAF76AFF607A20F001006072BA
:105280000020EFE72DE9FF4F89B0804644460A9899
:105290004044461E464504D24FF0FF36A6EB0800B8
:1052A0000A906FE10B980078252806D0B44202D806
:1052B0000B9800782070641C61E1002526E00B98B3
:1052C000401C0B900B9800782D2802D145F010055A
:1052D0001CE00B9800782B2802D145F0040515E05E
:1052E0000B980078202802D145F008050EE00B98B5
:1052F0000078232802D145F0200507E00B980078BC
:10530000302802D145F0010500E000E0D7E700BFFA
:105310004FF0FF370B98007830380A2804D20BA8DA
:1053200000F0F2F907460EE00B9800782A280AD11F
:105330000B98401C0B900C9880C80C90002F02DA40
:105340007F4245F010054FF0FF390B9800782E286A
:105350001CD10B98401C0B900B98007830380A2811
:1053600004D20BA800F0D0F981460AE00B9800782F
:105370002A2806D10B98401C0B900C9850F8049BDF
:105380000C90B9F1000F01DA4FF0000900200490F1
:105390000B980078682803D00B9800786C2805D10A
:1053A0000B98007804900B98401C0B900A200590F5
:1053B0000B9800786F2875D00CDC632813D004DCC0
:1053C000252870D058286FD18DE064286DD06928C9
:1053D000F9D18FE070286AD0732825D0752878D04D
:1053E0007828F0D182E005F0100040B904E0B44222
:1053F00001D820202070641C781E071EF7DC0C9852
:1054000010F8041B0C90C8B20790B44201D807985A
:105410002070641C04E0B44201D820202070641C79
:10542000781E071EF7DCAAE00C98006806900C981E
:10543000001D0C90069808B95AA006900698FFF730
:10544000C3FA8346B9F1000F02DDCB4500DDCB4640
:1054500005F0100048B904E0B44201D820202070C3
:10546000641C38467F1E5845F6DC002008900BE08F
:10547000B44202D8069800782070641C0698401C3C
:1054800006900898401C089008985845F0DB04E006
:10549000B44201D820202070641C38467F1E584535
:1054A000F6DC6CE01CE015E028E022E0FFE7781C69
:1054B00010B9082745F00105CDE9007902950C984F
:1054C00004C8102331460C902046FEF7BDF904466F
:1054D00055E012E0B44201D825202070641C4EE053
:1054E000082005901DE045F0400500BF1020059004
:1054F00017E000BF45F0020500BF12E0B44201D83A
:1055000025202070641C0B98007830B1B44202D87A
:105510000B9800782070641C02E00B98401E0B90E2
:105520002DE000BF04986C2807D10C9850F804AB0C
:105530000C9005F00200B8B116E0049868280BD171
:105540000C9830F8041B1FFA81FA0C9005F0020049
:1055500050B10FFA8AFA07E00C9850F804AB0C909F
:1055600005F0020000B100BFCDE900790295524676
:1055700031462046059BFEF767F9044600BF0B98AD
:10558000401C0B900B98007800287FF48BAEB4423F
:1055900001D8207001E000203070A4EB08000DB0AD
:1055A000BDE8F08F284E554C4C2900000020704774
:1055B00000207047002070470020704710B5FAF7B0
:1055C000C1FDFEF731FBFFF769F9FFF7DBFAFFF7E3
:1055D0009BFAFEF751FAFFF7E3FAFFF7A9FBFFF793
:1055E000B9FA002010BD00002DE9F84306468846B0
:1055F00017460025102F04D11020424908700425B9
:1056000003E00C203F4908700825B8F1000F03D0D3
:10561000B8F1010F72D125E0002420E0082090FBB2
:10562000F5F0604300F0FF09C4EBC40006EB400254
:1056300049460020FCF77AF9082090FBF5F060431A
:1056400000F0FF09C4EBC40006EB4000009782891C
:10565000062349464020FCF727F9601CC4B2AC423F
:10566000DCDB4CE0002445E0082090FBF5F06043D3
:1056700000F0FF096000C0EBC00006EB40024946A5
:105680000020FCF753F9082090FBF5F0604300F090
:10569000FF096000C0EBC00006EB40000097828964
:1056A000042349462020FCF7FFF8082090FBF5F082
:1056B000604300F0FF096000401CC0EBC00006EB37
:1056C000400249464020FCF731F9082090FBF5F0F4
:1056D000604300F0FF096000401CC0EBC00006EB17
:1056E000400000978289042349466020FCF7DCF8DB
:1056F000601CC4B2AC42B7DB01E0FFE700BF00BFF3
:10570000BDE8F883C10200200146002009E00B68D3
:105710005A1C0A601A7800EB800302EB4302A2F1E4
:1057200030000A681278303A0A2AF0D37047000035
:105730000121274881722B202549C8802221244835
:105740000181022101746220214988811C212048A5
:10575000C1810321817599201D4948821F211C4860
:10576000818204210177282019490883582118488B
:105770004183052180F8221064201549C8835621F1
:1057800013480184062180F828109E20104988843F
:105790005A210F48C184072180F82E1029200C4976
:1057A000488594210A488185082180F834106220B8
:1057B00007490886962106484186092180F83A1053
:1057C00099200349C8869521014801877047000048
:1057D00080A400202DE9F0470446894604EB8400AC
:1057E000FE4901EB800000EB490040781F2879D288
:1057F000DFE800F010112E17343A3B3C227A79553D
:1058000088A678567BC4EFEDECEBEAE9E8E7E628FA
:10581000E5E4E3007DE20121F1480068FEF7F5FDD3
:1058200077E20321EF480068FEF7EFFD0321EC4823
:105830000068FEF7EAFD6CE20821E9480068FEF71F
:10584000E4FD66E21B21E6480068FEF7DEFD60E24B
:105850000221E3480068FEF7D8FD5AE20421E0483F
:105860000068FEF7D2FD54E200BF00BF04EB8400E5
:10587000DA4A02EB800000EB49004178D948006821
:10588000FEF7C3FD04EB8400D44A02EB800000EB7A
:1058900049004178D2480068FEF7B7FD39E200BF01
:1058A000D14908680121FCF74DFDD0480068FEF79A
:1058B0009DFF04EB8400C94A02EB800000EB490025
:1058C0004178C8480068FEF7A0FD04EB8400C34A95
:1058D00002EB800000EB49004178C1480068FEF708
:1058E00094FD16E209E200BF00BF04EB8400BB4A4E
:1058F00002EB800000EB49004178B9480068FEF7F0
:1059000084FD06E2BA480078401CB9490870084690
:10591000007800EB4000B74901EB4000B64902684F
:105920000A608088888004EB8400AC4A02EB800027
:1059300000EB49004178AA480068FEF766FDE8E1FF
:10594000AB480078401EAA4908700846007800EB72
:105950004000A84901EB4000A74902680A6080881E
:10596000888004EB84009D4A02EB800000EB490034
:1059700041789B480068FEF748FDCAE19F480078DF
:10598000401C9E4908700846007800EB4000994989
:1059900001EB400198480A68C0F8062089884181D7
:1059A00004EB84008D4A02EB800000EB4900417853
:1059B0008B480068FEF729FDABE178E18DE17CE1E1
:1059C00060E133E1EAE0BDE090E063E036E01FE053
:1059D000FFE78A480078401E88490870084600782A
:1059E00000EB4000834901EB400083490268C1F8A5
:1059F00006208088488104EB8400784A02EB80000E
:105A000000EB4900417876480068FEF7FEFC80E133
:105A1000754908680021FCF795FC4FF0FF31734889
:105A20000068FEF700FF13216E480068FEF7EDFCEA
:105A300013216B480068FEF7E8FC6AE170490968C9
:105A4000C869FAF71EFE07466E4A6F4BFAF7BDFCAF
:105A50000546FAF729FE8246514669480068FDF777
:105A60008BFE6A490968C869FAF70BFE0746654A62
:105A7000654BFAF7AAFC0546FAF716FE8246514630
:105A800062480068FDF778FE142155480068FEF76B
:105A9000BCFC3EE15A490968C869FAF7F2FD0746BD
:105AA000584A594BFAF732FD0546FAF7FDFD824692
:105AB000514653480068FDF75FFE54490968C869BC
:105AC000FAF7DFFD07464F4A4F4BFAF71FFD054631
:105AD000FAF7EAFD824651464C480068FDF74CFE55
