:020000040800F2
:10000000D0B7002039020008F1140008EB01000805
:10001000ED140008E90E00089B2400080000000011
:10002000000000000000000000000000FF1B0008AE
:100030006F0F00080000000073010008111D000888
:10004000530200085302000853020008530200083C
:10005000530200085302000853020008530200082C
:10006000530200085302000853020008530200081C
:10007000530200085302000853020008530200080C
:1000800053020008530200085302000853020008FC
:1000900053020008530200085302000853020008EC
:1000A00053020008530200085302000853020008DC
:1000B000BD1D000853020008530200085302000847
:1000C00053020008530200085302000853020008BC
:1000D000530200083D220008852200085302000850
:1000E000530200085302000853020008530200089C
:1000F000530200085302000853020008530200088C
:10010000530200085302000853020008530200087B
:10011000530200085302000853020008530200086B
:10012000530200085302000853020008530200085B
:10013000DFF80CD000F086FB00480047DF0800081D
:10014000D0B70020EFF3108072B6704780F31088AC
:100150007047334A1368012B04D04FF0010313603A
:10016000304A1060304A116030484FF080510160D1
:100170007047EFF3108272B62948016891B14FF0D1
:10018000000101602748016829B1EFF3098121E9E5
:10019000F00F00680160244909680968B1E8F00FB0
:1001A00081F3098882F310884EF0040E70471E49CF
:1001B00008601C494FF00000086019494FF0010029
:1001C00008601B484FF47F01D0F8002041EA02018B
:1001D000016016484FF080510160164800680068C1
:1001E00080F3088861B662B670471EF0040F0CBF3A
:1001F000EFF30880EFF3098020E9F00F40F804EDF9
:100200001EF0040F0CBF80F3088880F3098800B546
:1002100003F026FD5DF804EB4EF0040E704700007D
:10022000E8000020E0000020E400002004ED00E0F1
:1002300020ED00E008ED00E0064880470648004752
:10024000FEE7FEE7FEE7FEE7FEE7FEE7FEE7FEE786
:10025000FEE7FEE75D1D00083101000840EA0103EA
:100260009B0703D009E008C9121F08C0042AFAD26C
:1002700003E011F8013B00F8013B521EF9D2704730
:10028000D2B201E000F8012B491EFBD270470022D8
:10029000F6E710B513460A4604461946FFF7F0FF85
:1002A000204610BD034611F8012B00F8012B002A4F
:1002B000F9D118467047F0B480EA0102D40F420029
:1002C000B2EB410F02D20246084611464A0042D024
:1002D000C30DDDB2C1F3C752AD1A202D35DAC1F31B
:1002E000160141F4000204B15242C5F1200602FA9F
:1002F00006F12A411044B3EBD05F23D0C4B1012DE5
:10030000A0EBC35009DCF0BC4FF0004202EAC3523C
:10031000DBB200F5000000F009BA400000F1807087
:1003200000EBC350A0F1807040EAD170490009E0B1
:10033000490841EAC071A0EBC35000F50000400835
:1003400000EBC350F0BC00F0E8B96142012202EBBF
:100350004101001BF6E7F0BC704781F00041AAE7BD
:1003600080F00040A7E780EA010210B502F00043E8
:10037000400022D04A001FD0010E01EB1261C0F3F1
:100380005600C2F3560240F4000042F40002A0FB03
:10039000022000047F39140400D0401C50EA1240AF
:1003A00001D44000491EC2B20C0604EBD010401C20
:1003B0004008802A02D003E0002010BD20F0010098
:1003C000002900DA0020184310BD2DE9FE4F8046B9
:1003D00081EA0300C00F0C46009021F0004123F099
:1003E0000045B8EB0200A94105D24046214690469F
:1003F0001C460B46024623F00040104347D0270D11
:10040000C7F30A00C3F30A510290401A0190402832
:100410006BDAC3F3130040F4801B0098924620B1BE
:100420000023D2EB030A63EB0B0B01985946C0F192
:100430004002504600F050F906460D4650465946D7
:10044000019A00F058F910EB08006141002487EA96
:10045000115284EAE7731A4340D0009A62B3019ABA
:10046000012A4FEA075215DC001B61EB02014FF035
:10047000004202EA0752CDE90042001C41F580111A
:1004800032462B4600F08FF903B0BDE8F08F4046AE
:100490002146F9E7001B61EB0201001C41F58013C6
:1004A00000185B412018A2F5001747EB030140EA52
:1004B000D570B6196D4111E06D084FEA360645EA70
:1004C000C0754FEA0752001B61EB0201001C41F5A9
:1004D000801149084FEA30000019514132462B463D
:1004E00003B0BDE8F04F00F04FB900980122400082
:1004F0000023D0EB020263EBE073009821464FEA41
:10050000E074B8EB000061EB0401E9E783F000431D
:100510005BE781F0004158E72DE9FE4F81EA0304D3
:1005200004F0004421F0004100944FF0000B23F050
:10053000004350EA01045ED052EA03045BD0C3F3E7
:100540000A54C1F30A552C44A4F2F3340194A0FBDD
:100550000254C1F3130141F48011C3F3130343F4B4
:10056000801301FB024400FB034E840A970A44EA0D
:10057000815447EA8357A4FB076802958D0A05FB5F
:1005800007854FEA932C04FB0C542705029D4FEA84
:10059000065847EA1637B5EB08056EEB070C870ED1
:1005A000920E47EA811742EA8312A7FB0201B6EBDB
:1005B0000B0164EB00042B0D43EA0C335E1844EB93
:1005C0001C50DA465146E7FB0201C5F313044FEA1B
:1005D0000B3343EA14534FEA0432019C43EA060307
:1005E000A4F10C040294009CCDE900B400F0DBF807
:1005F00003B0BDE8F08F00200146F9E7C10F80EAA3
:10060000E0700844CA079623002100F08FB80EB5A9
:1006100040F2334102910021CDE900110A460B4618
:1006200000F0C1F803B000BD20F00040C10DC0F3E0
:10063000160040F400007F2901DA00207047962957
:1006400003DCC1F19601C840704796398840704775
:1006500000F0004230F000400AD0C10D01F5607199
:10066000C0F3160042EA0151C20840071143704727
:1006700000200146704701F0004330B421F00041F2
:1006800050EA010206D00A0DA2F56072C1F313010F
:10069000002A02DC30BC00207047440F44EAC10449
:1006A000C100E01830BC00EBC25000F036B80000CA
:1006B000002801DBC0F10040002901DBC1F100414D
:1006C00081427047002801DBC0F10040002901DBB6
:1006D000C1F1004188427047202A04DB203A00FA29
:1006E00002F1002070479140C2F1200320FA03F389
:1006F000194390407047202A06DBCB17203A41FA75
:1007000002F043EAE07306E041FA02F3D040C2F19E
:10071000200291400843194670470029A8BF70473E
:10072000401C490008BF20F00100704710B4B0FA27
:1007300080FC00FA0CF050EA010404BF10BC7047C2
:1007400049B1CCF1200421FA04F411FA0CF118BFDC
:10075000012121430843A3EB0C01CB1D4FEA0061AB
:100760004FEA102042BF002010BC704700EBC3507E
:1007700010440029A4BF10BC7047401C490008BFAA
:1007800020F0010010BC704710B5141E73F1000476
:1007900008DA401C41F1000192185B411A4301D173
:1007A00020F0010010BD2DE9F04D92469B4611B19D
:1007B000B1FA81F202E0B0FA80F220329046FFF7FF
:1007C0008BFF04460F4640EA0A0041EA0B015346FC
:1007D0005A46084313D0114653EA010019D0C8F114
:1007E0004002504600F040F805460E465046594635
:1007F0004246FFF771FF084305D0012004E0204680
:100800003946BDE8F08D0020054346EAE0762C43EA
:1008100037430A986305E40AA0EB08000022FD0AAA
:1008200044EA47540A3002D500200146E9E70105B1
:1008300010196941DDE9084500196941BDE8F04D2D
:10084000A2E70000064C074D06E0E06840F0010317
:1008500094E8070098471034AC42F6D3FFF76CFCDD
:100860000C6A00082C6A0008202A04DB203A21FACE
:1008700002F00021704721FA02F3D040C2F12002B9
:10088000914008431946704770B58C1810F8015B09
:1008900015F0070301D110F8013B2A1106D110F819
:1008A000012B03E010F8016B01F8016B5B1EF9D11D
:1008B0002B0705D40023521E0DD401F8013BFAE7A3
:1008C00010F8013BCB1A921C03E013F8015B01F80E
:1008D000015B521EF9D5A142D8D3002070BD10B5DE
:1008E000FFF730FC04F0F0FD002010BD10B5FF2034
:1008F00000F038F80446362C01D1002010BD362116
:10090000FF2000F0C5F8FF2000F02CF80446362C3C
:1009100001D10020F2E70120F0E700001FB50E48EA
:100920000E4908604860102048812020088140203E
:100930000861C8600A484861001D886108487C3821
:10094000C8610B4610330FCB8DE80F0003480FC86A
:1009500000F0BCFB1FBD00000018014074B3002074
:100960009001234270B586B004460026474B1033F1
:100970000FCB8DE80F0045480FC800F05CFC254602
:10098000E01704EB10600012A02101EB4000C0B2A0
:100990003E4A0490D2E90430D2E90612CDE9003093
:1009A000CDE9021239480FC800F012FC374BD3E9E9
:1009B0000420D3E90613CDE90213CDE90020334822
:1009C0000FC800F074FCE01704EB10600012A4EBF9
:1009D0000020C0B22D4B0490D3E90420D3E90613C4
:1009E000CDE90213CDE9002028480FC800F0F0FB44
:1009F000264B10330FCB8DE80F0024480FC800F0B2
:100A000056FC224BD3E905021969DB69CDE90223C3
:100A1000CDE900101D480FC800F00DFCA1201B4BB4
:100A2000049010330FCB8DE80F0018480FC800F06A
:100A3000CFFB164BD3E90420D3E90613CDE902130B
:100A4000CDE9002011480FC800F031FC00200F4B09
:100A50000490D3E905021969DB69CDE90223CDE9E8
:100A600000100A480FC800F077FB0646074BD3E991
:100A70000420D3E90613CDE90213CDE90020034891
:100A80000FC800F0F6FB304606B070BD74B300200E
:100A900070B586B004460E463949D1E905030A69A6
:100AA000C969CDE90231CDE9002035480FC800F011
:100AB000C2FB2546E01704EB10600012A02101EBF9
:100AC0004000C0B22E490490D1E905030A69C96902
:100AD000CDE90231CDE9002029480FC800F078FBAC
:100AE000274B10330FCB8DE80F0025480FC800F0BF
:100AF000DEFBE01704EB10600012A4EB0020C0B294
:100B00001F4B0490D3E905021969DB69CDE9022383
:100B1000CDE900101A480FC800F05AFB184BD3E972
:100B20000420D3E90613CDE90213CDE900201448CF
:100B30000FC800F0BCFB124B049610330FCB8DE8AE
:100B40000F000F480FC800F043FB0D4B10330FCBC5
:100B50008DE80F000A480FC800F0A9FB084BD3E945
:100B600005211869DB69CDE90213CDE900020448CB
:100B70000FC800F07EFB0A2004F098F806B070BDA4
:100B800074B3002008B5124801F0AEFD00F0F4FC8B
:100B9000012000900F4803780FA200210C4805F0B7
:100BA00075FA012000230EA204210090084805F0E8
:100BB0006DFA012000230CA205210090044805F0E5
:100BC00065FA10220121024804F094FC08BD0000DF
:100BD00094B20020400000207365744100000000C2
:100BE0006E6578740000000065786974000000008C
:100BF00008B5124801F078FD00F0BEFC012000901D
:100C00000F4803780FA200210C4805F03FFA01209D
:100C100000230EA204210090084805F037FA0120B5
:100C200000230CA205210090044805F02FFA1022A1
:100C30000121024804F05EFC08BD000094B20020CF
:100C40004100002073657442000000006E657874F6
:100C500000000000657869740000000038B528487D
:100C600001F042FD00F088FC26490968C869264960
:100C7000FFF779FB0546FFF7D7FC84B20120234636
:100C800022A2002100901E4805F000FA1D490968C3
:100C9000086A1D49FFF767FB0546FFF7C5FC84B2EC
:100CA000012023461AA201460090154805F0EEF9EE
:100CB00014490968486A1449FFF755FB0546FFF7D0
:100CC000B3FC84B20120234612A2022100900C48FA
:100CD00005F0DCF9012000230FA204210090084850
:100CE00005F0D4F9012000230DA20521009004484D
:100CF00005F0CCF910220121014804F0FBFB38BDBE
:100D000094B2002034000020000020414B7000000D
:100D10004B6900004B6400006E6F777400000000A8
:100D200065786974000000001FB50024C5E04FF02D
:100D3000FF316248006803F0FCFC0446002C7CD1C3
:100D40005F48604A127800EB8200B0F902105E48FA
:100D5000006801F06CFC5A485A4A127830F92210A7
:100D60005A48006801F063FC5949B1F90200FFF7E5
:100D700045FC054654480068294602695248006807
:100D800090475349B1F90000FFF738FC05464F483A
:100D90000068294602694D48006890474A48006843
:100DA00041684C48FFF787FA05464B49FFF78AFC34
:100DB0000CD240F2EE20494A0390103207CA8DE867
:100DC000070046480FC802F099FD2AE03E48006837
:100DD00041684048FFF76FFA05464149FFF768FC54
:100DE0000BD2FA203D4A0390103207CA8DE8070063
:100DF0003A480FC802F082FD13E0334800684168AA
:100E00003448FFF758FA0646FFF70EFC85B2334A1E
:100E10000395103207CA8DE8070030480FC802F06A
:100E20006DFD2A48006841682A48FFF744FA0546E4
:100E30002949FFF747FC0ED200E039E040F2EE20EE
:100E4000284A0390103207CA8DE8070025480FC8CA
:100E500002F054FD2CE01D48006841681D48FFF772
:100E60002AFA05461E49FFF723FC0BD2FA201D4A39
:100E70000390103207CA8DE807001A480FC802F025
:100E80003DFD15E01148006841681248FFF713FA6C
:100E90000646FFF7C9FB85B2124A0395D2E9041052
:100EA0009269CDE9010200910E480FC802F026FDBB
:100EB0000248006803F020FC044638E72C000020BC
:100EC000A4A40020420000203400002038000020AC
:100ED0003C0000200000FA4300803B4494B3002013
:100EE00000007A43B0B3002000BFFEE700F080515D
:100EF00011B10349086001E00249486070470000F1
:100F0000040402400000024021B1026842F00102E4
:100F1000026004E002684FF6FE731A4002607047F8
:100F20001AB103680B43036002E003688B4303605C
:100F3000704710B50022026847F6F0739A430C6AB6
:100F40008B6823430C6923434C6923438C692343F7
:100F5000CC6923434C6A23438C6A23431A430260BF
:100F6000CB6843600B6883604B68C36010BD7047FB
:100F70002DE9F04102460025002600200023002430
:100F8000002791F803C00CF00F0591F803C00CF096
:100F9000100CBCF1000F03D091F802C04CEA05051B
:100FA00091F800C0BCF1000F31D0146800202BE094
:100FB0004FF0010C0CFA00F3B1F800C00CEA030684
:100FC0009E4220D183004FF00F0C0CFA03F7BC4374
:100FD00005FA03FC4CEA040491F803C0BCF1280FA5
:100FE00006D14FF0010C0CFA00FCC2F814C00AE064
:100FF00091F803C0BCF1480F05D14FF0010C0CFA79
:1010000000FCC2F810C0401C0828D1D31460B1F80D
:1010100000C0BCF1FF0F34DD546800202EE000F169
:10102000080C4FF0010808FA0CF3B1F800C00CEA04
:1010300003069E4221D183004FF00F0C0CFA03F7F8
:10104000BC4305FA03FC4CEA040491F803C0BCF16C
:10105000280F05D100F1080C08FA0CF8C2F814802A
:1010600091F803C0BCF1480F07D100F1080C4FF014
:10107000010808FA0CF8C2F81080401C0828CED3EA
:101080005460BDE8F08141617047016170470FB461
:101090001FB500200B9908600AA80FC88DE80F0043
:1010A00006A80FC800F098FD00200C9908600220E7
:1010B00002F0FCFE01200B990860052002F0F6FE0C
:1010C00000200B9908601FBC5DF814FB0FB408B535
:1010D000DDE9052141EA0200012100F0F3FCBDF841
:1010E0001200ADF8000003208DF8020010208DF8EA
:1010F000030069460398FFF73BFFBDF81000ADF809
:10110000000069460298FFF733FF01200799086045
:101110000899086001B05DF814FB0FB41FB50020FA
:101120000B9908600AA80FC88DE80F0006A80FC821
:1011300000F052FD01200C990860022002F0B6FE7A
:1011400001200B990860052002F0B0FE00200B99E9
:1011500008601FBC5DF814FB0FB47FB5109E00241F
:101160000CA80FC88DE80F0008A80FC800F024FDD8
:10117000002514E000200D990860022002F096FE80
:1011800001200D9908606006040E0F98006808B1F0
:10119000601CC4B2012002F089FE681CC5B2082D93
:1011A000E8DB46B90CA80FC88DE80F0008A80FC8E7
:1011B000FFF7B3FF07E00CA80FC88DE80F0008A8E1
:1011C0000FC8FFF764FF204604B070BC5DF814FB45
:1011D0000FB47FB5109C0CA80FC88DE80F0008A8AD
:1011E0000FC800F0F9FC00200D99086000251DE0F3
:1011F00004F08000002803DD01200E99086002E061
:1012000000200E9908606006040E022002F04EFED7
:1012100001200D990860022002F048FE00200D997F
:101220000860022002F042FE681CC5B2082DDFDB18
:101230007FBC5DF814FB0FB41FB50AA80FC88DE87A
:101240000F0006A80FC800F0C7FC01200C99086029
:101250000B990860052002F029FE00200C99086017
:10126000062002F023FE00200B9908601FBC5DF8E9
:1012700014FB0FB41FB50AA80FC88DE80F0006A80D
:101280000FC800F0A9FC00200B9908600C990860B9
:1012900001200B990860062002F008FE01200C993D
:1012A0000860062002F002FE1FBC5DF814FB0FB4BC
:1012B0001FB500240AA80FC88DE80F0006A80FC8A4
:1012C00000F07AFC01200C99086002F0EFFD01208B
:1012D0000B99086002F0EAFD10E0601CC4B2FA2C21
:1012E0000CDD0AA80FC88DE80F0006A80FC8FFF78D
:1012F000C0FF012004B010BC5DF814FB0D9800681D
:101300000028EAD10B99086000BFF3E708B5012176
:10131000082000F0D7FB0121082000F0D3FB0121B9
:10132000082000F0CFFB0121082000F0CBFB0121B9
:10133000082000F0C7FB0121082000F0C3FB0121B9
:10134000402000F0BFFB0121402000F0BBFB482003
:101350008DF8030003208DF802001020ADF8000086
:1013600069461B48FFF704FE2020ADF800006946DF
:101370001748FFF7FDFD4020ADF80000694614480E
:10138000FFF7F6FD8020ADF8000069461048FFF732
:10139000EFFD4FF48070ADF8000069460C48FFF790
:1013A000E7FD4FF40070ADF8000069460848FFF70C
:1013B000DFFD0120ADF8000069460648FFF7D8FDC3
:1013C0000220ADF8000069460248FFF7D1FD08BDD4
:1013D000000C01400018014010B504464048007858
:1013E00001284ED13F480068D0B13E48001D00683A
:1013F000B0B13C480830006890B13A480C30006801
:1014000070B138481030006850B136481430006868
:1014100030B13548006818B13348001D006878BB0A
:10142000082003F043FC00202D4908702D48006877
:1014300008B9012010BD2B48001D006808B9022022
:10144000F8E728480830006808B90320F2E7254883
:101450000C30006808B90420ECE72248103000681E
:1014600008B90520E6E71F481430006808B90620CF
:10147000E0E71D48006808B90720DBE70820D9E746
:10148000FFE718480068012823D11648001D0068AE
:1014900001281ED1134808300068012819D11148CD
:1014A0000C300068012814D10E4810300068012863
:1014B0000FD10C481430006801280AD10A4800688E
:1014C000012806D10848001D0068012801D10449FF
:1014D0000870012C02D10120014908700020A9E701
:1014E000FC000020108121420001234200BFFEE7E2
:1014F0007047000070B5002100230F22C47804B3A8
:10150000154C246804F4E064C4F5E064210AC1F1D8
:101510000403CA40447804FA03F184781440214358
:1015200009010E4C0678A155047804F01F0501242A
:10153000AC4005786D11AD0005F1E025C5F800411E
:1015400009E0047804F01F050124AC40044D06783E
:10155000761145F8264070BD0CED00E000E400E097
:1015600080E100E002490143024A11607047000037
:101570000000FA050CED00E070B5002419E004F15C
:10158000B001C8B2002100F0C3F90021022000F030
:10159000BFF90021102000F0BBF9002505E0012172
:1015A000002000F0B5F9681CC5B2802DF7DB601C87
:1015B000C4B2082CE3DB70BD08B50121202000F087
:1015C00081FA10208DF8030003208DF8020001201D
:1015D000ADF8000069466448FFF7CAFC0420ADF886
:1015E000000069466048FFF7C3FC0220ADF8000028
:1015F00069465D48FFF7BCFC1020ADF80000694665
:101600005948FFF7B5FC0820ADF800006946564878
:10161000FFF7AEFC01215448FFF737FD0421524883
:10162000FFF733FD02215048FFF72FFD10214E48F0
:10163000FFF72BFD08214C48FFF727FD04214A48FE
:10164000FFF723FD642001F089F804214648FFF7E5
:101650001AFD642001F082F804214348FFF715FDCC
:101660000021AE2000F054F90021022000F050F9D2
:101670000021102000F04CF90021402000F048F932
:101680000021812000F044F90021CF2000F040F932
:101690000021A12000F03CF90021C82000F038F919
:1016A0000021A62000F034F90021A82000F030F934
:1016B00000213F2000F02CF90021812000F028F9C2
:1016C0000021FF2000F024F90021D32000F020F9B0
:1016D0000021084600F01CF90021D52000F018F97F
:1016E0000021802000F014F90021D92000F010F929
:1016F0000021F12000F00CF90021DA2000F008F9B7
:101700000021122000F004F90021DB2000F000F994
:101710000021402000F0FCF80021202000F0F8F823
:101720000021022000F0F4F800218D2000F0F0F8F4
:101730000021142000F0ECF80021A42000F0E8F8CB
:101740000021A62000F0E4F80021AF2000F0E0F82E
:101750000021AF2000F0DCF8FFF70EFF0021084663
:1017600000F004F808BD00000014014070B5044604
:101770000D4605F1B001C8B2002100F0C9F81021F2
:1017800041EA1410002100F0C3F804F00F0141F009
:101790000100002100F0BCF870BD00002DE9F0410F
:1017A00007460E46904600250024A8F12000C5B249
:1017B0007F2F02DD0027B01CC6B21F48007810281A
:1017C00024D131463846FFF7D1FF002408E004EB6E
:1017D00005111A4A505C012100F09AF8601CC4B24D
:1017E000082CF4DB701CC1B23846FFF7BFFF0024A1
:1017F00009E004EB05110831104A505C012100F0AA
:1018000087F8601CC4B2082CF3DB12E0314638467E
:10181000FFF7ACFF00240AE005EB4501084A02EBA4
:101820004101085D012100F073F8601CC4B2062C70
:10183000F2DBBDE8F0810000BD0200200A64000870
:10184000E26100082DE9FF5F074691461D460E9EA6
:101850004FF0000A002433E0281B401EC1B20A20CA
:1018600001F055FEB9FBF0F00A21B0FBF1F201FBEB
:101870001208BAF1000F13D1681EA04210DDB8F1B2
:10188000000F0BD1B34606EBDB71491001FB04716D
:10189000C8B220220199FFF781FF0FE04FF0010A43
:1018A000B34606EBDB71491001FB0471C8B208F1C5
:1018B0003001CAB20199FFF771FF00BF601CC4B2CA
:1018C000AC42C9DBBDE8FF9F2DE9F04104460F465D
:1018D0001546002615E0AA5D39462046FFF75EFF53
:1018E0000A480078102803D104F10800C4B201E0CE
:1018F000A01DC4B2782C02DD0024B81CC7B2701C35
:10190000C6B2A85D0028E6D1BDE8F081BD02002086
:1019100070B504460E4626B102211848FFF7B5FB04
:1019200003E002211548FFF7AEFB01211348FFF742
:10193000AAFB002517E010211048FFF7A4FB04F0D4
:10194000800020B108210D48FFF79FFB03E008212C
:101950000A48FFF798FB10210848FFF796FB60063E
:10196000040E681CC5B2082DE5DB01210348FFF712
:101970008CFB02210148FFF788FB70BD0014014079
:101980000FB410B588B0119C01210B9800F09AF8A3
:1019900001210E9800F086F8BDF83000ADF8000087
:1019A00003208DF8020018208DF8030069460A987C
:1019B000FFF7DEFABDF84000401E80B2ADF8180017
:1019C000ADF814400020ADF81A00ADF8160005A9D6
:1019D0000D9800F0C5FB6020ADF804000020ADF8C4
:1019E0000C000120ADF80600BDF83E00ADF80A007D
:1019F000BDF83C0030B1042809D008280CD00C28D0
:101A000014D10EE001A90D9800F046FA0EE001A9EC
:101A10000D9800F097FA09E001A90D9800F0F2FA8C
:101A200004E001A90D9800F047FB00BF00BFBDF81E
:101A30003C0030B1042809D008280CD00C2814D15F
:101A40000EE008210D9800F073FA0EE008210D98C1
:101A500000F0CAFA09E008210D9800F023FB04E029
:101A600008210D9800F066FB00BF00BF01210D9812
:101A700000F0E6F901210D9800F0F1F908B010BC72
:101A80005DF814FB29B1064A52690243044B5A61BE
:101A900004E0034A52698243014B5A6170470000D7
:101AA0000010024029B1064AD2690243044BDA61B0
:101AB00004E0034AD2698243014BDA6170470000B7
:101AC0000010024029B1064A92690243044B9A6110
:101AD00004E0034A92698243014B9A617047000017
:101AE0000010024030B500210022002400232D4DBB
:101AF0006D6805F00C0121B1042905D0082923D116
:101B000005E0294D056022E0274D05601FE0254DC9
:101B10006D6805F47012234D6D6805F4803402255C
:101B200005EB92421CB9214D554305600BE01D4D5C
:101B30006D6805F400351DB11C4D5543056002E08C
:101B4000194D5543056002E0174D056000BF00BF09
:101B5000144D6D6805F0F0010909154D6B5C0568C1
:101B6000DD4045600F4D6D6805F4E061090A104DD8
:101B70006B5C4568DD4085600A4D6D6805F4605119
:101B8000C90A0B4D6B5C4568DD40C560054D6D684D
:101B900005F44041890B074D6B5CC568B5FBF3F557
:101BA000056130BD0010024000127A0000093D00BE
:101BB000C4020020D40200200FB408B5BDF8100004
:101BC000ADF8000048208DF8030069460298FFF741
:101BD000CFF901B05DF814FB0FB408B5BDF81000E3
:101BE000ADF8000003208DF8020010208DF80300EE
:101BF00069460298FFF7BCF901B05DF814FB704725
:101C000010B500F001F810BD0CB500200190009057
:101C10003348006840F480303149086000BF3048E4
:101C2000006800F4003000900198401C019000987A
:101C300018B90198B0F5A06FF1D12948006800F4F7
:101C4000003010B10120009001E0002000900098C9
:101C5000012843D12348006840F010002149086062
:101C60000846006820F0030008600846006840F05D
:101C7000020008601A4840681949486008464068F0
:101C800048600846406840F4806048600846406804
:101C900020F47C1048600846406840F4E810486032
:101CA0000846006840F08070086000BF0C4800687B
:101CB00000F000700028F9D00948406820F00300C7
:101CC000074948600846406840F00200486000BF8D
:101CD0000348406800F00C000828F9D10CBD000052
:101CE0000010024000200240042808D14FF0E021FB
:101CF000096941F004014FF0E022116107E04FF063
:101D0000E021096921F004014FF0E02211617047E0
:101D100010B502F0DFF803F0CBF802F0EBF810BDDD
:101D200010B504466FF00400FFF7DEFFE11704EB87
:101D30005171C1F3C701074A11701046007800EBDA
:101D40004001C1EBC0104FF6FF7101EAC00002492B
:101D5000088010BDC0020020C202002010B5134848
:101D6000006840F0010011490860084640681049C9
:101D700008400E494860084600680E4908400B4973
:101D800008600846006820F4802008600846406823
:101D900020F4FE0048604FF41F008860FFF730FF1A
:101DA0004FF000600449086010BD000000100240C0
:101DB0000000FFF8FFFFF6FE08ED00E010B501217E
:101DC000880700F058F870B319480078401C18498B
:101DD000087008460078642801DD00200870144867
:101DE0000078282190FBF1F201FB1200012809D1B3
:101DF0001048007830B1FFF7BFFB0C2201210E48DC
:101E000003F078FB0A480078142190FBF1F201FB03
:101E10001200022807D10948006820B90020FFF706
:101E2000DBFA064908600121880700F015F810BDAB
:101E3000BF020020BE02002094B20020F00000206B
:101E400021B1028842F08002028004E002884FF64D
:101E50007F731A4002807047CA430282704721B1E3
:101E6000028842F00102028004E002884FF6FE730D
:101E70001A400280704730B502460020002300243B
:101E8000158A05EA0103958905EA010413B10CB12D
:101E9000012000E0002030BD70B5002400220023A6
:101EA000058C4FF6FE7635400584028C8388048BC2
:101EB0004FF68F752C40B51E2C400D882C43751E97
:101EC0002A400D892A434D882A43144DA8420BD03D
:101ED000134DA84208D0134DA84205D0124DA84278
:101EE00002D0124DA84213D14FF6F7752A404D8902
:101EF0002A434FF6FB752A408D882A434FF6FF652B
:101F00002B404FF6FF552B408D892B43CD892B431A
:101F100083800483CD888586028470BD002C0140B7
:101F200000340140004001400044014000480140AD
:101F30000A460021018B4FF6F773194011430183C4
:101F40007047000070B5002400220023058C4FF676
:101F5000EF7635400584028C8388048B48F6FF7544
:101F60002C404FF6FF452C400D884FF6FF7606EAD1
:101F700005252C434FF6DF752A400D8906EA051525
:101F80002A434D8806EA05152A43154DA84202D07A
:101F9000144DA8421DD14FF67F752A404D894FF64A
:101FA000FF7606EA05152A434FF6BF752A408D884D
:101FB00006EA05152A434FF6FF352B404FF2FF7511
:101FC0002B408D8906EA85052B43CD8906EA8505D8
:101FD0002B4383800483CD880587028470BD000075
:101FE000002C0140003401400A460021018B4FF2D1
:101FF000FF7319404FF6FF7303EA0223194301836D
:102000007047000070B5002400220023058C4FF6B5
:10201000FF6635400584028C8388848B4FF68F756C
:102020002C404FF6FC752C400D882C434FF6FF5585
:102030002A400D894FF6FF7606EA05252A434D888A
:1020400006EA05252A43154DA84202D0144DA842A0
:102050001DD14FF2FF752A404D894FF6FF7606EAF3
:1020600005252A434FF6FF352A408D8806EA0525C7
:102070002A434EF6FF752B404DF6FF752B408D8998
:1020800006EA05152B43CD8906EA05152B43838007
:102090008483CD888587028470BD0000002C0140B8
:1020A000003401400A460021818B4FF6F773194036
:1020B000114381837047000070B500220023002483
:1020C000058C4EF6FF7635400584038C8488828B20
:1020D00048F6FF752A404FF6FF452A400D884FF617
:1020E000FF7606EA05252A434DF6FF752B400D893C
:1020F00006EA05352B434D8806EA05352B430B4D83
:10210000A84202D00A4DA84208D14BF6FF752C40D8
:102110008D894FF6FF7606EA85152C4384808283ED
:10212000CD88A0F84050038470BD0000002C014011
:10213000003401400A460021818B4FF2FF731940A1
:102140004FF6FF7303EA02231943818370478186A8
:1021500070470187704781877047A0F8401070472B
:10216000002202881D4B98420ED01D4B98420BD086
:10217000B0F1804F08D01B4B984205D01A4B9842C3
:1021800002D01A4B984204D14FF68F731A404B88F5
:102190001A43174B984207D0164B984204D04FF67B
:1021A000FF431A40CB881A4302808B8883850B88B3
:1021B00003850A4B98420BD0094B984208D00E4B2E
:1021C000984205D00D4B984202D00D4B984201D158
:1021D0000B7A03860123838270470000002C0140A4
:1021E000003401400004004000080040000C0040A2
:1021F0000010004000140040004001400044014035
:102200000048014008B50A4800F06EFAFFF7B4F93B
:10221000012000900748037807A20021044803F03A
:1022200035FF0C220121024803F064F908BD0000CB
:1022300094B20020280000207069640000B58BB0C3
:1022400001F048FE40F224410B4800F061F878B1FB
:102250000A48006828220A490A906846FDF7FEFFEE
:10226000074810380FC801F039F9034800F00CF99D
:1022700001F040FE0BB000BD003801400800002016
:1022800034B2002000B58BB001F024FE40F22441AE
:102290000B4800F03DF878B10A48006828220A4946
:1022A0000A906846FDF7DAFF074810380FC801F0BA
:1022B00015F9034800F0E8F801F01CFE0BB000BD72
:1022C000004400400C0000206CB2002021B1828943
:1022D00042F40052828104E082894DF6FF731A4075
:1022E000828170471AB1838A0B43838202E0838A1A
:1022F0008B438382704702460020B1F5007F00D1F6
:1023000000BF13880B400BB1012000E00020704794
:1023100070B50246002400230025002040F66A160E
:10232000B14200D100BFC1F3421501F01F030126E5
:1023300006FA03F3012D02D19689334006E0022DFF
:1023400002D1168A334001E0968A33400C120126EE
:1023500006FA04F41688344013B10CB1012000E0F1
:10236000002070BDF0B503460024002600250020A3
:1023700040F66A17B94200D100BF1846C1F34214B3
:1023800001F01F06012707FA06F5012C01D10C30D8
:1023900004E0022C01D1103000E014301AB10768BB
:1023A0002F43076002E00768AF430760F0BD0000FD
:1023B0002DE9F04786B005460E460024A24600BF30
:1023C000A1460027B08900B100BF2F462C8A4CF6E9
:1023D000FF700440F08804432C82AC894EF6F31061
:1023E0000440B08831890843718908430443AC81B3
:1023F000AC8A4FF6FF400440B0890443AC8201A888
:10240000FFF770FB1F48874202D1DDF810A001E002
:10241000DDF80CA0A88900F4004040B10AEBCA0026
:1024200000EB0A1031684900B0FBF1F807E00AEB55
:10243000CA0000EB0A1031688900B0FBF1F8642093
:10244000B8FBF0F004012009642101FB1089A88980
:1024500000F4004040B1322000EBC900B0FBF1F0C5
:1024600000F00700044308E0322000EB091064216B
:10247000B0FBF1F000F00F0004432C8106B0BDE882
:10248000F08700000038014001468888C0F308004A
:102490007047C1F308028280704700BFFEE700006A
:1024A000014609B900207047C8B220B1C8B20E4A2F
:1024B000105C401CF7E701F47F4028B10A48C1F3E3
:1024C0000722805C0930EEE701F47F0028B106485E
:1024D000C1F30742805C1130E5E7034800EB11606F
:1024E00000781930DFE70000C060000802E008C88B
:1024F000121F08C1002AFAD170477047002001E07E
:1025000001C1121F002AFBD170470000034908686F
:10251000884201D0012070470020FCE7C400002061
:102520002DE9FC5F04468B4615461E46DDE90C9AF4
:10253000DDE90E7804F114004060006000BF1C3437
:102540006560A660C4F80C90C4F810A02321D4E9FB
:10255000030201F064FFD4E9033C63441A1F0F4BEC
:10256000D4E9010101F07CFC2060A77667760020A9
:10257000E061C4F82880C4F82C8060612076E065B2
:1025800020661C3C00902346054A2146019004F138
:102590004C0002F02AFD0020BDE8FC9F5D4B0008C6
:1025A000BD4D00082DE9F04704460E4617469846F3
:1025B000DDF8209084F80990607A20F001006072C4
:1025C000E66127620020A062C4F82480002506E0AE
:1025D00004F1140101EBC50001F002FD6D1C012D99
:1025E000F6DBBDE8F08710B50246002001460EE09C
:1025F00002F1140303EBC100D0E900436360D0E9AA
:10260000003423604060006000BF481C014601297F
:10261000EEDB10BD70B50546284601F023FD0446EB
:102620000CB9002070BD0020E0602046FAE770B5CC
:1026300004460D462846FDF7E1FF2060002070BDEE
:102640001FB5044618481949086004204860402016
:1026500008811748C860022008610020888212485B
:102660001449086004204860802008811048C86030
:1026700002200861042088820C4A0394D2E90410E5
:102680009269CDE90102009108480FC801F018F9DC
:10269000084A0394103207CA8DE8070005480FC89E
:1026A00001F00EF91FBD00000008014094B30020A6
:1026B00000040040B0B30020002410E04FF0FF31D0
:1026C0000748006802F035F8044644B90549086B2C
:1026D00000F028FF034A918E106BFDF7D8FDEDE75F
:1026E0000C0000205CB20020024600210EE0C1EB8D
:1026F000C10002EB400007A31B8803800020C1EB50
:10270000C10302EB43039881481CC1B21029EEDBE0
:102710000120704720000000002411E04FF0FF313D
:102720000848006802F005F804464CB90648C16A3A
:1027300006A001F037FC044A918ED06AFDF7A7FD90
:10274000ECE700000800002024B20020CAD5B5BD87
:10275000CAFDBEDD3A25730A000000000146114A99
:1027600012884A434FF0E0235A6100229A611A46C8
:10277000126942F001021A6100BF4FF0E0221069B5
:1027800000F001021AB100F48032002AF5D04FF0B7
:10279000E022126922F001024FF0E0231A610022C8
:1027A0009A617047C20200201CB50024F3E04FF08C
:1027B000FF3201A97848006801F033FD0446002C7F
:1027C000F4D101981B286ED2DFE800F0DF0E1A1456
:1027D00020232433175751544142DF6A6E5A5B71EC
:1027E00085869E9FB7B8D00003F02CFA6BA001F04D
:1027F000D9FBCFE0FFF706FDCCE0FEF7C3F9C9E057
:1028000000F0B4F96FA001F0CDFBC3E000F0AEF929
:10281000C0E000BF002000907448037874A200213B
:10282000744803F033FC0C220121724802F062FE6E
:10283000B0E00120002370A2014600906D4803F033
:1028400025FC0C2201216B4802F054FEA2E000BFDF
:10285000002000906948037869A20021654803F0D0
:1028600015FC10220121634802F044FE92E0FEF7BD
:10287000BFF98FE0FEF7F2F98CE000F077F989E01C
:1028800000BF002000906048037860A200215948F2
:1028900003F0FCFB10220121564802F02BFE79E0E8
:1028A000FEF7DCF976E070E000F060F972E00120FC
:1028B000002358A2032100904E4803F0E7FB1022AA
:1028C00001214C4802F016FE4FF47A7002F0EEF946
:1028D00000F04CF95EE000BF4F490968C8694F49F4
:1028E000FDF741FD0646FDF79FFE85B200202B4611
:1028F0004BA2014600903F4803F0C8FB1022012183
:102900003C4802F0F7FD45E000BF43490968086A0A
:102910004249FDF728FD0646FDF786FE85B20020F8
:102920002B4640A201210090324803F0AFFB102259
:102930000121304802F0DEFD2CE000BF3649096875
:10294000486A3649FDF70FFD0646FDF76DFE85B274
:1029500000202B4634A202210090264803F096FB6B
:1029600010220121234802F0C5FD13E00020009051
:102970002E4803782EA204211E4803F087FB102264
:1029800001211C4802F0B6FD04E02BA0019901F0E2
:1029900009FB00BF00BF0AE70000002074687265F1
:1029A00061645F646973706C6179A3BA7461736BFD
:1029B00031BDE7C3E6B8FCD0C2B3C9B9A6A3A10A2A
:1029C000000000007468726561645F646973706C14
:1029D0006179A3BABBD8B5BD6D61696EBDE7C3E6C9
:1029E000B8FCD0C2B3C9B9A6A3A10A002800002030
:1029F0007069640094B200206F6B000040000020FA
:102A0000736574410000000041000020736574424A
:102A1000000000006F6B2100340000200000204106
:102A20004B7000004B6900004B6400004200002026
:102A30006E6F7774000000007468726561645F6493
:102A40006973706C6179A3BACFD4CABEB8FCD0C226
:102A5000B4EDCEF3A3ACB4EDCEF3616374696F6EE5
:102A60003A25640A0000000008B5002416E04FF083
:102A7000FF3269460A48006801F0D3FB044654B9A6
:102A800008A0009901F08EFA0098C1B20F480078B2
:102A900002F0D4FD02E00EA001F084FAE7E70000A6
:102AA000F80000207468726561645F6B6579686125
:102AB0006E646C65A3BACAD5B5BDB0B4BCFC3A258A
:102AC000642CBFAACABCB4A6C0ED0A001C0000203A
:102AD0007468726561645F6B657968616E646C656A
:102AE000A3BAB0B4BCFCBDD3CAD5CAA7B0DCA3A1FD
:102AF0000A00000070B505460B48006898B9002030
:102B0000FEF76AFC084908600846006858B10846A4
:102B100001680648006801F0FEFB044614B904A0F1
:102B200001F040FA00BF70BDF0000020F800002066
:102B300074696D65725F6B65797363616EA3BAB01A
:102B4000B4BCFCB7A2CBCDB3C9B9A6A3A10A0000FF
:102B500010B500F061F800F0F9FB00F0C3F900F0E7
:102B60003DF900F041FB002010BD000008B51D48F4
:102B7000FFF7BAFDFEF700FD012000231AA2194657
:102B80000090184803F082FA0120002318A20146A1
:102B90000090144803F07AFA0120034616A202219D
:102BA0000090104803F072FA0120022313A20321BF
:102BB00000900C4803F06AFA0120032310A20421BC
:102BC0000090084803F062FA012004230DA20521B9
:102BD0000090044803F05AFA0C220121014802F047
:102BE00089FC08BD94B200206D61696E0000000090
:102BF0006D656175000000007474310074743200FA
:102C0000746B3100746B320010B5044600F0CEFED8
:102C1000FFF79EFF10BD000010B50022114627A04F
:102C200001F042FD294908600846006810B128A05B
:102C300001F0B8F9002211462DA001F035FD304910
:102C400008600846006810B12EA001F0ABF9002220
:102C5000114634A001F028FD364908600846006896
:102C600010B135A001F09EF9002205213BA001F032
:102C7000AFFA3C4908600846006810B13AA001F07C
:102C800091F9002205213FA001F0A2FA4049086015
:102C90000846006810B13FA001F084F90022052128
:102CA00043A001F095FA454908600846006810B154
:102CB00043A001F077F9002010BD000073656D5F3F
:102CC00064656275675F75617274000008000020BA
:102CD00064656275675F75617274D0C5BAC5C1BF3E
:102CE000B4B4BDA8B3C9B9A6A3A10A0A00000000E4
:102CF00073656D5F63616D6572615F7561727400AC
:102D00000C00002063616D6572615F75617274D043
:102D1000C5BAC5C1BFB4B4BDA8B3C9B9A6A3A10AF9
:102D20000A00000073656D5F42616E7169755F74C2
:102D300061736B002C00002073656D5F42616E71E2
:102D400069755F7461736BD0C5BAC5C1BFB4B4BDDA
:102D5000A8B3C9B9A6A3A10A0A0000006D625F6BFF
:102D600065790000F8000020B0B4BCFCB4A6C0ED4A
:102D7000D3CACFE4B4B4BDA8B3C9B9A6A3A10A0A03
:102D8000000000006D625F646973706C617900001F
:102D9000000000206F6C6564CFD4CABED3CACFE4F4
:102DA000B4B4BDA8B3C9B9A6A3A10A0A0000000023
:102DB0006D625F6374726C417432340024000020D1
:102DC0006374726C41743234D3CACFE4B4B4BDA816
:102DD000B3C9B9A6A3A10A0A0000000010B54FF0BC
:102DE0007E5200214FF0804000F0F0FB2049086047
:102DF0000846006818B11FA001F0D4F802E023A033
:102E000001F0D0F84FF07E5200214FF0804000F0EA
:102E1000DDFB244908600846006818B122A001F0D3
:102E2000C1F802E026A001F0BDF82B48104909685E
:102E3000C8622A480E490968886229480C4909680D
:102E400008630A200A490968088123481549096866
:102E5000C8622248134909688862214811490968F3
:102E600008630A200F4909680881002010BD00008E
:102E700034000020B4B4BDA85049445F7374656544
:102E80007231B3C9B9A6A3A10A0A0000B4B4BDA89F
:102E90005049445F737465657231CAA7B0DCA3A161
:102EA0000A0A000038000020B4B4BDA85049445FAD
:102EB000737465657232B3C9B9A6A3A10A0A00008A
:102EC000B4B4BDA85049445F737465657232CAA733
:102ED000B0DCA3A10A0A00000000FA430000FAC314
:102EE0000000C8421CB5142006214FF400730022D4
:102EF000CDE90010414942A001F002FE45490860B9
:102F00000846006818B144A001F04CF802E04AA05D
:102F100001F048F8142003214FF400730022CDE99A
:102F200000104D494DA001F0EBFD514908600846E5
:102F3000006818B14FA001F035F802E055A001F08B
:102F400031F8142002210B020022CDE9001059496A
:102F500059A001F0D5FD5B4908600846006818B12A
:102F600059A001F01FF802E05EA001F01BF8142048
:102F700008218B010022CDE90010614961A001F018
:102F8000BFFD644908600846006818B162A001F0FE
:102F900009F802E066A001F005F814200A214FF4B8
:102FA00000730022CDE90010674968A001F0A8FD78
:102FB000684908600846006818B167A000F0F2FF91
:102FC00002E06CA000F0EEFF142007214FF4007324
:102FD0000022CDE900106E496EA001F091FD71490B
:102FE00008600846006818B16FA000F0DBFF02E03F
:102FF00075A000F0D7FF00201CBD000019270008B5
:1030000064656275675F7561727468616E646C6532
:10301000000000001000002064656275675F756144
:103020007274B4A6C0EDCFDFB3CCB4B4BDA8B3C93D
:10303000B9A6A3A10A0A000064656275675F75619D
:103040007274B4A6C0EDCFDFB3CCB4B4BDA8CAA728
:10305000B0DCA3A10A0A0000B926000863616D650F
:1030600072615F7561727468616E646C6500000006
:103070001400002063616D6572615F75617274B4E4
:10308000A6C0EDCFDFB3CCB4B4BDA8B3C9B9A6A375
:10309000A10A0A0063616D6572615F75617274B443
:1030A000A6C0EDCFDFB3CCB4B4BDA8CAA7B0DCA333
:1030B000A10A0A00692A00086B657968616E646C70
:1030C0006500000018000020B0B4BCFCB4A6C0ED40
:1030D000CFDFB3CCB4B4BDA8B3C9B9A6A3A10A0AC3
:1030E00000000000B0B4BCFCB4A6C0EDCFDFB3CC90
:1030F000B4B4BDA8CAA7B0DCA3A10A0A00000000AE
:10310000E15C00087461736B726561644154323430
:10311000000000002000002041543234CFDFB3CC47
:10312000B4B4BDA8B3C9B9A6A3A10A0A000000009F
:1031300041543234CFDFB3CCB4B4BDA8CAA7B0DC9D
:10314000A3A10A0A00000000A9270008646973709F
:103150006C61790004000020CFD4CABECBA2D0C2DB
:10316000CFDFB3CCB4B4BDA8B3C9B9A6A3A10A0A32
:1031700000000000CFD4CABECBA2D0C2CFDFB3CCF8
:10318000B4B4BDA8CAA7B0DCA3A10A0A000000001D
:10319000290D000842616E7169755F74687265611E
:1031A000640000003000002042616E7169755F7438
:1031B0006872656164CFDFB3CCB4B4BDA8B3C9B9DC
:1031C000A6A3A10A0A00000042616E7169755F74CE
:1031D0006872656164CFDFB3CCB4B4BDA8CAA7B0D0
:1031E000DCA3A10A0A00000010B52B48006838B122
:1031F0002948006801F0AAFD28A000F0D3FE02E0F3
:103200004FF0FF3010BD2C48006838B12A480068E4
:1032100001F09CFD29A000F0C5FE02E04FF0FF3058
:10322000F0E72D48006838B12B48006801F08EFDAA
:103230002AA000F0B7FE02E04FF0FF30E2E72E4890
:10324000006838B12C48006801F080FD2BA000F028
:10325000A9FE02E04FF0FF30D4E72E48006838B1F5
:103260002C48006801F072FD2BA000F09BFE02E0EC
:103270004FF0FF30C6E72E48006838B12C48006890
:1032800001F064FD2BA000F08DFE02E04FF0FF3056
:10329000B8E70020B6E70000100000206465627502
:1032A000675F75617274CFDFB3CCBFAACABCB5F7D4
:1032B000B6C8A3A10A0A00001400002063616D656E
:1032C00072615F75617274CFDFB3CCBFAACABCB53F
:1032D000F7B6C8A3A10A0A0018000020B0B4BCFCCD
:1032E000B4A6C0EDCFDFB3CCBFAACABCB5F7B6C891
:1032F000A3A10A0A0000000004000020CFD4CABE27
:10330000CFDFB3CCBFAACABCB5F7B6C8A3A10A0A1F
:10331000000000002000002041543234CFDFB3CC45
:10332000BFAACABCB5F7B6C8A3A10A0A000000002C
:1033300030000020B0E5C7F2CFDFB3CCBFAACABCD3
:10334000B5F7B6C8A3A10A0A0000000008B5062018
:10335000322300220949009009A001F01BFE0C490C
:1033600008600846006830B10846006801F062FE57
:1033700008A000F017FE002008BD0000F52A000894
:1033800074696D65725F6B65797363616E000000CF
:10339000F4000020B0B4BCFCC9A8C3E8B6A8CAB108
:1033A000C6F7C6F4B6AFB3C9B9A6A3A10A0A00000E
:1033B0000FB400B58FB001211798FEF783FB119869
:1033C000B0F5804F04D101211198FEF77BFB03E09B
:1033D00001211198FEF766FBBDF85800ADF83800E2
:1033E00018208DF83B0003208DF83A000EA915989F
:1033F000FDF7BEFDBDF85000ADF8380004208DF893
:103400003B000EA91398FDF7B3FD18980A90002011
:10341000ADF82C00ADF82E00ADF83000ADF834005A
:103420000C20ADF832000AA91098FEF7C1FF28223F
:1034300014A96846FCF712FF10A80FC802F086FD19
:10344000012240F224411098FEF78CFF0122402116
:103450001098FEF747FF01211098FEF737FF0FB0D5
:103460005DF814FB0FB400B58BB001210846FEF7E0
:1034700009FB1698009018490C98884202D11898B8
:10348000019001E01798019000200290BDF86400BF
:103490000390002004908020059000200690079063
:1034A000202008904FF44050099000200A9069466F
:1034B0001598FDF73EFD4FF48030FDF717FD012212
:1034C00008211598FDF72CFD01211598FDF71CFD2D
:1034D0000BB05DF814FB0000004400400FB410B5C1
:1034E000109C00210B98FDF70FFD4FF48030FDF785
:1034F000FDFCBDF83C000B99486001210B98FDF7DD
:1035000003FD204601F0F8F810BC5DF814FB10B57F
:103510000246012000E050430B1EA1F10104E1B27C
:10352000F9D110BD0178AA2911D1417855290ED1C0
:103530008178C2781144C9B20279914207D14179A8
:10354000542904D18178024A1180C1785180704792
:103550003C00002030B51A4C436824681919884291
:1035600015D04B889BB9174B1B6899420FD0164B4F
:103570001B688B4201D1144B18604B684360104BA1
:103580001B68C31A0E4D4C682D682C44A3600C4C6C
:10359000836824681A19824211D053887BB90A4B78
:1035A0001B68834201D1084B1A6043685360044B87
:1035B0001B68D31A024D44682D682C44A36030BDAB
:1035C0004C00002050000020540000202DE9F04164
:1035D00005460E4617465420FFF71CF8044614B95A
:1035E0000020BDE8F081E561266267620A48E0627A
:1035F0000A48A0620020206320646063A063E06347
:103600006064A064E064064860610648A061064802
:1036100020612046E5E7000000007A4400007AC4FB
:103620003B3600082D3600086536000810B5044604
:10363000204600F0F7F9002010BD10B504465422D2
:103640000021204600F0EBFE002010BD0246516232
:103650000020704702461162002070470246D16187
:10366000002070472DE9F04105460E462C4601F03A
:1036700019FC216D471A208901F004FC874202D20F
:103680000720BDE8F08101F00DFC2065314620687F
:10369000FCF763FE6064D4E91001FCF70CFE2064C3
:1036A000216B206CFDF70EF802D2206B20640BE03A
:1036B000206B80F000473846216CFDF703F803D2F9
:1036C000206B80F000402064616CE069FCF74BFEE9
:1036D0006063216C206AFCF746FEA063D4E9110107
:1036E000FCF73BFE0746616AFCF73DFEE063D4E968
:1036F0000D01FCF7E0FD0746E16BFCF7DCFDE06443
:10370000E16AE06CFCF7DEFF01D2E06AE064A16AE6
:10371000E06CFCF7CDFF01D2A06AE064606CA064AD
:10372000E06C60600020ACE72DE9F04F86B00D46FC
:103730009C46DDE9106401960F9B04F04008B8F147
:10374000000F02D0DFF8708101E0DFF87081CDF862
:10375000008004F01008B8F1000F01D024F001043B
:1037600004F00108B8F1000F02D04FF0300801E07A
:103770004FF02008C246002704F00208B8F1000FFD
:1037800011D0002A02DA2D2752420CE004F004087E
:10379000B8F1000F01D02B2705E004F00808B8F1BC
:1037A000000F00D02027002142B94FF0300B88468F
:1037B000491C0DF1080909F808B01DE01AE0E146BE
:1037C000B9F10A0F08D14FF00A0BB2FBFBFE0BFB5D
:1037D0001E28B2FBFBF202E002F00F08120900BF44
:1037E000DDF8009019F808B08846491C0DF1080969
:1037F00009F808B0002AE2D1B14200DD0E469B1B59
:1038000004F01108B8F1000F10D117B1002B00DD42
:103810005B1E06E0A84203D84FF0200880F8008025
:10382000401CB3F10008A3F10103F3DC27B1A84267
:1038300001D807705B1E401C04F01008B8F1000F9F
:103840000AD104E0A84201D880F800A0401CB3F1DE
:103850000008A3F10103F5DC06E0A84203D84FF00D
:10386000300880F80080401CB046761E8845F4DCA5
:1038700008E0A84205D80DF1080818F8018080F882
:103880000080401CB1F10008A1F1010104DDDDF868
:103890000480B8F1000FECD106E0A84203D84FF045
:1038A000200880F80080401CB3F10008A3F1010358
:1038B000F3DC06B0BDE8F08FD1610008C0610008FC
:1038C0000FB41FB50D9C4FF47A7090FBF4F080B2EA
:1038D000ADF83000BDF8300000EBD0714910ADF804
:1038E0002E10472003900AA807C88DE8070006A8F5
:1038F0000FC8FEF745F81FBC5DF814FB0FB410B5F8
:10390000099CBDF8200060434FF47A7190FBF1F000
:1039100080B2ADF81E00BDF81C0030B104280AD0FA
:1039200008280ED00C2818D111E0BDF81E100598FB
:10393000FEF70DFC12E0BDF81E100598FEF709FC1D
:103940000CE0BDF81E100598FEF705FC06E0BDF87A
:103950001E100598FEF701FC00E000BF00BF10BC80
:103960005DF814FB1CB5142001214B020022CDE9A7
:103970000010044904A001F0C3F80446204601F0F9
:10398000E5F91CBD092C00086D61696E000000009E
:1039900010B5044C02E020688047241D0248844290
:1039A000F9D310BD006A0008046A000810B5044C81
:1039B00002E020688047241D02488442F9D310BDEC
:1039C000046A0008086A000810B5FCF7BBFB04464F
:1039D00004480088401C00B2024908802046FCF7D9
:1039E000B5FB10BDB400002010B5FCF7ABFB0446DE
:1039F0000B480088401E00B2094908800846B0F90B
:103A00000000002807DC002008802046FCF79EFB11
:103A100000F0B0FD02E02046FCF798FB10BD00006E
:103A2000B400002070B5054605B970BD1D4800689A
:103A3000854203D31C480068854200D3F5E7A5F111
:103A40000C044FF0FF31194800F073FE608818B184
:103A50002088B0F5F55F08D015A000F0A3FA238800
:103A60006288214619A000F09DFA002060804FF482
:103A7000F550208021480068844201D21F4804602C
:103A8000084960680968611A401A1D490968081ADE
:103A90001B4908602046FFF75DFD044800F02CFE3E
:103AA00000BFC2E74C00002050000020B4A6002058
:103AB000746F2066726565206120626164206461B4
:103AC000746120626C6F636B3A0A00006D656D3A39
:103AD000203078253038782C207573656420666C2A
:103AE00061673A2025642C206D6167696320636FEC
:103AF00064653A203078253034780A00540000207C
:103B00005C00002000487047EC020020004870472D
:103B1000ECA200207FB54820FEF702F9FDF7F6FB86
:103B2000FDF74AFDFDF728FD30A200210846FDF70C
:103B3000CBFE02F027FA304908680021FEF7C6FBE9
:103B4000FCF7ECFE0120FEF77BFD4FF4FA702B4AE8
:103B50000390D2E904109269CDE90102009127484F
:103B60000FC8FFF7CBFE4FF4FA70254A03901032CE
:103B700007CA8DE8070022480FC8FFF7BFFE01F013
:103B8000EFFF204800684FF47A72B0FBF2F1B1F118
:103B9000807F00D31DE021F07F40401E4FF0E022E7
:103BA000506150170F22002807DA13071D0E164B1D
:103BB00000F00F04241F1D5503E013071C0E134BC8
:103BC0001C5400BF00204FF0E022906107201061DC
:103BD00000BFFFF7DDFEFFF799FF0446FFF792FFF6
:103BE0000546214600F09AFE7FBD000068656C6CBA
:103BF0006F206D63750000005CB2002094B300205C
:103C0000B0B30020D802002018ED00E000E400E08E
:103C100010B50446FFF7D8FE19E020780A280AD12B
:103C20000D210E48FEF735FC00BF80210B48FEF742
:103C300062FB0028F9D014F8011B0848FEF729FCA4
:103C400000BF80210548FEF756FB0028F9D02078F8
:103C50000028E2D1FFF7C8FE10BD00000038014087
:103C600070B505462C1D2E48006838B128462C49F1
:103C700009688847064606B970BD00BF29A0E16BF8
:103C800000F090F92BA0216A00F08CF92DA0616A58
:103C900000F088F92FA0A16A00F084F931A0E16A50
:103CA00000F080F933A0216800F07CF935A061684C
:103CB00000F078F937A0A16800F074F939A0E16844
:103CC00000F070F93BA0216900F06CF93DA061693A
:103CD00000F068F93FA0A16900F064F941A0E16932
:103CE00000F060F943A0216B00F05CF945A0616B26
:103CF00000F058F947A0A16B00F054F9287800F0C3
:103D0000040038B100F0FAFF0646314645A000F045
:103D100049F902E04BA000F045F900BFFEE70000C2
:103D2000EC0000207073723A203078253038780A21
:103D3000000000007230303A203078253038780AA0
:103D4000000000007230313A203078253038780A8F
:103D5000000000007230323A203078253038780A7E
:103D6000000000007230333A203078253038780A6D
:103D7000000000007230343A203078253038780A5C
:103D8000000000007230353A203078253038780A4B
:103D9000000000007230363A203078253038780A3A
:103DA000000000007230373A203078253038780A29
:103DB000000000007230383A203078253038780A18
:103DC000000000007230393A203078253038780A07
:103DD000000000007231303A203078253038780AFF
:103DE000000000007231313A203078253038780AEE
:103DF000000000007231323A203078253038780ADD
:103E000000000000206C723A203078253038780AA3
:103E1000000000002070633A203078253038780A9E
:103E20000000000068617264206661756C74206F28
:103E30006E207468726561643A2025730D0A0D0A5C
:103E40000000000068617264206661756C74206F08
:103E50006E2068616E646C65720D0A0D0A000000C8
:103E6000F0B504460D461646301D20F007004038D8
:103E70000146002203E00C4F41F82270521C102A28
:103E8000F9D30D624FF0000CC1F824C0C1F828C06E
:103E9000C1F82CC0C1F830C04B638C634FF0807CFC
:103EA000C1F83CC0F0BD0000EFBEADDE4FF0E02237
:103EB00052694FF47A73B2FBF3F250434FF0E022B1
:103EC000916900BF4FF0E02292698A1A8242F9D3C9
:103ED0007047000010B5FCF735F904460448007837
:103EE000401C034908702046FCF730F910BD000063
:103EF0004800002010B5FCF725F904460448007876
:103F0000401E034908702046FCF720F910BD000050
:103F10004800002070B504462068A0F1140528462A
:103F200000F0CEFE002070BD2DE9F04105460C46A4
:103F30009046204600F020FFB8F1000F03D0B8F102
:103F4000010F23D105E004F11401284600F060F8C8
:103F50001CE02E680FE0A6F1140794F8350097F8DE
:103F60003510884206DA04F1140107F1140000F05C
:103F70004FF802E03668AE42EDD100BFAE4204D148
:103F800004F11401284600F043F800BF00BF0020F0
:103F9000BDE8F08110B5044604F1140000F01AF8F1
:103FA000002010BD0FB438B505A800907F21084847
:103FB000009B049A01F0ECF804467F2C00D97F2482
:103FC0000348FFF725FE0020009038BC5DF814FB85
:103FD00034A6002040600060704740600060704779
:103FE0004060006070470268516002680A600160CA
:103FF000486070470268516002680A60016048606A
:1040000070470268516002680A600160486070474A
:104010004268116042684A6041600860704701462A
:104020000868884201D1012070470020FCE7014662
:104030000868884201D1012070470020FCE7D0E9E0
:1040400000215160D0E900121160406000607047AB
:10405000D0E900215160D0E9001211604060006099
:10406000704700002DE9F041054615B90020BDE874
:10407000F081E81C20F003054E480068854201D914
:104080000020F4E70C2D00D20C254FF0FF314A48F8
:1040900000F04FFB4948006849490968461A7EE02C
:1040A0004748006884196088002874D106F10C0024
:1040B0006168081AA8426ED306F10C006168091AFB
:1040C00005F11800814230D306F10C0000EB050821
:1040D0003B48006800EB08074FF4F550388000209B
:1040E000788060687860BE60C4F8048001206080D9
:1040F0003048796800680C30814205D030497868D2
:1041000009680844C0F808802E48016805F10C00D1
:1041100008442C4908602C4800680968884219D274
:10412000284800682849086014E00120608024497C
:1041300060680968611A401A2249096808442149DF
:104140000860214800680968884203D21D48006859
:104150001D4908604FF4F5502080184800688442DB
:1041600012D107E0154800684068154909680844FD
:104170001249086011480068408828B10F4800685B
:10418000124909688842EDD10B4800F0B5FA04F1F4
:104190000C006CE7FFE70A480068304446680548B1
:1041A0000068401BB0423FF67BAF034800F0A4FA22
:1041B00000205CE758000020B4A600205400002036
:1041C0004C0000205C000020600000205000002017
:1041D0002DE9F04105460E4617462946042000F019
:1041E00042F9044614B92046BDE8F08167722046C2
:1041F000FFF7D0FE2684218C8800FFF733FFE061B3
:10420000E06920B9204600F058F90020ECE70020D2
:104210006084A084E08404F12800FFF7DBFE2046E0
:10422000E2E72DE9F74304460E46002700F066FD5D
:104230000546FBF787FF8046608C38B9029828B99D
:104240004046FBF783FFB81EBDE8FE833AE000203E
:104250002863029830B94046FBF778FF6FF0010001
:104260002863F1E7627A294604F11400FFF75CFE47
:10427000029800280CDD00F015FE074602AA002176
:1042800005F14C0000F06AFE05F14C0000F0D2FE92
:104290004046FBF75BFF00F06DF9286B08B1286B17
:1042A000D2E7FBF74FFF8046029800280ADD00F0B6
:1042B000F9FDC71B0298C01B02900298002801DA82
:1042C00000200290608C0028C1D0E18CE06950F899
:1042D00021003060E08C401CE084E08C218C88421E
:1042E00001DB0020E084608C401E608404F1280023
:1042F000FFF795FE50B904F12800FFF70BFE40468A
:10430000FBF724FF00F036F900209DE74046FBF75D
:104310001DFF002098E770B504460D46002229468F
:10432000204600F001F870BD2DE9F74304460E4623
:10433000002700F0E3FC0546FBF704FF8046608C95
:10434000218C884207D1029828B94046FBF7FEFE2F
:10435000F81EBDE8FE8339E000202863029828B9E2
:104360004046FBF7F3FE6FF00200F2E7627A29465F
:1043700004F12800FFF7D8FD029800280CDD00F0BA
:1043800091FD074602AA002105F14C0000F0E6FD70
:1043900005F14C0000F04EFE4046FBF7D7FE00F062
:1043A000E9F8286B08B1286BD3E7FBF7CBFE804612
:1043B000029800280ADD00F075FDC71B0298C01B9B
:1043C00002900298002801DA00200290608C218C73
:1043D0008842C1D0A18CE06940F82160A08C401CCB
:1043E000A084A08C218C884201DB0020A084608CFA
:1043F000401C608404F11400FFF711FE50B904F171
:104400001400FFF787FD4046FBF7A0FE00F0B2F86E
:1044100000209EE74046FBF799FE002099E7F0B5A3
:104420000C460546E6B2042A15D300F0030797B9F7
:10443000014646EA062343EA034304E008C108C1F3
:1044400008C108C1103A102AF8D201E008C1121FB1
:10445000042AFBD20D4601E005F8016B171EA2F1FC
:104460000102F9D1F0BD2DE9F04106460F46304674
:1044700000F044F80546E868FFF7F4FD044614B977
:104480000020BDE8F08100212046EA68FFF7C7FF61
:1044900026720020607208223946204600F023FA76
:1044A000FBF750FE804604F10C01281DFFF79BFD31
:1044B0004046FBF74BFE2046E3E770B5044600207C
:1044C0002072FBF73FFE054604F10C00FFF7B7FD35
:1044D0002846FBF73BFE2046FFF7A4FA70BD70B5F7
:1044E000044600202072FBF72DFE054604F10C0067
:1044F000FFF7A5FD2846FBF729FE70BD0246002107
:104500000AE0074800EB01100078904203D104480C
:1045100000EB01107047491C0529F2DB0020F9E788
:10452000640000202DE9F04104460D461646284659
:10453000FFF7E4FF074645F080002072082231466D
:10454000204600F0D0F9FBF7FDFD804604F10C0198
:10455000381DFFF748FD4046FBF7F8FDBDE8F08148
:104560000146087A00F0800008B101207047002061
:10457000FCE700002DE9F041FBF7E4FD07461B488E
:10458000008868BB1A480068FDF78AFF461E194874
:1045900050F83600A0F114041748006884421BD07C
:1045A00016490E701448056804601548007848B92B
:1045B00004F11C0105F11C00FBF7CBFD3846FBF7AD
:1045C000C5FD0CE004F11C0105F11C00FBF7C1FD69
:1045D0003846FBF7BBFD02E03846FBF7B7FD02E0CB
:1045E0003846FBF7B3FDBDE8F0810000B4000020C1
:1045F000C0000020D4A60020B8000020BC0000208D
:104600004800002070B50446FBF79CFD054614F8F1
:10461000340F20F00F0040F0010020706278343C2D
:104620000A4B03EBC20004F11401426811604268B6
:104630004A604160086000BF0549A06B09680843F3
:10464000034908602846FBF781FD70BDD4A6002011
:10465000C000002070B50446FBF774FD054604F168
:104660001400D0E900215160D0E9001211604060CF
:10467000006000BF94F83510094A02EBC1000168E0
:10468000814201D1012100E0002129B10548A16B3F
:1046900000688843034908602846FBF757FD70BD52
:1046A000D4A60020C00000202DE9F04105460E46AA
:1046B000174629460120FFF7D6FE044614B92046C6
:1046C000BDE8F0812046FFF765FCA68367722046AF
:1046D000F6E72DE9F04104460D4616461F462A46E8
:1046E00001212046FFF71EFF2046FFF753FCA6835B
:1046F00067720020BDE8F08170B504460025FBF725
:1047000021FD064604F11400FFF789FC28B904F1E5
:104710001400FFF7FFFB012502E0A08B401CA083E3
:104720003046FBF713FD012D01D1FFF723FF0020D9
:1047300070BD73B50546FBF705FD0646A88B00283E
:1047400006DDA88B401EA8833046FBF7FFFC28E05F
:10475000019828B93046FBF7F9FC6FF001007CBDE9
:1047600000F0CCFA0446002020636A7A214605F165
:104770001400FFF7D9FB0198002809DD01AA0021E8
:1047800004F14C0000F0EAFB04F14C0000F052FC94
:104790003046FBF7DBFCFFF7EDFE206B08B1206B2A
:1047A000DDE70020DBE7000008B509A0FFF7FAFB12
:1047B0000AA0FFF7F7FB12A00223012203210090B9
:1047C00012A0FFF7EFFB19A0FFF7ECFB08BD0000FC
:1047D0000A205C207C202F0A000000002D2052546B
:1047E000202D2020202020546872656164204F70A5
:1047F00065726174696E672053797374656D0A0020
:10480000417567202033203230313900202F207C41
:10481000205C202020202025642E25642E25642065
:104820006275696C642025730A0000002032303004
:1048300036202D203230313920436F70797269670C
:1048400068742062792072742D74687265616420C6
:104850007465616D0A00000070B500F023FB064628
:10486000FFF7B2F81A4805682BE0A5F11404A06A16
:10487000301A6FF00041884222D22D682046FDF7A1
:10488000B2FEFFF7B1F8D4E90710884700F00AFB41
:104890000646FFF799F8607A00F0020058B1607A96
:1048A00000F0010038B1607A20F00100607220460B
:1048B00000F0C0FB05E0607A20F00100607200E0CB
:1048C00002E003488542D0D100BFFFF78DF870BDEC
:1048D000D400002001460A4600E0521C107800284F
:1048E000FBD1501A704770B50346A2B118460C466A
:1048F00000BF14F8016B00F8016B3EB902E000251F
:1049000000F8015B551E2A1EF9D102E0551E2A1E31
:10491000EFD100BF00BF184670BD00002DE9F04187
:1049200005460E46E81C20F0030726F00308B8F100
:10493000180F09D9A8F11800B84205D3A8EB070051
:1049400018381E49086006E0324629461CA0FFF7C9
:1049500029FBBDE8F0812948076004684FF4F55051
:104960002080164800680C3060600020A0606080E5
:104970002249606809680844214908604FF4F550ED
:104980000968088001201E49096848800B480068B2
:104990000C301B4909684860084800680C30184909
:1049A000096888600023012216A11848FFF791FECC
:1049B000124800681649086000BFCAE75800002086
:1049C0006D656D20696E69742C206572726F72203E
:1049D000626567696E206164647265737320307804
:1049E00025782C20616E6420656E64206164647299
:1049F00065737320307825780A0000004C00002091
:104A0000500000206865617000000000B4A600201E
:104A10005400002010B500200B490880002405E058
:104A20000A4901EBC400FFF7D8FA641C202CF7DB1D
:104A30001F200749087000200649086006490860E1
:104A40000648FFF7CAFA10BDB4000020D4A6002023
:104A5000BC000020B8000020C0000020C4000020DE
:104A600070B508480068FDF71BFD451E064850F864
:104A70003500A0F114040548046004F11C00FBF7A4
:104A800096FB70BDC0000020D4A60020B800002016
:104A900010B5002405E0044901EBC400FFF7A0FABB
:104AA000641C002CF7D010BDCC0000201FB50024E2
:104AB00005E00D4901EBC400FFF792FA641C002CDD
:104AC000F7D00A200421CA01084BCDE90032CDE914
:104AD00002100023064A07A1084800F0CDF8074855
:104AE00000F034F91FBD0000D400002054A80020BD
:104AF000DD4D000874696D6572000000D4A70020C8
:104B00002DE9FF5F06460F4690461D46DDE90EABD8
:104B100031460020FFF7A7FC8146B9F1000F03D111
:104B2000002004B0BDE8F09F2846FFF79BFA04463A
:104B300024B94846FFF7C1FC0020F2E743463A4655
:104B4000314648468DE8300CFDF7EAFC4846E8E778
:104B500010B50446204600F0D7F810BD70B51248D5
:104B60000468FBF7EFFA05462046FFF773FD0420C3
:104B700084F8340004F14C0000F027FA2046FFF7D7
:104B8000EFFC012805D1A06F18B92046FFF7A7FC5C
:104B900004E004F114010548FFF72CFA2846FBF75E
:104BA000D5FAFFF7E7FC70BDB8000020C400002074
:104BB00001E000F001F8FCE770B537E0FBF7C2FA5E
:104BC0000546FDF7A3FC18B31B480068A0F11404C8
:104BD00004F11400D0E900215160D0E90012116005
:104BE0004060006000BFFEF7EFFEA06F10B12046EE
:104BF000A16F88472046FFF7B3FC012805D1FEF7D7
:104C0000F3FE2846FBF7A2FA70BDFEF7EDFE03E0C7
:104C10002846FBF79BFAF7E72846FBF797FAA06AC6
:104C2000FEF700FF2046FFF748FC00BFFDF76EFCD3
:104C30000028C3D100BFE7E7C40000201FB5202033
:104C40001F21C200074BCDE90032CDE9021000233D
:104C5000054A06A1074800F00FF8064800F076F86C
:104C60001FBD000034A50020B14B00087469646CBE
:104C700065000000B4A400202DE9FF5F05460C4646
:104C800016461F46DDE910ABDDE90E8922460021FC
:104C90002846FFF747FC3B463246214628468DE82A
:104CA000000FFDF73DFC04B0BDE8F09F70B5044671
:104CB000204600F0E7F80546284600F025F870BDCC
:104CC00070B5044694F8340000F00F00022802D0BA
:104CD0004FF0FF3070BDFBF735FA054604F11400C4
:104CE000FFF7B6F904F14C0000F03AFA2846FBF75A
:104CF0002DFA2046FFF786FC0020EBE7014800680C
:104D000070470000B800002031B5FBF71BFA0546DC
:104D10000D480468204600F02FF86A46002104F18F
:104D20004C0000F01BF904F14C0000F083F9284618
:104D3000FBF70CFAFFF71EFC206B801C08B9002063
:104D40002063002038BD0000B800002010B50446E4
:104D50003434A0786070617801208840606002205F
:104D600004F834092046FFF7ABFFFFF7C7FF08B18F
:104D7000FFF700FC002010BD70B5044694F8340025
:104D800000F00F00012802D04FF0FF3070BDFBF79C
:104D9000D9F9054694F8340020F00F0040F00200E5
:104DA00084F834002046FFF755FC04F14C0000F075
:104DB000D7F92846FBF7CAF90020E7E770B50446A3
:104DC00025466FF00100286305F11400FFF740F954
:104DD0002846FFF717FCFFF7CDFB70BD1CE00F481E
:104DE00000F01AF90446601C38B9FFF787FF054642
:104DF000FFF7C2FFFFF7BEFB0CE000F053F80546DB
:104E0000601B6FF00041884203D2641B2046FFF70D
:104E10009FFE00BFFFF720FDE1E70000D400002067
:104E200070B5FBF78FF905461448046894F8340010
:104E300000F00F0001281CD1D4E90510814218D0E0
:104E400004F11400FFF704F994F835200C4B03EB40
:104E5000C20004F114014268116042684A60416076
:104E6000086000BF2846FBF771F9FFF783FB0020BD
:104E700070BD2846FBF76AF90020F9E7B80000206A
:104E8000D4A600200146002902DA4FF0FF3008E0E6
:104E90004FF47A724A4302F2E7324FF47A7392FB8C
:104EA000F3F070470148006870470000440000209C
:104EB00010B50A480068401C08490860FFF71EFF4B
:104EC0000446A06C401EA064A06C18B9606CA0647D
:104ED000FFF7A6FF00F004F810BD0000440000201A
:104EE00070B5FFF7DFFF0546FBF72CF9064628E013
:104EF00019480068A0F11404A06A281A6FF0004154
:104F000088421DD22046FDF76EFBD4E90710884782
:104F1000FFF7C8FF0546607A00F0020058B1607ADA
:104F200000F0010038B1607A20F001006072204684
:104F300000F080F805E0607A20F00100607200E087
:104F400004E00548FFF773F80028D1D000BF3046D1
:104F5000FBF7FCF870BD0000CC000020034649B10F
:104F6000012904D0022908D0032910D10AE0586A87
:104F700010600CE01068586209E0587A20F00200D6
:104F8000587204E0587A40F00200587200BF00BF27
:104F9000002070472DE9F84304460E461746984610
:104FA000DDF8209021460920FFF75DFA054615B986
:104FB0000020BDE8F88343463A4631462846CDF8FE
:104FC0000090FDF7EFFA2846F3E770B50446FBF7CB
:104FD000B9F805462046FDF706FB2846FBF7B6F86C
:104FE0002046FFF77CFA002070BD2DE9F843074604
:104FF0000C4615461E46DDE9088922460921384639
:10500000FFF790FA4346324629463846CDF80090DD
:10501000FDF7C8FABDE8F88370B504462046FFF7EF
:1050200006F810B14FF0FF3070BD2068A0F11405F4
:10503000A86AF9E72DE9F8430546FBF783F88046AF
:105040002846FDF7D0FA687A20F0010068724046E1
:10505000FBF77CF8FFF726FF696A0844A862FBF7B4
:1050600071F88046687A00F0040008B1384E00E01C
:10507000384E009600242AE019E05DF824201168DB
:10508000142202EBC402881A826AAB6AD21A00D1D7
:1050900008E0826AAB6AD21A6FF000439A4200D2EB
:1050A0000CE000BF5DF8240000684DF824005DF8B6
:1050B000240006EBC40149688842DED100BF2CB150
:1050C0005DF824000830611C4DF82100641C002CA0
:1050D000D2D021480068401C1F4908600846076874
:1050E00005F114010098FEF78CFF022412E007F08E
:1050F000030060B9C4F1010305F1140202EBC3011E
:10510000C4F101025DF82200FEF77BFF00E003E03E
:10511000BF08641C012CEAD900BF687A40F0010086
:1051200068724046FBF712F8687A00F0040058B144
:105130000A4890F8340000F00F00012804D0074816
:10514000FFF7BEFDFFF716FA0020BDE8F883000068
:10515000D4000020CC000020DC000020D4A70020D8
:1051600070B50446607A00F0010010B94FF0FF30CE
:1051700070BDFAF7E7FF05462046FDF734FA2846EA
:10518000FAF7E4FF607A20F0010060720020EFE798
:105190002DE9FF4F89B0804644460A984044461E98
:1051A000464504D24FF0FF36A6EB08000A906FE1A7
:1051B0000B980078252806D0B44202D80B980078C6
:1051C0002070641C61E1002526E00B98401C0B90C8
:1051D0000B9800782D2802D145F010051CE00B98A3
:1051E00000782B2802D145F0040515E00B980078D3
:1051F000202802D145F008050EE00B9800782328FE
:1052000002D145F0200507E00B980078302802D144
:1052100045F0010500E000E0D7E700BF4FF0FF37A1
:105220000B98007830380A2804D20BA800F0F2F965
:1052300007460EE00B9800782A280AD10B98401CEC
:105240000B900C9880C80C90002F02DA7F4245F03A
:1052500010054FF0FF390B9800782E281CD10B98C1
:10526000401C0B900B98007830380A2804D20BA809
:1052700000F0D0F981460AE00B9800782A2806D180
:105280000B98401C0B900C9850F8049B0C90B9F1B3
:10529000000F01DA4FF00009002004900B9800780D
:1052A000682803D00B9800786C2805D10B980078FB
:1052B00004900B98401C0B900A2005900B980078E6
:1052C0006F2875D00CDC632813D004DC252870D03F
:1052D00058286FD18DE064286DD06928F9D18FE00E
:1052E00070286AD0732825D0752878D07828F0D116
:1052F00082E005F0100040B904E0B44201D820205B
:105300002070641C781E071EF7DC0C9810F8041B34
:105310000C90C8B20790B44201D807982070641C62
:1053200004E0B44201D820202070641C781E071EBF
:10533000F7DCAAE00C98006806900C98001D0C9011
:10534000069808B95AA006900698FFF7C3FA834654
:10535000B9F1000F02DDCB4500DDCB4605F01000B2
:1053600048B904E0B44201D820202070641C3846BB
:105370007F1E5845F6DC002008900BE0B44202D8AE
:10538000069800782070641C0698401C06900898C7
:10539000401C089008985845F0DB04E0B44201D85E
:1053A00020202070641C38467F1E5845F6DC6CE0D7
:1053B0001CE015E028E022E0FFE7781C10B9082780
:1053C00045F00105CDE9007902950C9804C8102339
:1053D00031460C902046FEF7A7F9044655E012E04E
:1053E000B44201D825202070641C4EE008200590AE
:1053F0001DE045F0400500BF1020059017E000BFFC
:1054000045F0020500BF12E0B44201D8252020700B
:10541000641C0B98007830B1B44202D80B98007825
:105420002070641C02E00B98401E0B902DE000BF22
:1054300004986C2807D10C9850F804AB0C9005F038
:105440000200B8B116E0049868280BD10C9830F827
:10545000041B1FFA81FA0C9005F0020050B10FFAFC
:105460008AFA07E00C9850F804AB0C9005F00200A3
:1054700000B100BFCDE90079029552463146204681
:10548000059BFEF751F9044600BF0B98401C0B909A
:105490000B98007800287FF48BAEB44201D82070BE
:1054A00001E000203070A4EB08000DB0BDE8F08FE3
:1054B000284E554C4C2900000020704700207047B2
:1054C000002070470020704710B5FAF73BFEFEF74A
:1054D00021FBFFF769F9FFF7DBFAFFF79BFAFEF70D
:1054E00041FAFFF7E3FAFFF7A9FBFFF7B9FA00204B
:1054F00010BD00002DE9F8430646884617460025F2
:10550000102F04D1102042490870042503E00C201C
:105510003F4908700825B8F1000F03D0B8F1010F1A
:1055200072D125E0002420E0082090FBF5F06043D4
:1055300000F0FF09C4EBC40006EB4002494600201E
:10554000FCF7C2F9082090FBF5F0604300F0FF097A
:10555000C4EBC40006EB400000978289062349464D
:105560004020FCF76FF9601CC4B2AC42DCDB4CE0BD
:10557000002445E0082090FBF5F0604300F0FF09AF
:105580006000C0EBC00006EB400249460020FCF77B
:105590009BF9082090FBF5F0604300F0FF096000E4
:1055A000C0EBC00006EB4000009782890423494607
:1055B0002020FCF747F9082090FBF5F0604300F04D
:1055C000FF096000401CC0EBC00006EB40024946EA
:1055D0004020FCF779F9082090FBF5F0604300F0DB
:1055E000FF096000401CC0EBC00006EB40000097C4
:1055F0008289042349466020FCF724F9601CC4B268
:10560000AC42B7DB01E0FFE700BF00BFBDE8F883B5
:10561000BD0200200146002009E00B685A1C0A6008
:105620001A7800EB800302EB4302A2F130000A6813
:105630001278303A0A2AF0D3704700002DE9F0477B
:105640000446894604EB8400FE4901EB800000EB30
:10565000490040781B2870D2DFE800F00E0F2615B5
:105660002C3233342071704D7F986F6F72B1CAE362
:10567000FDFCFBFAF9F8F70039E20121F248006875
:10568000FEF749FE33E20321F0480068FEF743FECF
:105690000321ED480068FEF73EFE28E20821EA48B3
:1056A0000068FEF738FE22E20221E7480068FEF7B4
:1056B00032FE1CE20421E4480068FEF72CFE16E2EC
:1056C00000BF00BF04EB8400DE4A02EB800000EB69
:1056D00049004178DD480068FEF71DFE04EB8400B8
:1056E000D84A02EB800000EB49004178D6480068B8
:1056F000FEF711FEFBE1D64908680121FCF7E6FD43
:10570000D4480068FEF7F8FF04EB8400CD4A02EBB2
:10571000800000EB49004178CC480068FEF7FBFDB3
:1057200004EB8400C74A02EB800000EB490041789B
:10573000C5480068FEF7EFFDD9E1CCE100BF00BF2E
:1057400004EB8400BF4A02EB800000EB4900417883
:10575000BD480068FEF7DFFDC9E1BF480078401C86
:10576000BD490870BD48097800EB8101BC48096853
:10577000016004EB8400B34A02EB800000EB4900B7
:105780004178B1480068FEF7C6FDB0E1B248007844
:10579000401EB1490870B148097800EB8101B0485A
:1057A0000968016004EB8400A64A02EB800000EB6C
:1057B00049004178A4480068FEF7ADFD97E1A9488B
:1057C0000078401CA7490870A448097800EB8101C3
:1057D000A3480968416004EB84009A4A02EB800008
:1057E00000EB4900417898480068FEF794FD7EE19F
:1057F0009C480078401E9B4908709848097800EB47
:10580000810197480968416004EB84008D4A02EBEE
:10581000800000EB490041788B480068FEF77BFD73
:1058200065E18B4908680021FCF750FD4FF0FF311E
:1058300088480068FEF77DFF132184480068FEF762
:105840006AFD13218048006806E02BE1E3E0B6E042
:1058500089E05CE02FE002E0FEF75DFD47E1824970
:105860000968C869FAF7F4FE0746804A804BFAF7E0
:10587000ACFD0546FAF7FFFE824651467A480068BD
:10588000FDF7ECFE7B490968C869FAF7E1FE0746B7
:10589000764A774BFAF799FD0546FAF7ECFE824611
:1058A000514674480068FDF7D9FE14216648006827
:1058B000FEF731FD1BE16C490968C869FAF7C8FEBB
:1058C00007466A4A6A4BFAF721FE0546FAF7D3FE05
:1058D0008246514664480068FDF7C0FE6549096884
:1058E000C869FAF7B5FE0746604A614BFAF70EFE43
:1058F0000546FAF7C0FE824651465E480068FDF74D
:10590000ADFE152150480068FEF705FDEFE0564951
:105910000968086AFAF79CFE0746544A544BFAF79E
:1059200054FD0546FAF7A7FE824651464E480068E8
:10593000FDF790FE4F490968086AFAF789FE0746A5
:105940004A4A4B4BFAF741FD0546FAF794FE824668
:10595000514648480068FDF77DFE16213A48006828
:10596000FEF7D9FCC3E040490968086AFAF770FEFF
:1059700007463E4A3E4BFAF7C9FD0546FAF77BFE5D
:105980008246514638480068FDF764FE3949096887
:10599000086AFAF75DFE0746344A354BFAF7B6FD5A
:1059A0000546FAF768FE8246514632480068FDF720
:1059B00051FE172124480068FEF7ADFC97E02A4904
:1059C0000968486AFAF744FE0746284A284BFAF75E
:1059D000FCFC0546FAF74FFE824651462248006815
:1059E000FDF734FE23490968486AFAF731FE054697
:1059F0001E4A1F4BFAF7E9FC0746FAF73CFE8246BF
:105A000051461C480068FDF721FE18210E48006829
:105A1000FEF781FC6BE014490968486AFAF718FE42
:105A20000746124A124BFAF771FD0546FAF723FEB4
:105A3000824651460C480068FDF708FE0D4909688A
:105A4000486A19E0ECA20020000000202400002099
:105A50005CB200202C000020400000207CA400202C
:105A6000A4A4002041000020340000209A999999B4
:105A70009999B93F38000020FAF7EAFD0746294A0C
:105A8000294BFAF743FD0546FAF7F5FD82465146E4
:105A900026480068FDF7DAFD192125480068FEF761
:105AA0003AFC24E0234924480078401C31F82000C7
:105AB00058B121480078401C01EB8000408820B19B
:105AC0001D480078401C1C4908701A2118480068BD
:105AD000FEF721FC0BE004EB8400184A02EB800087
